{
	"contracts/Twitter.sol": {
		"Twitter": {
			"abi": [
				{
					"inputs": [],
					"stateMutability": "nonpayable",
					"type": "constructor"
				},
				{
					"inputs": [
						{
							"internalType": "uint16",
							"name": "newTweetLength",
							"type": "uint16"
						}
					],
					"name": "changeTweetLength",
					"outputs": [],
					"stateMutability": "nonpayable",
					"type": "function"
				},
				{
					"inputs": [
						{
							"internalType": "string",
							"name": "_tweet",
							"type": "string"
						}
					],
					"name": "createTweet",
					"outputs": [],
					"stateMutability": "nonpayable",
					"type": "function"
				},
				{
					"inputs": [],
					"name": "getAllTweets",
					"outputs": [
						{
							"components": [
								{
									"internalType": "uint256",
									"name": "id",
									"type": "uint256"
								},
								{
									"internalType": "address",
									"name": "author",
									"type": "address"
								},
								{
									"internalType": "string",
									"name": "content",
									"type": "string"
								},
								{
									"internalType": "uint256",
									"name": "timestamp",
									"type": "uint256"
								},
								{
									"internalType": "uint256",
									"name": "likes",
									"type": "uint256"
								}
							],
							"internalType": "struct Twitter.Tweet[]",
							"name": "",
							"type": "tuple[]"
						}
					],
					"stateMutability": "view",
					"type": "function"
				},
				{
					"inputs": [
						{
							"internalType": "uint256",
							"name": "_i",
							"type": "uint256"
						}
					],
					"name": "getTweet",
					"outputs": [
						{
							"internalType": "string",
							"name": "",
							"type": "string"
						}
					],
					"stateMutability": "view",
					"type": "function"
				},
				{
					"inputs": [
						{
							"internalType": "address",
							"name": "_author",
							"type": "address"
						},
						{
							"internalType": "uint256",
							"name": "_id",
							"type": "uint256"
						}
					],
					"name": "likeTweet",
					"outputs": [],
					"stateMutability": "nonpayable",
					"type": "function"
				},
				{
					"inputs": [
						{
							"internalType": "address",
							"name": "_author",
							"type": "address"
						},
						{
							"internalType": "uint256",
							"name": "_id",
							"type": "uint256"
						}
					],
					"name": "unlikeTweet",
					"outputs": [],
					"stateMutability": "nonpayable",
					"type": "function"
				}
			],
			"devdoc": {
				"kind": "dev",
				"methods": {},
				"version": 1
			},
			"evm": {
				"assembly": "    /* \"contracts/Twitter.sol\":59:1691  contract Twitter {... */\n  mstore(0x40, 0x80)\n    /* \"contracts/Twitter.sol\":109:112  280 */\n  0x0118\n    /* \"contracts/Twitter.sol\":83:112  uint16 MAX_TWEET_LENGTH = 280 */\n  0x00\n  dup1\n  0x0100\n  exp\n  dup2\n  sload\n  dup2\n  0xffff\n  mul\n  not\n  and\n  swap1\n  dup4\n  0xffff\n  and\n  mul\n  or\n  swap1\n  sstore\n  pop\n    /* \"contracts/Twitter.sol\":323:372  constructor() {... */\n  callvalue\n  dup1\n  iszero\n  tag_1\n  jumpi\n  0x00\n  dup1\n  revert\ntag_1:\n  pop\n    /* \"contracts/Twitter.sol\":355:365  msg.sender */\n  caller\n    /* \"contracts/Twitter.sol\":347:352  owner */\n  0x02\n  0x00\n    /* \"contracts/Twitter.sol\":347:365  owner = msg.sender */\n  0x0100\n  exp\n  dup2\n  sload\n  dup2\n  0xffffffffffffffffffffffffffffffffffffffff\n  mul\n  not\n  and\n  swap1\n  dup4\n  0xffffffffffffffffffffffffffffffffffffffff\n  and\n  mul\n  or\n  swap1\n  sstore\n  pop\n    /* \"contracts/Twitter.sol\":59:1691  contract Twitter {... */\n  dataSize(sub_0)\n  dup1\n  dataOffset(sub_0)\n  0x00\n  codecopy\n  0x00\n  return\nstop\n\nsub_0: assembly {\n        /* \"contracts/Twitter.sol\":59:1691  contract Twitter {... */\n      mstore(0x40, 0x80)\n      callvalue\n      dup1\n      iszero\n      tag_1\n      jumpi\n      0x00\n      dup1\n      revert\n    tag_1:\n      pop\n      jumpi(tag_2, lt(calldatasize, 0x04))\n      shr(0xe0, calldataload(0x00))\n      dup1\n      0x3d9b569f\n      eq\n      tag_3\n      jumpi\n      dup1\n      0x53256135\n      eq\n      tag_4\n      jumpi\n      dup1\n      0x58bfa4ab\n      eq\n      tag_5\n      jumpi\n      dup1\n      0x63378216\n      eq\n      tag_6\n      jumpi\n      dup1\n      0x7c9cd2bc\n      eq\n      tag_7\n      jumpi\n      dup1\n      0xc3ad5ecb\n      eq\n      tag_8\n      jumpi\n    tag_2:\n      0x00\n      dup1\n      revert\n        /* \"contracts/Twitter.sol\":1199:1459  function unlikeTweet(address _author, uint256 _id) external {... */\n    tag_3:\n      tag_9\n      0x04\n      dup1\n      calldatasize\n      sub\n      dup2\n      add\n      swap1\n      tag_10\n      swap2\n      swap1\n      tag_11\n      jump\t// in\n    tag_10:\n      tag_12\n      jump\t// in\n    tag_9:\n      stop\n        /* \"contracts/Twitter.sol\":1587:1689  function getAllTweets() public view returns(Tweet[] memory) {... */\n    tag_4:\n      tag_13\n      tag_14\n      jump\t// in\n    tag_13:\n      mload(0x40)\n      tag_15\n      swap2\n      swap1\n      tag_16\n      jump\t// in\n    tag_15:\n      mload(0x40)\n      dup1\n      swap2\n      sub\n      swap1\n      return\n        /* \"contracts/Twitter.sol\":487:604  function changeTweetLength(uint16 newTweetLength) public onlyOwner {... */\n    tag_5:\n      tag_17\n      0x04\n      dup1\n      calldatasize\n      sub\n      dup2\n      add\n      swap1\n      tag_18\n      swap2\n      swap1\n      tag_19\n      jump\t// in\n    tag_18:\n      tag_20\n      jump\t// in\n    tag_17:\n      stop\n        /* \"contracts/Twitter.sol\":1016:1193  function likeTweet(address _author, uint256 _id) external {... */\n    tag_6:\n      tag_21\n      0x04\n      dup1\n      calldatasize\n      sub\n      dup2\n      add\n      swap1\n      tag_22\n      swap2\n      swap1\n      tag_11\n      jump\t// in\n    tag_22:\n      tag_23\n      jump\t// in\n    tag_21:\n      stop\n        /* \"contracts/Twitter.sol\":610:1010  function createTweet(string memory _tweet) public {... */\n    tag_7:\n      tag_24\n      0x04\n      dup1\n      calldatasize\n      sub\n      dup2\n      add\n      swap1\n      tag_25\n      swap2\n      swap1\n      tag_26\n      jump\t// in\n    tag_25:\n      tag_27\n      jump\t// in\n    tag_24:\n      stop\n        /* \"contracts/Twitter.sol\":1465:1581  function getTweet(uint _i) public view returns(string memory) {... */\n    tag_8:\n      tag_28\n      0x04\n      dup1\n      calldatasize\n      sub\n      dup2\n      add\n      swap1\n      tag_29\n      swap2\n      swap1\n      tag_30\n      jump\t// in\n    tag_29:\n      tag_31\n      jump\t// in\n    tag_28:\n      mload(0x40)\n      tag_32\n      swap2\n      swap1\n      tag_33\n      jump\t// in\n    tag_32:\n      mload(0x40)\n      dup1\n      swap2\n      sub\n      swap1\n      return\n        /* \"contracts/Twitter.sol\":1199:1459  function unlikeTweet(address _author, uint256 _id) external {... */\n    tag_12:\n        /* \"contracts/Twitter.sol\":1304:1307  _id */\n      dup1\n        /* \"contracts/Twitter.sol\":1277:1283  tweets */\n      0x01\n        /* \"contracts/Twitter.sol\":1277:1292  tweets[_author] */\n      0x00\n        /* \"contracts/Twitter.sol\":1284:1291  _author */\n      dup5\n        /* \"contracts/Twitter.sol\":1277:1292  tweets[_author] */\n      0xffffffffffffffffffffffffffffffffffffffff\n      and\n      0xffffffffffffffffffffffffffffffffffffffff\n      and\n      dup2\n      mstore\n      0x20\n      add\n      swap1\n      dup2\n      mstore\n      0x20\n      add\n      0x00\n      keccak256\n        /* \"contracts/Twitter.sol\":1293:1296  _id */\n      dup3\n        /* \"contracts/Twitter.sol\":1277:1297  tweets[_author][_id] */\n      dup2\n      sload\n      dup2\n      lt\n      tag_35\n      jumpi\n      tag_36\n      tag_37\n      jump\t// in\n    tag_36:\n    tag_35:\n      swap1\n      0x00\n      mstore\n      keccak256(0x00, 0x20)\n      swap1\n      0x05\n      mul\n      add\n        /* \"contracts/Twitter.sol\":1277:1300  tweets[_author][_id].id */\n      0x00\n      add\n      sload\n        /* \"contracts/Twitter.sol\":1277:1307  tweets[_author][_id].id == _id */\n      eq\n        /* \"contracts/Twitter.sol\":1269:1332  require(tweets[_author][_id].id == _id, \"Tweet does not exist\") */\n      tag_39\n      jumpi\n      mload(0x40)\n      0x08c379a000000000000000000000000000000000000000000000000000000000\n      dup2\n      mstore\n      0x04\n      add\n      tag_40\n      swap1\n      tag_41\n      jump\t// in\n    tag_40:\n      mload(0x40)\n      dup1\n      swap2\n      sub\n      swap1\n      revert\n    tag_39:\n        /* \"contracts/Twitter.sol\":1379:1380  0 */\n      0x00\n        /* \"contracts/Twitter.sol\":1350:1356  tweets */\n      0x01\n        /* \"contracts/Twitter.sol\":1350:1365  tweets[_author] */\n      0x00\n        /* \"contracts/Twitter.sol\":1357:1364  _author */\n      dup5\n        /* \"contracts/Twitter.sol\":1350:1365  tweets[_author] */\n      0xffffffffffffffffffffffffffffffffffffffff\n      and\n      0xffffffffffffffffffffffffffffffffffffffff\n      and\n      dup2\n      mstore\n      0x20\n      add\n      swap1\n      dup2\n      mstore\n      0x20\n      add\n      0x00\n      keccak256\n        /* \"contracts/Twitter.sol\":1366:1369  _id */\n      dup3\n        /* \"contracts/Twitter.sol\":1350:1370  tweets[_author][_id] */\n      dup2\n      sload\n      dup2\n      lt\n      tag_42\n      jumpi\n      tag_43\n      tag_37\n      jump\t// in\n    tag_43:\n    tag_42:\n      swap1\n      0x00\n      mstore\n      keccak256(0x00, 0x20)\n      swap1\n      0x05\n      mul\n      add\n        /* \"contracts/Twitter.sol\":1350:1376  tweets[_author][_id].likes */\n      0x04\n      add\n      sload\n        /* \"contracts/Twitter.sol\":1350:1380  tweets[_author][_id].likes > 0 */\n      gt\n        /* \"contracts/Twitter.sol\":1342:1413  require(tweets[_author][_id].likes > 0, \"Tweet doesn't have any likes\") */\n      tag_45\n      jumpi\n      mload(0x40)\n      0x08c379a000000000000000000000000000000000000000000000000000000000\n      dup2\n      mstore\n      0x04\n      add\n      tag_46\n      swap1\n      tag_47\n      jump\t// in\n    tag_46:\n      mload(0x40)\n      dup1\n      swap2\n      sub\n      swap1\n      revert\n    tag_45:\n        /* \"contracts/Twitter.sol\":1424:1430  tweets */\n      0x01\n        /* \"contracts/Twitter.sol\":1424:1439  tweets[_author] */\n      0x00\n        /* \"contracts/Twitter.sol\":1431:1438  _author */\n      dup4\n        /* \"contracts/Twitter.sol\":1424:1439  tweets[_author] */\n      0xffffffffffffffffffffffffffffffffffffffff\n      and\n      0xffffffffffffffffffffffffffffffffffffffff\n      and\n      dup2\n      mstore\n      0x20\n      add\n      swap1\n      dup2\n      mstore\n      0x20\n      add\n      0x00\n      keccak256\n        /* \"contracts/Twitter.sol\":1440:1443  _id */\n      dup2\n        /* \"contracts/Twitter.sol\":1424:1444  tweets[_author][_id] */\n      dup2\n      sload\n      dup2\n      lt\n      tag_48\n      jumpi\n      tag_49\n      tag_37\n      jump\t// in\n    tag_49:\n    tag_48:\n      swap1\n      0x00\n      mstore\n      keccak256(0x00, 0x20)\n      swap1\n      0x05\n      mul\n      add\n        /* \"contracts/Twitter.sol\":1424:1450  tweets[_author][_id].likes */\n      0x04\n      add\n      0x00\n        /* \"contracts/Twitter.sol\":1424:1452  tweets[_author][_id].likes-- */\n      dup2\n      sload\n      dup1\n      swap3\n      swap2\n      swap1\n      tag_51\n      swap1\n      tag_52\n      jump\t// in\n    tag_51:\n      swap2\n      swap1\n      pop\n      sstore\n      pop\n        /* \"contracts/Twitter.sol\":1199:1459  function unlikeTweet(address _author, uint256 _id) external {... */\n      pop\n      pop\n      jump\t// out\n        /* \"contracts/Twitter.sol\":1587:1689  function getAllTweets() public view returns(Tweet[] memory) {... */\n    tag_14:\n        /* \"contracts/Twitter.sol\":1631:1645  Tweet[] memory */\n      0x60\n        /* \"contracts/Twitter.sol\":1664:1670  tweets */\n      0x01\n        /* \"contracts/Twitter.sol\":1664:1682  tweets[msg.sender] */\n      0x00\n        /* \"contracts/Twitter.sol\":1671:1681  msg.sender */\n      caller\n        /* \"contracts/Twitter.sol\":1664:1682  tweets[msg.sender] */\n      0xffffffffffffffffffffffffffffffffffffffff\n      and\n      0xffffffffffffffffffffffffffffffffffffffff\n      and\n      dup2\n      mstore\n      0x20\n      add\n      swap1\n      dup2\n      mstore\n      0x20\n      add\n      0x00\n      keccak256\n        /* \"contracts/Twitter.sol\":1657:1682  return tweets[msg.sender] */\n      dup1\n      sload\n      dup1\n      0x20\n      mul\n      0x20\n      add\n      mload(0x40)\n      swap1\n      dup2\n      add\n      0x40\n      mstore\n      dup1\n      swap3\n      swap2\n      swap1\n      dup2\n      dup2\n      mstore\n      0x20\n      add\n      0x00\n      swap1\n    tag_54:\n      dup3\n      dup3\n      lt\n      iszero\n      tag_55\n      jumpi\n      dup4\n      dup3\n      swap1\n      0x00\n      mstore\n      keccak256(0x00, 0x20)\n      swap1\n      0x05\n      mul\n      add\n      mload(0x40)\n      dup1\n      0xa0\n      add\n      0x40\n      mstore\n      swap1\n      dup2\n      0x00\n      dup3\n      add\n      sload\n      dup2\n      mstore\n      0x20\n      add\n      0x01\n      dup3\n      add\n      0x00\n      swap1\n      sload\n      swap1\n      0x0100\n      exp\n      swap1\n      div\n      0xffffffffffffffffffffffffffffffffffffffff\n      and\n      0xffffffffffffffffffffffffffffffffffffffff\n      and\n      0xffffffffffffffffffffffffffffffffffffffff\n      and\n      dup2\n      mstore\n      0x20\n      add\n      0x02\n      dup3\n      add\n      dup1\n      sload\n      tag_57\n      swap1\n      tag_58\n      jump\t// in\n    tag_57:\n      dup1\n      0x1f\n      add\n      0x20\n      dup1\n      swap2\n      div\n      mul\n      0x20\n      add\n      mload(0x40)\n      swap1\n      dup2\n      add\n      0x40\n      mstore\n      dup1\n      swap3\n      swap2\n      swap1\n      dup2\n      dup2\n      mstore\n      0x20\n      add\n      dup3\n      dup1\n      sload\n      tag_59\n      swap1\n      tag_58\n      jump\t// in\n    tag_59:\n      dup1\n      iszero\n      tag_60\n      jumpi\n      dup1\n      0x1f\n      lt\n      tag_61\n      jumpi\n      0x0100\n      dup1\n      dup4\n      sload\n      div\n      mul\n      dup4\n      mstore\n      swap2\n      0x20\n      add\n      swap2\n      jump(tag_60)\n    tag_61:\n      dup3\n      add\n      swap2\n      swap1\n      0x00\n      mstore\n      keccak256(0x00, 0x20)\n      swap1\n    tag_62:\n      dup2\n      sload\n      dup2\n      mstore\n      swap1\n      0x01\n      add\n      swap1\n      0x20\n      add\n      dup1\n      dup4\n      gt\n      tag_62\n      jumpi\n      dup3\n      swap1\n      sub\n      0x1f\n      and\n      dup3\n      add\n      swap2\n    tag_60:\n      pop\n      pop\n      pop\n      pop\n      pop\n      dup2\n      mstore\n      0x20\n      add\n      0x03\n      dup3\n      add\n      sload\n      dup2\n      mstore\n      0x20\n      add\n      0x04\n      dup3\n      add\n      sload\n      dup2\n      mstore\n      pop\n      pop\n      dup2\n      mstore\n      0x20\n      add\n      swap1\n      0x01\n      add\n      swap1\n      jump(tag_54)\n    tag_55:\n      pop\n      pop\n      pop\n      pop\n      swap1\n      pop\n        /* \"contracts/Twitter.sol\":1587:1689  function getAllTweets() public view returns(Tweet[] memory) {... */\n      swap1\n      jump\t// out\n        /* \"contracts/Twitter.sol\":487:604  function changeTweetLength(uint16 newTweetLength) public onlyOwner {... */\n    tag_20:\n        /* \"contracts/Twitter.sol\":431:436  owner */\n      0x02\n      0x00\n      swap1\n      sload\n      swap1\n      0x0100\n      exp\n      swap1\n      div\n      0xffffffffffffffffffffffffffffffffffffffff\n      and\n        /* \"contracts/Twitter.sol\":417:436  msg.sender == owner */\n      0xffffffffffffffffffffffffffffffffffffffff\n      and\n        /* \"contracts/Twitter.sol\":417:427  msg.sender */\n      caller\n        /* \"contracts/Twitter.sol\":417:436  msg.sender == owner */\n      0xffffffffffffffffffffffffffffffffffffffff\n      and\n      eq\n        /* \"contracts/Twitter.sol\":409:463  require(msg.sender == owner, \"You are not the owner!\") */\n      tag_64\n      jumpi\n      mload(0x40)\n      0x08c379a000000000000000000000000000000000000000000000000000000000\n      dup2\n      mstore\n      0x04\n      add\n      tag_65\n      swap1\n      tag_66\n      jump\t// in\n    tag_65:\n      mload(0x40)\n      dup1\n      swap2\n      sub\n      swap1\n      revert\n    tag_64:\n        /* \"contracts/Twitter.sol\":583:597  newTweetLength */\n      dup1\n        /* \"contracts/Twitter.sol\":564:580  MAX_TWEET_LENGTH */\n      0x00\n      dup1\n        /* \"contracts/Twitter.sol\":564:597  MAX_TWEET_LENGTH = newTweetLength */\n      0x0100\n      exp\n      dup2\n      sload\n      dup2\n      0xffff\n      mul\n      not\n      and\n      swap1\n      dup4\n      0xffff\n      and\n      mul\n      or\n      swap1\n      sstore\n      pop\n        /* \"contracts/Twitter.sol\":487:604  function changeTweetLength(uint16 newTweetLength) public onlyOwner {... */\n      pop\n      jump\t// out\n        /* \"contracts/Twitter.sol\":1016:1193  function likeTweet(address _author, uint256 _id) external {... */\n    tag_23:\n        /* \"contracts/Twitter.sol\":1119:1122  _id */\n      dup1\n        /* \"contracts/Twitter.sol\":1092:1098  tweets */\n      0x01\n        /* \"contracts/Twitter.sol\":1092:1107  tweets[_author] */\n      0x00\n        /* \"contracts/Twitter.sol\":1099:1106  _author */\n      dup5\n        /* \"contracts/Twitter.sol\":1092:1107  tweets[_author] */\n      0xffffffffffffffffffffffffffffffffffffffff\n      and\n      0xffffffffffffffffffffffffffffffffffffffff\n      and\n      dup2\n      mstore\n      0x20\n      add\n      swap1\n      dup2\n      mstore\n      0x20\n      add\n      0x00\n      keccak256\n        /* \"contracts/Twitter.sol\":1108:1111  _id */\n      dup3\n        /* \"contracts/Twitter.sol\":1092:1112  tweets[_author][_id] */\n      dup2\n      sload\n      dup2\n      lt\n      tag_69\n      jumpi\n      tag_70\n      tag_37\n      jump\t// in\n    tag_70:\n    tag_69:\n      swap1\n      0x00\n      mstore\n      keccak256(0x00, 0x20)\n      swap1\n      0x05\n      mul\n      add\n        /* \"contracts/Twitter.sol\":1092:1115  tweets[_author][_id].id */\n      0x00\n      add\n      sload\n        /* \"contracts/Twitter.sol\":1092:1122  tweets[_author][_id].id == _id */\n      eq\n        /* \"contracts/Twitter.sol\":1084:1147  require(tweets[_author][_id].id == _id, \"Tweet does not exist\") */\n      tag_72\n      jumpi\n      mload(0x40)\n      0x08c379a000000000000000000000000000000000000000000000000000000000\n      dup2\n      mstore\n      0x04\n      add\n      tag_73\n      swap1\n      tag_41\n      jump\t// in\n    tag_73:\n      mload(0x40)\n      dup1\n      swap2\n      sub\n      swap1\n      revert\n    tag_72:\n        /* \"contracts/Twitter.sol\":1158:1164  tweets */\n      0x01\n        /* \"contracts/Twitter.sol\":1158:1173  tweets[_author] */\n      0x00\n        /* \"contracts/Twitter.sol\":1165:1172  _author */\n      dup4\n        /* \"contracts/Twitter.sol\":1158:1173  tweets[_author] */\n      0xffffffffffffffffffffffffffffffffffffffff\n      and\n      0xffffffffffffffffffffffffffffffffffffffff\n      and\n      dup2\n      mstore\n      0x20\n      add\n      swap1\n      dup2\n      mstore\n      0x20\n      add\n      0x00\n      keccak256\n        /* \"contracts/Twitter.sol\":1174:1177  _id */\n      dup2\n        /* \"contracts/Twitter.sol\":1158:1178  tweets[_author][_id] */\n      dup2\n      sload\n      dup2\n      lt\n      tag_74\n      jumpi\n      tag_75\n      tag_37\n      jump\t// in\n    tag_75:\n    tag_74:\n      swap1\n      0x00\n      mstore\n      keccak256(0x00, 0x20)\n      swap1\n      0x05\n      mul\n      add\n        /* \"contracts/Twitter.sol\":1158:1184  tweets[_author][_id].likes */\n      0x04\n      add\n      0x00\n        /* \"contracts/Twitter.sol\":1158:1186  tweets[_author][_id].likes++ */\n      dup2\n      sload\n      dup1\n      swap3\n      swap2\n      swap1\n      tag_77\n      swap1\n      tag_78\n      jump\t// in\n    tag_77:\n      swap2\n      swap1\n      pop\n      sstore\n      pop\n        /* \"contracts/Twitter.sol\":1016:1193  function likeTweet(address _author, uint256 _id) external {... */\n      pop\n      pop\n      jump\t// out\n        /* \"contracts/Twitter.sol\":610:1010  function createTweet(string memory _tweet) public {... */\n    tag_27:\n        /* \"contracts/Twitter.sol\":702:718  MAX_TWEET_LENGTH */\n      0x00\n      dup1\n      sload\n      swap1\n      0x0100\n      exp\n      swap1\n      div\n      0xffff\n      and\n        /* \"contracts/Twitter.sol\":678:718  bytes(_tweet).length <= MAX_TWEET_LENGTH */\n      0xffff\n      and\n        /* \"contracts/Twitter.sol\":684:690  _tweet */\n      dup2\n        /* \"contracts/Twitter.sol\":678:698  bytes(_tweet).length */\n      mload\n        /* \"contracts/Twitter.sol\":678:718  bytes(_tweet).length <= MAX_TWEET_LENGTH */\n      gt\n      iszero\n        /* \"contracts/Twitter.sol\":670:741  require(bytes(_tweet).length <= MAX_TWEET_LENGTH, \"Tweet is too long.\") */\n      tag_80\n      jumpi\n      mload(0x40)\n      0x08c379a000000000000000000000000000000000000000000000000000000000\n      dup2\n      mstore\n      0x04\n      add\n      tag_81\n      swap1\n      tag_82\n      jump\t// in\n    tag_81:\n      mload(0x40)\n      dup1\n      swap2\n      sub\n      swap1\n      revert\n    tag_80:\n        /* \"contracts/Twitter.sol\":752:773  Tweet memory newTweet */\n      0x00\n        /* \"contracts/Twitter.sol\":776:959  Tweet({... */\n      mload(0x40)\n      dup1\n      0xa0\n      add\n      0x40\n      mstore\n      dup1\n        /* \"contracts/Twitter.sol\":800:806  tweets */\n      0x01\n        /* \"contracts/Twitter.sol\":800:818  tweets[msg.sender] */\n      0x00\n        /* \"contracts/Twitter.sol\":807:817  msg.sender */\n      caller\n        /* \"contracts/Twitter.sol\":800:818  tweets[msg.sender] */\n      0xffffffffffffffffffffffffffffffffffffffff\n      and\n      0xffffffffffffffffffffffffffffffffffffffff\n      and\n      dup2\n      mstore\n      0x20\n      add\n      swap1\n      dup2\n      mstore\n      0x20\n      add\n      0x00\n      keccak256\n        /* \"contracts/Twitter.sol\":800:825  tweets[msg.sender].length */\n      dup1\n      sload\n      swap1\n      pop\n        /* \"contracts/Twitter.sol\":776:959  Tweet({... */\n      dup2\n      mstore\n      0x20\n      add\n        /* \"contracts/Twitter.sol\":847:857  msg.sender */\n      caller\n        /* \"contracts/Twitter.sol\":776:959  Tweet({... */\n      0xffffffffffffffffffffffffffffffffffffffff\n      and\n      dup2\n      mstore\n      0x20\n      add\n        /* \"contracts/Twitter.sol\":880:886  _tweet */\n      dup4\n        /* \"contracts/Twitter.sol\":776:959  Tweet({... */\n      dup2\n      mstore\n      0x20\n      add\n        /* \"contracts/Twitter.sol\":911:926  block.timestamp */\n      timestamp\n        /* \"contracts/Twitter.sol\":776:959  Tweet({... */\n      dup2\n      mstore\n      0x20\n      add\n        /* \"contracts/Twitter.sol\":947:948  0 */\n      0x00\n        /* \"contracts/Twitter.sol\":776:959  Tweet({... */\n      dup2\n      mstore\n      pop\n        /* \"contracts/Twitter.sol\":752:959  Tweet memory newTweet = Tweet({... */\n      swap1\n      pop\n        /* \"contracts/Twitter.sol\":970:976  tweets */\n      0x01\n        /* \"contracts/Twitter.sol\":970:988  tweets[msg.sender] */\n      0x00\n        /* \"contracts/Twitter.sol\":977:987  msg.sender */\n      caller\n        /* \"contracts/Twitter.sol\":970:988  tweets[msg.sender] */\n      0xffffffffffffffffffffffffffffffffffffffff\n      and\n      0xffffffffffffffffffffffffffffffffffffffff\n      and\n      dup2\n      mstore\n      0x20\n      add\n      swap1\n      dup2\n      mstore\n      0x20\n      add\n      0x00\n      keccak256\n        /* \"contracts/Twitter.sol\":994:1002  newTweet */\n      dup2\n        /* \"contracts/Twitter.sol\":970:1003  tweets[msg.sender].push(newTweet) */\n      swap1\n      dup1\n      0x01\n      dup2\n      sload\n      add\n      dup1\n      dup3\n      sstore\n      dup1\n      swap2\n      pop\n      pop\n      0x01\n      swap1\n      sub\n      swap1\n      0x00\n      mstore\n      keccak256(0x00, 0x20)\n      swap1\n      0x05\n      mul\n      add\n      0x00\n      swap1\n      swap2\n      swap1\n      swap2\n      swap1\n      swap2\n      pop\n      0x00\n      dup3\n      add\n      mload\n      dup2\n      0x00\n      add\n      sstore\n      0x20\n      dup3\n      add\n      mload\n      dup2\n      0x01\n      add\n      exp(0x0100, 0x00)\n      dup2\n      sload\n      dup2\n      0xffffffffffffffffffffffffffffffffffffffff\n      mul\n      not\n      and\n      swap1\n      dup4\n      0xffffffffffffffffffffffffffffffffffffffff\n      and\n      mul\n      or\n      swap1\n      sstore\n      pop\n      0x40\n      dup3\n      add\n      mload\n      dup2\n      0x02\n      add\n      swap1\n      dup2\n      tag_84\n      swap2\n      swap1\n      tag_85\n      jump\t// in\n    tag_84:\n      pop\n      0x60\n      dup3\n      add\n      mload\n      dup2\n      0x03\n      add\n      sstore\n      0x80\n      dup3\n      add\n      mload\n      dup2\n      0x04\n      add\n      sstore\n      pop\n      pop\n        /* \"contracts/Twitter.sol\":660:1010  {... */\n      pop\n        /* \"contracts/Twitter.sol\":610:1010  function createTweet(string memory _tweet) public {... */\n      pop\n      jump\t// out\n        /* \"contracts/Twitter.sol\":1465:1581  function getTweet(uint _i) public view returns(string memory) {... */\n    tag_31:\n        /* \"contracts/Twitter.sol\":1512:1525  string memory */\n      0x60\n        /* \"contracts/Twitter.sol\":1544:1550  tweets */\n      0x01\n        /* \"contracts/Twitter.sol\":1544:1562  tweets[msg.sender] */\n      0x00\n        /* \"contracts/Twitter.sol\":1551:1561  msg.sender */\n      caller\n        /* \"contracts/Twitter.sol\":1544:1562  tweets[msg.sender] */\n      0xffffffffffffffffffffffffffffffffffffffff\n      and\n      0xffffffffffffffffffffffffffffffffffffffff\n      and\n      dup2\n      mstore\n      0x20\n      add\n      swap1\n      dup2\n      mstore\n      0x20\n      add\n      0x00\n      keccak256\n        /* \"contracts/Twitter.sol\":1563:1565  _i */\n      dup3\n        /* \"contracts/Twitter.sol\":1544:1566  tweets[msg.sender][_i] */\n      dup2\n      sload\n      dup2\n      lt\n      tag_87\n      jumpi\n      tag_88\n      tag_37\n      jump\t// in\n    tag_88:\n    tag_87:\n      swap1\n      0x00\n      mstore\n      keccak256(0x00, 0x20)\n      swap1\n      0x05\n      mul\n      add\n        /* \"contracts/Twitter.sol\":1544:1574  tweets[msg.sender][_i].content */\n      0x02\n      add\n        /* \"contracts/Twitter.sol\":1537:1574  return tweets[msg.sender][_i].content */\n      dup1\n      sload\n      tag_90\n      swap1\n      tag_58\n      jump\t// in\n    tag_90:\n      dup1\n      0x1f\n      add\n      0x20\n      dup1\n      swap2\n      div\n      mul\n      0x20\n      add\n      mload(0x40)\n      swap1\n      dup2\n      add\n      0x40\n      mstore\n      dup1\n      swap3\n      swap2\n      swap1\n      dup2\n      dup2\n      mstore\n      0x20\n      add\n      dup3\n      dup1\n      sload\n      tag_91\n      swap1\n      tag_58\n      jump\t// in\n    tag_91:\n      dup1\n      iszero\n      tag_92\n      jumpi\n      dup1\n      0x1f\n      lt\n      tag_93\n      jumpi\n      0x0100\n      dup1\n      dup4\n      sload\n      div\n      mul\n      dup4\n      mstore\n      swap2\n      0x20\n      add\n      swap2\n      jump(tag_92)\n    tag_93:\n      dup3\n      add\n      swap2\n      swap1\n      0x00\n      mstore\n      keccak256(0x00, 0x20)\n      swap1\n    tag_94:\n      dup2\n      sload\n      dup2\n      mstore\n      swap1\n      0x01\n      add\n      swap1\n      0x20\n      add\n      dup1\n      dup4\n      gt\n      tag_94\n      jumpi\n      dup3\n      swap1\n      sub\n      0x1f\n      and\n      dup3\n      add\n      swap2\n    tag_92:\n      pop\n      pop\n      pop\n      pop\n      pop\n      swap1\n      pop\n        /* \"contracts/Twitter.sol\":1465:1581  function getTweet(uint _i) public view returns(string memory) {... */\n      swap2\n      swap1\n      pop\n      jump\t// out\n        /* \"#utility.yul\":7:82   */\n    tag_95:\n        /* \"#utility.yul\":40:46   */\n      0x00\n        /* \"#utility.yul\":73:75   */\n      0x40\n        /* \"#utility.yul\":67:76   */\n      mload\n        /* \"#utility.yul\":57:76   */\n      swap1\n      pop\n        /* \"#utility.yul\":7:82   */\n      swap1\n      jump\t// out\n        /* \"#utility.yul\":88:205   */\n    tag_96:\n        /* \"#utility.yul\":197:198   */\n      0x00\n        /* \"#utility.yul\":194:195   */\n      dup1\n        /* \"#utility.yul\":187:199   */\n      revert\n        /* \"#utility.yul\":211:328   */\n    tag_97:\n        /* \"#utility.yul\":320:321   */\n      0x00\n        /* \"#utility.yul\":317:318   */\n      dup1\n        /* \"#utility.yul\":310:322   */\n      revert\n        /* \"#utility.yul\":334:460   */\n    tag_98:\n        /* \"#utility.yul\":371:378   */\n      0x00\n        /* \"#utility.yul\":411:453   */\n      0xffffffffffffffffffffffffffffffffffffffff\n        /* \"#utility.yul\":404:409   */\n      dup3\n        /* \"#utility.yul\":400:454   */\n      and\n        /* \"#utility.yul\":389:454   */\n      swap1\n      pop\n        /* \"#utility.yul\":334:460   */\n      swap2\n      swap1\n      pop\n      jump\t// out\n        /* \"#utility.yul\":466:562   */\n    tag_99:\n        /* \"#utility.yul\":503:510   */\n      0x00\n        /* \"#utility.yul\":532:556   */\n      tag_164\n        /* \"#utility.yul\":550:555   */\n      dup3\n        /* \"#utility.yul\":532:556   */\n      tag_98\n      jump\t// in\n    tag_164:\n        /* \"#utility.yul\":521:556   */\n      swap1\n      pop\n        /* \"#utility.yul\":466:562   */\n      swap2\n      swap1\n      pop\n      jump\t// out\n        /* \"#utility.yul\":568:690   */\n    tag_100:\n        /* \"#utility.yul\":641:665   */\n      tag_166\n        /* \"#utility.yul\":659:664   */\n      dup2\n        /* \"#utility.yul\":641:665   */\n      tag_99\n      jump\t// in\n    tag_166:\n        /* \"#utility.yul\":634:639   */\n      dup2\n        /* \"#utility.yul\":631:666   */\n      eq\n        /* \"#utility.yul\":621:684   */\n      tag_167\n      jumpi\n        /* \"#utility.yul\":680:681   */\n      0x00\n        /* \"#utility.yul\":677:678   */\n      dup1\n        /* \"#utility.yul\":670:682   */\n      revert\n        /* \"#utility.yul\":621:684   */\n    tag_167:\n        /* \"#utility.yul\":568:690   */\n      pop\n      jump\t// out\n        /* \"#utility.yul\":696:835   */\n    tag_101:\n        /* \"#utility.yul\":742:747   */\n      0x00\n        /* \"#utility.yul\":780:786   */\n      dup2\n        /* \"#utility.yul\":767:787   */\n      calldataload\n        /* \"#utility.yul\":758:787   */\n      swap1\n      pop\n        /* \"#utility.yul\":796:829   */\n      tag_169\n        /* \"#utility.yul\":823:828   */\n      dup2\n        /* \"#utility.yul\":796:829   */\n      tag_100\n      jump\t// in\n    tag_169:\n        /* \"#utility.yul\":696:835   */\n      swap3\n      swap2\n      pop\n      pop\n      jump\t// out\n        /* \"#utility.yul\":841:918   */\n    tag_102:\n        /* \"#utility.yul\":878:885   */\n      0x00\n        /* \"#utility.yul\":907:912   */\n      dup2\n        /* \"#utility.yul\":896:912   */\n      swap1\n      pop\n        /* \"#utility.yul\":841:918   */\n      swap2\n      swap1\n      pop\n      jump\t// out\n        /* \"#utility.yul\":924:1046   */\n    tag_103:\n        /* \"#utility.yul\":997:1021   */\n      tag_172\n        /* \"#utility.yul\":1015:1020   */\n      dup2\n        /* \"#utility.yul\":997:1021   */\n      tag_102\n      jump\t// in\n    tag_172:\n        /* \"#utility.yul\":990:995   */\n      dup2\n        /* \"#utility.yul\":987:1022   */\n      eq\n        /* \"#utility.yul\":977:1040   */\n      tag_173\n      jumpi\n        /* \"#utility.yul\":1036:1037   */\n      0x00\n        /* \"#utility.yul\":1033:1034   */\n      dup1\n        /* \"#utility.yul\":1026:1038   */\n      revert\n        /* \"#utility.yul\":977:1040   */\n    tag_173:\n        /* \"#utility.yul\":924:1046   */\n      pop\n      jump\t// out\n        /* \"#utility.yul\":1052:1191   */\n    tag_104:\n        /* \"#utility.yul\":1098:1103   */\n      0x00\n        /* \"#utility.yul\":1136:1142   */\n      dup2\n        /* \"#utility.yul\":1123:1143   */\n      calldataload\n        /* \"#utility.yul\":1114:1143   */\n      swap1\n      pop\n        /* \"#utility.yul\":1152:1185   */\n      tag_175\n        /* \"#utility.yul\":1179:1184   */\n      dup2\n        /* \"#utility.yul\":1152:1185   */\n      tag_103\n      jump\t// in\n    tag_175:\n        /* \"#utility.yul\":1052:1191   */\n      swap3\n      swap2\n      pop\n      pop\n      jump\t// out\n        /* \"#utility.yul\":1197:1671   */\n    tag_11:\n        /* \"#utility.yul\":1265:1271   */\n      0x00\n        /* \"#utility.yul\":1273:1279   */\n      dup1\n        /* \"#utility.yul\":1322:1324   */\n      0x40\n        /* \"#utility.yul\":1310:1319   */\n      dup4\n        /* \"#utility.yul\":1301:1308   */\n      dup6\n        /* \"#utility.yul\":1297:1320   */\n      sub\n        /* \"#utility.yul\":1293:1325   */\n      slt\n        /* \"#utility.yul\":1290:1409   */\n      iszero\n      tag_177\n      jumpi\n        /* \"#utility.yul\":1328:1407   */\n      tag_178\n      tag_96\n      jump\t// in\n    tag_178:\n        /* \"#utility.yul\":1290:1409   */\n    tag_177:\n        /* \"#utility.yul\":1448:1449   */\n      0x00\n        /* \"#utility.yul\":1473:1526   */\n      tag_179\n        /* \"#utility.yul\":1518:1525   */\n      dup6\n        /* \"#utility.yul\":1509:1515   */\n      dup3\n        /* \"#utility.yul\":1498:1507   */\n      dup7\n        /* \"#utility.yul\":1494:1516   */\n      add\n        /* \"#utility.yul\":1473:1526   */\n      tag_101\n      jump\t// in\n    tag_179:\n        /* \"#utility.yul\":1463:1526   */\n      swap3\n      pop\n        /* \"#utility.yul\":1419:1536   */\n      pop\n        /* \"#utility.yul\":1575:1577   */\n      0x20\n        /* \"#utility.yul\":1601:1654   */\n      tag_180\n        /* \"#utility.yul\":1646:1653   */\n      dup6\n        /* \"#utility.yul\":1637:1643   */\n      dup3\n        /* \"#utility.yul\":1626:1635   */\n      dup7\n        /* \"#utility.yul\":1622:1644   */\n      add\n        /* \"#utility.yul\":1601:1654   */\n      tag_104\n      jump\t// in\n    tag_180:\n        /* \"#utility.yul\":1591:1654   */\n      swap2\n      pop\n        /* \"#utility.yul\":1546:1664   */\n      pop\n        /* \"#utility.yul\":1197:1671   */\n      swap3\n      pop\n      swap3\n      swap1\n      pop\n      jump\t// out\n        /* \"#utility.yul\":1677:1812   */\n    tag_105:\n        /* \"#utility.yul\":1765:1771   */\n      0x00\n        /* \"#utility.yul\":1799:1804   */\n      dup2\n        /* \"#utility.yul\":1793:1805   */\n      mload\n        /* \"#utility.yul\":1783:1805   */\n      swap1\n      pop\n        /* \"#utility.yul\":1677:1812   */\n      swap2\n      swap1\n      pop\n      jump\t// out\n        /* \"#utility.yul\":1818:2023   */\n    tag_106:\n        /* \"#utility.yul\":1938:1949   */\n      0x00\n        /* \"#utility.yul\":1972:1978   */\n      dup3\n        /* \"#utility.yul\":1967:1970   */\n      dup3\n        /* \"#utility.yul\":1960:1979   */\n      mstore\n        /* \"#utility.yul\":2012:2016   */\n      0x20\n        /* \"#utility.yul\":2007:2010   */\n      dup3\n        /* \"#utility.yul\":2003:2017   */\n      add\n        /* \"#utility.yul\":1988:2017   */\n      swap1\n      pop\n        /* \"#utility.yul\":1818:2023   */\n      swap3\n      swap2\n      pop\n      pop\n      jump\t// out\n        /* \"#utility.yul\":2029:2182   */\n    tag_107:\n        /* \"#utility.yul\":2117:2121   */\n      0x00\n        /* \"#utility.yul\":2140:2143   */\n      dup2\n        /* \"#utility.yul\":2132:2143   */\n      swap1\n      pop\n        /* \"#utility.yul\":2170:2174   */\n      0x20\n        /* \"#utility.yul\":2165:2168   */\n      dup3\n        /* \"#utility.yul\":2161:2175   */\n      add\n        /* \"#utility.yul\":2153:2175   */\n      swap1\n      pop\n        /* \"#utility.yul\":2029:2182   */\n      swap2\n      swap1\n      pop\n      jump\t// out\n        /* \"#utility.yul\":2188:2296   */\n    tag_108:\n        /* \"#utility.yul\":2265:2289   */\n      tag_185\n        /* \"#utility.yul\":2283:2288   */\n      dup2\n        /* \"#utility.yul\":2265:2289   */\n      tag_102\n      jump\t// in\n    tag_185:\n        /* \"#utility.yul\":2260:2263   */\n      dup3\n        /* \"#utility.yul\":2253:2290   */\n      mstore\n        /* \"#utility.yul\":2188:2296   */\n      pop\n      pop\n      jump\t// out\n        /* \"#utility.yul\":2302:2410   */\n    tag_109:\n        /* \"#utility.yul\":2379:2403   */\n      tag_187\n        /* \"#utility.yul\":2397:2402   */\n      dup2\n        /* \"#utility.yul\":2379:2403   */\n      tag_99\n      jump\t// in\n    tag_187:\n        /* \"#utility.yul\":2374:2377   */\n      dup3\n        /* \"#utility.yul\":2367:2404   */\n      mstore\n        /* \"#utility.yul\":2302:2410   */\n      pop\n      pop\n      jump\t// out\n        /* \"#utility.yul\":2416:2515   */\n    tag_110:\n        /* \"#utility.yul\":2468:2474   */\n      0x00\n        /* \"#utility.yul\":2502:2507   */\n      dup2\n        /* \"#utility.yul\":2496:2508   */\n      mload\n        /* \"#utility.yul\":2486:2508   */\n      swap1\n      pop\n        /* \"#utility.yul\":2416:2515   */\n      swap2\n      swap1\n      pop\n      jump\t// out\n        /* \"#utility.yul\":2521:2680   */\n    tag_111:\n        /* \"#utility.yul\":2595:2606   */\n      0x00\n        /* \"#utility.yul\":2629:2635   */\n      dup3\n        /* \"#utility.yul\":2624:2627   */\n      dup3\n        /* \"#utility.yul\":2617:2636   */\n      mstore\n        /* \"#utility.yul\":2669:2673   */\n      0x20\n        /* \"#utility.yul\":2664:2667   */\n      dup3\n        /* \"#utility.yul\":2660:2674   */\n      add\n        /* \"#utility.yul\":2645:2674   */\n      swap1\n      pop\n        /* \"#utility.yul\":2521:2680   */\n      swap3\n      swap2\n      pop\n      pop\n      jump\t// out\n        /* \"#utility.yul\":2686:2932   */\n    tag_112:\n        /* \"#utility.yul\":2767:2768   */\n      0x00\n        /* \"#utility.yul\":2777:2890   */\n    tag_191:\n        /* \"#utility.yul\":2791:2797   */\n      dup4\n        /* \"#utility.yul\":2788:2789   */\n      dup2\n        /* \"#utility.yul\":2785:2798   */\n      lt\n        /* \"#utility.yul\":2777:2890   */\n      iszero\n      tag_193\n      jumpi\n        /* \"#utility.yul\":2876:2877   */\n      dup1\n        /* \"#utility.yul\":2871:2874   */\n      dup3\n        /* \"#utility.yul\":2867:2878   */\n      add\n        /* \"#utility.yul\":2861:2879   */\n      mload\n        /* \"#utility.yul\":2857:2858   */\n      dup2\n        /* \"#utility.yul\":2852:2855   */\n      dup5\n        /* \"#utility.yul\":2848:2859   */\n      add\n        /* \"#utility.yul\":2841:2880   */\n      mstore\n        /* \"#utility.yul\":2813:2815   */\n      0x20\n        /* \"#utility.yul\":2810:2811   */\n      dup2\n        /* \"#utility.yul\":2806:2816   */\n      add\n        /* \"#utility.yul\":2801:2816   */\n      swap1\n      pop\n        /* \"#utility.yul\":2777:2890   */\n      jump(tag_191)\n    tag_193:\n        /* \"#utility.yul\":2924:2925   */\n      0x00\n        /* \"#utility.yul\":2915:2921   */\n      dup5\n        /* \"#utility.yul\":2910:2913   */\n      dup5\n        /* \"#utility.yul\":2906:2922   */\n      add\n        /* \"#utility.yul\":2899:2926   */\n      mstore\n        /* \"#utility.yul\":2748:2932   */\n      pop\n        /* \"#utility.yul\":2686:2932   */\n      pop\n      pop\n      pop\n      jump\t// out\n        /* \"#utility.yul\":2938:3040   */\n    tag_113:\n        /* \"#utility.yul\":2979:2985   */\n      0x00\n        /* \"#utility.yul\":3030:3032   */\n      0x1f\n        /* \"#utility.yul\":3026:3033   */\n      not\n        /* \"#utility.yul\":3021:3023   */\n      0x1f\n        /* \"#utility.yul\":3014:3019   */\n      dup4\n        /* \"#utility.yul\":3010:3024   */\n      add\n        /* \"#utility.yul\":3006:3034   */\n      and\n        /* \"#utility.yul\":2996:3034   */\n      swap1\n      pop\n        /* \"#utility.yul\":2938:3040   */\n      swap2\n      swap1\n      pop\n      jump\t// out\n        /* \"#utility.yul\":3046:3403   */\n    tag_114:\n        /* \"#utility.yul\":3124:3127   */\n      0x00\n        /* \"#utility.yul\":3152:3191   */\n      tag_196\n        /* \"#utility.yul\":3185:3190   */\n      dup3\n        /* \"#utility.yul\":3152:3191   */\n      tag_110\n      jump\t// in\n    tag_196:\n        /* \"#utility.yul\":3207:3268   */\n      tag_197\n        /* \"#utility.yul\":3261:3267   */\n      dup2\n        /* \"#utility.yul\":3256:3259   */\n      dup6\n        /* \"#utility.yul\":3207:3268   */\n      tag_111\n      jump\t// in\n    tag_197:\n        /* \"#utility.yul\":3200:3268   */\n      swap4\n      pop\n        /* \"#utility.yul\":3277:3342   */\n      tag_198\n        /* \"#utility.yul\":3335:3341   */\n      dup2\n        /* \"#utility.yul\":3330:3333   */\n      dup6\n        /* \"#utility.yul\":3323:3327   */\n      0x20\n        /* \"#utility.yul\":3316:3321   */\n      dup7\n        /* \"#utility.yul\":3312:3328   */\n      add\n        /* \"#utility.yul\":3277:3342   */\n      tag_112\n      jump\t// in\n    tag_198:\n        /* \"#utility.yul\":3367:3396   */\n      tag_199\n        /* \"#utility.yul\":3389:3395   */\n      dup2\n        /* \"#utility.yul\":3367:3396   */\n      tag_113\n      jump\t// in\n    tag_199:\n        /* \"#utility.yul\":3362:3365   */\n      dup5\n        /* \"#utility.yul\":3358:3397   */\n      add\n        /* \"#utility.yul\":3351:3397   */\n      swap2\n      pop\n        /* \"#utility.yul\":3128:3403   */\n      pop\n        /* \"#utility.yul\":3046:3403   */\n      swap3\n      swap2\n      pop\n      pop\n      jump\t// out\n        /* \"#utility.yul\":3461:4580   */\n    tag_115:\n        /* \"#utility.yul\":3562:3565   */\n      0x00\n        /* \"#utility.yul\":3598:3602   */\n      0xa0\n        /* \"#utility.yul\":3593:3596   */\n      dup4\n        /* \"#utility.yul\":3589:3603   */\n      add\n        /* \"#utility.yul\":3683:3687   */\n      0x00\n        /* \"#utility.yul\":3676:3681   */\n      dup4\n        /* \"#utility.yul\":3672:3688   */\n      add\n        /* \"#utility.yul\":3666:3689   */\n      mload\n        /* \"#utility.yul\":3702:3765   */\n      tag_201\n        /* \"#utility.yul\":3759:3763   */\n      0x00\n        /* \"#utility.yul\":3754:3757   */\n      dup7\n        /* \"#utility.yul\":3750:3764   */\n      add\n        /* \"#utility.yul\":3736:3748   */\n      dup3\n        /* \"#utility.yul\":3702:3765   */\n      tag_108\n      jump\t// in\n    tag_201:\n        /* \"#utility.yul\":3613:3775   */\n      pop\n        /* \"#utility.yul\":3859:3863   */\n      0x20\n        /* \"#utility.yul\":3852:3857   */\n      dup4\n        /* \"#utility.yul\":3848:3864   */\n      add\n        /* \"#utility.yul\":3842:3865   */\n      mload\n        /* \"#utility.yul\":3878:3941   */\n      tag_202\n        /* \"#utility.yul\":3935:3939   */\n      0x20\n        /* \"#utility.yul\":3930:3933   */\n      dup7\n        /* \"#utility.yul\":3926:3940   */\n      add\n        /* \"#utility.yul\":3912:3924   */\n      dup3\n        /* \"#utility.yul\":3878:3941   */\n      tag_109\n      jump\t// in\n    tag_202:\n        /* \"#utility.yul\":3785:3951   */\n      pop\n        /* \"#utility.yul\":4036:4040   */\n      0x40\n        /* \"#utility.yul\":4029:4034   */\n      dup4\n        /* \"#utility.yul\":4025:4041   */\n      add\n        /* \"#utility.yul\":4019:4042   */\n      mload\n        /* \"#utility.yul\":4089:4092   */\n      dup5\n        /* \"#utility.yul\":4083:4087   */\n      dup3\n        /* \"#utility.yul\":4079:4093   */\n      sub\n        /* \"#utility.yul\":4072:4076   */\n      0x40\n        /* \"#utility.yul\":4067:4070   */\n      dup7\n        /* \"#utility.yul\":4063:4077   */\n      add\n        /* \"#utility.yul\":4056:4094   */\n      mstore\n        /* \"#utility.yul\":4115:4188   */\n      tag_203\n        /* \"#utility.yul\":4183:4187   */\n      dup3\n        /* \"#utility.yul\":4169:4181   */\n      dup3\n        /* \"#utility.yul\":4115:4188   */\n      tag_114\n      jump\t// in\n    tag_203:\n        /* \"#utility.yul\":4107:4188   */\n      swap2\n      pop\n        /* \"#utility.yul\":3961:4199   */\n      pop\n        /* \"#utility.yul\":4286:4290   */\n      0x60\n        /* \"#utility.yul\":4279:4284   */\n      dup4\n        /* \"#utility.yul\":4275:4291   */\n      add\n        /* \"#utility.yul\":4269:4292   */\n      mload\n        /* \"#utility.yul\":4305:4368   */\n      tag_204\n        /* \"#utility.yul\":4362:4366   */\n      0x60\n        /* \"#utility.yul\":4357:4360   */\n      dup7\n        /* \"#utility.yul\":4353:4367   */\n      add\n        /* \"#utility.yul\":4339:4351   */\n      dup3\n        /* \"#utility.yul\":4305:4368   */\n      tag_108\n      jump\t// in\n    tag_204:\n        /* \"#utility.yul\":4209:4378   */\n      pop\n        /* \"#utility.yul\":4461:4465   */\n      0x80\n        /* \"#utility.yul\":4454:4459   */\n      dup4\n        /* \"#utility.yul\":4450:4466   */\n      add\n        /* \"#utility.yul\":4444:4467   */\n      mload\n        /* \"#utility.yul\":4480:4543   */\n      tag_205\n        /* \"#utility.yul\":4537:4541   */\n      0x80\n        /* \"#utility.yul\":4532:4535   */\n      dup7\n        /* \"#utility.yul\":4528:4542   */\n      add\n        /* \"#utility.yul\":4514:4526   */\n      dup3\n        /* \"#utility.yul\":4480:4543   */\n      tag_108\n      jump\t// in\n    tag_205:\n        /* \"#utility.yul\":4388:4553   */\n      pop\n        /* \"#utility.yul\":4570:4574   */\n      dup1\n        /* \"#utility.yul\":4563:4574   */\n      swap2\n      pop\n        /* \"#utility.yul\":3567:4580   */\n      pop\n        /* \"#utility.yul\":3461:4580   */\n      swap3\n      swap2\n      pop\n      pop\n      jump\t// out\n        /* \"#utility.yul\":4586:4826   */\n    tag_116:\n        /* \"#utility.yul\":4697:4707   */\n      0x00\n        /* \"#utility.yul\":4732:4820   */\n      tag_207\n        /* \"#utility.yul\":4816:4819   */\n      dup4\n        /* \"#utility.yul\":4808:4814   */\n      dup4\n        /* \"#utility.yul\":4732:4820   */\n      tag_115\n      jump\t// in\n    tag_207:\n        /* \"#utility.yul\":4718:4820   */\n      swap1\n      pop\n        /* \"#utility.yul\":4586:4826   */\n      swap3\n      swap2\n      pop\n      pop\n      jump\t// out\n        /* \"#utility.yul\":4832:4966   */\n    tag_117:\n        /* \"#utility.yul\":4923:4927   */\n      0x00\n        /* \"#utility.yul\":4955:4959   */\n      0x20\n        /* \"#utility.yul\":4950:4953   */\n      dup3\n        /* \"#utility.yul\":4946:4960   */\n      add\n        /* \"#utility.yul\":4938:4960   */\n      swap1\n      pop\n        /* \"#utility.yul\":4832:4966   */\n      swap2\n      swap1\n      pop\n      jump\t// out\n        /* \"#utility.yul\":5028:6107   */\n    tag_118:\n        /* \"#utility.yul\":5189:5192   */\n      0x00\n        /* \"#utility.yul\":5218:5293   */\n      tag_210\n        /* \"#utility.yul\":5287:5292   */\n      dup3\n        /* \"#utility.yul\":5218:5293   */\n      tag_105\n      jump\t// in\n    tag_210:\n        /* \"#utility.yul\":5309:5416   */\n      tag_211\n        /* \"#utility.yul\":5409:5415   */\n      dup2\n        /* \"#utility.yul\":5404:5407   */\n      dup6\n        /* \"#utility.yul\":5309:5416   */\n      tag_106\n      jump\t// in\n    tag_211:\n        /* \"#utility.yul\":5302:5416   */\n      swap4\n      pop\n        /* \"#utility.yul\":5442:5445   */\n      dup4\n        /* \"#utility.yul\":5487:5491   */\n      0x20\n        /* \"#utility.yul\":5479:5485   */\n      dup3\n        /* \"#utility.yul\":5475:5492   */\n      mul\n        /* \"#utility.yul\":5470:5473   */\n      dup6\n        /* \"#utility.yul\":5466:5493   */\n      add\n        /* \"#utility.yul\":5517:5594   */\n      tag_212\n        /* \"#utility.yul\":5588:5593   */\n      dup6\n        /* \"#utility.yul\":5517:5594   */\n      tag_107\n      jump\t// in\n    tag_212:\n        /* \"#utility.yul\":5617:5624   */\n      dup1\n        /* \"#utility.yul\":5648:5649   */\n      0x00\n        /* \"#utility.yul\":5633:6062   */\n    tag_213:\n        /* \"#utility.yul\":5658:5664   */\n      dup6\n        /* \"#utility.yul\":5655:5656   */\n      dup2\n        /* \"#utility.yul\":5652:5665   */\n      lt\n        /* \"#utility.yul\":5633:6062   */\n      iszero\n      tag_215\n      jumpi\n        /* \"#utility.yul\":5729:5738   */\n      dup5\n        /* \"#utility.yul\":5723:5727   */\n      dup5\n        /* \"#utility.yul\":5719:5739   */\n      sub\n        /* \"#utility.yul\":5714:5717   */\n      dup10\n        /* \"#utility.yul\":5707:5740   */\n      mstore\n        /* \"#utility.yul\":5780:5786   */\n      dup2\n        /* \"#utility.yul\":5774:5787   */\n      mload\n        /* \"#utility.yul\":5808:5914   */\n      tag_216\n        /* \"#utility.yul\":5909:5913   */\n      dup6\n        /* \"#utility.yul\":5894:5907   */\n      dup3\n        /* \"#utility.yul\":5808:5914   */\n      tag_116\n      jump\t// in\n    tag_216:\n        /* \"#utility.yul\":5800:5914   */\n      swap5\n      pop\n        /* \"#utility.yul\":5937:6018   */\n      tag_217\n        /* \"#utility.yul\":6011:6017   */\n      dup4\n        /* \"#utility.yul\":5937:6018   */\n      tag_117\n      jump\t// in\n    tag_217:\n        /* \"#utility.yul\":5927:6018   */\n      swap3\n      pop\n        /* \"#utility.yul\":6047:6051   */\n      0x20\n        /* \"#utility.yul\":6042:6045   */\n      dup11\n        /* \"#utility.yul\":6038:6052   */\n      add\n        /* \"#utility.yul\":6031:6052   */\n      swap10\n      pop\n        /* \"#utility.yul\":5693:6062   */\n      pop\n        /* \"#utility.yul\":5680:5681   */\n      0x01\n        /* \"#utility.yul\":5677:5678   */\n      dup2\n        /* \"#utility.yul\":5673:5682   */\n      add\n        /* \"#utility.yul\":5668:5682   */\n      swap1\n      pop\n        /* \"#utility.yul\":5633:6062   */\n      jump(tag_213)\n    tag_215:\n        /* \"#utility.yul\":5637:5651   */\n      pop\n        /* \"#utility.yul\":6078:6082   */\n      dup3\n        /* \"#utility.yul\":6071:6082   */\n      swap8\n      pop\n        /* \"#utility.yul\":6098:6101   */\n      dup8\n        /* \"#utility.yul\":6091:6101   */\n      swap6\n      pop\n        /* \"#utility.yul\":5194:6107   */\n      pop\n      pop\n      pop\n      pop\n      pop\n        /* \"#utility.yul\":5028:6107   */\n      swap3\n      swap2\n      pop\n      pop\n      jump\t// out\n        /* \"#utility.yul\":6113:6570   */\n    tag_16:\n        /* \"#utility.yul\":6298:6302   */\n      0x00\n        /* \"#utility.yul\":6336:6338   */\n      0x20\n        /* \"#utility.yul\":6325:6334   */\n      dup3\n        /* \"#utility.yul\":6321:6339   */\n      add\n        /* \"#utility.yul\":6313:6339   */\n      swap1\n      pop\n        /* \"#utility.yul\":6385:6394   */\n      dup2\n        /* \"#utility.yul\":6379:6383   */\n      dup2\n        /* \"#utility.yul\":6375:6395   */\n      sub\n        /* \"#utility.yul\":6371:6372   */\n      0x00\n        /* \"#utility.yul\":6360:6369   */\n      dup4\n        /* \"#utility.yul\":6356:6373   */\n      add\n        /* \"#utility.yul\":6349:6396   */\n      mstore\n        /* \"#utility.yul\":6413:6563   */\n      tag_219\n        /* \"#utility.yul\":6558:6562   */\n      dup2\n        /* \"#utility.yul\":6549:6555   */\n      dup5\n        /* \"#utility.yul\":6413:6563   */\n      tag_118\n      jump\t// in\n    tag_219:\n        /* \"#utility.yul\":6405:6563   */\n      swap1\n      pop\n        /* \"#utility.yul\":6113:6570   */\n      swap3\n      swap2\n      pop\n      pop\n      jump\t// out\n        /* \"#utility.yul\":6576:6665   */\n    tag_119:\n        /* \"#utility.yul\":6612:6619   */\n      0x00\n        /* \"#utility.yul\":6652:6658   */\n      0xffff\n        /* \"#utility.yul\":6645:6650   */\n      dup3\n        /* \"#utility.yul\":6641:6659   */\n      and\n        /* \"#utility.yul\":6630:6659   */\n      swap1\n      pop\n        /* \"#utility.yul\":6576:6665   */\n      swap2\n      swap1\n      pop\n      jump\t// out\n        /* \"#utility.yul\":6671:6791   */\n    tag_120:\n        /* \"#utility.yul\":6743:6766   */\n      tag_222\n        /* \"#utility.yul\":6760:6765   */\n      dup2\n        /* \"#utility.yul\":6743:6766   */\n      tag_119\n      jump\t// in\n    tag_222:\n        /* \"#utility.yul\":6736:6741   */\n      dup2\n        /* \"#utility.yul\":6733:6767   */\n      eq\n        /* \"#utility.yul\":6723:6785   */\n      tag_223\n      jumpi\n        /* \"#utility.yul\":6781:6782   */\n      0x00\n        /* \"#utility.yul\":6778:6779   */\n      dup1\n        /* \"#utility.yul\":6771:6783   */\n      revert\n        /* \"#utility.yul\":6723:6785   */\n    tag_223:\n        /* \"#utility.yul\":6671:6791   */\n      pop\n      jump\t// out\n        /* \"#utility.yul\":6797:6934   */\n    tag_121:\n        /* \"#utility.yul\":6842:6847   */\n      0x00\n        /* \"#utility.yul\":6880:6886   */\n      dup2\n        /* \"#utility.yul\":6867:6887   */\n      calldataload\n        /* \"#utility.yul\":6858:6887   */\n      swap1\n      pop\n        /* \"#utility.yul\":6896:6928   */\n      tag_225\n        /* \"#utility.yul\":6922:6927   */\n      dup2\n        /* \"#utility.yul\":6896:6928   */\n      tag_120\n      jump\t// in\n    tag_225:\n        /* \"#utility.yul\":6797:6934   */\n      swap3\n      swap2\n      pop\n      pop\n      jump\t// out\n        /* \"#utility.yul\":6940:7267   */\n    tag_19:\n        /* \"#utility.yul\":6998:7004   */\n      0x00\n        /* \"#utility.yul\":7047:7049   */\n      0x20\n        /* \"#utility.yul\":7035:7044   */\n      dup3\n        /* \"#utility.yul\":7026:7033   */\n      dup5\n        /* \"#utility.yul\":7022:7045   */\n      sub\n        /* \"#utility.yul\":7018:7050   */\n      slt\n        /* \"#utility.yul\":7015:7134   */\n      iszero\n      tag_227\n      jumpi\n        /* \"#utility.yul\":7053:7132   */\n      tag_228\n      tag_96\n      jump\t// in\n    tag_228:\n        /* \"#utility.yul\":7015:7134   */\n    tag_227:\n        /* \"#utility.yul\":7173:7174   */\n      0x00\n        /* \"#utility.yul\":7198:7250   */\n      tag_229\n        /* \"#utility.yul\":7242:7249   */\n      dup5\n        /* \"#utility.yul\":7233:7239   */\n      dup3\n        /* \"#utility.yul\":7222:7231   */\n      dup6\n        /* \"#utility.yul\":7218:7240   */\n      add\n        /* \"#utility.yul\":7198:7250   */\n      tag_121\n      jump\t// in\n    tag_229:\n        /* \"#utility.yul\":7188:7250   */\n      swap2\n      pop\n        /* \"#utility.yul\":7144:7260   */\n      pop\n        /* \"#utility.yul\":6940:7267   */\n      swap3\n      swap2\n      pop\n      pop\n      jump\t// out\n        /* \"#utility.yul\":7273:7390   */\n    tag_122:\n        /* \"#utility.yul\":7382:7383   */\n      0x00\n        /* \"#utility.yul\":7379:7380   */\n      dup1\n        /* \"#utility.yul\":7372:7384   */\n      revert\n        /* \"#utility.yul\":7396:7513   */\n    tag_123:\n        /* \"#utility.yul\":7505:7506   */\n      0x00\n        /* \"#utility.yul\":7502:7503   */\n      dup1\n        /* \"#utility.yul\":7495:7507   */\n      revert\n        /* \"#utility.yul\":7519:7699   */\n    tag_124:\n        /* \"#utility.yul\":7567:7644   */\n      0x4e487b7100000000000000000000000000000000000000000000000000000000\n        /* \"#utility.yul\":7564:7565   */\n      0x00\n        /* \"#utility.yul\":7557:7645   */\n      mstore\n        /* \"#utility.yul\":7664:7668   */\n      0x41\n        /* \"#utility.yul\":7661:7662   */\n      0x04\n        /* \"#utility.yul\":7654:7669   */\n      mstore\n        /* \"#utility.yul\":7688:7692   */\n      0x24\n        /* \"#utility.yul\":7685:7686   */\n      0x00\n        /* \"#utility.yul\":7678:7693   */\n      revert\n        /* \"#utility.yul\":7705:7986   */\n    tag_125:\n        /* \"#utility.yul\":7788:7815   */\n      tag_234\n        /* \"#utility.yul\":7810:7814   */\n      dup3\n        /* \"#utility.yul\":7788:7815   */\n      tag_113\n      jump\t// in\n    tag_234:\n        /* \"#utility.yul\":7780:7786   */\n      dup2\n        /* \"#utility.yul\":7776:7816   */\n      add\n        /* \"#utility.yul\":7918:7924   */\n      dup2\n        /* \"#utility.yul\":7906:7916   */\n      dup2\n        /* \"#utility.yul\":7903:7925   */\n      lt\n        /* \"#utility.yul\":7882:7900   */\n      0xffffffffffffffff\n        /* \"#utility.yul\":7870:7880   */\n      dup3\n        /* \"#utility.yul\":7867:7901   */\n      gt\n        /* \"#utility.yul\":7864:7926   */\n      or\n        /* \"#utility.yul\":7861:7949   */\n      iszero\n      tag_235\n      jumpi\n        /* \"#utility.yul\":7929:7947   */\n      tag_236\n      tag_124\n      jump\t// in\n    tag_236:\n        /* \"#utility.yul\":7861:7949   */\n    tag_235:\n        /* \"#utility.yul\":7969:7979   */\n      dup1\n        /* \"#utility.yul\":7965:7967   */\n      0x40\n        /* \"#utility.yul\":7958:7980   */\n      mstore\n        /* \"#utility.yul\":7748:7986   */\n      pop\n        /* \"#utility.yul\":7705:7986   */\n      pop\n      pop\n      jump\t// out\n        /* \"#utility.yul\":7992:8121   */\n    tag_126:\n        /* \"#utility.yul\":8026:8032   */\n      0x00\n        /* \"#utility.yul\":8053:8073   */\n      tag_238\n      tag_95\n      jump\t// in\n    tag_238:\n        /* \"#utility.yul\":8043:8073   */\n      swap1\n      pop\n        /* \"#utility.yul\":8082:8115   */\n      tag_239\n        /* \"#utility.yul\":8110:8114   */\n      dup3\n        /* \"#utility.yul\":8102:8108   */\n      dup3\n        /* \"#utility.yul\":8082:8115   */\n      tag_125\n      jump\t// in\n    tag_239:\n        /* \"#utility.yul\":7992:8121   */\n      swap2\n      swap1\n      pop\n      jump\t// out\n        /* \"#utility.yul\":8127:8435   */\n    tag_127:\n        /* \"#utility.yul\":8189:8193   */\n      0x00\n        /* \"#utility.yul\":8279:8297   */\n      0xffffffffffffffff\n        /* \"#utility.yul\":8271:8277   */\n      dup3\n        /* \"#utility.yul\":8268:8298   */\n      gt\n        /* \"#utility.yul\":8265:8321   */\n      iszero\n      tag_241\n      jumpi\n        /* \"#utility.yul\":8301:8319   */\n      tag_242\n      tag_124\n      jump\t// in\n    tag_242:\n        /* \"#utility.yul\":8265:8321   */\n    tag_241:\n        /* \"#utility.yul\":8339:8368   */\n      tag_243\n        /* \"#utility.yul\":8361:8367   */\n      dup3\n        /* \"#utility.yul\":8339:8368   */\n      tag_113\n      jump\t// in\n    tag_243:\n        /* \"#utility.yul\":8331:8368   */\n      swap1\n      pop\n        /* \"#utility.yul\":8423:8427   */\n      0x20\n        /* \"#utility.yul\":8417:8421   */\n      dup2\n        /* \"#utility.yul\":8413:8428   */\n      add\n        /* \"#utility.yul\":8405:8428   */\n      swap1\n      pop\n        /* \"#utility.yul\":8127:8435   */\n      swap2\n      swap1\n      pop\n      jump\t// out\n        /* \"#utility.yul\":8441:8587   */\n    tag_128:\n        /* \"#utility.yul\":8538:8544   */\n      dup3\n        /* \"#utility.yul\":8533:8536   */\n      dup2\n        /* \"#utility.yul\":8528:8531   */\n      dup4\n        /* \"#utility.yul\":8515:8545   */\n      calldatacopy\n        /* \"#utility.yul\":8579:8580   */\n      0x00\n        /* \"#utility.yul\":8570:8576   */\n      dup4\n        /* \"#utility.yul\":8565:8568   */\n      dup4\n        /* \"#utility.yul\":8561:8577   */\n      add\n        /* \"#utility.yul\":8554:8581   */\n      mstore\n        /* \"#utility.yul\":8441:8587   */\n      pop\n      pop\n      pop\n      jump\t// out\n        /* \"#utility.yul\":8593:9018   */\n    tag_129:\n        /* \"#utility.yul\":8671:8676   */\n      0x00\n        /* \"#utility.yul\":8696:8762   */\n      tag_246\n        /* \"#utility.yul\":8712:8761   */\n      tag_247\n        /* \"#utility.yul\":8754:8760   */\n      dup5\n        /* \"#utility.yul\":8712:8761   */\n      tag_127\n      jump\t// in\n    tag_247:\n        /* \"#utility.yul\":8696:8762   */\n      tag_126\n      jump\t// in\n    tag_246:\n        /* \"#utility.yul\":8687:8762   */\n      swap1\n      pop\n        /* \"#utility.yul\":8785:8791   */\n      dup3\n        /* \"#utility.yul\":8778:8783   */\n      dup2\n        /* \"#utility.yul\":8771:8792   */\n      mstore\n        /* \"#utility.yul\":8823:8827   */\n      0x20\n        /* \"#utility.yul\":8816:8821   */\n      dup2\n        /* \"#utility.yul\":8812:8828   */\n      add\n        /* \"#utility.yul\":8861:8864   */\n      dup5\n        /* \"#utility.yul\":8852:8858   */\n      dup5\n        /* \"#utility.yul\":8847:8850   */\n      dup5\n        /* \"#utility.yul\":8843:8859   */\n      add\n        /* \"#utility.yul\":8840:8865   */\n      gt\n        /* \"#utility.yul\":8837:8949   */\n      iszero\n      tag_248\n      jumpi\n        /* \"#utility.yul\":8868:8947   */\n      tag_249\n      tag_123\n      jump\t// in\n    tag_249:\n        /* \"#utility.yul\":8837:8949   */\n    tag_248:\n        /* \"#utility.yul\":8958:9012   */\n      tag_250\n        /* \"#utility.yul\":9005:9011   */\n      dup5\n        /* \"#utility.yul\":9000:9003   */\n      dup3\n        /* \"#utility.yul\":8995:8998   */\n      dup6\n        /* \"#utility.yul\":8958:9012   */\n      tag_128\n      jump\t// in\n    tag_250:\n        /* \"#utility.yul\":8677:9018   */\n      pop\n        /* \"#utility.yul\":8593:9018   */\n      swap4\n      swap3\n      pop\n      pop\n      pop\n      jump\t// out\n        /* \"#utility.yul\":9038:9378   */\n    tag_130:\n        /* \"#utility.yul\":9094:9099   */\n      0x00\n        /* \"#utility.yul\":9143:9146   */\n      dup3\n        /* \"#utility.yul\":9136:9140   */\n      0x1f\n        /* \"#utility.yul\":9128:9134   */\n      dup4\n        /* \"#utility.yul\":9124:9141   */\n      add\n        /* \"#utility.yul\":9120:9147   */\n      slt\n        /* \"#utility.yul\":9110:9232   */\n      tag_252\n      jumpi\n        /* \"#utility.yul\":9151:9230   */\n      tag_253\n      tag_122\n      jump\t// in\n    tag_253:\n        /* \"#utility.yul\":9110:9232   */\n    tag_252:\n        /* \"#utility.yul\":9268:9274   */\n      dup2\n        /* \"#utility.yul\":9255:9275   */\n      calldataload\n        /* \"#utility.yul\":9293:9372   */\n      tag_254\n        /* \"#utility.yul\":9368:9371   */\n      dup5\n        /* \"#utility.yul\":9360:9366   */\n      dup3\n        /* \"#utility.yul\":9353:9357   */\n      0x20\n        /* \"#utility.yul\":9345:9351   */\n      dup7\n        /* \"#utility.yul\":9341:9358   */\n      add\n        /* \"#utility.yul\":9293:9372   */\n      tag_129\n      jump\t// in\n    tag_254:\n        /* \"#utility.yul\":9284:9372   */\n      swap2\n      pop\n        /* \"#utility.yul\":9100:9378   */\n      pop\n        /* \"#utility.yul\":9038:9378   */\n      swap3\n      swap2\n      pop\n      pop\n      jump\t// out\n        /* \"#utility.yul\":9384:9893   */\n    tag_26:\n        /* \"#utility.yul\":9453:9459   */\n      0x00\n        /* \"#utility.yul\":9502:9504   */\n      0x20\n        /* \"#utility.yul\":9490:9499   */\n      dup3\n        /* \"#utility.yul\":9481:9488   */\n      dup5\n        /* \"#utility.yul\":9477:9500   */\n      sub\n        /* \"#utility.yul\":9473:9505   */\n      slt\n        /* \"#utility.yul\":9470:9589   */\n      iszero\n      tag_256\n      jumpi\n        /* \"#utility.yul\":9508:9587   */\n      tag_257\n      tag_96\n      jump\t// in\n    tag_257:\n        /* \"#utility.yul\":9470:9589   */\n    tag_256:\n        /* \"#utility.yul\":9656:9657   */\n      0x00\n        /* \"#utility.yul\":9645:9654   */\n      dup3\n        /* \"#utility.yul\":9641:9658   */\n      add\n        /* \"#utility.yul\":9628:9659   */\n      calldataload\n        /* \"#utility.yul\":9686:9704   */\n      0xffffffffffffffff\n        /* \"#utility.yul\":9678:9684   */\n      dup2\n        /* \"#utility.yul\":9675:9705   */\n      gt\n        /* \"#utility.yul\":9672:9789   */\n      iszero\n      tag_258\n      jumpi\n        /* \"#utility.yul\":9708:9787   */\n      tag_259\n      tag_97\n      jump\t// in\n    tag_259:\n        /* \"#utility.yul\":9672:9789   */\n    tag_258:\n        /* \"#utility.yul\":9813:9876   */\n      tag_260\n        /* \"#utility.yul\":9868:9875   */\n      dup5\n        /* \"#utility.yul\":9859:9865   */\n      dup3\n        /* \"#utility.yul\":9848:9857   */\n      dup6\n        /* \"#utility.yul\":9844:9866   */\n      add\n        /* \"#utility.yul\":9813:9876   */\n      tag_130\n      jump\t// in\n    tag_260:\n        /* \"#utility.yul\":9803:9876   */\n      swap2\n      pop\n        /* \"#utility.yul\":9599:9886   */\n      pop\n        /* \"#utility.yul\":9384:9893   */\n      swap3\n      swap2\n      pop\n      pop\n      jump\t// out\n        /* \"#utility.yul\":9899:10228   */\n    tag_30:\n        /* \"#utility.yul\":9958:9964   */\n      0x00\n        /* \"#utility.yul\":10007:10009   */\n      0x20\n        /* \"#utility.yul\":9995:10004   */\n      dup3\n        /* \"#utility.yul\":9986:9993   */\n      dup5\n        /* \"#utility.yul\":9982:10005   */\n      sub\n        /* \"#utility.yul\":9978:10010   */\n      slt\n        /* \"#utility.yul\":9975:10094   */\n      iszero\n      tag_262\n      jumpi\n        /* \"#utility.yul\":10013:10092   */\n      tag_263\n      tag_96\n      jump\t// in\n    tag_263:\n        /* \"#utility.yul\":9975:10094   */\n    tag_262:\n        /* \"#utility.yul\":10133:10134   */\n      0x00\n        /* \"#utility.yul\":10158:10211   */\n      tag_264\n        /* \"#utility.yul\":10203:10210   */\n      dup5\n        /* \"#utility.yul\":10194:10200   */\n      dup3\n        /* \"#utility.yul\":10183:10192   */\n      dup6\n        /* \"#utility.yul\":10179:10201   */\n      add\n        /* \"#utility.yul\":10158:10211   */\n      tag_104\n      jump\t// in\n    tag_264:\n        /* \"#utility.yul\":10148:10211   */\n      swap2\n      pop\n        /* \"#utility.yul\":10104:10221   */\n      pop\n        /* \"#utility.yul\":9899:10228   */\n      swap3\n      swap2\n      pop\n      pop\n      jump\t// out\n        /* \"#utility.yul\":10234:10403   */\n    tag_131:\n        /* \"#utility.yul\":10318:10329   */\n      0x00\n        /* \"#utility.yul\":10352:10358   */\n      dup3\n        /* \"#utility.yul\":10347:10350   */\n      dup3\n        /* \"#utility.yul\":10340:10359   */\n      mstore\n        /* \"#utility.yul\":10392:10396   */\n      0x20\n        /* \"#utility.yul\":10387:10390   */\n      dup3\n        /* \"#utility.yul\":10383:10397   */\n      add\n        /* \"#utility.yul\":10368:10397   */\n      swap1\n      pop\n        /* \"#utility.yul\":10234:10403   */\n      swap3\n      swap2\n      pop\n      pop\n      jump\t// out\n        /* \"#utility.yul\":10409:10786   */\n    tag_132:\n        /* \"#utility.yul\":10497:10500   */\n      0x00\n        /* \"#utility.yul\":10525:10564   */\n      tag_267\n        /* \"#utility.yul\":10558:10563   */\n      dup3\n        /* \"#utility.yul\":10525:10564   */\n      tag_110\n      jump\t// in\n    tag_267:\n        /* \"#utility.yul\":10580:10651   */\n      tag_268\n        /* \"#utility.yul\":10644:10650   */\n      dup2\n        /* \"#utility.yul\":10639:10642   */\n      dup6\n        /* \"#utility.yul\":10580:10651   */\n      tag_131\n      jump\t// in\n    tag_268:\n        /* \"#utility.yul\":10573:10651   */\n      swap4\n      pop\n        /* \"#utility.yul\":10660:10725   */\n      tag_269\n        /* \"#utility.yul\":10718:10724   */\n      dup2\n        /* \"#utility.yul\":10713:10716   */\n      dup6\n        /* \"#utility.yul\":10706:10710   */\n      0x20\n        /* \"#utility.yul\":10699:10704   */\n      dup7\n        /* \"#utility.yul\":10695:10711   */\n      add\n        /* \"#utility.yul\":10660:10725   */\n      tag_112\n      jump\t// in\n    tag_269:\n        /* \"#utility.yul\":10750:10779   */\n      tag_270\n        /* \"#utility.yul\":10772:10778   */\n      dup2\n        /* \"#utility.yul\":10750:10779   */\n      tag_113\n      jump\t// in\n    tag_270:\n        /* \"#utility.yul\":10745:10748   */\n      dup5\n        /* \"#utility.yul\":10741:10780   */\n      add\n        /* \"#utility.yul\":10734:10780   */\n      swap2\n      pop\n        /* \"#utility.yul\":10501:10786   */\n      pop\n        /* \"#utility.yul\":10409:10786   */\n      swap3\n      swap2\n      pop\n      pop\n      jump\t// out\n        /* \"#utility.yul\":10792:11105   */\n    tag_33:\n        /* \"#utility.yul\":10905:10909   */\n      0x00\n        /* \"#utility.yul\":10943:10945   */\n      0x20\n        /* \"#utility.yul\":10932:10941   */\n      dup3\n        /* \"#utility.yul\":10928:10946   */\n      add\n        /* \"#utility.yul\":10920:10946   */\n      swap1\n      pop\n        /* \"#utility.yul\":10992:11001   */\n      dup2\n        /* \"#utility.yul\":10986:10990   */\n      dup2\n        /* \"#utility.yul\":10982:11002   */\n      sub\n        /* \"#utility.yul\":10978:10979   */\n      0x00\n        /* \"#utility.yul\":10967:10976   */\n      dup4\n        /* \"#utility.yul\":10963:10980   */\n      add\n        /* \"#utility.yul\":10956:11003   */\n      mstore\n        /* \"#utility.yul\":11020:11098   */\n      tag_272\n        /* \"#utility.yul\":11093:11097   */\n      dup2\n        /* \"#utility.yul\":11084:11090   */\n      dup5\n        /* \"#utility.yul\":11020:11098   */\n      tag_132\n      jump\t// in\n    tag_272:\n        /* \"#utility.yul\":11012:11098   */\n      swap1\n      pop\n        /* \"#utility.yul\":10792:11105   */\n      swap3\n      swap2\n      pop\n      pop\n      jump\t// out\n        /* \"#utility.yul\":11111:11291   */\n    tag_37:\n        /* \"#utility.yul\":11159:11236   */\n      0x4e487b7100000000000000000000000000000000000000000000000000000000\n        /* \"#utility.yul\":11156:11157   */\n      0x00\n        /* \"#utility.yul\":11149:11237   */\n      mstore\n        /* \"#utility.yul\":11256:11260   */\n      0x32\n        /* \"#utility.yul\":11253:11254   */\n      0x04\n        /* \"#utility.yul\":11246:11261   */\n      mstore\n        /* \"#utility.yul\":11280:11284   */\n      0x24\n        /* \"#utility.yul\":11277:11278   */\n      0x00\n        /* \"#utility.yul\":11270:11285   */\n      revert\n        /* \"#utility.yul\":11297:11467   */\n    tag_133:\n        /* \"#utility.yul\":11437:11459   */\n      0x547765657420646f6573206e6f74206578697374000000000000000000000000\n        /* \"#utility.yul\":11433:11434   */\n      0x00\n        /* \"#utility.yul\":11425:11431   */\n      dup3\n        /* \"#utility.yul\":11421:11435   */\n      add\n        /* \"#utility.yul\":11414:11460   */\n      mstore\n        /* \"#utility.yul\":11297:11467   */\n      pop\n      jump\t// out\n        /* \"#utility.yul\":11473:11839   */\n    tag_134:\n        /* \"#utility.yul\":11615:11618   */\n      0x00\n        /* \"#utility.yul\":11636:11703   */\n      tag_276\n        /* \"#utility.yul\":11700:11702   */\n      0x14\n        /* \"#utility.yul\":11695:11698   */\n      dup4\n        /* \"#utility.yul\":11636:11703   */\n      tag_131\n      jump\t// in\n    tag_276:\n        /* \"#utility.yul\":11629:11703   */\n      swap2\n      pop\n        /* \"#utility.yul\":11712:11805   */\n      tag_277\n        /* \"#utility.yul\":11801:11804   */\n      dup3\n        /* \"#utility.yul\":11712:11805   */\n      tag_133\n      jump\t// in\n    tag_277:\n        /* \"#utility.yul\":11830:11832   */\n      0x20\n        /* \"#utility.yul\":11825:11828   */\n      dup3\n        /* \"#utility.yul\":11821:11833   */\n      add\n        /* \"#utility.yul\":11814:11833   */\n      swap1\n      pop\n        /* \"#utility.yul\":11473:11839   */\n      swap2\n      swap1\n      pop\n      jump\t// out\n        /* \"#utility.yul\":11845:12264   */\n    tag_41:\n        /* \"#utility.yul\":12011:12015   */\n      0x00\n        /* \"#utility.yul\":12049:12051   */\n      0x20\n        /* \"#utility.yul\":12038:12047   */\n      dup3\n        /* \"#utility.yul\":12034:12052   */\n      add\n        /* \"#utility.yul\":12026:12052   */\n      swap1\n      pop\n        /* \"#utility.yul\":12098:12107   */\n      dup2\n        /* \"#utility.yul\":12092:12096   */\n      dup2\n        /* \"#utility.yul\":12088:12108   */\n      sub\n        /* \"#utility.yul\":12084:12085   */\n      0x00\n        /* \"#utility.yul\":12073:12082   */\n      dup4\n        /* \"#utility.yul\":12069:12086   */\n      add\n        /* \"#utility.yul\":12062:12109   */\n      mstore\n        /* \"#utility.yul\":12126:12257   */\n      tag_279\n        /* \"#utility.yul\":12252:12256   */\n      dup2\n        /* \"#utility.yul\":12126:12257   */\n      tag_134\n      jump\t// in\n    tag_279:\n        /* \"#utility.yul\":12118:12257   */\n      swap1\n      pop\n        /* \"#utility.yul\":11845:12264   */\n      swap2\n      swap1\n      pop\n      jump\t// out\n        /* \"#utility.yul\":12270:12448   */\n    tag_135:\n        /* \"#utility.yul\":12410:12440   */\n      0x547765657420646f65736e2774206861766520616e79206c696b657300000000\n        /* \"#utility.yul\":12406:12407   */\n      0x00\n        /* \"#utility.yul\":12398:12404   */\n      dup3\n        /* \"#utility.yul\":12394:12408   */\n      add\n        /* \"#utility.yul\":12387:12441   */\n      mstore\n        /* \"#utility.yul\":12270:12448   */\n      pop\n      jump\t// out\n        /* \"#utility.yul\":12454:12820   */\n    tag_136:\n        /* \"#utility.yul\":12596:12599   */\n      0x00\n        /* \"#utility.yul\":12617:12684   */\n      tag_282\n        /* \"#utility.yul\":12681:12683   */\n      0x1c\n        /* \"#utility.yul\":12676:12679   */\n      dup4\n        /* \"#utility.yul\":12617:12684   */\n      tag_131\n      jump\t// in\n    tag_282:\n        /* \"#utility.yul\":12610:12684   */\n      swap2\n      pop\n        /* \"#utility.yul\":12693:12786   */\n      tag_283\n        /* \"#utility.yul\":12782:12785   */\n      dup3\n        /* \"#utility.yul\":12693:12786   */\n      tag_135\n      jump\t// in\n    tag_283:\n        /* \"#utility.yul\":12811:12813   */\n      0x20\n        /* \"#utility.yul\":12806:12809   */\n      dup3\n        /* \"#utility.yul\":12802:12814   */\n      add\n        /* \"#utility.yul\":12795:12814   */\n      swap1\n      pop\n        /* \"#utility.yul\":12454:12820   */\n      swap2\n      swap1\n      pop\n      jump\t// out\n        /* \"#utility.yul\":12826:13245   */\n    tag_47:\n        /* \"#utility.yul\":12992:12996   */\n      0x00\n        /* \"#utility.yul\":13030:13032   */\n      0x20\n        /* \"#utility.yul\":13019:13028   */\n      dup3\n        /* \"#utility.yul\":13015:13033   */\n      add\n        /* \"#utility.yul\":13007:13033   */\n      swap1\n      pop\n        /* \"#utility.yul\":13079:13088   */\n      dup2\n        /* \"#utility.yul\":13073:13077   */\n      dup2\n        /* \"#utility.yul\":13069:13089   */\n      sub\n        /* \"#utility.yul\":13065:13066   */\n      0x00\n        /* \"#utility.yul\":13054:13063   */\n      dup4\n        /* \"#utility.yul\":13050:13067   */\n      add\n        /* \"#utility.yul\":13043:13090   */\n      mstore\n        /* \"#utility.yul\":13107:13238   */\n      tag_285\n        /* \"#utility.yul\":13233:13237   */\n      dup2\n        /* \"#utility.yul\":13107:13238   */\n      tag_136\n      jump\t// in\n    tag_285:\n        /* \"#utility.yul\":13099:13238   */\n      swap1\n      pop\n        /* \"#utility.yul\":12826:13245   */\n      swap2\n      swap1\n      pop\n      jump\t// out\n        /* \"#utility.yul\":13251:13431   */\n    tag_137:\n        /* \"#utility.yul\":13299:13376   */\n      0x4e487b7100000000000000000000000000000000000000000000000000000000\n        /* \"#utility.yul\":13296:13297   */\n      0x00\n        /* \"#utility.yul\":13289:13377   */\n      mstore\n        /* \"#utility.yul\":13396:13400   */\n      0x11\n        /* \"#utility.yul\":13393:13394   */\n      0x04\n        /* \"#utility.yul\":13386:13401   */\n      mstore\n        /* \"#utility.yul\":13420:13424   */\n      0x24\n        /* \"#utility.yul\":13417:13418   */\n      0x00\n        /* \"#utility.yul\":13410:13425   */\n      revert\n        /* \"#utility.yul\":13437:13608   */\n    tag_52:\n        /* \"#utility.yul\":13476:13479   */\n      0x00\n        /* \"#utility.yul\":13499:13523   */\n      tag_288\n        /* \"#utility.yul\":13517:13522   */\n      dup3\n        /* \"#utility.yul\":13499:13523   */\n      tag_102\n      jump\t// in\n    tag_288:\n        /* \"#utility.yul\":13490:13523   */\n      swap2\n      pop\n        /* \"#utility.yul\":13545:13549   */\n      0x00\n        /* \"#utility.yul\":13538:13543   */\n      dup3\n        /* \"#utility.yul\":13535:13550   */\n      sub\n        /* \"#utility.yul\":13532:13573   */\n      tag_289\n      jumpi\n        /* \"#utility.yul\":13553:13571   */\n      tag_290\n      tag_137\n      jump\t// in\n    tag_290:\n        /* \"#utility.yul\":13532:13573   */\n    tag_289:\n        /* \"#utility.yul\":13600:13601   */\n      0x01\n        /* \"#utility.yul\":13593:13598   */\n      dup3\n        /* \"#utility.yul\":13589:13602   */\n      sub\n        /* \"#utility.yul\":13582:13602   */\n      swap1\n      pop\n        /* \"#utility.yul\":13437:13608   */\n      swap2\n      swap1\n      pop\n      jump\t// out\n        /* \"#utility.yul\":13614:13794   */\n    tag_138:\n        /* \"#utility.yul\":13662:13739   */\n      0x4e487b7100000000000000000000000000000000000000000000000000000000\n        /* \"#utility.yul\":13659:13660   */\n      0x00\n        /* \"#utility.yul\":13652:13740   */\n      mstore\n        /* \"#utility.yul\":13759:13763   */\n      0x22\n        /* \"#utility.yul\":13756:13757   */\n      0x04\n        /* \"#utility.yul\":13749:13764   */\n      mstore\n        /* \"#utility.yul\":13783:13787   */\n      0x24\n        /* \"#utility.yul\":13780:13781   */\n      0x00\n        /* \"#utility.yul\":13773:13788   */\n      revert\n        /* \"#utility.yul\":13800:14120   */\n    tag_58:\n        /* \"#utility.yul\":13844:13850   */\n      0x00\n        /* \"#utility.yul\":13881:13882   */\n      0x02\n        /* \"#utility.yul\":13875:13879   */\n      dup3\n        /* \"#utility.yul\":13871:13883   */\n      div\n        /* \"#utility.yul\":13861:13883   */\n      swap1\n      pop\n        /* \"#utility.yul\":13928:13929   */\n      0x01\n        /* \"#utility.yul\":13922:13926   */\n      dup3\n        /* \"#utility.yul\":13918:13930   */\n      and\n        /* \"#utility.yul\":13949:13967   */\n      dup1\n        /* \"#utility.yul\":13939:14020   */\n      tag_293\n      jumpi\n        /* \"#utility.yul\":14005:14009   */\n      0x7f\n        /* \"#utility.yul\":13997:14003   */\n      dup3\n        /* \"#utility.yul\":13993:14010   */\n      and\n        /* \"#utility.yul\":13983:14010   */\n      swap2\n      pop\n        /* \"#utility.yul\":13939:14020   */\n    tag_293:\n        /* \"#utility.yul\":14067:14069   */\n      0x20\n        /* \"#utility.yul\":14059:14065   */\n      dup3\n        /* \"#utility.yul\":14056:14070   */\n      lt\n        /* \"#utility.yul\":14036:14054   */\n      dup2\n        /* \"#utility.yul\":14033:14071   */\n      sub\n        /* \"#utility.yul\":14030:14114   */\n      tag_294\n      jumpi\n        /* \"#utility.yul\":14086:14104   */\n      tag_295\n      tag_138\n      jump\t// in\n    tag_295:\n        /* \"#utility.yul\":14030:14114   */\n    tag_294:\n        /* \"#utility.yul\":13851:14120   */\n      pop\n        /* \"#utility.yul\":13800:14120   */\n      swap2\n      swap1\n      pop\n      jump\t// out\n        /* \"#utility.yul\":14126:14298   */\n    tag_139:\n        /* \"#utility.yul\":14266:14290   */\n      0x596f7520617265206e6f7420746865206f776e65722100000000000000000000\n        /* \"#utility.yul\":14262:14263   */\n      0x00\n        /* \"#utility.yul\":14254:14260   */\n      dup3\n        /* \"#utility.yul\":14250:14264   */\n      add\n        /* \"#utility.yul\":14243:14291   */\n      mstore\n        /* \"#utility.yul\":14126:14298   */\n      pop\n      jump\t// out\n        /* \"#utility.yul\":14304:14670   */\n    tag_140:\n        /* \"#utility.yul\":14446:14449   */\n      0x00\n        /* \"#utility.yul\":14467:14534   */\n      tag_298\n        /* \"#utility.yul\":14531:14533   */\n      0x16\n        /* \"#utility.yul\":14526:14529   */\n      dup4\n        /* \"#utility.yul\":14467:14534   */\n      tag_131\n      jump\t// in\n    tag_298:\n        /* \"#utility.yul\":14460:14534   */\n      swap2\n      pop\n        /* \"#utility.yul\":14543:14636   */\n      tag_299\n        /* \"#utility.yul\":14632:14635   */\n      dup3\n        /* \"#utility.yul\":14543:14636   */\n      tag_139\n      jump\t// in\n    tag_299:\n        /* \"#utility.yul\":14661:14663   */\n      0x20\n        /* \"#utility.yul\":14656:14659   */\n      dup3\n        /* \"#utility.yul\":14652:14664   */\n      add\n        /* \"#utility.yul\":14645:14664   */\n      swap1\n      pop\n        /* \"#utility.yul\":14304:14670   */\n      swap2\n      swap1\n      pop\n      jump\t// out\n        /* \"#utility.yul\":14676:15095   */\n    tag_66:\n        /* \"#utility.yul\":14842:14846   */\n      0x00\n        /* \"#utility.yul\":14880:14882   */\n      0x20\n        /* \"#utility.yul\":14869:14878   */\n      dup3\n        /* \"#utility.yul\":14865:14883   */\n      add\n        /* \"#utility.yul\":14857:14883   */\n      swap1\n      pop\n        /* \"#utility.yul\":14929:14938   */\n      dup2\n        /* \"#utility.yul\":14923:14927   */\n      dup2\n        /* \"#utility.yul\":14919:14939   */\n      sub\n        /* \"#utility.yul\":14915:14916   */\n      0x00\n        /* \"#utility.yul\":14904:14913   */\n      dup4\n        /* \"#utility.yul\":14900:14917   */\n      add\n        /* \"#utility.yul\":14893:14940   */\n      mstore\n        /* \"#utility.yul\":14957:15088   */\n      tag_301\n        /* \"#utility.yul\":15083:15087   */\n      dup2\n        /* \"#utility.yul\":14957:15088   */\n      tag_140\n      jump\t// in\n    tag_301:\n        /* \"#utility.yul\":14949:15088   */\n      swap1\n      pop\n        /* \"#utility.yul\":14676:15095   */\n      swap2\n      swap1\n      pop\n      jump\t// out\n        /* \"#utility.yul\":15101:15334   */\n    tag_78:\n        /* \"#utility.yul\":15140:15143   */\n      0x00\n        /* \"#utility.yul\":15163:15187   */\n      tag_303\n        /* \"#utility.yul\":15181:15186   */\n      dup3\n        /* \"#utility.yul\":15163:15187   */\n      tag_102\n      jump\t// in\n    tag_303:\n        /* \"#utility.yul\":15154:15187   */\n      swap2\n      pop\n        /* \"#utility.yul\":15209:15275   */\n      0xffffffffffffffffffffffffffffffffffffffffffffffffffffffffffffffff\n        /* \"#utility.yul\":15202:15207   */\n      dup3\n        /* \"#utility.yul\":15199:15276   */\n      sub\n        /* \"#utility.yul\":15196:15299   */\n      tag_304\n      jumpi\n        /* \"#utility.yul\":15279:15297   */\n      tag_305\n      tag_137\n      jump\t// in\n    tag_305:\n        /* \"#utility.yul\":15196:15299   */\n    tag_304:\n        /* \"#utility.yul\":15326:15327   */\n      0x01\n        /* \"#utility.yul\":15319:15324   */\n      dup3\n        /* \"#utility.yul\":15315:15328   */\n      add\n        /* \"#utility.yul\":15308:15328   */\n      swap1\n      pop\n        /* \"#utility.yul\":15101:15334   */\n      swap2\n      swap1\n      pop\n      jump\t// out\n        /* \"#utility.yul\":15340:15508   */\n    tag_141:\n        /* \"#utility.yul\":15480:15500   */\n      0x547765657420697320746f6f206c6f6e672e0000000000000000000000000000\n        /* \"#utility.yul\":15476:15477   */\n      0x00\n        /* \"#utility.yul\":15468:15474   */\n      dup3\n        /* \"#utility.yul\":15464:15478   */\n      add\n        /* \"#utility.yul\":15457:15501   */\n      mstore\n        /* \"#utility.yul\":15340:15508   */\n      pop\n      jump\t// out\n        /* \"#utility.yul\":15514:15880   */\n    tag_142:\n        /* \"#utility.yul\":15656:15659   */\n      0x00\n        /* \"#utility.yul\":15677:15744   */\n      tag_308\n        /* \"#utility.yul\":15741:15743   */\n      0x12\n        /* \"#utility.yul\":15736:15739   */\n      dup4\n        /* \"#utility.yul\":15677:15744   */\n      tag_131\n      jump\t// in\n    tag_308:\n        /* \"#utility.yul\":15670:15744   */\n      swap2\n      pop\n        /* \"#utility.yul\":15753:15846   */\n      tag_309\n        /* \"#utility.yul\":15842:15845   */\n      dup3\n        /* \"#utility.yul\":15753:15846   */\n      tag_141\n      jump\t// in\n    tag_309:\n        /* \"#utility.yul\":15871:15873   */\n      0x20\n        /* \"#utility.yul\":15866:15869   */\n      dup3\n        /* \"#utility.yul\":15862:15874   */\n      add\n        /* \"#utility.yul\":15855:15874   */\n      swap1\n      pop\n        /* \"#utility.yul\":15514:15880   */\n      swap2\n      swap1\n      pop\n      jump\t// out\n        /* \"#utility.yul\":15886:16305   */\n    tag_82:\n        /* \"#utility.yul\":16052:16056   */\n      0x00\n        /* \"#utility.yul\":16090:16092   */\n      0x20\n        /* \"#utility.yul\":16079:16088   */\n      dup3\n        /* \"#utility.yul\":16075:16093   */\n      add\n        /* \"#utility.yul\":16067:16093   */\n      swap1\n      pop\n        /* \"#utility.yul\":16139:16148   */\n      dup2\n        /* \"#utility.yul\":16133:16137   */\n      dup2\n        /* \"#utility.yul\":16129:16149   */\n      sub\n        /* \"#utility.yul\":16125:16126   */\n      0x00\n        /* \"#utility.yul\":16114:16123   */\n      dup4\n        /* \"#utility.yul\":16110:16127   */\n      add\n        /* \"#utility.yul\":16103:16150   */\n      mstore\n        /* \"#utility.yul\":16167:16298   */\n      tag_311\n        /* \"#utility.yul\":16293:16297   */\n      dup2\n        /* \"#utility.yul\":16167:16298   */\n      tag_142\n      jump\t// in\n    tag_311:\n        /* \"#utility.yul\":16159:16298   */\n      swap1\n      pop\n        /* \"#utility.yul\":15886:16305   */\n      swap2\n      swap1\n      pop\n      jump\t// out\n        /* \"#utility.yul\":16311:16452   */\n    tag_143:\n        /* \"#utility.yul\":16360:16364   */\n      0x00\n        /* \"#utility.yul\":16383:16386   */\n      dup2\n        /* \"#utility.yul\":16375:16386   */\n      swap1\n      pop\n        /* \"#utility.yul\":16406:16409   */\n      dup2\n        /* \"#utility.yul\":16403:16404   */\n      0x00\n        /* \"#utility.yul\":16396:16410   */\n      mstore\n        /* \"#utility.yul\":16440:16444   */\n      0x20\n        /* \"#utility.yul\":16437:16438   */\n      0x00\n        /* \"#utility.yul\":16427:16445   */\n      keccak256\n        /* \"#utility.yul\":16419:16445   */\n      swap1\n      pop\n        /* \"#utility.yul\":16311:16452   */\n      swap2\n      swap1\n      pop\n      jump\t// out\n        /* \"#utility.yul\":16458:16551   */\n    tag_144:\n        /* \"#utility.yul\":16495:16501   */\n      0x00\n        /* \"#utility.yul\":16542:16544   */\n      0x20\n        /* \"#utility.yul\":16537:16539   */\n      0x1f\n        /* \"#utility.yul\":16530:16535   */\n      dup4\n        /* \"#utility.yul\":16526:16540   */\n      add\n        /* \"#utility.yul\":16522:16545   */\n      div\n        /* \"#utility.yul\":16512:16545   */\n      swap1\n      pop\n        /* \"#utility.yul\":16458:16551   */\n      swap2\n      swap1\n      pop\n      jump\t// out\n        /* \"#utility.yul\":16557:16664   */\n    tag_145:\n        /* \"#utility.yul\":16601:16609   */\n      0x00\n        /* \"#utility.yul\":16651:16656   */\n      dup3\n        /* \"#utility.yul\":16645:16649   */\n      dup3\n        /* \"#utility.yul\":16641:16657   */\n      shl\n        /* \"#utility.yul\":16620:16657   */\n      swap1\n      pop\n        /* \"#utility.yul\":16557:16664   */\n      swap3\n      swap2\n      pop\n      pop\n      jump\t// out\n        /* \"#utility.yul\":16670:17063   */\n    tag_146:\n        /* \"#utility.yul\":16739:16745   */\n      0x00\n        /* \"#utility.yul\":16789:16790   */\n      0x08\n        /* \"#utility.yul\":16777:16787   */\n      dup4\n        /* \"#utility.yul\":16773:16791   */\n      mul\n        /* \"#utility.yul\":16812:16909   */\n      tag_316\n        /* \"#utility.yul\":16842:16908   */\n      0xffffffffffffffffffffffffffffffffffffffffffffffffffffffffffffffff\n        /* \"#utility.yul\":16831:16840   */\n      dup3\n        /* \"#utility.yul\":16812:16909   */\n      tag_145\n      jump\t// in\n    tag_316:\n        /* \"#utility.yul\":16930:16969   */\n      tag_317\n        /* \"#utility.yul\":16960:16968   */\n      dup7\n        /* \"#utility.yul\":16949:16958   */\n      dup4\n        /* \"#utility.yul\":16930:16969   */\n      tag_145\n      jump\t// in\n    tag_317:\n        /* \"#utility.yul\":16918:16969   */\n      swap6\n      pop\n        /* \"#utility.yul\":17002:17006   */\n      dup1\n        /* \"#utility.yul\":16998:17007   */\n      not\n        /* \"#utility.yul\":16991:16996   */\n      dup5\n        /* \"#utility.yul\":16987:17008   */\n      and\n        /* \"#utility.yul\":16978:17008   */\n      swap4\n      pop\n        /* \"#utility.yul\":17051:17055   */\n      dup1\n        /* \"#utility.yul\":17041:17049   */\n      dup7\n        /* \"#utility.yul\":17037:17056   */\n      and\n        /* \"#utility.yul\":17030:17035   */\n      dup5\n        /* \"#utility.yul\":17027:17057   */\n      or\n        /* \"#utility.yul\":17017:17057   */\n      swap3\n      pop\n        /* \"#utility.yul\":16746:17063   */\n      pop\n      pop\n        /* \"#utility.yul\":16670:17063   */\n      swap4\n      swap3\n      pop\n      pop\n      pop\n      jump\t// out\n        /* \"#utility.yul\":17069:17129   */\n    tag_147:\n        /* \"#utility.yul\":17097:17100   */\n      0x00\n        /* \"#utility.yul\":17118:17123   */\n      dup2\n        /* \"#utility.yul\":17111:17123   */\n      swap1\n      pop\n        /* \"#utility.yul\":17069:17129   */\n      swap2\n      swap1\n      pop\n      jump\t// out\n        /* \"#utility.yul\":17135:17277   */\n    tag_148:\n        /* \"#utility.yul\":17185:17194   */\n      0x00\n        /* \"#utility.yul\":17218:17271   */\n      tag_320\n        /* \"#utility.yul\":17236:17270   */\n      tag_321\n        /* \"#utility.yul\":17245:17269   */\n      tag_322\n        /* \"#utility.yul\":17263:17268   */\n      dup5\n        /* \"#utility.yul\":17245:17269   */\n      tag_102\n      jump\t// in\n    tag_322:\n        /* \"#utility.yul\":17236:17270   */\n      tag_147\n      jump\t// in\n    tag_321:\n        /* \"#utility.yul\":17218:17271   */\n      tag_102\n      jump\t// in\n    tag_320:\n        /* \"#utility.yul\":17205:17271   */\n      swap1\n      pop\n        /* \"#utility.yul\":17135:17277   */\n      swap2\n      swap1\n      pop\n      jump\t// out\n        /* \"#utility.yul\":17283:17358   */\n    tag_149:\n        /* \"#utility.yul\":17326:17329   */\n      0x00\n        /* \"#utility.yul\":17347:17352   */\n      dup2\n        /* \"#utility.yul\":17340:17352   */\n      swap1\n      pop\n        /* \"#utility.yul\":17283:17358   */\n      swap2\n      swap1\n      pop\n      jump\t// out\n        /* \"#utility.yul\":17364:17633   */\n    tag_150:\n        /* \"#utility.yul\":17474:17513   */\n      tag_325\n        /* \"#utility.yul\":17505:17512   */\n      dup4\n        /* \"#utility.yul\":17474:17513   */\n      tag_148\n      jump\t// in\n    tag_325:\n        /* \"#utility.yul\":17535:17626   */\n      tag_326\n        /* \"#utility.yul\":17584:17625   */\n      tag_327\n        /* \"#utility.yul\":17608:17624   */\n      dup3\n        /* \"#utility.yul\":17584:17625   */\n      tag_149\n      jump\t// in\n    tag_327:\n        /* \"#utility.yul\":17576:17582   */\n      dup5\n        /* \"#utility.yul\":17569:17573   */\n      dup5\n        /* \"#utility.yul\":17563:17574   */\n      sload\n        /* \"#utility.yul\":17535:17626   */\n      tag_146\n      jump\t// in\n    tag_326:\n        /* \"#utility.yul\":17529:17533   */\n      dup3\n        /* \"#utility.yul\":17522:17627   */\n      sstore\n        /* \"#utility.yul\":17440:17633   */\n      pop\n        /* \"#utility.yul\":17364:17633   */\n      pop\n      pop\n      pop\n      jump\t// out\n        /* \"#utility.yul\":17639:17712   */\n    tag_151:\n        /* \"#utility.yul\":17684:17687   */\n      0x00\n        /* \"#utility.yul\":17639:17712   */\n      swap1\n      jump\t// out\n        /* \"#utility.yul\":17718:17907   */\n    tag_152:\n        /* \"#utility.yul\":17795:17827   */\n      tag_330\n      tag_151\n      jump\t// in\n    tag_330:\n        /* \"#utility.yul\":17836:17901   */\n      tag_331\n        /* \"#utility.yul\":17894:17900   */\n      dup2\n        /* \"#utility.yul\":17886:17892   */\n      dup5\n        /* \"#utility.yul\":17880:17884   */\n      dup5\n        /* \"#utility.yul\":17836:17901   */\n      tag_150\n      jump\t// in\n    tag_331:\n        /* \"#utility.yul\":17771:17907   */\n      pop\n        /* \"#utility.yul\":17718:17907   */\n      pop\n      pop\n      jump\t// out\n        /* \"#utility.yul\":17913:18099   */\n    tag_153:\n        /* \"#utility.yul\":17973:18093   */\n    tag_333:\n        /* \"#utility.yul\":17990:17993   */\n      dup2\n        /* \"#utility.yul\":17983:17988   */\n      dup2\n        /* \"#utility.yul\":17980:17994   */\n      lt\n        /* \"#utility.yul\":17973:18093   */\n      iszero\n      tag_335\n      jumpi\n        /* \"#utility.yul\":18044:18083   */\n      tag_336\n        /* \"#utility.yul\":18081:18082   */\n      0x00\n        /* \"#utility.yul\":18074:18079   */\n      dup3\n        /* \"#utility.yul\":18044:18083   */\n      tag_152\n      jump\t// in\n    tag_336:\n        /* \"#utility.yul\":18017:18018   */\n      0x01\n        /* \"#utility.yul\":18010:18015   */\n      dup2\n        /* \"#utility.yul\":18006:18019   */\n      add\n        /* \"#utility.yul\":17997:18019   */\n      swap1\n      pop\n        /* \"#utility.yul\":17973:18093   */\n      jump(tag_333)\n    tag_335:\n        /* \"#utility.yul\":17913:18099   */\n      pop\n      pop\n      jump\t// out\n        /* \"#utility.yul\":18105:18648   */\n    tag_154:\n        /* \"#utility.yul\":18206:18208   */\n      0x1f\n        /* \"#utility.yul\":18201:18204   */\n      dup3\n        /* \"#utility.yul\":18198:18209   */\n      gt\n        /* \"#utility.yul\":18195:18641   */\n      iszero\n      tag_338\n      jumpi\n        /* \"#utility.yul\":18240:18278   */\n      tag_339\n        /* \"#utility.yul\":18272:18277   */\n      dup2\n        /* \"#utility.yul\":18240:18278   */\n      tag_143\n      jump\t// in\n    tag_339:\n        /* \"#utility.yul\":18324:18353   */\n      tag_340\n        /* \"#utility.yul\":18342:18352   */\n      dup5\n        /* \"#utility.yul\":18324:18353   */\n      tag_144\n      jump\t// in\n    tag_340:\n        /* \"#utility.yul\":18314:18322   */\n      dup2\n        /* \"#utility.yul\":18310:18354   */\n      add\n        /* \"#utility.yul\":18507:18509   */\n      0x20\n        /* \"#utility.yul\":18495:18505   */\n      dup6\n        /* \"#utility.yul\":18492:18510   */\n      lt\n        /* \"#utility.yul\":18489:18538   */\n      iszero\n      tag_341\n      jumpi\n        /* \"#utility.yul\":18528:18536   */\n      dup2\n        /* \"#utility.yul\":18513:18536   */\n      swap1\n      pop\n        /* \"#utility.yul\":18489:18538   */\n    tag_341:\n        /* \"#utility.yul\":18551:18631   */\n      tag_342\n        /* \"#utility.yul\":18607:18629   */\n      tag_343\n        /* \"#utility.yul\":18625:18628   */\n      dup6\n        /* \"#utility.yul\":18607:18629   */\n      tag_144\n      jump\t// in\n    tag_343:\n        /* \"#utility.yul\":18597:18605   */\n      dup4\n        /* \"#utility.yul\":18593:18630   */\n      add\n        /* \"#utility.yul\":18580:18591   */\n      dup3\n        /* \"#utility.yul\":18551:18631   */\n      tag_153\n      jump\t// in\n    tag_342:\n        /* \"#utility.yul\":18210:18641   */\n      pop\n      pop\n        /* \"#utility.yul\":18195:18641   */\n    tag_338:\n        /* \"#utility.yul\":18105:18648   */\n      pop\n      pop\n      pop\n      jump\t// out\n        /* \"#utility.yul\":18654:18771   */\n    tag_155:\n        /* \"#utility.yul\":18708:18716   */\n      0x00\n        /* \"#utility.yul\":18758:18763   */\n      dup3\n        /* \"#utility.yul\":18752:18756   */\n      dup3\n        /* \"#utility.yul\":18748:18764   */\n      shr\n        /* \"#utility.yul\":18727:18764   */\n      swap1\n      pop\n        /* \"#utility.yul\":18654:18771   */\n      swap3\n      swap2\n      pop\n      pop\n      jump\t// out\n        /* \"#utility.yul\":18777:18946   */\n    tag_156:\n        /* \"#utility.yul\":18821:18827   */\n      0x00\n        /* \"#utility.yul\":18854:18905   */\n      tag_346\n        /* \"#utility.yul\":18902:18903   */\n      0x00\n        /* \"#utility.yul\":18898:18904   */\n      not\n        /* \"#utility.yul\":18890:18895   */\n      dup5\n        /* \"#utility.yul\":18887:18888   */\n      0x08\n        /* \"#utility.yul\":18883:18896   */\n      mul\n        /* \"#utility.yul\":18854:18905   */\n      tag_155\n      jump\t// in\n    tag_346:\n        /* \"#utility.yul\":18850:18906   */\n      not\n        /* \"#utility.yul\":18935:18939   */\n      dup1\n        /* \"#utility.yul\":18929:18933   */\n      dup4\n        /* \"#utility.yul\":18925:18940   */\n      and\n        /* \"#utility.yul\":18915:18940   */\n      swap2\n      pop\n        /* \"#utility.yul\":18828:18946   */\n      pop\n        /* \"#utility.yul\":18777:18946   */\n      swap3\n      swap2\n      pop\n      pop\n      jump\t// out\n        /* \"#utility.yul\":18951:19246   */\n    tag_157:\n        /* \"#utility.yul\":19027:19031   */\n      0x00\n        /* \"#utility.yul\":19173:19202   */\n      tag_348\n        /* \"#utility.yul\":19198:19201   */\n      dup4\n        /* \"#utility.yul\":19192:19196   */\n      dup4\n        /* \"#utility.yul\":19173:19202   */\n      tag_156\n      jump\t// in\n    tag_348:\n        /* \"#utility.yul\":19165:19202   */\n      swap2\n      pop\n        /* \"#utility.yul\":19235:19238   */\n      dup3\n        /* \"#utility.yul\":19232:19233   */\n      0x02\n        /* \"#utility.yul\":19228:19239   */\n      mul\n        /* \"#utility.yul\":19222:19226   */\n      dup3\n        /* \"#utility.yul\":19219:19240   */\n      or\n        /* \"#utility.yul\":19211:19240   */\n      swap1\n      pop\n        /* \"#utility.yul\":18951:19246   */\n      swap3\n      swap2\n      pop\n      pop\n      jump\t// out\n        /* \"#utility.yul\":19251:20646   */\n    tag_85:\n        /* \"#utility.yul\":19368:19405   */\n      tag_350\n        /* \"#utility.yul\":19401:19404   */\n      dup3\n        /* \"#utility.yul\":19368:19405   */\n      tag_110\n      jump\t// in\n    tag_350:\n        /* \"#utility.yul\":19470:19488   */\n      0xffffffffffffffff\n        /* \"#utility.yul\":19462:19468   */\n      dup2\n        /* \"#utility.yul\":19459:19489   */\n      gt\n        /* \"#utility.yul\":19456:19512   */\n      iszero\n      tag_351\n      jumpi\n        /* \"#utility.yul\":19492:19510   */\n      tag_352\n      tag_124\n      jump\t// in\n    tag_352:\n        /* \"#utility.yul\":19456:19512   */\n    tag_351:\n        /* \"#utility.yul\":19536:19574   */\n      tag_353\n        /* \"#utility.yul\":19568:19572   */\n      dup3\n        /* \"#utility.yul\":19562:19573   */\n      sload\n        /* \"#utility.yul\":19536:19574   */\n      tag_58\n      jump\t// in\n    tag_353:\n        /* \"#utility.yul\":19621:19688   */\n      tag_354\n        /* \"#utility.yul\":19681:19687   */\n      dup3\n        /* \"#utility.yul\":19673:19679   */\n      dup3\n        /* \"#utility.yul\":19667:19671   */\n      dup6\n        /* \"#utility.yul\":19621:19688   */\n      tag_154\n      jump\t// in\n    tag_354:\n        /* \"#utility.yul\":19715:19716   */\n      0x00\n        /* \"#utility.yul\":19739:19743   */\n      0x20\n        /* \"#utility.yul\":19726:19743   */\n      swap1\n      pop\n        /* \"#utility.yul\":19771:19773   */\n      0x1f\n        /* \"#utility.yul\":19763:19769   */\n      dup4\n        /* \"#utility.yul\":19760:19774   */\n      gt\n        /* \"#utility.yul\":19788:19789   */\n      0x01\n        /* \"#utility.yul\":19783:20401   */\n      dup2\n      eq\n      tag_356\n      jumpi\n        /* \"#utility.yul\":20445:20446   */\n      0x00\n        /* \"#utility.yul\":20462:20468   */\n      dup5\n        /* \"#utility.yul\":20459:20536   */\n      iszero\n      tag_357\n      jumpi\n        /* \"#utility.yul\":20511:20520   */\n      dup3\n        /* \"#utility.yul\":20506:20509   */\n      dup8\n        /* \"#utility.yul\":20502:20521   */\n      add\n        /* \"#utility.yul\":20496:20522   */\n      mload\n        /* \"#utility.yul\":20487:20522   */\n      swap1\n      pop\n        /* \"#utility.yul\":20459:20536   */\n    tag_357:\n        /* \"#utility.yul\":20562:20629   */\n      tag_358\n        /* \"#utility.yul\":20622:20628   */\n      dup6\n        /* \"#utility.yul\":20615:20620   */\n      dup3\n        /* \"#utility.yul\":20562:20629   */\n      tag_157\n      jump\t// in\n    tag_358:\n        /* \"#utility.yul\":20556:20560   */\n      dup7\n        /* \"#utility.yul\":20549:20630   */\n      sstore\n        /* \"#utility.yul\":20418:20640   */\n      pop\n        /* \"#utility.yul\":19753:20640   */\n      jump(tag_355)\n        /* \"#utility.yul\":19783:20401   */\n    tag_356:\n        /* \"#utility.yul\":19835:19839   */\n      0x1f\n        /* \"#utility.yul\":19831:19840   */\n      not\n        /* \"#utility.yul\":19823:19829   */\n      dup5\n        /* \"#utility.yul\":19819:19841   */\n      and\n        /* \"#utility.yul\":19869:19906   */\n      tag_359\n        /* \"#utility.yul\":19901:19905   */\n      dup7\n        /* \"#utility.yul\":19869:19906   */\n      tag_143\n      jump\t// in\n    tag_359:\n        /* \"#utility.yul\":19928:19929   */\n      0x00\n        /* \"#utility.yul\":19942:20150   */\n    tag_360:\n        /* \"#utility.yul\":19956:19963   */\n      dup3\n        /* \"#utility.yul\":19953:19954   */\n      dup2\n        /* \"#utility.yul\":19950:19964   */\n      lt\n        /* \"#utility.yul\":19942:20150   */\n      iszero\n      tag_362\n      jumpi\n        /* \"#utility.yul\":20035:20044   */\n      dup5\n        /* \"#utility.yul\":20030:20033   */\n      dup10\n        /* \"#utility.yul\":20026:20045   */\n      add\n        /* \"#utility.yul\":20020:20046   */\n      mload\n        /* \"#utility.yul\":20012:20018   */\n      dup3\n        /* \"#utility.yul\":20005:20047   */\n      sstore\n        /* \"#utility.yul\":20086:20087   */\n      0x01\n        /* \"#utility.yul\":20078:20084   */\n      dup3\n        /* \"#utility.yul\":20074:20088   */\n      add\n        /* \"#utility.yul\":20064:20088   */\n      swap2\n      pop\n        /* \"#utility.yul\":20133:20135   */\n      0x20\n        /* \"#utility.yul\":20122:20131   */\n      dup6\n        /* \"#utility.yul\":20118:20136   */\n      add\n        /* \"#utility.yul\":20105:20136   */\n      swap5\n      pop\n        /* \"#utility.yul\":19979:19983   */\n      0x20\n        /* \"#utility.yul\":19976:19977   */\n      dup2\n        /* \"#utility.yul\":19972:19984   */\n      add\n        /* \"#utility.yul\":19967:19984   */\n      swap1\n      pop\n        /* \"#utility.yul\":19942:20150   */\n      jump(tag_360)\n    tag_362:\n        /* \"#utility.yul\":20178:20184   */\n      dup7\n        /* \"#utility.yul\":20169:20176   */\n      dup4\n        /* \"#utility.yul\":20166:20185   */\n      lt\n        /* \"#utility.yul\":20163:20342   */\n      iszero\n      tag_363\n      jumpi\n        /* \"#utility.yul\":20236:20245   */\n      dup5\n        /* \"#utility.yul\":20231:20234   */\n      dup10\n        /* \"#utility.yul\":20227:20246   */\n      add\n        /* \"#utility.yul\":20221:20247   */\n      mload\n        /* \"#utility.yul\":20279:20327   */\n      tag_364\n        /* \"#utility.yul\":20321:20325   */\n      0x1f\n        /* \"#utility.yul\":20313:20319   */\n      dup10\n        /* \"#utility.yul\":20309:20326   */\n      and\n        /* \"#utility.yul\":20298:20307   */\n      dup3\n        /* \"#utility.yul\":20279:20327   */\n      tag_156\n      jump\t// in\n    tag_364:\n        /* \"#utility.yul\":20271:20277   */\n      dup4\n        /* \"#utility.yul\":20264:20328   */\n      sstore\n        /* \"#utility.yul\":20186:20342   */\n      pop\n        /* \"#utility.yul\":20163:20342   */\n    tag_363:\n        /* \"#utility.yul\":20388:20389   */\n      0x01\n        /* \"#utility.yul\":20384:20385   */\n      0x02\n        /* \"#utility.yul\":20376:20382   */\n      dup9\n        /* \"#utility.yul\":20372:20386   */\n      mul\n        /* \"#utility.yul\":20368:20390   */\n      add\n        /* \"#utility.yul\":20362:20366   */\n      dup9\n        /* \"#utility.yul\":20355:20391   */\n      sstore\n        /* \"#utility.yul\":19790:20401   */\n      pop\n      pop\n      pop\n        /* \"#utility.yul\":19753:20640   */\n    tag_355:\n      pop\n        /* \"#utility.yul\":19343:20646   */\n      pop\n      pop\n      pop\n        /* \"#utility.yul\":19251:20646   */\n      pop\n      pop\n      jump\t// out\n\n    auxdata: 0xa26469706673582212207e1181da9eba960072770e1ce54fb89f6ebd75756bcd19641095eec7cda15eb464736f6c63430008160033\n}\n",
				"bytecode": {
					"linkReferences": {},
					"object": "60806040526101185f806101000a81548161ffff021916908361ffff16021790555034801561002c575f80fd5b503360025f6101000a81548173ffffffffffffffffffffffffffffffffffffffff021916908373ffffffffffffffffffffffffffffffffffffffff16021790555061137a8061007a5f395ff3fe608060405234801561000f575f80fd5b5060043610610060575f3560e01c80633d9b569f14610064578063532561351461008057806358bfa4ab1461009e57806363378216146100ba5780637c9cd2bc146100d6578063c3ad5ecb146100f2575b5f80fd5b61007e60048036038101906100799190610977565b610122565b005b6100886102d8565b6040516100959190610b8b565b60405180910390f35b6100b860048036038101906100b39190610be2565b610471565b005b6100d460048036038101906100cf9190610977565b61051e565b005b6100f060048036038101906100eb9190610d39565b610634565b005b61010c60048036038101906101079190610d80565b6107eb565b6040516101199190610df3565b60405180910390f35b8060015f8473ffffffffffffffffffffffffffffffffffffffff1673ffffffffffffffffffffffffffffffffffffffff1681526020019081526020015f20828154811061017257610171610e13565b5b905f5260205f2090600502015f0154146101c1576040517f08c379a00000000000000000000000000000000000000000000000000000000081526004016101b890610e8a565b60405180910390fd5b5f60015f8473ffffffffffffffffffffffffffffffffffffffff1673ffffffffffffffffffffffffffffffffffffffff1681526020019081526020015f20828154811061021157610210610e13565b5b905f5260205f2090600502016004015411610261576040517f08c379a000000000000000000000000000000000000000000000000000000000815260040161025890610ef2565b60405180910390fd5b60015f8373ffffffffffffffffffffffffffffffffffffffff1673ffffffffffffffffffffffffffffffffffffffff1681526020019081526020015f2081815481106102b0576102af610e13565b5b905f5260205f2090600502016004015f8154809291906102cf90610f3d565b91905055505050565b606060015f3373ffffffffffffffffffffffffffffffffffffffff1673ffffffffffffffffffffffffffffffffffffffff1681526020019081526020015f20805480602002602001604051908101604052809291908181526020015f905b82821015610468578382905f5260205f2090600502016040518060a00160405290815f8201548152602001600182015f9054906101000a900473ffffffffffffffffffffffffffffffffffffffff1673ffffffffffffffffffffffffffffffffffffffff1673ffffffffffffffffffffffffffffffffffffffff1681526020016002820180546103c590610f91565b80601f01602080910402602001604051908101604052809291908181526020018280546103f190610f91565b801561043c5780601f106104135761010080835404028352916020019161043c565b820191905f5260205f20905b81548152906001019060200180831161041f57829003601f168201915b505050505081526020016003820154815260200160048201548152505081526020019060010190610336565b50505050905090565b60025f9054906101000a900473ffffffffffffffffffffffffffffffffffffffff1673ffffffffffffffffffffffffffffffffffffffff163373ffffffffffffffffffffffffffffffffffffffff1614610500576040517f08c379a00000000000000000000000000000000000000000000000000000000081526004016104f79061100b565b60405180910390fd5b805f806101000a81548161ffff021916908361ffff16021790555050565b8060015f8473ffffffffffffffffffffffffffffffffffffffff1673ffffffffffffffffffffffffffffffffffffffff1681526020019081526020015f20828154811061056e5761056d610e13565b5b905f5260205f2090600502015f0154146105bd576040517f08c379a00000000000000000000000000000000000000000000000000000000081526004016105b490610e8a565b60405180910390fd5b60015f8373ffffffffffffffffffffffffffffffffffffffff1673ffffffffffffffffffffffffffffffffffffffff1681526020019081526020015f20818154811061060c5761060b610e13565b5b905f5260205f2090600502016004015f81548092919061062b90611029565b91905055505050565b5f8054906101000a900461ffff1661ffff1681511115610689576040517f08c379a0000000000000000000000000000000000000000000000000000000008152600401610680906110ba565b60405180910390fd5b5f6040518060a0016040528060015f3373ffffffffffffffffffffffffffffffffffffffff1673ffffffffffffffffffffffffffffffffffffffff1681526020019081526020015f208054905081526020013373ffffffffffffffffffffffffffffffffffffffff1681526020018381526020014281526020015f815250905060015f3373ffffffffffffffffffffffffffffffffffffffff1673ffffffffffffffffffffffffffffffffffffffff1681526020019081526020015f2081908060018154018082558091505060019003905f5260205f2090600502015f909190919091505f820151815f01556020820151816001015f6101000a81548173ffffffffffffffffffffffffffffffffffffffff021916908373ffffffffffffffffffffffffffffffffffffffff16021790555060408201518160020190816107d09190611275565b50606082015181600301556080820151816004015550505050565b606060015f3373ffffffffffffffffffffffffffffffffffffffff1673ffffffffffffffffffffffffffffffffffffffff1681526020019081526020015f20828154811061083c5761083b610e13565b5b905f5260205f209060050201600201805461085690610f91565b80601f016020809104026020016040519081016040528092919081815260200182805461088290610f91565b80156108cd5780601f106108a4576101008083540402835291602001916108cd565b820191905f5260205f20905b8154815290600101906020018083116108b057829003601f168201915b50505050509050919050565b5f604051905090565b5f80fd5b5f80fd5b5f73ffffffffffffffffffffffffffffffffffffffff82169050919050565b5f610913826108ea565b9050919050565b61092381610909565b811461092d575f80fd5b50565b5f8135905061093e8161091a565b92915050565b5f819050919050565b61095681610944565b8114610960575f80fd5b50565b5f813590506109718161094d565b92915050565b5f806040838503121561098d5761098c6108e2565b5b5f61099a85828601610930565b92505060206109ab85828601610963565b9150509250929050565b5f81519050919050565b5f82825260208201905092915050565b5f819050602082019050919050565b6109e781610944565b82525050565b6109f681610909565b82525050565b5f81519050919050565b5f82825260208201905092915050565b5f5b83811015610a33578082015181840152602081019050610a18565b5f8484015250505050565b5f601f19601f8301169050919050565b5f610a58826109fc565b610a628185610a06565b9350610a72818560208601610a16565b610a7b81610a3e565b840191505092915050565b5f60a083015f830151610a9b5f8601826109de565b506020830151610aae60208601826109ed565b5060408301518482036040860152610ac68282610a4e565b9150506060830151610adb60608601826109de565b506080830151610aee60808601826109de565b508091505092915050565b5f610b048383610a86565b905092915050565b5f602082019050919050565b5f610b22826109b5565b610b2c81856109bf565b935083602082028501610b3e856109cf565b805f5b85811015610b795784840389528151610b5a8582610af9565b9450610b6583610b0c565b925060208a01995050600181019050610b41565b50829750879550505050505092915050565b5f6020820190508181035f830152610ba38184610b18565b905092915050565b5f61ffff82169050919050565b610bc181610bab565b8114610bcb575f80fd5b50565b5f81359050610bdc81610bb8565b92915050565b5f60208284031215610bf757610bf66108e2565b5b5f610c0484828501610bce565b91505092915050565b5f80fd5b5f80fd5b7f4e487b71000000000000000000000000000000000000000000000000000000005f52604160045260245ffd5b610c4b82610a3e565b810181811067ffffffffffffffff82111715610c6a57610c69610c15565b5b80604052505050565b5f610c7c6108d9565b9050610c888282610c42565b919050565b5f67ffffffffffffffff821115610ca757610ca6610c15565b5b610cb082610a3e565b9050602081019050919050565b828183375f83830152505050565b5f610cdd610cd884610c8d565b610c73565b905082815260208101848484011115610cf957610cf8610c11565b5b610d04848285610cbd565b509392505050565b5f82601f830112610d2057610d1f610c0d565b5b8135610d30848260208601610ccb565b91505092915050565b5f60208284031215610d4e57610d4d6108e2565b5b5f82013567ffffffffffffffff811115610d6b57610d6a6108e6565b5b610d7784828501610d0c565b91505092915050565b5f60208284031215610d9557610d946108e2565b5b5f610da284828501610963565b91505092915050565b5f82825260208201905092915050565b5f610dc5826109fc565b610dcf8185610dab565b9350610ddf818560208601610a16565b610de881610a3e565b840191505092915050565b5f6020820190508181035f830152610e0b8184610dbb565b905092915050565b7f4e487b71000000000000000000000000000000000000000000000000000000005f52603260045260245ffd5b7f547765657420646f6573206e6f742065786973740000000000000000000000005f82015250565b5f610e74601483610dab565b9150610e7f82610e40565b602082019050919050565b5f6020820190508181035f830152610ea181610e68565b9050919050565b7f547765657420646f65736e2774206861766520616e79206c696b6573000000005f82015250565b5f610edc601c83610dab565b9150610ee782610ea8565b602082019050919050565b5f6020820190508181035f830152610f0981610ed0565b9050919050565b7f4e487b71000000000000000000000000000000000000000000000000000000005f52601160045260245ffd5b5f610f4782610944565b91505f8203610f5957610f58610f10565b5b600182039050919050565b7f4e487b71000000000000000000000000000000000000000000000000000000005f52602260045260245ffd5b5f6002820490506001821680610fa857607f821691505b602082108103610fbb57610fba610f64565b5b50919050565b7f596f7520617265206e6f7420746865206f776e657221000000000000000000005f82015250565b5f610ff5601683610dab565b915061100082610fc1565b602082019050919050565b5f6020820190508181035f83015261102281610fe9565b9050919050565b5f61103382610944565b91507fffffffffffffffffffffffffffffffffffffffffffffffffffffffffffffffff820361106557611064610f10565b5b600182019050919050565b7f547765657420697320746f6f206c6f6e672e00000000000000000000000000005f82015250565b5f6110a4601283610dab565b91506110af82611070565b602082019050919050565b5f6020820190508181035f8301526110d181611098565b9050919050565b5f819050815f5260205f209050919050565b5f6020601f8301049050919050565b5f82821b905092915050565b5f600883026111347fffffffffffffffffffffffffffffffffffffffffffffffffffffffffffffffff826110f9565b61113e86836110f9565b95508019841693508086168417925050509392505050565b5f819050919050565b5f61117961117461116f84610944565b611156565b610944565b9050919050565b5f819050919050565b6111928361115f565b6111a661119e82611180565b848454611105565b825550505050565b5f90565b6111ba6111ae565b6111c5818484611189565b505050565b5b818110156111e8576111dd5f826111b2565b6001810190506111cb565b5050565b601f82111561122d576111fe816110d8565b611207846110ea565b81016020851015611216578190505b61122a611222856110ea565b8301826111ca565b50505b505050565b5f82821c905092915050565b5f61124d5f1984600802611232565b1980831691505092915050565b5f611265838361123e565b9150826002028217905092915050565b61127e826109fc565b67ffffffffffffffff81111561129757611296610c15565b5b6112a18254610f91565b6112ac8282856111ec565b5f60209050601f8311600181146112dd575f84156112cb578287015190505b6112d5858261125a565b86555061133c565b601f1984166112eb866110d8565b5f5b82811015611312578489015182556001820191506020850194506020810190506112ed565b8683101561132f578489015161132b601f89168261123e565b8355505b6001600288020188555050505b50505050505056fea26469706673582212207e1181da9eba960072770e1ce54fb89f6ebd75756bcd19641095eec7cda15eb464736f6c63430008160033",
					"opcodes": "PUSH1 0x80 PUSH1 0x40 MSTORE PUSH2 0x118 PUSH0 DUP1 PUSH2 0x100 EXP DUP2 SLOAD DUP2 PUSH2 0xFFFF MUL NOT AND SWAP1 DUP4 PUSH2 0xFFFF AND MUL OR SWAP1 SSTORE POP CALLVALUE DUP1 ISZERO PUSH2 0x2C JUMPI PUSH0 DUP1 REVERT JUMPDEST POP CALLER PUSH1 0x2 PUSH0 PUSH2 0x100 EXP DUP2 SLOAD DUP2 PUSH20 0xFFFFFFFFFFFFFFFFFFFFFFFFFFFFFFFFFFFFFFFF MUL NOT AND SWAP1 DUP4 PUSH20 0xFFFFFFFFFFFFFFFFFFFFFFFFFFFFFFFFFFFFFFFF AND MUL OR SWAP1 SSTORE POP PUSH2 0x137A DUP1 PUSH2 0x7A PUSH0 CODECOPY PUSH0 RETURN INVALID PUSH1 0x80 PUSH1 0x40 MSTORE CALLVALUE DUP1 ISZERO PUSH2 0xF JUMPI PUSH0 DUP1 REVERT JUMPDEST POP PUSH1 0x4 CALLDATASIZE LT PUSH2 0x60 JUMPI PUSH0 CALLDATALOAD PUSH1 0xE0 SHR DUP1 PUSH4 0x3D9B569F EQ PUSH2 0x64 JUMPI DUP1 PUSH4 0x53256135 EQ PUSH2 0x80 JUMPI DUP1 PUSH4 0x58BFA4AB EQ PUSH2 0x9E JUMPI DUP1 PUSH4 0x63378216 EQ PUSH2 0xBA JUMPI DUP1 PUSH4 0x7C9CD2BC EQ PUSH2 0xD6 JUMPI DUP1 PUSH4 0xC3AD5ECB EQ PUSH2 0xF2 JUMPI JUMPDEST PUSH0 DUP1 REVERT JUMPDEST PUSH2 0x7E PUSH1 0x4 DUP1 CALLDATASIZE SUB DUP2 ADD SWAP1 PUSH2 0x79 SWAP2 SWAP1 PUSH2 0x977 JUMP JUMPDEST PUSH2 0x122 JUMP JUMPDEST STOP JUMPDEST PUSH2 0x88 PUSH2 0x2D8 JUMP JUMPDEST PUSH1 0x40 MLOAD PUSH2 0x95 SWAP2 SWAP1 PUSH2 0xB8B JUMP JUMPDEST PUSH1 0x40 MLOAD DUP1 SWAP2 SUB SWAP1 RETURN JUMPDEST PUSH2 0xB8 PUSH1 0x4 DUP1 CALLDATASIZE SUB DUP2 ADD SWAP1 PUSH2 0xB3 SWAP2 SWAP1 PUSH2 0xBE2 JUMP JUMPDEST PUSH2 0x471 JUMP JUMPDEST STOP JUMPDEST PUSH2 0xD4 PUSH1 0x4 DUP1 CALLDATASIZE SUB DUP2 ADD SWAP1 PUSH2 0xCF SWAP2 SWAP1 PUSH2 0x977 JUMP JUMPDEST PUSH2 0x51E JUMP JUMPDEST STOP JUMPDEST PUSH2 0xF0 PUSH1 0x4 DUP1 CALLDATASIZE SUB DUP2 ADD SWAP1 PUSH2 0xEB SWAP2 SWAP1 PUSH2 0xD39 JUMP JUMPDEST PUSH2 0x634 JUMP JUMPDEST STOP JUMPDEST PUSH2 0x10C PUSH1 0x4 DUP1 CALLDATASIZE SUB DUP2 ADD SWAP1 PUSH2 0x107 SWAP2 SWAP1 PUSH2 0xD80 JUMP JUMPDEST PUSH2 0x7EB JUMP JUMPDEST PUSH1 0x40 MLOAD PUSH2 0x119 SWAP2 SWAP1 PUSH2 0xDF3 JUMP JUMPDEST PUSH1 0x40 MLOAD DUP1 SWAP2 SUB SWAP1 RETURN JUMPDEST DUP1 PUSH1 0x1 PUSH0 DUP5 PUSH20 0xFFFFFFFFFFFFFFFFFFFFFFFFFFFFFFFFFFFFFFFF AND PUSH20 0xFFFFFFFFFFFFFFFFFFFFFFFFFFFFFFFFFFFFFFFF AND DUP2 MSTORE PUSH1 0x20 ADD SWAP1 DUP2 MSTORE PUSH1 0x20 ADD PUSH0 KECCAK256 DUP3 DUP2 SLOAD DUP2 LT PUSH2 0x172 JUMPI PUSH2 0x171 PUSH2 0xE13 JUMP JUMPDEST JUMPDEST SWAP1 PUSH0 MSTORE PUSH1 0x20 PUSH0 KECCAK256 SWAP1 PUSH1 0x5 MUL ADD PUSH0 ADD SLOAD EQ PUSH2 0x1C1 JUMPI PUSH1 0x40 MLOAD PUSH32 0x8C379A000000000000000000000000000000000000000000000000000000000 DUP2 MSTORE PUSH1 0x4 ADD PUSH2 0x1B8 SWAP1 PUSH2 0xE8A JUMP JUMPDEST PUSH1 0x40 MLOAD DUP1 SWAP2 SUB SWAP1 REVERT JUMPDEST PUSH0 PUSH1 0x1 PUSH0 DUP5 PUSH20 0xFFFFFFFFFFFFFFFFFFFFFFFFFFFFFFFFFFFFFFFF AND PUSH20 0xFFFFFFFFFFFFFFFFFFFFFFFFFFFFFFFFFFFFFFFF AND DUP2 MSTORE PUSH1 0x20 ADD SWAP1 DUP2 MSTORE PUSH1 0x20 ADD PUSH0 KECCAK256 DUP3 DUP2 SLOAD DUP2 LT PUSH2 0x211 JUMPI PUSH2 0x210 PUSH2 0xE13 JUMP JUMPDEST JUMPDEST SWAP1 PUSH0 MSTORE PUSH1 0x20 PUSH0 KECCAK256 SWAP1 PUSH1 0x5 MUL ADD PUSH1 0x4 ADD SLOAD GT PUSH2 0x261 JUMPI PUSH1 0x40 MLOAD PUSH32 0x8C379A000000000000000000000000000000000000000000000000000000000 DUP2 MSTORE PUSH1 0x4 ADD PUSH2 0x258 SWAP1 PUSH2 0xEF2 JUMP JUMPDEST PUSH1 0x40 MLOAD DUP1 SWAP2 SUB SWAP1 REVERT JUMPDEST PUSH1 0x1 PUSH0 DUP4 PUSH20 0xFFFFFFFFFFFFFFFFFFFFFFFFFFFFFFFFFFFFFFFF AND PUSH20 0xFFFFFFFFFFFFFFFFFFFFFFFFFFFFFFFFFFFFFFFF AND DUP2 MSTORE PUSH1 0x20 ADD SWAP1 DUP2 MSTORE PUSH1 0x20 ADD PUSH0 KECCAK256 DUP2 DUP2 SLOAD DUP2 LT PUSH2 0x2B0 JUMPI PUSH2 0x2AF PUSH2 0xE13 JUMP JUMPDEST JUMPDEST SWAP1 PUSH0 MSTORE PUSH1 0x20 PUSH0 KECCAK256 SWAP1 PUSH1 0x5 MUL ADD PUSH1 0x4 ADD PUSH0 DUP2 SLOAD DUP1 SWAP3 SWAP2 SWAP1 PUSH2 0x2CF SWAP1 PUSH2 0xF3D JUMP JUMPDEST SWAP2 SWAP1 POP SSTORE POP POP POP JUMP JUMPDEST PUSH1 0x60 PUSH1 0x1 PUSH0 CALLER PUSH20 0xFFFFFFFFFFFFFFFFFFFFFFFFFFFFFFFFFFFFFFFF AND PUSH20 0xFFFFFFFFFFFFFFFFFFFFFFFFFFFFFFFFFFFFFFFF AND DUP2 MSTORE PUSH1 0x20 ADD SWAP1 DUP2 MSTORE PUSH1 0x20 ADD PUSH0 KECCAK256 DUP1 SLOAD DUP1 PUSH1 0x20 MUL PUSH1 0x20 ADD PUSH1 0x40 MLOAD SWAP1 DUP2 ADD PUSH1 0x40 MSTORE DUP1 SWAP3 SWAP2 SWAP1 DUP2 DUP2 MSTORE PUSH1 0x20 ADD PUSH0 SWAP1 JUMPDEST DUP3 DUP3 LT ISZERO PUSH2 0x468 JUMPI DUP4 DUP3 SWAP1 PUSH0 MSTORE PUSH1 0x20 PUSH0 KECCAK256 SWAP1 PUSH1 0x5 MUL ADD PUSH1 0x40 MLOAD DUP1 PUSH1 0xA0 ADD PUSH1 0x40 MSTORE SWAP1 DUP2 PUSH0 DUP3 ADD SLOAD DUP2 MSTORE PUSH1 0x20 ADD PUSH1 0x1 DUP3 ADD PUSH0 SWAP1 SLOAD SWAP1 PUSH2 0x100 EXP SWAP1 DIV PUSH20 0xFFFFFFFFFFFFFFFFFFFFFFFFFFFFFFFFFFFFFFFF AND PUSH20 0xFFFFFFFFFFFFFFFFFFFFFFFFFFFFFFFFFFFFFFFF AND PUSH20 0xFFFFFFFFFFFFFFFFFFFFFFFFFFFFFFFFFFFFFFFF AND DUP2 MSTORE PUSH1 0x20 ADD PUSH1 0x2 DUP3 ADD DUP1 SLOAD PUSH2 0x3C5 SWAP1 PUSH2 0xF91 JUMP JUMPDEST DUP1 PUSH1 0x1F ADD PUSH1 0x20 DUP1 SWAP2 DIV MUL PUSH1 0x20 ADD PUSH1 0x40 MLOAD SWAP1 DUP2 ADD PUSH1 0x40 MSTORE DUP1 SWAP3 SWAP2 SWAP1 DUP2 DUP2 MSTORE PUSH1 0x20 ADD DUP3 DUP1 SLOAD PUSH2 0x3F1 SWAP1 PUSH2 0xF91 JUMP JUMPDEST DUP1 ISZERO PUSH2 0x43C JUMPI DUP1 PUSH1 0x1F LT PUSH2 0x413 JUMPI PUSH2 0x100 DUP1 DUP4 SLOAD DIV MUL DUP4 MSTORE SWAP2 PUSH1 0x20 ADD SWAP2 PUSH2 0x43C JUMP JUMPDEST DUP3 ADD SWAP2 SWAP1 PUSH0 MSTORE PUSH1 0x20 PUSH0 KECCAK256 SWAP1 JUMPDEST DUP2 SLOAD DUP2 MSTORE SWAP1 PUSH1 0x1 ADD SWAP1 PUSH1 0x20 ADD DUP1 DUP4 GT PUSH2 0x41F JUMPI DUP3 SWAP1 SUB PUSH1 0x1F AND DUP3 ADD SWAP2 JUMPDEST POP POP POP POP POP DUP2 MSTORE PUSH1 0x20 ADD PUSH1 0x3 DUP3 ADD SLOAD DUP2 MSTORE PUSH1 0x20 ADD PUSH1 0x4 DUP3 ADD SLOAD DUP2 MSTORE POP POP DUP2 MSTORE PUSH1 0x20 ADD SWAP1 PUSH1 0x1 ADD SWAP1 PUSH2 0x336 JUMP JUMPDEST POP POP POP POP SWAP1 POP SWAP1 JUMP JUMPDEST PUSH1 0x2 PUSH0 SWAP1 SLOAD SWAP1 PUSH2 0x100 EXP SWAP1 DIV PUSH20 0xFFFFFFFFFFFFFFFFFFFFFFFFFFFFFFFFFFFFFFFF AND PUSH20 0xFFFFFFFFFFFFFFFFFFFFFFFFFFFFFFFFFFFFFFFF AND CALLER PUSH20 0xFFFFFFFFFFFFFFFFFFFFFFFFFFFFFFFFFFFFFFFF AND EQ PUSH2 0x500 JUMPI PUSH1 0x40 MLOAD PUSH32 0x8C379A000000000000000000000000000000000000000000000000000000000 DUP2 MSTORE PUSH1 0x4 ADD PUSH2 0x4F7 SWAP1 PUSH2 0x100B JUMP JUMPDEST PUSH1 0x40 MLOAD DUP1 SWAP2 SUB SWAP1 REVERT JUMPDEST DUP1 PUSH0 DUP1 PUSH2 0x100 EXP DUP2 SLOAD DUP2 PUSH2 0xFFFF MUL NOT AND SWAP1 DUP4 PUSH2 0xFFFF AND MUL OR SWAP1 SSTORE POP POP JUMP JUMPDEST DUP1 PUSH1 0x1 PUSH0 DUP5 PUSH20 0xFFFFFFFFFFFFFFFFFFFFFFFFFFFFFFFFFFFFFFFF AND PUSH20 0xFFFFFFFFFFFFFFFFFFFFFFFFFFFFFFFFFFFFFFFF AND DUP2 MSTORE PUSH1 0x20 ADD SWAP1 DUP2 MSTORE PUSH1 0x20 ADD PUSH0 KECCAK256 DUP3 DUP2 SLOAD DUP2 LT PUSH2 0x56E JUMPI PUSH2 0x56D PUSH2 0xE13 JUMP JUMPDEST JUMPDEST SWAP1 PUSH0 MSTORE PUSH1 0x20 PUSH0 KECCAK256 SWAP1 PUSH1 0x5 MUL ADD PUSH0 ADD SLOAD EQ PUSH2 0x5BD JUMPI PUSH1 0x40 MLOAD PUSH32 0x8C379A000000000000000000000000000000000000000000000000000000000 DUP2 MSTORE PUSH1 0x4 ADD PUSH2 0x5B4 SWAP1 PUSH2 0xE8A JUMP JUMPDEST PUSH1 0x40 MLOAD DUP1 SWAP2 SUB SWAP1 REVERT JUMPDEST PUSH1 0x1 PUSH0 DUP4 PUSH20 0xFFFFFFFFFFFFFFFFFFFFFFFFFFFFFFFFFFFFFFFF AND PUSH20 0xFFFFFFFFFFFFFFFFFFFFFFFFFFFFFFFFFFFFFFFF AND DUP2 MSTORE PUSH1 0x20 ADD SWAP1 DUP2 MSTORE PUSH1 0x20 ADD PUSH0 KECCAK256 DUP2 DUP2 SLOAD DUP2 LT PUSH2 0x60C JUMPI PUSH2 0x60B PUSH2 0xE13 JUMP JUMPDEST JUMPDEST SWAP1 PUSH0 MSTORE PUSH1 0x20 PUSH0 KECCAK256 SWAP1 PUSH1 0x5 MUL ADD PUSH1 0x4 ADD PUSH0 DUP2 SLOAD DUP1 SWAP3 SWAP2 SWAP1 PUSH2 0x62B SWAP1 PUSH2 0x1029 JUMP JUMPDEST SWAP2 SWAP1 POP SSTORE POP POP POP JUMP JUMPDEST PUSH0 DUP1 SLOAD SWAP1 PUSH2 0x100 EXP SWAP1 DIV PUSH2 0xFFFF AND PUSH2 0xFFFF AND DUP2 MLOAD GT ISZERO PUSH2 0x689 JUMPI PUSH1 0x40 MLOAD PUSH32 0x8C379A000000000000000000000000000000000000000000000000000000000 DUP2 MSTORE PUSH1 0x4 ADD PUSH2 0x680 SWAP1 PUSH2 0x10BA JUMP JUMPDEST PUSH1 0x40 MLOAD DUP1 SWAP2 SUB SWAP1 REVERT JUMPDEST PUSH0 PUSH1 0x40 MLOAD DUP1 PUSH1 0xA0 ADD PUSH1 0x40 MSTORE DUP1 PUSH1 0x1 PUSH0 CALLER PUSH20 0xFFFFFFFFFFFFFFFFFFFFFFFFFFFFFFFFFFFFFFFF AND PUSH20 0xFFFFFFFFFFFFFFFFFFFFFFFFFFFFFFFFFFFFFFFF AND DUP2 MSTORE PUSH1 0x20 ADD SWAP1 DUP2 MSTORE PUSH1 0x20 ADD PUSH0 KECCAK256 DUP1 SLOAD SWAP1 POP DUP2 MSTORE PUSH1 0x20 ADD CALLER PUSH20 0xFFFFFFFFFFFFFFFFFFFFFFFFFFFFFFFFFFFFFFFF AND DUP2 MSTORE PUSH1 0x20 ADD DUP4 DUP2 MSTORE PUSH1 0x20 ADD TIMESTAMP DUP2 MSTORE PUSH1 0x20 ADD PUSH0 DUP2 MSTORE POP SWAP1 POP PUSH1 0x1 PUSH0 CALLER PUSH20 0xFFFFFFFFFFFFFFFFFFFFFFFFFFFFFFFFFFFFFFFF AND PUSH20 0xFFFFFFFFFFFFFFFFFFFFFFFFFFFFFFFFFFFFFFFF AND DUP2 MSTORE PUSH1 0x20 ADD SWAP1 DUP2 MSTORE PUSH1 0x20 ADD PUSH0 KECCAK256 DUP2 SWAP1 DUP1 PUSH1 0x1 DUP2 SLOAD ADD DUP1 DUP3 SSTORE DUP1 SWAP2 POP POP PUSH1 0x1 SWAP1 SUB SWAP1 PUSH0 MSTORE PUSH1 0x20 PUSH0 KECCAK256 SWAP1 PUSH1 0x5 MUL ADD PUSH0 SWAP1 SWAP2 SWAP1 SWAP2 SWAP1 SWAP2 POP PUSH0 DUP3 ADD MLOAD DUP2 PUSH0 ADD SSTORE PUSH1 0x20 DUP3 ADD MLOAD DUP2 PUSH1 0x1 ADD PUSH0 PUSH2 0x100 EXP DUP2 SLOAD DUP2 PUSH20 0xFFFFFFFFFFFFFFFFFFFFFFFFFFFFFFFFFFFFFFFF MUL NOT AND SWAP1 DUP4 PUSH20 0xFFFFFFFFFFFFFFFFFFFFFFFFFFFFFFFFFFFFFFFF AND MUL OR SWAP1 SSTORE POP PUSH1 0x40 DUP3 ADD MLOAD DUP2 PUSH1 0x2 ADD SWAP1 DUP2 PUSH2 0x7D0 SWAP2 SWAP1 PUSH2 0x1275 JUMP JUMPDEST POP PUSH1 0x60 DUP3 ADD MLOAD DUP2 PUSH1 0x3 ADD SSTORE PUSH1 0x80 DUP3 ADD MLOAD DUP2 PUSH1 0x4 ADD SSTORE POP POP POP POP JUMP JUMPDEST PUSH1 0x60 PUSH1 0x1 PUSH0 CALLER PUSH20 0xFFFFFFFFFFFFFFFFFFFFFFFFFFFFFFFFFFFFFFFF AND PUSH20 0xFFFFFFFFFFFFFFFFFFFFFFFFFFFFFFFFFFFFFFFF AND DUP2 MSTORE PUSH1 0x20 ADD SWAP1 DUP2 MSTORE PUSH1 0x20 ADD PUSH0 KECCAK256 DUP3 DUP2 SLOAD DUP2 LT PUSH2 0x83C JUMPI PUSH2 0x83B PUSH2 0xE13 JUMP JUMPDEST JUMPDEST SWAP1 PUSH0 MSTORE PUSH1 0x20 PUSH0 KECCAK256 SWAP1 PUSH1 0x5 MUL ADD PUSH1 0x2 ADD DUP1 SLOAD PUSH2 0x856 SWAP1 PUSH2 0xF91 JUMP JUMPDEST DUP1 PUSH1 0x1F ADD PUSH1 0x20 DUP1 SWAP2 DIV MUL PUSH1 0x20 ADD PUSH1 0x40 MLOAD SWAP1 DUP2 ADD PUSH1 0x40 MSTORE DUP1 SWAP3 SWAP2 SWAP1 DUP2 DUP2 MSTORE PUSH1 0x20 ADD DUP3 DUP1 SLOAD PUSH2 0x882 SWAP1 PUSH2 0xF91 JUMP JUMPDEST DUP1 ISZERO PUSH2 0x8CD JUMPI DUP1 PUSH1 0x1F LT PUSH2 0x8A4 JUMPI PUSH2 0x100 DUP1 DUP4 SLOAD DIV MUL DUP4 MSTORE SWAP2 PUSH1 0x20 ADD SWAP2 PUSH2 0x8CD JUMP JUMPDEST DUP3 ADD SWAP2 SWAP1 PUSH0 MSTORE PUSH1 0x20 PUSH0 KECCAK256 SWAP1 JUMPDEST DUP2 SLOAD DUP2 MSTORE SWAP1 PUSH1 0x1 ADD SWAP1 PUSH1 0x20 ADD DUP1 DUP4 GT PUSH2 0x8B0 JUMPI DUP3 SWAP1 SUB PUSH1 0x1F AND DUP3 ADD SWAP2 JUMPDEST POP POP POP POP POP SWAP1 POP SWAP2 SWAP1 POP JUMP JUMPDEST PUSH0 PUSH1 0x40 MLOAD SWAP1 POP SWAP1 JUMP JUMPDEST PUSH0 DUP1 REVERT JUMPDEST PUSH0 DUP1 REVERT JUMPDEST PUSH0 PUSH20 0xFFFFFFFFFFFFFFFFFFFFFFFFFFFFFFFFFFFFFFFF DUP3 AND SWAP1 POP SWAP2 SWAP1 POP JUMP JUMPDEST PUSH0 PUSH2 0x913 DUP3 PUSH2 0x8EA JUMP JUMPDEST SWAP1 POP SWAP2 SWAP1 POP JUMP JUMPDEST PUSH2 0x923 DUP2 PUSH2 0x909 JUMP JUMPDEST DUP2 EQ PUSH2 0x92D JUMPI PUSH0 DUP1 REVERT JUMPDEST POP JUMP JUMPDEST PUSH0 DUP2 CALLDATALOAD SWAP1 POP PUSH2 0x93E DUP2 PUSH2 0x91A JUMP JUMPDEST SWAP3 SWAP2 POP POP JUMP JUMPDEST PUSH0 DUP2 SWAP1 POP SWAP2 SWAP1 POP JUMP JUMPDEST PUSH2 0x956 DUP2 PUSH2 0x944 JUMP JUMPDEST DUP2 EQ PUSH2 0x960 JUMPI PUSH0 DUP1 REVERT JUMPDEST POP JUMP JUMPDEST PUSH0 DUP2 CALLDATALOAD SWAP1 POP PUSH2 0x971 DUP2 PUSH2 0x94D JUMP JUMPDEST SWAP3 SWAP2 POP POP JUMP JUMPDEST PUSH0 DUP1 PUSH1 0x40 DUP4 DUP6 SUB SLT ISZERO PUSH2 0x98D JUMPI PUSH2 0x98C PUSH2 0x8E2 JUMP JUMPDEST JUMPDEST PUSH0 PUSH2 0x99A DUP6 DUP3 DUP7 ADD PUSH2 0x930 JUMP JUMPDEST SWAP3 POP POP PUSH1 0x20 PUSH2 0x9AB DUP6 DUP3 DUP7 ADD PUSH2 0x963 JUMP JUMPDEST SWAP2 POP POP SWAP3 POP SWAP3 SWAP1 POP JUMP JUMPDEST PUSH0 DUP2 MLOAD SWAP1 POP SWAP2 SWAP1 POP JUMP JUMPDEST PUSH0 DUP3 DUP3 MSTORE PUSH1 0x20 DUP3 ADD SWAP1 POP SWAP3 SWAP2 POP POP JUMP JUMPDEST PUSH0 DUP2 SWAP1 POP PUSH1 0x20 DUP3 ADD SWAP1 POP SWAP2 SWAP1 POP JUMP JUMPDEST PUSH2 0x9E7 DUP2 PUSH2 0x944 JUMP JUMPDEST DUP3 MSTORE POP POP JUMP JUMPDEST PUSH2 0x9F6 DUP2 PUSH2 0x909 JUMP JUMPDEST DUP3 MSTORE POP POP JUMP JUMPDEST PUSH0 DUP2 MLOAD SWAP1 POP SWAP2 SWAP1 POP JUMP JUMPDEST PUSH0 DUP3 DUP3 MSTORE PUSH1 0x20 DUP3 ADD SWAP1 POP SWAP3 SWAP2 POP POP JUMP JUMPDEST PUSH0 JUMPDEST DUP4 DUP2 LT ISZERO PUSH2 0xA33 JUMPI DUP1 DUP3 ADD MLOAD DUP2 DUP5 ADD MSTORE PUSH1 0x20 DUP2 ADD SWAP1 POP PUSH2 0xA18 JUMP JUMPDEST PUSH0 DUP5 DUP5 ADD MSTORE POP POP POP POP JUMP JUMPDEST PUSH0 PUSH1 0x1F NOT PUSH1 0x1F DUP4 ADD AND SWAP1 POP SWAP2 SWAP1 POP JUMP JUMPDEST PUSH0 PUSH2 0xA58 DUP3 PUSH2 0x9FC JUMP JUMPDEST PUSH2 0xA62 DUP2 DUP6 PUSH2 0xA06 JUMP JUMPDEST SWAP4 POP PUSH2 0xA72 DUP2 DUP6 PUSH1 0x20 DUP7 ADD PUSH2 0xA16 JUMP JUMPDEST PUSH2 0xA7B DUP2 PUSH2 0xA3E JUMP JUMPDEST DUP5 ADD SWAP2 POP POP SWAP3 SWAP2 POP POP JUMP JUMPDEST PUSH0 PUSH1 0xA0 DUP4 ADD PUSH0 DUP4 ADD MLOAD PUSH2 0xA9B PUSH0 DUP7 ADD DUP3 PUSH2 0x9DE JUMP JUMPDEST POP PUSH1 0x20 DUP4 ADD MLOAD PUSH2 0xAAE PUSH1 0x20 DUP7 ADD DUP3 PUSH2 0x9ED JUMP JUMPDEST POP PUSH1 0x40 DUP4 ADD MLOAD DUP5 DUP3 SUB PUSH1 0x40 DUP7 ADD MSTORE PUSH2 0xAC6 DUP3 DUP3 PUSH2 0xA4E JUMP JUMPDEST SWAP2 POP POP PUSH1 0x60 DUP4 ADD MLOAD PUSH2 0xADB PUSH1 0x60 DUP7 ADD DUP3 PUSH2 0x9DE JUMP JUMPDEST POP PUSH1 0x80 DUP4 ADD MLOAD PUSH2 0xAEE PUSH1 0x80 DUP7 ADD DUP3 PUSH2 0x9DE JUMP JUMPDEST POP DUP1 SWAP2 POP POP SWAP3 SWAP2 POP POP JUMP JUMPDEST PUSH0 PUSH2 0xB04 DUP4 DUP4 PUSH2 0xA86 JUMP JUMPDEST SWAP1 POP SWAP3 SWAP2 POP POP JUMP JUMPDEST PUSH0 PUSH1 0x20 DUP3 ADD SWAP1 POP SWAP2 SWAP1 POP JUMP JUMPDEST PUSH0 PUSH2 0xB22 DUP3 PUSH2 0x9B5 JUMP JUMPDEST PUSH2 0xB2C DUP2 DUP6 PUSH2 0x9BF JUMP JUMPDEST SWAP4 POP DUP4 PUSH1 0x20 DUP3 MUL DUP6 ADD PUSH2 0xB3E DUP6 PUSH2 0x9CF JUMP JUMPDEST DUP1 PUSH0 JUMPDEST DUP6 DUP2 LT ISZERO PUSH2 0xB79 JUMPI DUP5 DUP5 SUB DUP10 MSTORE DUP2 MLOAD PUSH2 0xB5A DUP6 DUP3 PUSH2 0xAF9 JUMP JUMPDEST SWAP5 POP PUSH2 0xB65 DUP4 PUSH2 0xB0C JUMP JUMPDEST SWAP3 POP PUSH1 0x20 DUP11 ADD SWAP10 POP POP PUSH1 0x1 DUP2 ADD SWAP1 POP PUSH2 0xB41 JUMP JUMPDEST POP DUP3 SWAP8 POP DUP8 SWAP6 POP POP POP POP POP POP SWAP3 SWAP2 POP POP JUMP JUMPDEST PUSH0 PUSH1 0x20 DUP3 ADD SWAP1 POP DUP2 DUP2 SUB PUSH0 DUP4 ADD MSTORE PUSH2 0xBA3 DUP2 DUP5 PUSH2 0xB18 JUMP JUMPDEST SWAP1 POP SWAP3 SWAP2 POP POP JUMP JUMPDEST PUSH0 PUSH2 0xFFFF DUP3 AND SWAP1 POP SWAP2 SWAP1 POP JUMP JUMPDEST PUSH2 0xBC1 DUP2 PUSH2 0xBAB JUMP JUMPDEST DUP2 EQ PUSH2 0xBCB JUMPI PUSH0 DUP1 REVERT JUMPDEST POP JUMP JUMPDEST PUSH0 DUP2 CALLDATALOAD SWAP1 POP PUSH2 0xBDC DUP2 PUSH2 0xBB8 JUMP JUMPDEST SWAP3 SWAP2 POP POP JUMP JUMPDEST PUSH0 PUSH1 0x20 DUP3 DUP5 SUB SLT ISZERO PUSH2 0xBF7 JUMPI PUSH2 0xBF6 PUSH2 0x8E2 JUMP JUMPDEST JUMPDEST PUSH0 PUSH2 0xC04 DUP5 DUP3 DUP6 ADD PUSH2 0xBCE JUMP JUMPDEST SWAP2 POP POP SWAP3 SWAP2 POP POP JUMP JUMPDEST PUSH0 DUP1 REVERT JUMPDEST PUSH0 DUP1 REVERT JUMPDEST PUSH32 0x4E487B7100000000000000000000000000000000000000000000000000000000 PUSH0 MSTORE PUSH1 0x41 PUSH1 0x4 MSTORE PUSH1 0x24 PUSH0 REVERT JUMPDEST PUSH2 0xC4B DUP3 PUSH2 0xA3E JUMP JUMPDEST DUP2 ADD DUP2 DUP2 LT PUSH8 0xFFFFFFFFFFFFFFFF DUP3 GT OR ISZERO PUSH2 0xC6A JUMPI PUSH2 0xC69 PUSH2 0xC15 JUMP JUMPDEST JUMPDEST DUP1 PUSH1 0x40 MSTORE POP POP POP JUMP JUMPDEST PUSH0 PUSH2 0xC7C PUSH2 0x8D9 JUMP JUMPDEST SWAP1 POP PUSH2 0xC88 DUP3 DUP3 PUSH2 0xC42 JUMP JUMPDEST SWAP2 SWAP1 POP JUMP JUMPDEST PUSH0 PUSH8 0xFFFFFFFFFFFFFFFF DUP3 GT ISZERO PUSH2 0xCA7 JUMPI PUSH2 0xCA6 PUSH2 0xC15 JUMP JUMPDEST JUMPDEST PUSH2 0xCB0 DUP3 PUSH2 0xA3E JUMP JUMPDEST SWAP1 POP PUSH1 0x20 DUP2 ADD SWAP1 POP SWAP2 SWAP1 POP JUMP JUMPDEST DUP3 DUP2 DUP4 CALLDATACOPY PUSH0 DUP4 DUP4 ADD MSTORE POP POP POP JUMP JUMPDEST PUSH0 PUSH2 0xCDD PUSH2 0xCD8 DUP5 PUSH2 0xC8D JUMP JUMPDEST PUSH2 0xC73 JUMP JUMPDEST SWAP1 POP DUP3 DUP2 MSTORE PUSH1 0x20 DUP2 ADD DUP5 DUP5 DUP5 ADD GT ISZERO PUSH2 0xCF9 JUMPI PUSH2 0xCF8 PUSH2 0xC11 JUMP JUMPDEST JUMPDEST PUSH2 0xD04 DUP5 DUP3 DUP6 PUSH2 0xCBD JUMP JUMPDEST POP SWAP4 SWAP3 POP POP POP JUMP JUMPDEST PUSH0 DUP3 PUSH1 0x1F DUP4 ADD SLT PUSH2 0xD20 JUMPI PUSH2 0xD1F PUSH2 0xC0D JUMP JUMPDEST JUMPDEST DUP2 CALLDATALOAD PUSH2 0xD30 DUP5 DUP3 PUSH1 0x20 DUP7 ADD PUSH2 0xCCB JUMP JUMPDEST SWAP2 POP POP SWAP3 SWAP2 POP POP JUMP JUMPDEST PUSH0 PUSH1 0x20 DUP3 DUP5 SUB SLT ISZERO PUSH2 0xD4E JUMPI PUSH2 0xD4D PUSH2 0x8E2 JUMP JUMPDEST JUMPDEST PUSH0 DUP3 ADD CALLDATALOAD PUSH8 0xFFFFFFFFFFFFFFFF DUP2 GT ISZERO PUSH2 0xD6B JUMPI PUSH2 0xD6A PUSH2 0x8E6 JUMP JUMPDEST JUMPDEST PUSH2 0xD77 DUP5 DUP3 DUP6 ADD PUSH2 0xD0C JUMP JUMPDEST SWAP2 POP POP SWAP3 SWAP2 POP POP JUMP JUMPDEST PUSH0 PUSH1 0x20 DUP3 DUP5 SUB SLT ISZERO PUSH2 0xD95 JUMPI PUSH2 0xD94 PUSH2 0x8E2 JUMP JUMPDEST JUMPDEST PUSH0 PUSH2 0xDA2 DUP5 DUP3 DUP6 ADD PUSH2 0x963 JUMP JUMPDEST SWAP2 POP POP SWAP3 SWAP2 POP POP JUMP JUMPDEST PUSH0 DUP3 DUP3 MSTORE PUSH1 0x20 DUP3 ADD SWAP1 POP SWAP3 SWAP2 POP POP JUMP JUMPDEST PUSH0 PUSH2 0xDC5 DUP3 PUSH2 0x9FC JUMP JUMPDEST PUSH2 0xDCF DUP2 DUP6 PUSH2 0xDAB JUMP JUMPDEST SWAP4 POP PUSH2 0xDDF DUP2 DUP6 PUSH1 0x20 DUP7 ADD PUSH2 0xA16 JUMP JUMPDEST PUSH2 0xDE8 DUP2 PUSH2 0xA3E JUMP JUMPDEST DUP5 ADD SWAP2 POP POP SWAP3 SWAP2 POP POP JUMP JUMPDEST PUSH0 PUSH1 0x20 DUP3 ADD SWAP1 POP DUP2 DUP2 SUB PUSH0 DUP4 ADD MSTORE PUSH2 0xE0B DUP2 DUP5 PUSH2 0xDBB JUMP JUMPDEST SWAP1 POP SWAP3 SWAP2 POP POP JUMP JUMPDEST PUSH32 0x4E487B7100000000000000000000000000000000000000000000000000000000 PUSH0 MSTORE PUSH1 0x32 PUSH1 0x4 MSTORE PUSH1 0x24 PUSH0 REVERT JUMPDEST PUSH32 0x547765657420646F6573206E6F74206578697374000000000000000000000000 PUSH0 DUP3 ADD MSTORE POP JUMP JUMPDEST PUSH0 PUSH2 0xE74 PUSH1 0x14 DUP4 PUSH2 0xDAB JUMP JUMPDEST SWAP2 POP PUSH2 0xE7F DUP3 PUSH2 0xE40 JUMP JUMPDEST PUSH1 0x20 DUP3 ADD SWAP1 POP SWAP2 SWAP1 POP JUMP JUMPDEST PUSH0 PUSH1 0x20 DUP3 ADD SWAP1 POP DUP2 DUP2 SUB PUSH0 DUP4 ADD MSTORE PUSH2 0xEA1 DUP2 PUSH2 0xE68 JUMP JUMPDEST SWAP1 POP SWAP2 SWAP1 POP JUMP JUMPDEST PUSH32 0x547765657420646F65736E2774206861766520616E79206C696B657300000000 PUSH0 DUP3 ADD MSTORE POP JUMP JUMPDEST PUSH0 PUSH2 0xEDC PUSH1 0x1C DUP4 PUSH2 0xDAB JUMP JUMPDEST SWAP2 POP PUSH2 0xEE7 DUP3 PUSH2 0xEA8 JUMP JUMPDEST PUSH1 0x20 DUP3 ADD SWAP1 POP SWAP2 SWAP1 POP JUMP JUMPDEST PUSH0 PUSH1 0x20 DUP3 ADD SWAP1 POP DUP2 DUP2 SUB PUSH0 DUP4 ADD MSTORE PUSH2 0xF09 DUP2 PUSH2 0xED0 JUMP JUMPDEST SWAP1 POP SWAP2 SWAP1 POP JUMP JUMPDEST PUSH32 0x4E487B7100000000000000000000000000000000000000000000000000000000 PUSH0 MSTORE PUSH1 0x11 PUSH1 0x4 MSTORE PUSH1 0x24 PUSH0 REVERT JUMPDEST PUSH0 PUSH2 0xF47 DUP3 PUSH2 0x944 JUMP JUMPDEST SWAP2 POP PUSH0 DUP3 SUB PUSH2 0xF59 JUMPI PUSH2 0xF58 PUSH2 0xF10 JUMP JUMPDEST JUMPDEST PUSH1 0x1 DUP3 SUB SWAP1 POP SWAP2 SWAP1 POP JUMP JUMPDEST PUSH32 0x4E487B7100000000000000000000000000000000000000000000000000000000 PUSH0 MSTORE PUSH1 0x22 PUSH1 0x4 MSTORE PUSH1 0x24 PUSH0 REVERT JUMPDEST PUSH0 PUSH1 0x2 DUP3 DIV SWAP1 POP PUSH1 0x1 DUP3 AND DUP1 PUSH2 0xFA8 JUMPI PUSH1 0x7F DUP3 AND SWAP2 POP JUMPDEST PUSH1 0x20 DUP3 LT DUP2 SUB PUSH2 0xFBB JUMPI PUSH2 0xFBA PUSH2 0xF64 JUMP JUMPDEST JUMPDEST POP SWAP2 SWAP1 POP JUMP JUMPDEST PUSH32 0x596F7520617265206E6F7420746865206F776E65722100000000000000000000 PUSH0 DUP3 ADD MSTORE POP JUMP JUMPDEST PUSH0 PUSH2 0xFF5 PUSH1 0x16 DUP4 PUSH2 0xDAB JUMP JUMPDEST SWAP2 POP PUSH2 0x1000 DUP3 PUSH2 0xFC1 JUMP JUMPDEST PUSH1 0x20 DUP3 ADD SWAP1 POP SWAP2 SWAP1 POP JUMP JUMPDEST PUSH0 PUSH1 0x20 DUP3 ADD SWAP1 POP DUP2 DUP2 SUB PUSH0 DUP4 ADD MSTORE PUSH2 0x1022 DUP2 PUSH2 0xFE9 JUMP JUMPDEST SWAP1 POP SWAP2 SWAP1 POP JUMP JUMPDEST PUSH0 PUSH2 0x1033 DUP3 PUSH2 0x944 JUMP JUMPDEST SWAP2 POP PUSH32 0xFFFFFFFFFFFFFFFFFFFFFFFFFFFFFFFFFFFFFFFFFFFFFFFFFFFFFFFFFFFFFFFF DUP3 SUB PUSH2 0x1065 JUMPI PUSH2 0x1064 PUSH2 0xF10 JUMP JUMPDEST JUMPDEST PUSH1 0x1 DUP3 ADD SWAP1 POP SWAP2 SWAP1 POP JUMP JUMPDEST PUSH32 0x547765657420697320746F6F206C6F6E672E0000000000000000000000000000 PUSH0 DUP3 ADD MSTORE POP JUMP JUMPDEST PUSH0 PUSH2 0x10A4 PUSH1 0x12 DUP4 PUSH2 0xDAB JUMP JUMPDEST SWAP2 POP PUSH2 0x10AF DUP3 PUSH2 0x1070 JUMP JUMPDEST PUSH1 0x20 DUP3 ADD SWAP1 POP SWAP2 SWAP1 POP JUMP JUMPDEST PUSH0 PUSH1 0x20 DUP3 ADD SWAP1 POP DUP2 DUP2 SUB PUSH0 DUP4 ADD MSTORE PUSH2 0x10D1 DUP2 PUSH2 0x1098 JUMP JUMPDEST SWAP1 POP SWAP2 SWAP1 POP JUMP JUMPDEST PUSH0 DUP2 SWAP1 POP DUP2 PUSH0 MSTORE PUSH1 0x20 PUSH0 KECCAK256 SWAP1 POP SWAP2 SWAP1 POP JUMP JUMPDEST PUSH0 PUSH1 0x20 PUSH1 0x1F DUP4 ADD DIV SWAP1 POP SWAP2 SWAP1 POP JUMP JUMPDEST PUSH0 DUP3 DUP3 SHL SWAP1 POP SWAP3 SWAP2 POP POP JUMP JUMPDEST PUSH0 PUSH1 0x8 DUP4 MUL PUSH2 0x1134 PUSH32 0xFFFFFFFFFFFFFFFFFFFFFFFFFFFFFFFFFFFFFFFFFFFFFFFFFFFFFFFFFFFFFFFF DUP3 PUSH2 0x10F9 JUMP JUMPDEST PUSH2 0x113E DUP7 DUP4 PUSH2 0x10F9 JUMP JUMPDEST SWAP6 POP DUP1 NOT DUP5 AND SWAP4 POP DUP1 DUP7 AND DUP5 OR SWAP3 POP POP POP SWAP4 SWAP3 POP POP POP JUMP JUMPDEST PUSH0 DUP2 SWAP1 POP SWAP2 SWAP1 POP JUMP JUMPDEST PUSH0 PUSH2 0x1179 PUSH2 0x1174 PUSH2 0x116F DUP5 PUSH2 0x944 JUMP JUMPDEST PUSH2 0x1156 JUMP JUMPDEST PUSH2 0x944 JUMP JUMPDEST SWAP1 POP SWAP2 SWAP1 POP JUMP JUMPDEST PUSH0 DUP2 SWAP1 POP SWAP2 SWAP1 POP JUMP JUMPDEST PUSH2 0x1192 DUP4 PUSH2 0x115F JUMP JUMPDEST PUSH2 0x11A6 PUSH2 0x119E DUP3 PUSH2 0x1180 JUMP JUMPDEST DUP5 DUP5 SLOAD PUSH2 0x1105 JUMP JUMPDEST DUP3 SSTORE POP POP POP POP JUMP JUMPDEST PUSH0 SWAP1 JUMP JUMPDEST PUSH2 0x11BA PUSH2 0x11AE JUMP JUMPDEST PUSH2 0x11C5 DUP2 DUP5 DUP5 PUSH2 0x1189 JUMP JUMPDEST POP POP POP JUMP JUMPDEST JUMPDEST DUP2 DUP2 LT ISZERO PUSH2 0x11E8 JUMPI PUSH2 0x11DD PUSH0 DUP3 PUSH2 0x11B2 JUMP JUMPDEST PUSH1 0x1 DUP2 ADD SWAP1 POP PUSH2 0x11CB JUMP JUMPDEST POP POP JUMP JUMPDEST PUSH1 0x1F DUP3 GT ISZERO PUSH2 0x122D JUMPI PUSH2 0x11FE DUP2 PUSH2 0x10D8 JUMP JUMPDEST PUSH2 0x1207 DUP5 PUSH2 0x10EA JUMP JUMPDEST DUP2 ADD PUSH1 0x20 DUP6 LT ISZERO PUSH2 0x1216 JUMPI DUP2 SWAP1 POP JUMPDEST PUSH2 0x122A PUSH2 0x1222 DUP6 PUSH2 0x10EA JUMP JUMPDEST DUP4 ADD DUP3 PUSH2 0x11CA JUMP JUMPDEST POP POP JUMPDEST POP POP POP JUMP JUMPDEST PUSH0 DUP3 DUP3 SHR SWAP1 POP SWAP3 SWAP2 POP POP JUMP JUMPDEST PUSH0 PUSH2 0x124D PUSH0 NOT DUP5 PUSH1 0x8 MUL PUSH2 0x1232 JUMP JUMPDEST NOT DUP1 DUP4 AND SWAP2 POP POP SWAP3 SWAP2 POP POP JUMP JUMPDEST PUSH0 PUSH2 0x1265 DUP4 DUP4 PUSH2 0x123E JUMP JUMPDEST SWAP2 POP DUP3 PUSH1 0x2 MUL DUP3 OR SWAP1 POP SWAP3 SWAP2 POP POP JUMP JUMPDEST PUSH2 0x127E DUP3 PUSH2 0x9FC JUMP JUMPDEST PUSH8 0xFFFFFFFFFFFFFFFF DUP2 GT ISZERO PUSH2 0x1297 JUMPI PUSH2 0x1296 PUSH2 0xC15 JUMP JUMPDEST JUMPDEST PUSH2 0x12A1 DUP3 SLOAD PUSH2 0xF91 JUMP JUMPDEST PUSH2 0x12AC DUP3 DUP3 DUP6 PUSH2 0x11EC JUMP JUMPDEST PUSH0 PUSH1 0x20 SWAP1 POP PUSH1 0x1F DUP4 GT PUSH1 0x1 DUP2 EQ PUSH2 0x12DD JUMPI PUSH0 DUP5 ISZERO PUSH2 0x12CB JUMPI DUP3 DUP8 ADD MLOAD SWAP1 POP JUMPDEST PUSH2 0x12D5 DUP6 DUP3 PUSH2 0x125A JUMP JUMPDEST DUP7 SSTORE POP PUSH2 0x133C JUMP JUMPDEST PUSH1 0x1F NOT DUP5 AND PUSH2 0x12EB DUP7 PUSH2 0x10D8 JUMP JUMPDEST PUSH0 JUMPDEST DUP3 DUP2 LT ISZERO PUSH2 0x1312 JUMPI DUP5 DUP10 ADD MLOAD DUP3 SSTORE PUSH1 0x1 DUP3 ADD SWAP2 POP PUSH1 0x20 DUP6 ADD SWAP5 POP PUSH1 0x20 DUP2 ADD SWAP1 POP PUSH2 0x12ED JUMP JUMPDEST DUP7 DUP4 LT ISZERO PUSH2 0x132F JUMPI DUP5 DUP10 ADD MLOAD PUSH2 0x132B PUSH1 0x1F DUP10 AND DUP3 PUSH2 0x123E JUMP JUMPDEST DUP4 SSTORE POP JUMPDEST PUSH1 0x1 PUSH1 0x2 DUP9 MUL ADD DUP9 SSTORE POP POP POP JUMPDEST POP POP POP POP POP POP JUMP INVALID LOG2 PUSH5 0x6970667358 0x22 SLT KECCAK256 PUSH31 0x1181DA9EBA960072770E1CE54FB89F6EBD75756BCD19641095EEC7CDA15EB4 PUSH5 0x736F6C6343 STOP ADDMOD AND STOP CALLER "
				},
				"gasEstimates": {
					"creation": {
						"codeDepositCost": "997200",
						"executionCost": "49563",
						"totalCost": "1046763"
					},
					"external": {
						"changeTweetLength(uint16)": "26864",
						"createTweet(string)": "infinite",
						"getAllTweets()": "infinite",
						"getTweet(uint256)": "infinite",
						"likeTweet(address,uint256)": "infinite",
						"unlikeTweet(address,uint256)": "infinite"
					}
				},
				"methodIdentifiers": {
					"changeTweetLength(uint16)": "58bfa4ab",
					"createTweet(string)": "7c9cd2bc",
					"getAllTweets()": "53256135",
					"getTweet(uint256)": "c3ad5ecb",
					"likeTweet(address,uint256)": "63378216",
					"unlikeTweet(address,uint256)": "3d9b569f"
				}
			},
			"storageLayout": {
				"storage": [
					{
						"astId": 4,
						"contract": "contracts/Twitter.sol:Twitter",
						"label": "MAX_TWEET_LENGTH",
						"offset": 0,
						"slot": "0",
						"type": "t_uint16"
					},
					{
						"astId": 21,
						"contract": "contracts/Twitter.sol:Twitter",
						"label": "tweets",
						"offset": 0,
						"slot": "1",
						"type": "t_mapping(t_address,t_array(t_struct(Tweet)15_storage)dyn_storage)"
					},
					{
						"astId": 23,
						"contract": "contracts/Twitter.sol:Twitter",
						"label": "owner",
						"offset": 0,
						"slot": "2",
						"type": "t_address"
					}
				],
				"types": {
					"t_address": {
						"encoding": "inplace",
						"label": "address",
						"numberOfBytes": "20"
					},
					"t_array(t_struct(Tweet)15_storage)dyn_storage": {
						"base": "t_struct(Tweet)15_storage",
						"encoding": "dynamic_array",
						"label": "struct Twitter.Tweet[]",
						"numberOfBytes": "32"
					},
					"t_mapping(t_address,t_array(t_struct(Tweet)15_storage)dyn_storage)": {
						"encoding": "mapping",
						"key": "t_address",
						"label": "mapping(address => struct Twitter.Tweet[])",
						"numberOfBytes": "32",
						"value": "t_array(t_struct(Tweet)15_storage)dyn_storage"
					},
					"t_string_storage": {
						"encoding": "bytes",
						"label": "string",
						"numberOfBytes": "32"
					},
					"t_struct(Tweet)15_storage": {
						"encoding": "inplace",
						"label": "struct Twitter.Tweet",
						"members": [
							{
								"astId": 6,
								"contract": "contracts/Twitter.sol:Twitter",
								"label": "id",
								"offset": 0,
								"slot": "0",
								"type": "t_uint256"
							},
							{
								"astId": 8,
								"contract": "contracts/Twitter.sol:Twitter",
								"label": "author",
								"offset": 0,
								"slot": "1",
								"type": "t_address"
							},
							{
								"astId": 10,
								"contract": "contracts/Twitter.sol:Twitter",
								"label": "content",
								"offset": 0,
								"slot": "2",
								"type": "t_string_storage"
							},
							{
								"astId": 12,
								"contract": "contracts/Twitter.sol:Twitter",
								"label": "timestamp",
								"offset": 0,
								"slot": "3",
								"type": "t_uint256"
							},
							{
								"astId": 14,
								"contract": "contracts/Twitter.sol:Twitter",
								"label": "likes",
								"offset": 0,
								"slot": "4",
								"type": "t_uint256"
							}
						],
						"numberOfBytes": "160"
					},
					"t_uint16": {
						"encoding": "inplace",
						"label": "uint16",
						"numberOfBytes": "2"
					},
					"t_uint256": {
						"encoding": "inplace",
						"label": "uint256",
						"numberOfBytes": "32"
					}
				}
			},
			"userdoc": {
				"kind": "user",
				"methods": {},
				"version": 1
			}
		}
	}
}