{
	"contracts/Twitter.sol": {
		"Twitter": {
			"abi": [
				{
					"inputs": [],
					"stateMutability": "nonpayable",
					"type": "constructor"
				},
				{
					"anonymous": false,
					"inputs": [
						{
							"indexed": false,
							"internalType": "uint256",
							"name": "id",
							"type": "uint256"
						},
						{
							"indexed": false,
							"internalType": "address",
							"name": "author",
							"type": "address"
						},
						{
							"indexed": false,
							"internalType": "string",
							"name": "content",
							"type": "string"
						},
						{
							"indexed": false,
							"internalType": "uint256",
							"name": "timestamp",
							"type": "uint256"
						}
					],
					"name": "TweetCreated",
					"type": "event"
				},
				{
					"anonymous": false,
					"inputs": [
						{
							"indexed": false,
							"internalType": "address",
							"name": "liker",
							"type": "address"
						},
						{
							"indexed": false,
							"internalType": "address",
							"name": "tweetAuthor",
							"type": "address"
						},
						{
							"indexed": false,
							"internalType": "uint256",
							"name": "tweetId",
							"type": "uint256"
						},
						{
							"indexed": false,
							"internalType": "uint256",
							"name": "newLikeCount",
							"type": "uint256"
						}
					],
					"name": "TweetLiked",
					"type": "event"
				},
				{
					"anonymous": false,
					"inputs": [
						{
							"indexed": false,
							"internalType": "address",
							"name": "liker",
							"type": "address"
						},
						{
							"indexed": false,
							"internalType": "address",
							"name": "tweetAuthor",
							"type": "address"
						},
						{
							"indexed": false,
							"internalType": "uint256",
							"name": "tweetId",
							"type": "uint256"
						},
						{
							"indexed": false,
							"internalType": "uint256",
							"name": "newLikeCount",
							"type": "uint256"
						}
					],
					"name": "TweetUnliked",
					"type": "event"
				},
				{
					"inputs": [
						{
							"internalType": "uint16",
							"name": "newTweetLength",
							"type": "uint16"
						}
					],
					"name": "changeTweetLength",
					"outputs": [],
					"stateMutability": "nonpayable",
					"type": "function"
				},
				{
					"inputs": [
						{
							"internalType": "string",
							"name": "_tweet",
							"type": "string"
						}
					],
					"name": "createTweet",
					"outputs": [],
					"stateMutability": "nonpayable",
					"type": "function"
				},
				{
					"inputs": [],
					"name": "getAllTweets",
					"outputs": [
						{
							"components": [
								{
									"internalType": "uint256",
									"name": "id",
									"type": "uint256"
								},
								{
									"internalType": "address",
									"name": "author",
									"type": "address"
								},
								{
									"internalType": "string",
									"name": "content",
									"type": "string"
								},
								{
									"internalType": "uint256",
									"name": "timestamp",
									"type": "uint256"
								},
								{
									"internalType": "uint256",
									"name": "likes",
									"type": "uint256"
								}
							],
							"internalType": "struct Twitter.Tweet[]",
							"name": "",
							"type": "tuple[]"
						}
					],
					"stateMutability": "view",
					"type": "function"
				},
				{
					"inputs": [
						{
							"internalType": "address",
							"name": "_author",
							"type": "address"
						}
					],
					"name": "getTotalLikes",
					"outputs": [
						{
							"internalType": "uint256",
							"name": "",
							"type": "uint256"
						}
					],
					"stateMutability": "view",
					"type": "function"
				},
				{
					"inputs": [
						{
							"internalType": "uint256",
							"name": "_i",
							"type": "uint256"
						}
					],
					"name": "getTweet",
					"outputs": [
						{
							"internalType": "string",
							"name": "",
							"type": "string"
						}
					],
					"stateMutability": "view",
					"type": "function"
				},
				{
					"inputs": [
						{
							"internalType": "address",
							"name": "_author",
							"type": "address"
						},
						{
							"internalType": "uint256",
							"name": "_id",
							"type": "uint256"
						}
					],
					"name": "likeTweet",
					"outputs": [],
					"stateMutability": "nonpayable",
					"type": "function"
				},
				{
					"inputs": [
						{
							"internalType": "address",
							"name": "_author",
							"type": "address"
						},
						{
							"internalType": "uint256",
							"name": "_id",
							"type": "uint256"
						}
					],
					"name": "unlikeTweet",
					"outputs": [],
					"stateMutability": "nonpayable",
					"type": "function"
				}
			],
			"devdoc": {
				"kind": "dev",
				"methods": {},
				"version": 1
			},
			"evm": {
				"assembly": "    /* \"contracts/Twitter.sol\":59:2490  contract Twitter {... */\n  mstore(0x40, 0x80)\n    /* \"contracts/Twitter.sol\":109:112  280 */\n  0x0118\n    /* \"contracts/Twitter.sol\":83:112  uint16 MAX_TWEET_LENGTH = 280 */\n  0x00\n  dup1\n  0x0100\n  exp\n  dup2\n  sload\n  dup2\n  0xffff\n  mul\n  not\n  and\n  swap1\n  dup4\n  0xffff\n  and\n  mul\n  or\n  swap1\n  sstore\n  pop\n    /* \"contracts/Twitter.sol\":609:658  constructor() {... */\n  callvalue\n  dup1\n  iszero\n  tag_1\n  jumpi\n  0x00\n  dup1\n  revert\ntag_1:\n  pop\n    /* \"contracts/Twitter.sol\":641:651  msg.sender */\n  caller\n    /* \"contracts/Twitter.sol\":633:638  owner */\n  0x02\n  0x00\n    /* \"contracts/Twitter.sol\":633:651  owner = msg.sender */\n  0x0100\n  exp\n  dup2\n  sload\n  dup2\n  0xffffffffffffffffffffffffffffffffffffffff\n  mul\n  not\n  and\n  swap1\n  dup4\n  0xffffffffffffffffffffffffffffffffffffffff\n  and\n  mul\n  or\n  swap1\n  sstore\n  pop\n    /* \"contracts/Twitter.sol\":59:2490  contract Twitter {... */\n  dataSize(sub_0)\n  dup1\n  dataOffset(sub_0)\n  0x00\n  codecopy\n  0x00\n  return\nstop\n\nsub_0: assembly {\n        /* \"contracts/Twitter.sol\":59:2490  contract Twitter {... */\n      mstore(0x40, 0x80)\n      callvalue\n      dup1\n      iszero\n      tag_1\n      jumpi\n      0x00\n      dup1\n      revert\n    tag_1:\n      pop\n      jumpi(tag_2, lt(calldatasize, 0x04))\n      shr(0xe0, calldataload(0x00))\n      dup1\n      0x63378216\n      gt\n      tag_10\n      jumpi\n      dup1\n      0x63378216\n      eq\n      tag_6\n      jumpi\n      dup1\n      0x7c9cd2bc\n      eq\n      tag_7\n      jumpi\n      dup1\n      0x820785cc\n      eq\n      tag_8\n      jumpi\n      dup1\n      0xc3ad5ecb\n      eq\n      tag_9\n      jumpi\n      jump(tag_2)\n    tag_10:\n      dup1\n      0x3d9b569f\n      eq\n      tag_3\n      jumpi\n      dup1\n      0x53256135\n      eq\n      tag_4\n      jumpi\n      dup1\n      0x58bfa4ab\n      eq\n      tag_5\n      jumpi\n    tag_2:\n      0x00\n      dup1\n      revert\n        /* \"contracts/Twitter.sol\":1916:2258  function unlikeTweet(address _author, uint256 _id) external {... */\n    tag_3:\n      tag_11\n      0x04\n      dup1\n      calldatasize\n      sub\n      dup2\n      add\n      swap1\n      tag_12\n      swap2\n      swap1\n      tag_13\n      jump\t// in\n    tag_12:\n      tag_14\n      jump\t// in\n    tag_11:\n      stop\n        /* \"contracts/Twitter.sol\":2386:2488  function getAllTweets() public view returns(Tweet[] memory) {... */\n    tag_4:\n      tag_15\n      tag_16\n      jump\t// in\n    tag_15:\n      mload(0x40)\n      tag_17\n      swap2\n      swap1\n      tag_18\n      jump\t// in\n    tag_17:\n      mload(0x40)\n      dup1\n      swap2\n      sub\n      swap1\n      return\n        /* \"contracts/Twitter.sol\":773:890  function changeTweetLength(uint16 newTweetLength) public onlyOwner {... */\n    tag_5:\n      tag_19\n      0x04\n      dup1\n      calldatasize\n      sub\n      dup2\n      add\n      swap1\n      tag_20\n      swap2\n      swap1\n      tag_21\n      jump\t// in\n    tag_20:\n      tag_22\n      jump\t// in\n    tag_19:\n      stop\n        /* \"contracts/Twitter.sol\":1653:1910  function likeTweet(address _author, uint256 _id) external {... */\n    tag_6:\n      tag_23\n      0x04\n      dup1\n      calldatasize\n      sub\n      dup2\n      add\n      swap1\n      tag_24\n      swap2\n      swap1\n      tag_13\n      jump\t// in\n    tag_24:\n      tag_25\n      jump\t// in\n    tag_23:\n      stop\n        /* \"contracts/Twitter.sol\":1151:1647  function createTweet(string memory _tweet) public {... */\n    tag_7:\n      tag_26\n      0x04\n      dup1\n      calldatasize\n      sub\n      dup2\n      add\n      swap1\n      tag_27\n      swap2\n      swap1\n      tag_28\n      jump\t// in\n    tag_27:\n      tag_29\n      jump\t// in\n    tag_26:\n      stop\n        /* \"contracts/Twitter.sol\":896:1145  function getTotalLikes(address _author) external view returns(uint) {... */\n    tag_8:\n      tag_30\n      0x04\n      dup1\n      calldatasize\n      sub\n      dup2\n      add\n      swap1\n      tag_31\n      swap2\n      swap1\n      tag_32\n      jump\t// in\n    tag_31:\n      tag_33\n      jump\t// in\n    tag_30:\n      mload(0x40)\n      tag_34\n      swap2\n      swap1\n      tag_35\n      jump\t// in\n    tag_34:\n      mload(0x40)\n      dup1\n      swap2\n      sub\n      swap1\n      return\n        /* \"contracts/Twitter.sol\":2264:2380  function getTweet(uint _i) public view returns(string memory) {... */\n    tag_9:\n      tag_36\n      0x04\n      dup1\n      calldatasize\n      sub\n      dup2\n      add\n      swap1\n      tag_37\n      swap2\n      swap1\n      tag_38\n      jump\t// in\n    tag_37:\n      tag_39\n      jump\t// in\n    tag_36:\n      mload(0x40)\n      tag_40\n      swap2\n      swap1\n      tag_41\n      jump\t// in\n    tag_40:\n      mload(0x40)\n      dup1\n      swap2\n      sub\n      swap1\n      return\n        /* \"contracts/Twitter.sol\":1916:2258  function unlikeTweet(address _author, uint256 _id) external {... */\n    tag_14:\n        /* \"contracts/Twitter.sol\":2021:2024  _id */\n      dup1\n        /* \"contracts/Twitter.sol\":1994:2000  tweets */\n      0x01\n        /* \"contracts/Twitter.sol\":1994:2009  tweets[_author] */\n      0x00\n        /* \"contracts/Twitter.sol\":2001:2008  _author */\n      dup5\n        /* \"contracts/Twitter.sol\":1994:2009  tweets[_author] */\n      0xffffffffffffffffffffffffffffffffffffffff\n      and\n      0xffffffffffffffffffffffffffffffffffffffff\n      and\n      dup2\n      mstore\n      0x20\n      add\n      swap1\n      dup2\n      mstore\n      0x20\n      add\n      0x00\n      keccak256\n        /* \"contracts/Twitter.sol\":2010:2013  _id */\n      dup3\n        /* \"contracts/Twitter.sol\":1994:2014  tweets[_author][_id] */\n      dup2\n      sload\n      dup2\n      lt\n      tag_43\n      jumpi\n      tag_44\n      tag_45\n      jump\t// in\n    tag_44:\n    tag_43:\n      swap1\n      0x00\n      mstore\n      keccak256(0x00, 0x20)\n      swap1\n      0x05\n      mul\n      add\n        /* \"contracts/Twitter.sol\":1994:2017  tweets[_author][_id].id */\n      0x00\n      add\n      sload\n        /* \"contracts/Twitter.sol\":1994:2024  tweets[_author][_id].id == _id */\n      eq\n        /* \"contracts/Twitter.sol\":1986:2049  require(tweets[_author][_id].id == _id, \"Tweet does not exist\") */\n      tag_47\n      jumpi\n      mload(0x40)\n      0x08c379a000000000000000000000000000000000000000000000000000000000\n      dup2\n      mstore\n      0x04\n      add\n      tag_48\n      swap1\n      tag_49\n      jump\t// in\n    tag_48:\n      mload(0x40)\n      dup1\n      swap2\n      sub\n      swap1\n      revert\n    tag_47:\n        /* \"contracts/Twitter.sol\":2096:2097  0 */\n      0x00\n        /* \"contracts/Twitter.sol\":2067:2073  tweets */\n      0x01\n        /* \"contracts/Twitter.sol\":2067:2082  tweets[_author] */\n      0x00\n        /* \"contracts/Twitter.sol\":2074:2081  _author */\n      dup5\n        /* \"contracts/Twitter.sol\":2067:2082  tweets[_author] */\n      0xffffffffffffffffffffffffffffffffffffffff\n      and\n      0xffffffffffffffffffffffffffffffffffffffff\n      and\n      dup2\n      mstore\n      0x20\n      add\n      swap1\n      dup2\n      mstore\n      0x20\n      add\n      0x00\n      keccak256\n        /* \"contracts/Twitter.sol\":2083:2086  _id */\n      dup3\n        /* \"contracts/Twitter.sol\":2067:2087  tweets[_author][_id] */\n      dup2\n      sload\n      dup2\n      lt\n      tag_50\n      jumpi\n      tag_51\n      tag_45\n      jump\t// in\n    tag_51:\n    tag_50:\n      swap1\n      0x00\n      mstore\n      keccak256(0x00, 0x20)\n      swap1\n      0x05\n      mul\n      add\n        /* \"contracts/Twitter.sol\":2067:2093  tweets[_author][_id].likes */\n      0x04\n      add\n      sload\n        /* \"contracts/Twitter.sol\":2067:2097  tweets[_author][_id].likes > 0 */\n      gt\n        /* \"contracts/Twitter.sol\":2059:2130  require(tweets[_author][_id].likes > 0, \"Tweet doesn't have any likes\") */\n      tag_53\n      jumpi\n      mload(0x40)\n      0x08c379a000000000000000000000000000000000000000000000000000000000\n      dup2\n      mstore\n      0x04\n      add\n      tag_54\n      swap1\n      tag_55\n      jump\t// in\n    tag_54:\n      mload(0x40)\n      dup1\n      swap2\n      sub\n      swap1\n      revert\n    tag_53:\n        /* \"contracts/Twitter.sol\":2141:2147  tweets */\n      0x01\n        /* \"contracts/Twitter.sol\":2141:2156  tweets[_author] */\n      0x00\n        /* \"contracts/Twitter.sol\":2148:2155  _author */\n      dup4\n        /* \"contracts/Twitter.sol\":2141:2156  tweets[_author] */\n      0xffffffffffffffffffffffffffffffffffffffff\n      and\n      0xffffffffffffffffffffffffffffffffffffffff\n      and\n      dup2\n      mstore\n      0x20\n      add\n      swap1\n      dup2\n      mstore\n      0x20\n      add\n      0x00\n      keccak256\n        /* \"contracts/Twitter.sol\":2157:2160  _id */\n      dup2\n        /* \"contracts/Twitter.sol\":2141:2161  tweets[_author][_id] */\n      dup2\n      sload\n      dup2\n      lt\n      tag_56\n      jumpi\n      tag_57\n      tag_45\n      jump\t// in\n    tag_57:\n    tag_56:\n      swap1\n      0x00\n      mstore\n      keccak256(0x00, 0x20)\n      swap1\n      0x05\n      mul\n      add\n        /* \"contracts/Twitter.sol\":2141:2167  tweets[_author][_id].likes */\n      0x04\n      add\n      0x00\n        /* \"contracts/Twitter.sol\":2141:2169  tweets[_author][_id].likes-- */\n      dup2\n      sload\n      dup1\n      swap3\n      swap2\n      swap1\n      tag_59\n      swap1\n      tag_60\n      jump\t// in\n    tag_59:\n      swap2\n      swap1\n      pop\n      sstore\n      pop\n        /* \"contracts/Twitter.sol\":2185:2251  TweetUnliked(msg.sender, _author, _id, tweets[_author][_id].likes) */\n      0x762c2616349603ac16eba0de8e6141b79129a07ab63bd99e0a80b3a471716943\n        /* \"contracts/Twitter.sol\":2198:2208  msg.sender */\n      caller\n        /* \"contracts/Twitter.sol\":2210:2217  _author */\n      dup4\n        /* \"contracts/Twitter.sol\":2219:2222  _id */\n      dup4\n        /* \"contracts/Twitter.sol\":2224:2230  tweets */\n      0x01\n        /* \"contracts/Twitter.sol\":2224:2239  tweets[_author] */\n      0x00\n        /* \"contracts/Twitter.sol\":2231:2238  _author */\n      dup8\n        /* \"contracts/Twitter.sol\":2224:2239  tweets[_author] */\n      0xffffffffffffffffffffffffffffffffffffffff\n      and\n      0xffffffffffffffffffffffffffffffffffffffff\n      and\n      dup2\n      mstore\n      0x20\n      add\n      swap1\n      dup2\n      mstore\n      0x20\n      add\n      0x00\n      keccak256\n        /* \"contracts/Twitter.sol\":2240:2243  _id */\n      dup6\n        /* \"contracts/Twitter.sol\":2224:2244  tweets[_author][_id] */\n      dup2\n      sload\n      dup2\n      lt\n      tag_61\n      jumpi\n      tag_62\n      tag_45\n      jump\t// in\n    tag_62:\n    tag_61:\n      swap1\n      0x00\n      mstore\n      keccak256(0x00, 0x20)\n      swap1\n      0x05\n      mul\n      add\n        /* \"contracts/Twitter.sol\":2224:2250  tweets[_author][_id].likes */\n      0x04\n      add\n      sload\n        /* \"contracts/Twitter.sol\":2185:2251  TweetUnliked(msg.sender, _author, _id, tweets[_author][_id].likes) */\n      mload(0x40)\n      tag_64\n      swap5\n      swap4\n      swap3\n      swap2\n      swap1\n      tag_65\n      jump\t// in\n    tag_64:\n      mload(0x40)\n      dup1\n      swap2\n      sub\n      swap1\n      log1\n        /* \"contracts/Twitter.sol\":1916:2258  function unlikeTweet(address _author, uint256 _id) external {... */\n      pop\n      pop\n      jump\t// out\n        /* \"contracts/Twitter.sol\":2386:2488  function getAllTweets() public view returns(Tweet[] memory) {... */\n    tag_16:\n        /* \"contracts/Twitter.sol\":2430:2444  Tweet[] memory */\n      0x60\n        /* \"contracts/Twitter.sol\":2463:2469  tweets */\n      0x01\n        /* \"contracts/Twitter.sol\":2463:2481  tweets[msg.sender] */\n      0x00\n        /* \"contracts/Twitter.sol\":2470:2480  msg.sender */\n      caller\n        /* \"contracts/Twitter.sol\":2463:2481  tweets[msg.sender] */\n      0xffffffffffffffffffffffffffffffffffffffff\n      and\n      0xffffffffffffffffffffffffffffffffffffffff\n      and\n      dup2\n      mstore\n      0x20\n      add\n      swap1\n      dup2\n      mstore\n      0x20\n      add\n      0x00\n      keccak256\n        /* \"contracts/Twitter.sol\":2456:2481  return tweets[msg.sender] */\n      dup1\n      sload\n      dup1\n      0x20\n      mul\n      0x20\n      add\n      mload(0x40)\n      swap1\n      dup2\n      add\n      0x40\n      mstore\n      dup1\n      swap3\n      swap2\n      swap1\n      dup2\n      dup2\n      mstore\n      0x20\n      add\n      0x00\n      swap1\n    tag_67:\n      dup3\n      dup3\n      lt\n      iszero\n      tag_68\n      jumpi\n      dup4\n      dup3\n      swap1\n      0x00\n      mstore\n      keccak256(0x00, 0x20)\n      swap1\n      0x05\n      mul\n      add\n      mload(0x40)\n      dup1\n      0xa0\n      add\n      0x40\n      mstore\n      swap1\n      dup2\n      0x00\n      dup3\n      add\n      sload\n      dup2\n      mstore\n      0x20\n      add\n      0x01\n      dup3\n      add\n      0x00\n      swap1\n      sload\n      swap1\n      0x0100\n      exp\n      swap1\n      div\n      0xffffffffffffffffffffffffffffffffffffffff\n      and\n      0xffffffffffffffffffffffffffffffffffffffff\n      and\n      0xffffffffffffffffffffffffffffffffffffffff\n      and\n      dup2\n      mstore\n      0x20\n      add\n      0x02\n      dup3\n      add\n      dup1\n      sload\n      tag_70\n      swap1\n      tag_71\n      jump\t// in\n    tag_70:\n      dup1\n      0x1f\n      add\n      0x20\n      dup1\n      swap2\n      div\n      mul\n      0x20\n      add\n      mload(0x40)\n      swap1\n      dup2\n      add\n      0x40\n      mstore\n      dup1\n      swap3\n      swap2\n      swap1\n      dup2\n      dup2\n      mstore\n      0x20\n      add\n      dup3\n      dup1\n      sload\n      tag_72\n      swap1\n      tag_71\n      jump\t// in\n    tag_72:\n      dup1\n      iszero\n      tag_73\n      jumpi\n      dup1\n      0x1f\n      lt\n      tag_74\n      jumpi\n      0x0100\n      dup1\n      dup4\n      sload\n      div\n      mul\n      dup4\n      mstore\n      swap2\n      0x20\n      add\n      swap2\n      jump(tag_73)\n    tag_74:\n      dup3\n      add\n      swap2\n      swap1\n      0x00\n      mstore\n      keccak256(0x00, 0x20)\n      swap1\n    tag_75:\n      dup2\n      sload\n      dup2\n      mstore\n      swap1\n      0x01\n      add\n      swap1\n      0x20\n      add\n      dup1\n      dup4\n      gt\n      tag_75\n      jumpi\n      dup3\n      swap1\n      sub\n      0x1f\n      and\n      dup3\n      add\n      swap2\n    tag_73:\n      pop\n      pop\n      pop\n      pop\n      pop\n      dup2\n      mstore\n      0x20\n      add\n      0x03\n      dup3\n      add\n      sload\n      dup2\n      mstore\n      0x20\n      add\n      0x04\n      dup3\n      add\n      sload\n      dup2\n      mstore\n      pop\n      pop\n      dup2\n      mstore\n      0x20\n      add\n      swap1\n      0x01\n      add\n      swap1\n      jump(tag_67)\n    tag_68:\n      pop\n      pop\n      pop\n      pop\n      swap1\n      pop\n        /* \"contracts/Twitter.sol\":2386:2488  function getAllTweets() public view returns(Tweet[] memory) {... */\n      swap1\n      jump\t// out\n        /* \"contracts/Twitter.sol\":773:890  function changeTweetLength(uint16 newTweetLength) public onlyOwner {... */\n    tag_22:\n        /* \"contracts/Twitter.sol\":717:722  owner */\n      0x02\n      0x00\n      swap1\n      sload\n      swap1\n      0x0100\n      exp\n      swap1\n      div\n      0xffffffffffffffffffffffffffffffffffffffff\n      and\n        /* \"contracts/Twitter.sol\":703:722  msg.sender == owner */\n      0xffffffffffffffffffffffffffffffffffffffff\n      and\n        /* \"contracts/Twitter.sol\":703:713  msg.sender */\n      caller\n        /* \"contracts/Twitter.sol\":703:722  msg.sender == owner */\n      0xffffffffffffffffffffffffffffffffffffffff\n      and\n      eq\n        /* \"contracts/Twitter.sol\":695:749  require(msg.sender == owner, \"You are not the owner!\") */\n      tag_77\n      jumpi\n      mload(0x40)\n      0x08c379a000000000000000000000000000000000000000000000000000000000\n      dup2\n      mstore\n      0x04\n      add\n      tag_78\n      swap1\n      tag_79\n      jump\t// in\n    tag_78:\n      mload(0x40)\n      dup1\n      swap2\n      sub\n      swap1\n      revert\n    tag_77:\n        /* \"contracts/Twitter.sol\":869:883  newTweetLength */\n      dup1\n        /* \"contracts/Twitter.sol\":850:866  MAX_TWEET_LENGTH */\n      0x00\n      dup1\n        /* \"contracts/Twitter.sol\":850:883  MAX_TWEET_LENGTH = newTweetLength */\n      0x0100\n      exp\n      dup2\n      sload\n      dup2\n      0xffff\n      mul\n      not\n      and\n      swap1\n      dup4\n      0xffff\n      and\n      mul\n      or\n      swap1\n      sstore\n      pop\n        /* \"contracts/Twitter.sol\":773:890  function changeTweetLength(uint16 newTweetLength) public onlyOwner {... */\n      pop\n      jump\t// out\n        /* \"contracts/Twitter.sol\":1653:1910  function likeTweet(address _author, uint256 _id) external {... */\n    tag_25:\n        /* \"contracts/Twitter.sol\":1756:1759  _id */\n      dup1\n        /* \"contracts/Twitter.sol\":1729:1735  tweets */\n      0x01\n        /* \"contracts/Twitter.sol\":1729:1744  tweets[_author] */\n      0x00\n        /* \"contracts/Twitter.sol\":1736:1743  _author */\n      dup5\n        /* \"contracts/Twitter.sol\":1729:1744  tweets[_author] */\n      0xffffffffffffffffffffffffffffffffffffffff\n      and\n      0xffffffffffffffffffffffffffffffffffffffff\n      and\n      dup2\n      mstore\n      0x20\n      add\n      swap1\n      dup2\n      mstore\n      0x20\n      add\n      0x00\n      keccak256\n        /* \"contracts/Twitter.sol\":1745:1748  _id */\n      dup3\n        /* \"contracts/Twitter.sol\":1729:1749  tweets[_author][_id] */\n      dup2\n      sload\n      dup2\n      lt\n      tag_82\n      jumpi\n      tag_83\n      tag_45\n      jump\t// in\n    tag_83:\n    tag_82:\n      swap1\n      0x00\n      mstore\n      keccak256(0x00, 0x20)\n      swap1\n      0x05\n      mul\n      add\n        /* \"contracts/Twitter.sol\":1729:1752  tweets[_author][_id].id */\n      0x00\n      add\n      sload\n        /* \"contracts/Twitter.sol\":1729:1759  tweets[_author][_id].id == _id */\n      eq\n        /* \"contracts/Twitter.sol\":1721:1784  require(tweets[_author][_id].id == _id, \"Tweet does not exist\") */\n      tag_85\n      jumpi\n      mload(0x40)\n      0x08c379a000000000000000000000000000000000000000000000000000000000\n      dup2\n      mstore\n      0x04\n      add\n      tag_86\n      swap1\n      tag_49\n      jump\t// in\n    tag_86:\n      mload(0x40)\n      dup1\n      swap2\n      sub\n      swap1\n      revert\n    tag_85:\n        /* \"contracts/Twitter.sol\":1795:1801  tweets */\n      0x01\n        /* \"contracts/Twitter.sol\":1795:1810  tweets[_author] */\n      0x00\n        /* \"contracts/Twitter.sol\":1802:1809  _author */\n      dup4\n        /* \"contracts/Twitter.sol\":1795:1810  tweets[_author] */\n      0xffffffffffffffffffffffffffffffffffffffff\n      and\n      0xffffffffffffffffffffffffffffffffffffffff\n      and\n      dup2\n      mstore\n      0x20\n      add\n      swap1\n      dup2\n      mstore\n      0x20\n      add\n      0x00\n      keccak256\n        /* \"contracts/Twitter.sol\":1811:1814  _id */\n      dup2\n        /* \"contracts/Twitter.sol\":1795:1815  tweets[_author][_id] */\n      dup2\n      sload\n      dup2\n      lt\n      tag_87\n      jumpi\n      tag_88\n      tag_45\n      jump\t// in\n    tag_88:\n    tag_87:\n      swap1\n      0x00\n      mstore\n      keccak256(0x00, 0x20)\n      swap1\n      0x05\n      mul\n      add\n        /* \"contracts/Twitter.sol\":1795:1821  tweets[_author][_id].likes */\n      0x04\n      add\n      0x00\n        /* \"contracts/Twitter.sol\":1795:1823  tweets[_author][_id].likes++ */\n      dup2\n      sload\n      dup1\n      swap3\n      swap2\n      swap1\n      tag_90\n      swap1\n      tag_91\n      jump\t// in\n    tag_90:\n      swap2\n      swap1\n      pop\n      sstore\n      pop\n        /* \"contracts/Twitter.sol\":1839:1903  TweetLiked(msg.sender, _author, _id, tweets[_author][_id].likes) */\n      0xe8a76fc0f16d11a00d1e93b689b63d76cf60af914dd3d915375dc41d01a0c3c8\n        /* \"contracts/Twitter.sol\":1850:1860  msg.sender */\n      caller\n        /* \"contracts/Twitter.sol\":1862:1869  _author */\n      dup4\n        /* \"contracts/Twitter.sol\":1871:1874  _id */\n      dup4\n        /* \"contracts/Twitter.sol\":1876:1882  tweets */\n      0x01\n        /* \"contracts/Twitter.sol\":1876:1891  tweets[_author] */\n      0x00\n        /* \"contracts/Twitter.sol\":1883:1890  _author */\n      dup8\n        /* \"contracts/Twitter.sol\":1876:1891  tweets[_author] */\n      0xffffffffffffffffffffffffffffffffffffffff\n      and\n      0xffffffffffffffffffffffffffffffffffffffff\n      and\n      dup2\n      mstore\n      0x20\n      add\n      swap1\n      dup2\n      mstore\n      0x20\n      add\n      0x00\n      keccak256\n        /* \"contracts/Twitter.sol\":1892:1895  _id */\n      dup6\n        /* \"contracts/Twitter.sol\":1876:1896  tweets[_author][_id] */\n      dup2\n      sload\n      dup2\n      lt\n      tag_92\n      jumpi\n      tag_93\n      tag_45\n      jump\t// in\n    tag_93:\n    tag_92:\n      swap1\n      0x00\n      mstore\n      keccak256(0x00, 0x20)\n      swap1\n      0x05\n      mul\n      add\n        /* \"contracts/Twitter.sol\":1876:1902  tweets[_author][_id].likes */\n      0x04\n      add\n      sload\n        /* \"contracts/Twitter.sol\":1839:1903  TweetLiked(msg.sender, _author, _id, tweets[_author][_id].likes) */\n      mload(0x40)\n      tag_95\n      swap5\n      swap4\n      swap3\n      swap2\n      swap1\n      tag_65\n      jump\t// in\n    tag_95:\n      mload(0x40)\n      dup1\n      swap2\n      sub\n      swap1\n      log1\n        /* \"contracts/Twitter.sol\":1653:1910  function likeTweet(address _author, uint256 _id) external {... */\n      pop\n      pop\n      jump\t// out\n        /* \"contracts/Twitter.sol\":1151:1647  function createTweet(string memory _tweet) public {... */\n    tag_29:\n        /* \"contracts/Twitter.sol\":1243:1259  MAX_TWEET_LENGTH */\n      0x00\n      dup1\n      sload\n      swap1\n      0x0100\n      exp\n      swap1\n      div\n      0xffff\n      and\n        /* \"contracts/Twitter.sol\":1219:1259  bytes(_tweet).length <= MAX_TWEET_LENGTH */\n      0xffff\n      and\n        /* \"contracts/Twitter.sol\":1225:1231  _tweet */\n      dup2\n        /* \"contracts/Twitter.sol\":1219:1239  bytes(_tweet).length */\n      mload\n        /* \"contracts/Twitter.sol\":1219:1259  bytes(_tweet).length <= MAX_TWEET_LENGTH */\n      gt\n      iszero\n        /* \"contracts/Twitter.sol\":1211:1282  require(bytes(_tweet).length <= MAX_TWEET_LENGTH, \"Tweet is too long.\") */\n      tag_97\n      jumpi\n      mload(0x40)\n      0x08c379a000000000000000000000000000000000000000000000000000000000\n      dup2\n      mstore\n      0x04\n      add\n      tag_98\n      swap1\n      tag_99\n      jump\t// in\n    tag_98:\n      mload(0x40)\n      dup1\n      swap2\n      sub\n      swap1\n      revert\n    tag_97:\n        /* \"contracts/Twitter.sol\":1293:1314  Tweet memory newTweet */\n      0x00\n        /* \"contracts/Twitter.sol\":1317:1500  Tweet({... */\n      mload(0x40)\n      dup1\n      0xa0\n      add\n      0x40\n      mstore\n      dup1\n        /* \"contracts/Twitter.sol\":1341:1347  tweets */\n      0x01\n        /* \"contracts/Twitter.sol\":1341:1359  tweets[msg.sender] */\n      0x00\n        /* \"contracts/Twitter.sol\":1348:1358  msg.sender */\n      caller\n        /* \"contracts/Twitter.sol\":1341:1359  tweets[msg.sender] */\n      0xffffffffffffffffffffffffffffffffffffffff\n      and\n      0xffffffffffffffffffffffffffffffffffffffff\n      and\n      dup2\n      mstore\n      0x20\n      add\n      swap1\n      dup2\n      mstore\n      0x20\n      add\n      0x00\n      keccak256\n        /* \"contracts/Twitter.sol\":1341:1366  tweets[msg.sender].length */\n      dup1\n      sload\n      swap1\n      pop\n        /* \"contracts/Twitter.sol\":1317:1500  Tweet({... */\n      dup2\n      mstore\n      0x20\n      add\n        /* \"contracts/Twitter.sol\":1388:1398  msg.sender */\n      caller\n        /* \"contracts/Twitter.sol\":1317:1500  Tweet({... */\n      0xffffffffffffffffffffffffffffffffffffffff\n      and\n      dup2\n      mstore\n      0x20\n      add\n        /* \"contracts/Twitter.sol\":1421:1427  _tweet */\n      dup4\n        /* \"contracts/Twitter.sol\":1317:1500  Tweet({... */\n      dup2\n      mstore\n      0x20\n      add\n        /* \"contracts/Twitter.sol\":1452:1467  block.timestamp */\n      timestamp\n        /* \"contracts/Twitter.sol\":1317:1500  Tweet({... */\n      dup2\n      mstore\n      0x20\n      add\n        /* \"contracts/Twitter.sol\":1488:1489  0 */\n      0x00\n        /* \"contracts/Twitter.sol\":1317:1500  Tweet({... */\n      dup2\n      mstore\n      pop\n        /* \"contracts/Twitter.sol\":1293:1500  Tweet memory newTweet = Tweet({... */\n      swap1\n      pop\n        /* \"contracts/Twitter.sol\":1511:1517  tweets */\n      0x01\n        /* \"contracts/Twitter.sol\":1511:1529  tweets[msg.sender] */\n      0x00\n        /* \"contracts/Twitter.sol\":1518:1528  msg.sender */\n      caller\n        /* \"contracts/Twitter.sol\":1511:1529  tweets[msg.sender] */\n      0xffffffffffffffffffffffffffffffffffffffff\n      and\n      0xffffffffffffffffffffffffffffffffffffffff\n      and\n      dup2\n      mstore\n      0x20\n      add\n      swap1\n      dup2\n      mstore\n      0x20\n      add\n      0x00\n      keccak256\n        /* \"contracts/Twitter.sol\":1535:1543  newTweet */\n      dup2\n        /* \"contracts/Twitter.sol\":1511:1544  tweets[msg.sender].push(newTweet) */\n      swap1\n      dup1\n      0x01\n      dup2\n      sload\n      add\n      dup1\n      dup3\n      sstore\n      dup1\n      swap2\n      pop\n      pop\n      0x01\n      swap1\n      sub\n      swap1\n      0x00\n      mstore\n      keccak256(0x00, 0x20)\n      swap1\n      0x05\n      mul\n      add\n      0x00\n      swap1\n      swap2\n      swap1\n      swap2\n      swap1\n      swap2\n      pop\n      0x00\n      dup3\n      add\n      mload\n      dup2\n      0x00\n      add\n      sstore\n      0x20\n      dup3\n      add\n      mload\n      dup2\n      0x01\n      add\n      exp(0x0100, 0x00)\n      dup2\n      sload\n      dup2\n      0xffffffffffffffffffffffffffffffffffffffff\n      mul\n      not\n      and\n      swap1\n      dup4\n      0xffffffffffffffffffffffffffffffffffffffff\n      and\n      mul\n      or\n      swap1\n      sstore\n      pop\n      0x40\n      dup3\n      add\n      mload\n      dup2\n      0x02\n      add\n      swap1\n      dup2\n      tag_101\n      swap2\n      swap1\n      tag_102\n      jump\t// in\n    tag_101:\n      pop\n      0x60\n      dup3\n      add\n      mload\n      dup2\n      0x03\n      add\n      sstore\n      0x80\n      dup3\n      add\n      mload\n      dup2\n      0x04\n      add\n      sstore\n      pop\n      pop\n        /* \"contracts/Twitter.sol\":1560:1640  TweetCreated(newTweet.id, newTweet.author, newTweet.content, newTweet.timestamp) */\n      0x16fd3c13e9d46923e0a8bce11c7b473ec508a72e6c96cd2404b29ce972afc29e\n        /* \"contracts/Twitter.sol\":1573:1581  newTweet */\n      dup2\n        /* \"contracts/Twitter.sol\":1573:1584  newTweet.id */\n      0x00\n      add\n      mload\n        /* \"contracts/Twitter.sol\":1586:1594  newTweet */\n      dup3\n        /* \"contracts/Twitter.sol\":1586:1601  newTweet.author */\n      0x20\n      add\n      mload\n        /* \"contracts/Twitter.sol\":1603:1611  newTweet */\n      dup4\n        /* \"contracts/Twitter.sol\":1603:1619  newTweet.content */\n      0x40\n      add\n      mload\n        /* \"contracts/Twitter.sol\":1621:1629  newTweet */\n      dup5\n        /* \"contracts/Twitter.sol\":1621:1639  newTweet.timestamp */\n      0x60\n      add\n      mload\n        /* \"contracts/Twitter.sol\":1560:1640  TweetCreated(newTweet.id, newTweet.author, newTweet.content, newTweet.timestamp) */\n      mload(0x40)\n      tag_103\n      swap5\n      swap4\n      swap3\n      swap2\n      swap1\n      tag_104\n      jump\t// in\n    tag_103:\n      mload(0x40)\n      dup1\n      swap2\n      sub\n      swap1\n      log1\n        /* \"contracts/Twitter.sol\":1201:1647  {... */\n      pop\n        /* \"contracts/Twitter.sol\":1151:1647  function createTweet(string memory _tweet) public {... */\n      pop\n      jump\t// out\n        /* \"contracts/Twitter.sol\":896:1145  function getTotalLikes(address _author) external view returns(uint) {... */\n    tag_33:\n        /* \"contracts/Twitter.sol\":958:962  uint */\n      0x00\n        /* \"contracts/Twitter.sol\":974:989  uint totalLikes */\n      dup1\n        /* \"contracts/Twitter.sol\":1005:1011  uint i */\n      0x00\n        /* \"contracts/Twitter.sol\":1000:1111  for (uint i=0; i < tweets[_author].length; i++) {... */\n    tag_106:\n        /* \"contracts/Twitter.sol\":1019:1025  tweets */\n      0x01\n        /* \"contracts/Twitter.sol\":1019:1034  tweets[_author] */\n      0x00\n        /* \"contracts/Twitter.sol\":1026:1033  _author */\n      dup6\n        /* \"contracts/Twitter.sol\":1019:1034  tweets[_author] */\n      0xffffffffffffffffffffffffffffffffffffffff\n      and\n      0xffffffffffffffffffffffffffffffffffffffff\n      and\n      dup2\n      mstore\n      0x20\n      add\n      swap1\n      dup2\n      mstore\n      0x20\n      add\n      0x00\n      keccak256\n        /* \"contracts/Twitter.sol\":1019:1041  tweets[_author].length */\n      dup1\n      sload\n      swap1\n      pop\n        /* \"contracts/Twitter.sol\":1015:1016  i */\n      dup2\n        /* \"contracts/Twitter.sol\":1015:1041  i < tweets[_author].length */\n      lt\n        /* \"contracts/Twitter.sol\":1000:1111  for (uint i=0; i < tweets[_author].length; i++) {... */\n      iszero\n      tag_107\n      jumpi\n        /* \"contracts/Twitter.sol\":1076:1082  tweets */\n      0x01\n        /* \"contracts/Twitter.sol\":1076:1091  tweets[_author] */\n      0x00\n        /* \"contracts/Twitter.sol\":1083:1090  _author */\n      dup6\n        /* \"contracts/Twitter.sol\":1076:1091  tweets[_author] */\n      0xffffffffffffffffffffffffffffffffffffffff\n      and\n      0xffffffffffffffffffffffffffffffffffffffff\n      and\n      dup2\n      mstore\n      0x20\n      add\n      swap1\n      dup2\n      mstore\n      0x20\n      add\n      0x00\n      keccak256\n        /* \"contracts/Twitter.sol\":1092:1093  i */\n      dup2\n        /* \"contracts/Twitter.sol\":1076:1094  tweets[_author][i] */\n      dup2\n      sload\n      dup2\n      lt\n      tag_109\n      jumpi\n      tag_110\n      tag_45\n      jump\t// in\n    tag_110:\n    tag_109:\n      swap1\n      0x00\n      mstore\n      keccak256(0x00, 0x20)\n      swap1\n      0x05\n      mul\n      add\n        /* \"contracts/Twitter.sol\":1076:1100  tweets[_author][i].likes */\n      0x04\n      add\n      sload\n        /* \"contracts/Twitter.sol\":1062:1100  totalLikes += tweets[_author][i].likes */\n      dup3\n      tag_112\n      swap2\n      swap1\n      tag_113\n      jump\t// in\n    tag_112:\n      swap2\n      pop\n        /* \"contracts/Twitter.sol\":1043:1046  i++ */\n      dup1\n      dup1\n      0x01\n      add\n      swap2\n      pop\n      pop\n        /* \"contracts/Twitter.sol\":1000:1111  for (uint i=0; i < tweets[_author].length; i++) {... */\n      jump(tag_106)\n    tag_107:\n      pop\n        /* \"contracts/Twitter.sol\":1128:1138  totalLikes */\n      dup1\n        /* \"contracts/Twitter.sol\":1121:1138  return totalLikes */\n      swap2\n      pop\n      pop\n        /* \"contracts/Twitter.sol\":896:1145  function getTotalLikes(address _author) external view returns(uint) {... */\n      swap2\n      swap1\n      pop\n      jump\t// out\n        /* \"contracts/Twitter.sol\":2264:2380  function getTweet(uint _i) public view returns(string memory) {... */\n    tag_39:\n        /* \"contracts/Twitter.sol\":2311:2324  string memory */\n      0x60\n        /* \"contracts/Twitter.sol\":2343:2349  tweets */\n      0x01\n        /* \"contracts/Twitter.sol\":2343:2361  tweets[msg.sender] */\n      0x00\n        /* \"contracts/Twitter.sol\":2350:2360  msg.sender */\n      caller\n        /* \"contracts/Twitter.sol\":2343:2361  tweets[msg.sender] */\n      0xffffffffffffffffffffffffffffffffffffffff\n      and\n      0xffffffffffffffffffffffffffffffffffffffff\n      and\n      dup2\n      mstore\n      0x20\n      add\n      swap1\n      dup2\n      mstore\n      0x20\n      add\n      0x00\n      keccak256\n        /* \"contracts/Twitter.sol\":2362:2364  _i */\n      dup3\n        /* \"contracts/Twitter.sol\":2343:2365  tweets[msg.sender][_i] */\n      dup2\n      sload\n      dup2\n      lt\n      tag_115\n      jumpi\n      tag_116\n      tag_45\n      jump\t// in\n    tag_116:\n    tag_115:\n      swap1\n      0x00\n      mstore\n      keccak256(0x00, 0x20)\n      swap1\n      0x05\n      mul\n      add\n        /* \"contracts/Twitter.sol\":2343:2373  tweets[msg.sender][_i].content */\n      0x02\n      add\n        /* \"contracts/Twitter.sol\":2336:2373  return tweets[msg.sender][_i].content */\n      dup1\n      sload\n      tag_118\n      swap1\n      tag_71\n      jump\t// in\n    tag_118:\n      dup1\n      0x1f\n      add\n      0x20\n      dup1\n      swap2\n      div\n      mul\n      0x20\n      add\n      mload(0x40)\n      swap1\n      dup2\n      add\n      0x40\n      mstore\n      dup1\n      swap3\n      swap2\n      swap1\n      dup2\n      dup2\n      mstore\n      0x20\n      add\n      dup3\n      dup1\n      sload\n      tag_119\n      swap1\n      tag_71\n      jump\t// in\n    tag_119:\n      dup1\n      iszero\n      tag_120\n      jumpi\n      dup1\n      0x1f\n      lt\n      tag_121\n      jumpi\n      0x0100\n      dup1\n      dup4\n      sload\n      div\n      mul\n      dup4\n      mstore\n      swap2\n      0x20\n      add\n      swap2\n      jump(tag_120)\n    tag_121:\n      dup3\n      add\n      swap2\n      swap1\n      0x00\n      mstore\n      keccak256(0x00, 0x20)\n      swap1\n    tag_122:\n      dup2\n      sload\n      dup2\n      mstore\n      swap1\n      0x01\n      add\n      swap1\n      0x20\n      add\n      dup1\n      dup4\n      gt\n      tag_122\n      jumpi\n      dup3\n      swap1\n      sub\n      0x1f\n      and\n      dup3\n      add\n      swap2\n    tag_120:\n      pop\n      pop\n      pop\n      pop\n      pop\n      swap1\n      pop\n        /* \"contracts/Twitter.sol\":2264:2380  function getTweet(uint _i) public view returns(string memory) {... */\n      swap2\n      swap1\n      pop\n      jump\t// out\n        /* \"#utility.yul\":7:82   */\n    tag_123:\n        /* \"#utility.yul\":40:46   */\n      0x00\n        /* \"#utility.yul\":73:75   */\n      0x40\n        /* \"#utility.yul\":67:76   */\n      mload\n        /* \"#utility.yul\":57:76   */\n      swap1\n      pop\n        /* \"#utility.yul\":7:82   */\n      swap1\n      jump\t// out\n        /* \"#utility.yul\":88:205   */\n    tag_124:\n        /* \"#utility.yul\":197:198   */\n      0x00\n        /* \"#utility.yul\":194:195   */\n      dup1\n        /* \"#utility.yul\":187:199   */\n      revert\n        /* \"#utility.yul\":211:328   */\n    tag_125:\n        /* \"#utility.yul\":320:321   */\n      0x00\n        /* \"#utility.yul\":317:318   */\n      dup1\n        /* \"#utility.yul\":310:322   */\n      revert\n        /* \"#utility.yul\":334:460   */\n    tag_126:\n        /* \"#utility.yul\":371:378   */\n      0x00\n        /* \"#utility.yul\":411:453   */\n      0xffffffffffffffffffffffffffffffffffffffff\n        /* \"#utility.yul\":404:409   */\n      dup3\n        /* \"#utility.yul\":400:454   */\n      and\n        /* \"#utility.yul\":389:454   */\n      swap1\n      pop\n        /* \"#utility.yul\":334:460   */\n      swap2\n      swap1\n      pop\n      jump\t// out\n        /* \"#utility.yul\":466:562   */\n    tag_127:\n        /* \"#utility.yul\":503:510   */\n      0x00\n        /* \"#utility.yul\":532:556   */\n      tag_194\n        /* \"#utility.yul\":550:555   */\n      dup3\n        /* \"#utility.yul\":532:556   */\n      tag_126\n      jump\t// in\n    tag_194:\n        /* \"#utility.yul\":521:556   */\n      swap1\n      pop\n        /* \"#utility.yul\":466:562   */\n      swap2\n      swap1\n      pop\n      jump\t// out\n        /* \"#utility.yul\":568:690   */\n    tag_128:\n        /* \"#utility.yul\":641:665   */\n      tag_196\n        /* \"#utility.yul\":659:664   */\n      dup2\n        /* \"#utility.yul\":641:665   */\n      tag_127\n      jump\t// in\n    tag_196:\n        /* \"#utility.yul\":634:639   */\n      dup2\n        /* \"#utility.yul\":631:666   */\n      eq\n        /* \"#utility.yul\":621:684   */\n      tag_197\n      jumpi\n        /* \"#utility.yul\":680:681   */\n      0x00\n        /* \"#utility.yul\":677:678   */\n      dup1\n        /* \"#utility.yul\":670:682   */\n      revert\n        /* \"#utility.yul\":621:684   */\n    tag_197:\n        /* \"#utility.yul\":568:690   */\n      pop\n      jump\t// out\n        /* \"#utility.yul\":696:835   */\n    tag_129:\n        /* \"#utility.yul\":742:747   */\n      0x00\n        /* \"#utility.yul\":780:786   */\n      dup2\n        /* \"#utility.yul\":767:787   */\n      calldataload\n        /* \"#utility.yul\":758:787   */\n      swap1\n      pop\n        /* \"#utility.yul\":796:829   */\n      tag_199\n        /* \"#utility.yul\":823:828   */\n      dup2\n        /* \"#utility.yul\":796:829   */\n      tag_128\n      jump\t// in\n    tag_199:\n        /* \"#utility.yul\":696:835   */\n      swap3\n      swap2\n      pop\n      pop\n      jump\t// out\n        /* \"#utility.yul\":841:918   */\n    tag_130:\n        /* \"#utility.yul\":878:885   */\n      0x00\n        /* \"#utility.yul\":907:912   */\n      dup2\n        /* \"#utility.yul\":896:912   */\n      swap1\n      pop\n        /* \"#utility.yul\":841:918   */\n      swap2\n      swap1\n      pop\n      jump\t// out\n        /* \"#utility.yul\":924:1046   */\n    tag_131:\n        /* \"#utility.yul\":997:1021   */\n      tag_202\n        /* \"#utility.yul\":1015:1020   */\n      dup2\n        /* \"#utility.yul\":997:1021   */\n      tag_130\n      jump\t// in\n    tag_202:\n        /* \"#utility.yul\":990:995   */\n      dup2\n        /* \"#utility.yul\":987:1022   */\n      eq\n        /* \"#utility.yul\":977:1040   */\n      tag_203\n      jumpi\n        /* \"#utility.yul\":1036:1037   */\n      0x00\n        /* \"#utility.yul\":1033:1034   */\n      dup1\n        /* \"#utility.yul\":1026:1038   */\n      revert\n        /* \"#utility.yul\":977:1040   */\n    tag_203:\n        /* \"#utility.yul\":924:1046   */\n      pop\n      jump\t// out\n        /* \"#utility.yul\":1052:1191   */\n    tag_132:\n        /* \"#utility.yul\":1098:1103   */\n      0x00\n        /* \"#utility.yul\":1136:1142   */\n      dup2\n        /* \"#utility.yul\":1123:1143   */\n      calldataload\n        /* \"#utility.yul\":1114:1143   */\n      swap1\n      pop\n        /* \"#utility.yul\":1152:1185   */\n      tag_205\n        /* \"#utility.yul\":1179:1184   */\n      dup2\n        /* \"#utility.yul\":1152:1185   */\n      tag_131\n      jump\t// in\n    tag_205:\n        /* \"#utility.yul\":1052:1191   */\n      swap3\n      swap2\n      pop\n      pop\n      jump\t// out\n        /* \"#utility.yul\":1197:1671   */\n    tag_13:\n        /* \"#utility.yul\":1265:1271   */\n      0x00\n        /* \"#utility.yul\":1273:1279   */\n      dup1\n        /* \"#utility.yul\":1322:1324   */\n      0x40\n        /* \"#utility.yul\":1310:1319   */\n      dup4\n        /* \"#utility.yul\":1301:1308   */\n      dup6\n        /* \"#utility.yul\":1297:1320   */\n      sub\n        /* \"#utility.yul\":1293:1325   */\n      slt\n        /* \"#utility.yul\":1290:1409   */\n      iszero\n      tag_207\n      jumpi\n        /* \"#utility.yul\":1328:1407   */\n      tag_208\n      tag_124\n      jump\t// in\n    tag_208:\n        /* \"#utility.yul\":1290:1409   */\n    tag_207:\n        /* \"#utility.yul\":1448:1449   */\n      0x00\n        /* \"#utility.yul\":1473:1526   */\n      tag_209\n        /* \"#utility.yul\":1518:1525   */\n      dup6\n        /* \"#utility.yul\":1509:1515   */\n      dup3\n        /* \"#utility.yul\":1498:1507   */\n      dup7\n        /* \"#utility.yul\":1494:1516   */\n      add\n        /* \"#utility.yul\":1473:1526   */\n      tag_129\n      jump\t// in\n    tag_209:\n        /* \"#utility.yul\":1463:1526   */\n      swap3\n      pop\n        /* \"#utility.yul\":1419:1536   */\n      pop\n        /* \"#utility.yul\":1575:1577   */\n      0x20\n        /* \"#utility.yul\":1601:1654   */\n      tag_210\n        /* \"#utility.yul\":1646:1653   */\n      dup6\n        /* \"#utility.yul\":1637:1643   */\n      dup3\n        /* \"#utility.yul\":1626:1635   */\n      dup7\n        /* \"#utility.yul\":1622:1644   */\n      add\n        /* \"#utility.yul\":1601:1654   */\n      tag_132\n      jump\t// in\n    tag_210:\n        /* \"#utility.yul\":1591:1654   */\n      swap2\n      pop\n        /* \"#utility.yul\":1546:1664   */\n      pop\n        /* \"#utility.yul\":1197:1671   */\n      swap3\n      pop\n      swap3\n      swap1\n      pop\n      jump\t// out\n        /* \"#utility.yul\":1677:1812   */\n    tag_133:\n        /* \"#utility.yul\":1765:1771   */\n      0x00\n        /* \"#utility.yul\":1799:1804   */\n      dup2\n        /* \"#utility.yul\":1793:1805   */\n      mload\n        /* \"#utility.yul\":1783:1805   */\n      swap1\n      pop\n        /* \"#utility.yul\":1677:1812   */\n      swap2\n      swap1\n      pop\n      jump\t// out\n        /* \"#utility.yul\":1818:2023   */\n    tag_134:\n        /* \"#utility.yul\":1938:1949   */\n      0x00\n        /* \"#utility.yul\":1972:1978   */\n      dup3\n        /* \"#utility.yul\":1967:1970   */\n      dup3\n        /* \"#utility.yul\":1960:1979   */\n      mstore\n        /* \"#utility.yul\":2012:2016   */\n      0x20\n        /* \"#utility.yul\":2007:2010   */\n      dup3\n        /* \"#utility.yul\":2003:2017   */\n      add\n        /* \"#utility.yul\":1988:2017   */\n      swap1\n      pop\n        /* \"#utility.yul\":1818:2023   */\n      swap3\n      swap2\n      pop\n      pop\n      jump\t// out\n        /* \"#utility.yul\":2029:2182   */\n    tag_135:\n        /* \"#utility.yul\":2117:2121   */\n      0x00\n        /* \"#utility.yul\":2140:2143   */\n      dup2\n        /* \"#utility.yul\":2132:2143   */\n      swap1\n      pop\n        /* \"#utility.yul\":2170:2174   */\n      0x20\n        /* \"#utility.yul\":2165:2168   */\n      dup3\n        /* \"#utility.yul\":2161:2175   */\n      add\n        /* \"#utility.yul\":2153:2175   */\n      swap1\n      pop\n        /* \"#utility.yul\":2029:2182   */\n      swap2\n      swap1\n      pop\n      jump\t// out\n        /* \"#utility.yul\":2188:2296   */\n    tag_136:\n        /* \"#utility.yul\":2265:2289   */\n      tag_215\n        /* \"#utility.yul\":2283:2288   */\n      dup2\n        /* \"#utility.yul\":2265:2289   */\n      tag_130\n      jump\t// in\n    tag_215:\n        /* \"#utility.yul\":2260:2263   */\n      dup3\n        /* \"#utility.yul\":2253:2290   */\n      mstore\n        /* \"#utility.yul\":2188:2296   */\n      pop\n      pop\n      jump\t// out\n        /* \"#utility.yul\":2302:2410   */\n    tag_137:\n        /* \"#utility.yul\":2379:2403   */\n      tag_217\n        /* \"#utility.yul\":2397:2402   */\n      dup2\n        /* \"#utility.yul\":2379:2403   */\n      tag_127\n      jump\t// in\n    tag_217:\n        /* \"#utility.yul\":2374:2377   */\n      dup3\n        /* \"#utility.yul\":2367:2404   */\n      mstore\n        /* \"#utility.yul\":2302:2410   */\n      pop\n      pop\n      jump\t// out\n        /* \"#utility.yul\":2416:2515   */\n    tag_138:\n        /* \"#utility.yul\":2468:2474   */\n      0x00\n        /* \"#utility.yul\":2502:2507   */\n      dup2\n        /* \"#utility.yul\":2496:2508   */\n      mload\n        /* \"#utility.yul\":2486:2508   */\n      swap1\n      pop\n        /* \"#utility.yul\":2416:2515   */\n      swap2\n      swap1\n      pop\n      jump\t// out\n        /* \"#utility.yul\":2521:2680   */\n    tag_139:\n        /* \"#utility.yul\":2595:2606   */\n      0x00\n        /* \"#utility.yul\":2629:2635   */\n      dup3\n        /* \"#utility.yul\":2624:2627   */\n      dup3\n        /* \"#utility.yul\":2617:2636   */\n      mstore\n        /* \"#utility.yul\":2669:2673   */\n      0x20\n        /* \"#utility.yul\":2664:2667   */\n      dup3\n        /* \"#utility.yul\":2660:2674   */\n      add\n        /* \"#utility.yul\":2645:2674   */\n      swap1\n      pop\n        /* \"#utility.yul\":2521:2680   */\n      swap3\n      swap2\n      pop\n      pop\n      jump\t// out\n        /* \"#utility.yul\":2686:2932   */\n    tag_140:\n        /* \"#utility.yul\":2767:2768   */\n      0x00\n        /* \"#utility.yul\":2777:2890   */\n    tag_221:\n        /* \"#utility.yul\":2791:2797   */\n      dup4\n        /* \"#utility.yul\":2788:2789   */\n      dup2\n        /* \"#utility.yul\":2785:2798   */\n      lt\n        /* \"#utility.yul\":2777:2890   */\n      iszero\n      tag_223\n      jumpi\n        /* \"#utility.yul\":2876:2877   */\n      dup1\n        /* \"#utility.yul\":2871:2874   */\n      dup3\n        /* \"#utility.yul\":2867:2878   */\n      add\n        /* \"#utility.yul\":2861:2879   */\n      mload\n        /* \"#utility.yul\":2857:2858   */\n      dup2\n        /* \"#utility.yul\":2852:2855   */\n      dup5\n        /* \"#utility.yul\":2848:2859   */\n      add\n        /* \"#utility.yul\":2841:2880   */\n      mstore\n        /* \"#utility.yul\":2813:2815   */\n      0x20\n        /* \"#utility.yul\":2810:2811   */\n      dup2\n        /* \"#utility.yul\":2806:2816   */\n      add\n        /* \"#utility.yul\":2801:2816   */\n      swap1\n      pop\n        /* \"#utility.yul\":2777:2890   */\n      jump(tag_221)\n    tag_223:\n        /* \"#utility.yul\":2924:2925   */\n      0x00\n        /* \"#utility.yul\":2915:2921   */\n      dup5\n        /* \"#utility.yul\":2910:2913   */\n      dup5\n        /* \"#utility.yul\":2906:2922   */\n      add\n        /* \"#utility.yul\":2899:2926   */\n      mstore\n        /* \"#utility.yul\":2748:2932   */\n      pop\n        /* \"#utility.yul\":2686:2932   */\n      pop\n      pop\n      pop\n      jump\t// out\n        /* \"#utility.yul\":2938:3040   */\n    tag_141:\n        /* \"#utility.yul\":2979:2985   */\n      0x00\n        /* \"#utility.yul\":3030:3032   */\n      0x1f\n        /* \"#utility.yul\":3026:3033   */\n      not\n        /* \"#utility.yul\":3021:3023   */\n      0x1f\n        /* \"#utility.yul\":3014:3019   */\n      dup4\n        /* \"#utility.yul\":3010:3024   */\n      add\n        /* \"#utility.yul\":3006:3034   */\n      and\n        /* \"#utility.yul\":2996:3034   */\n      swap1\n      pop\n        /* \"#utility.yul\":2938:3040   */\n      swap2\n      swap1\n      pop\n      jump\t// out\n        /* \"#utility.yul\":3046:3403   */\n    tag_142:\n        /* \"#utility.yul\":3124:3127   */\n      0x00\n        /* \"#utility.yul\":3152:3191   */\n      tag_226\n        /* \"#utility.yul\":3185:3190   */\n      dup3\n        /* \"#utility.yul\":3152:3191   */\n      tag_138\n      jump\t// in\n    tag_226:\n        /* \"#utility.yul\":3207:3268   */\n      tag_227\n        /* \"#utility.yul\":3261:3267   */\n      dup2\n        /* \"#utility.yul\":3256:3259   */\n      dup6\n        /* \"#utility.yul\":3207:3268   */\n      tag_139\n      jump\t// in\n    tag_227:\n        /* \"#utility.yul\":3200:3268   */\n      swap4\n      pop\n        /* \"#utility.yul\":3277:3342   */\n      tag_228\n        /* \"#utility.yul\":3335:3341   */\n      dup2\n        /* \"#utility.yul\":3330:3333   */\n      dup6\n        /* \"#utility.yul\":3323:3327   */\n      0x20\n        /* \"#utility.yul\":3316:3321   */\n      dup7\n        /* \"#utility.yul\":3312:3328   */\n      add\n        /* \"#utility.yul\":3277:3342   */\n      tag_140\n      jump\t// in\n    tag_228:\n        /* \"#utility.yul\":3367:3396   */\n      tag_229\n        /* \"#utility.yul\":3389:3395   */\n      dup2\n        /* \"#utility.yul\":3367:3396   */\n      tag_141\n      jump\t// in\n    tag_229:\n        /* \"#utility.yul\":3362:3365   */\n      dup5\n        /* \"#utility.yul\":3358:3397   */\n      add\n        /* \"#utility.yul\":3351:3397   */\n      swap2\n      pop\n        /* \"#utility.yul\":3128:3403   */\n      pop\n        /* \"#utility.yul\":3046:3403   */\n      swap3\n      swap2\n      pop\n      pop\n      jump\t// out\n        /* \"#utility.yul\":3461:4580   */\n    tag_143:\n        /* \"#utility.yul\":3562:3565   */\n      0x00\n        /* \"#utility.yul\":3598:3602   */\n      0xa0\n        /* \"#utility.yul\":3593:3596   */\n      dup4\n        /* \"#utility.yul\":3589:3603   */\n      add\n        /* \"#utility.yul\":3683:3687   */\n      0x00\n        /* \"#utility.yul\":3676:3681   */\n      dup4\n        /* \"#utility.yul\":3672:3688   */\n      add\n        /* \"#utility.yul\":3666:3689   */\n      mload\n        /* \"#utility.yul\":3702:3765   */\n      tag_231\n        /* \"#utility.yul\":3759:3763   */\n      0x00\n        /* \"#utility.yul\":3754:3757   */\n      dup7\n        /* \"#utility.yul\":3750:3764   */\n      add\n        /* \"#utility.yul\":3736:3748   */\n      dup3\n        /* \"#utility.yul\":3702:3765   */\n      tag_136\n      jump\t// in\n    tag_231:\n        /* \"#utility.yul\":3613:3775   */\n      pop\n        /* \"#utility.yul\":3859:3863   */\n      0x20\n        /* \"#utility.yul\":3852:3857   */\n      dup4\n        /* \"#utility.yul\":3848:3864   */\n      add\n        /* \"#utility.yul\":3842:3865   */\n      mload\n        /* \"#utility.yul\":3878:3941   */\n      tag_232\n        /* \"#utility.yul\":3935:3939   */\n      0x20\n        /* \"#utility.yul\":3930:3933   */\n      dup7\n        /* \"#utility.yul\":3926:3940   */\n      add\n        /* \"#utility.yul\":3912:3924   */\n      dup3\n        /* \"#utility.yul\":3878:3941   */\n      tag_137\n      jump\t// in\n    tag_232:\n        /* \"#utility.yul\":3785:3951   */\n      pop\n        /* \"#utility.yul\":4036:4040   */\n      0x40\n        /* \"#utility.yul\":4029:4034   */\n      dup4\n        /* \"#utility.yul\":4025:4041   */\n      add\n        /* \"#utility.yul\":4019:4042   */\n      mload\n        /* \"#utility.yul\":4089:4092   */\n      dup5\n        /* \"#utility.yul\":4083:4087   */\n      dup3\n        /* \"#utility.yul\":4079:4093   */\n      sub\n        /* \"#utility.yul\":4072:4076   */\n      0x40\n        /* \"#utility.yul\":4067:4070   */\n      dup7\n        /* \"#utility.yul\":4063:4077   */\n      add\n        /* \"#utility.yul\":4056:4094   */\n      mstore\n        /* \"#utility.yul\":4115:4188   */\n      tag_233\n        /* \"#utility.yul\":4183:4187   */\n      dup3\n        /* \"#utility.yul\":4169:4181   */\n      dup3\n        /* \"#utility.yul\":4115:4188   */\n      tag_142\n      jump\t// in\n    tag_233:\n        /* \"#utility.yul\":4107:4188   */\n      swap2\n      pop\n        /* \"#utility.yul\":3961:4199   */\n      pop\n        /* \"#utility.yul\":4286:4290   */\n      0x60\n        /* \"#utility.yul\":4279:4284   */\n      dup4\n        /* \"#utility.yul\":4275:4291   */\n      add\n        /* \"#utility.yul\":4269:4292   */\n      mload\n        /* \"#utility.yul\":4305:4368   */\n      tag_234\n        /* \"#utility.yul\":4362:4366   */\n      0x60\n        /* \"#utility.yul\":4357:4360   */\n      dup7\n        /* \"#utility.yul\":4353:4367   */\n      add\n        /* \"#utility.yul\":4339:4351   */\n      dup3\n        /* \"#utility.yul\":4305:4368   */\n      tag_136\n      jump\t// in\n    tag_234:\n        /* \"#utility.yul\":4209:4378   */\n      pop\n        /* \"#utility.yul\":4461:4465   */\n      0x80\n        /* \"#utility.yul\":4454:4459   */\n      dup4\n        /* \"#utility.yul\":4450:4466   */\n      add\n        /* \"#utility.yul\":4444:4467   */\n      mload\n        /* \"#utility.yul\":4480:4543   */\n      tag_235\n        /* \"#utility.yul\":4537:4541   */\n      0x80\n        /* \"#utility.yul\":4532:4535   */\n      dup7\n        /* \"#utility.yul\":4528:4542   */\n      add\n        /* \"#utility.yul\":4514:4526   */\n      dup3\n        /* \"#utility.yul\":4480:4543   */\n      tag_136\n      jump\t// in\n    tag_235:\n        /* \"#utility.yul\":4388:4553   */\n      pop\n        /* \"#utility.yul\":4570:4574   */\n      dup1\n        /* \"#utility.yul\":4563:4574   */\n      swap2\n      pop\n        /* \"#utility.yul\":3567:4580   */\n      pop\n        /* \"#utility.yul\":3461:4580   */\n      swap3\n      swap2\n      pop\n      pop\n      jump\t// out\n        /* \"#utility.yul\":4586:4826   */\n    tag_144:\n        /* \"#utility.yul\":4697:4707   */\n      0x00\n        /* \"#utility.yul\":4732:4820   */\n      tag_237\n        /* \"#utility.yul\":4816:4819   */\n      dup4\n        /* \"#utility.yul\":4808:4814   */\n      dup4\n        /* \"#utility.yul\":4732:4820   */\n      tag_143\n      jump\t// in\n    tag_237:\n        /* \"#utility.yul\":4718:4820   */\n      swap1\n      pop\n        /* \"#utility.yul\":4586:4826   */\n      swap3\n      swap2\n      pop\n      pop\n      jump\t// out\n        /* \"#utility.yul\":4832:4966   */\n    tag_145:\n        /* \"#utility.yul\":4923:4927   */\n      0x00\n        /* \"#utility.yul\":4955:4959   */\n      0x20\n        /* \"#utility.yul\":4950:4953   */\n      dup3\n        /* \"#utility.yul\":4946:4960   */\n      add\n        /* \"#utility.yul\":4938:4960   */\n      swap1\n      pop\n        /* \"#utility.yul\":4832:4966   */\n      swap2\n      swap1\n      pop\n      jump\t// out\n        /* \"#utility.yul\":5028:6107   */\n    tag_146:\n        /* \"#utility.yul\":5189:5192   */\n      0x00\n        /* \"#utility.yul\":5218:5293   */\n      tag_240\n        /* \"#utility.yul\":5287:5292   */\n      dup3\n        /* \"#utility.yul\":5218:5293   */\n      tag_133\n      jump\t// in\n    tag_240:\n        /* \"#utility.yul\":5309:5416   */\n      tag_241\n        /* \"#utility.yul\":5409:5415   */\n      dup2\n        /* \"#utility.yul\":5404:5407   */\n      dup6\n        /* \"#utility.yul\":5309:5416   */\n      tag_134\n      jump\t// in\n    tag_241:\n        /* \"#utility.yul\":5302:5416   */\n      swap4\n      pop\n        /* \"#utility.yul\":5442:5445   */\n      dup4\n        /* \"#utility.yul\":5487:5491   */\n      0x20\n        /* \"#utility.yul\":5479:5485   */\n      dup3\n        /* \"#utility.yul\":5475:5492   */\n      mul\n        /* \"#utility.yul\":5470:5473   */\n      dup6\n        /* \"#utility.yul\":5466:5493   */\n      add\n        /* \"#utility.yul\":5517:5594   */\n      tag_242\n        /* \"#utility.yul\":5588:5593   */\n      dup6\n        /* \"#utility.yul\":5517:5594   */\n      tag_135\n      jump\t// in\n    tag_242:\n        /* \"#utility.yul\":5617:5624   */\n      dup1\n        /* \"#utility.yul\":5648:5649   */\n      0x00\n        /* \"#utility.yul\":5633:6062   */\n    tag_243:\n        /* \"#utility.yul\":5658:5664   */\n      dup6\n        /* \"#utility.yul\":5655:5656   */\n      dup2\n        /* \"#utility.yul\":5652:5665   */\n      lt\n        /* \"#utility.yul\":5633:6062   */\n      iszero\n      tag_245\n      jumpi\n        /* \"#utility.yul\":5729:5738   */\n      dup5\n        /* \"#utility.yul\":5723:5727   */\n      dup5\n        /* \"#utility.yul\":5719:5739   */\n      sub\n        /* \"#utility.yul\":5714:5717   */\n      dup10\n        /* \"#utility.yul\":5707:5740   */\n      mstore\n        /* \"#utility.yul\":5780:5786   */\n      dup2\n        /* \"#utility.yul\":5774:5787   */\n      mload\n        /* \"#utility.yul\":5808:5914   */\n      tag_246\n        /* \"#utility.yul\":5909:5913   */\n      dup6\n        /* \"#utility.yul\":5894:5907   */\n      dup3\n        /* \"#utility.yul\":5808:5914   */\n      tag_144\n      jump\t// in\n    tag_246:\n        /* \"#utility.yul\":5800:5914   */\n      swap5\n      pop\n        /* \"#utility.yul\":5937:6018   */\n      tag_247\n        /* \"#utility.yul\":6011:6017   */\n      dup4\n        /* \"#utility.yul\":5937:6018   */\n      tag_145\n      jump\t// in\n    tag_247:\n        /* \"#utility.yul\":5927:6018   */\n      swap3\n      pop\n        /* \"#utility.yul\":6047:6051   */\n      0x20\n        /* \"#utility.yul\":6042:6045   */\n      dup11\n        /* \"#utility.yul\":6038:6052   */\n      add\n        /* \"#utility.yul\":6031:6052   */\n      swap10\n      pop\n        /* \"#utility.yul\":5693:6062   */\n      pop\n        /* \"#utility.yul\":5680:5681   */\n      0x01\n        /* \"#utility.yul\":5677:5678   */\n      dup2\n        /* \"#utility.yul\":5673:5682   */\n      add\n        /* \"#utility.yul\":5668:5682   */\n      swap1\n      pop\n        /* \"#utility.yul\":5633:6062   */\n      jump(tag_243)\n    tag_245:\n        /* \"#utility.yul\":5637:5651   */\n      pop\n        /* \"#utility.yul\":6078:6082   */\n      dup3\n        /* \"#utility.yul\":6071:6082   */\n      swap8\n      pop\n        /* \"#utility.yul\":6098:6101   */\n      dup8\n        /* \"#utility.yul\":6091:6101   */\n      swap6\n      pop\n        /* \"#utility.yul\":5194:6107   */\n      pop\n      pop\n      pop\n      pop\n      pop\n        /* \"#utility.yul\":5028:6107   */\n      swap3\n      swap2\n      pop\n      pop\n      jump\t// out\n        /* \"#utility.yul\":6113:6570   */\n    tag_18:\n        /* \"#utility.yul\":6298:6302   */\n      0x00\n        /* \"#utility.yul\":6336:6338   */\n      0x20\n        /* \"#utility.yul\":6325:6334   */\n      dup3\n        /* \"#utility.yul\":6321:6339   */\n      add\n        /* \"#utility.yul\":6313:6339   */\n      swap1\n      pop\n        /* \"#utility.yul\":6385:6394   */\n      dup2\n        /* \"#utility.yul\":6379:6383   */\n      dup2\n        /* \"#utility.yul\":6375:6395   */\n      sub\n        /* \"#utility.yul\":6371:6372   */\n      0x00\n        /* \"#utility.yul\":6360:6369   */\n      dup4\n        /* \"#utility.yul\":6356:6373   */\n      add\n        /* \"#utility.yul\":6349:6396   */\n      mstore\n        /* \"#utility.yul\":6413:6563   */\n      tag_249\n        /* \"#utility.yul\":6558:6562   */\n      dup2\n        /* \"#utility.yul\":6549:6555   */\n      dup5\n        /* \"#utility.yul\":6413:6563   */\n      tag_146\n      jump\t// in\n    tag_249:\n        /* \"#utility.yul\":6405:6563   */\n      swap1\n      pop\n        /* \"#utility.yul\":6113:6570   */\n      swap3\n      swap2\n      pop\n      pop\n      jump\t// out\n        /* \"#utility.yul\":6576:6665   */\n    tag_147:\n        /* \"#utility.yul\":6612:6619   */\n      0x00\n        /* \"#utility.yul\":6652:6658   */\n      0xffff\n        /* \"#utility.yul\":6645:6650   */\n      dup3\n        /* \"#utility.yul\":6641:6659   */\n      and\n        /* \"#utility.yul\":6630:6659   */\n      swap1\n      pop\n        /* \"#utility.yul\":6576:6665   */\n      swap2\n      swap1\n      pop\n      jump\t// out\n        /* \"#utility.yul\":6671:6791   */\n    tag_148:\n        /* \"#utility.yul\":6743:6766   */\n      tag_252\n        /* \"#utility.yul\":6760:6765   */\n      dup2\n        /* \"#utility.yul\":6743:6766   */\n      tag_147\n      jump\t// in\n    tag_252:\n        /* \"#utility.yul\":6736:6741   */\n      dup2\n        /* \"#utility.yul\":6733:6767   */\n      eq\n        /* \"#utility.yul\":6723:6785   */\n      tag_253\n      jumpi\n        /* \"#utility.yul\":6781:6782   */\n      0x00\n        /* \"#utility.yul\":6778:6779   */\n      dup1\n        /* \"#utility.yul\":6771:6783   */\n      revert\n        /* \"#utility.yul\":6723:6785   */\n    tag_253:\n        /* \"#utility.yul\":6671:6791   */\n      pop\n      jump\t// out\n        /* \"#utility.yul\":6797:6934   */\n    tag_149:\n        /* \"#utility.yul\":6842:6847   */\n      0x00\n        /* \"#utility.yul\":6880:6886   */\n      dup2\n        /* \"#utility.yul\":6867:6887   */\n      calldataload\n        /* \"#utility.yul\":6858:6887   */\n      swap1\n      pop\n        /* \"#utility.yul\":6896:6928   */\n      tag_255\n        /* \"#utility.yul\":6922:6927   */\n      dup2\n        /* \"#utility.yul\":6896:6928   */\n      tag_148\n      jump\t// in\n    tag_255:\n        /* \"#utility.yul\":6797:6934   */\n      swap3\n      swap2\n      pop\n      pop\n      jump\t// out\n        /* \"#utility.yul\":6940:7267   */\n    tag_21:\n        /* \"#utility.yul\":6998:7004   */\n      0x00\n        /* \"#utility.yul\":7047:7049   */\n      0x20\n        /* \"#utility.yul\":7035:7044   */\n      dup3\n        /* \"#utility.yul\":7026:7033   */\n      dup5\n        /* \"#utility.yul\":7022:7045   */\n      sub\n        /* \"#utility.yul\":7018:7050   */\n      slt\n        /* \"#utility.yul\":7015:7134   */\n      iszero\n      tag_257\n      jumpi\n        /* \"#utility.yul\":7053:7132   */\n      tag_258\n      tag_124\n      jump\t// in\n    tag_258:\n        /* \"#utility.yul\":7015:7134   */\n    tag_257:\n        /* \"#utility.yul\":7173:7174   */\n      0x00\n        /* \"#utility.yul\":7198:7250   */\n      tag_259\n        /* \"#utility.yul\":7242:7249   */\n      dup5\n        /* \"#utility.yul\":7233:7239   */\n      dup3\n        /* \"#utility.yul\":7222:7231   */\n      dup6\n        /* \"#utility.yul\":7218:7240   */\n      add\n        /* \"#utility.yul\":7198:7250   */\n      tag_149\n      jump\t// in\n    tag_259:\n        /* \"#utility.yul\":7188:7250   */\n      swap2\n      pop\n        /* \"#utility.yul\":7144:7260   */\n      pop\n        /* \"#utility.yul\":6940:7267   */\n      swap3\n      swap2\n      pop\n      pop\n      jump\t// out\n        /* \"#utility.yul\":7273:7390   */\n    tag_150:\n        /* \"#utility.yul\":7382:7383   */\n      0x00\n        /* \"#utility.yul\":7379:7380   */\n      dup1\n        /* \"#utility.yul\":7372:7384   */\n      revert\n        /* \"#utility.yul\":7396:7513   */\n    tag_151:\n        /* \"#utility.yul\":7505:7506   */\n      0x00\n        /* \"#utility.yul\":7502:7503   */\n      dup1\n        /* \"#utility.yul\":7495:7507   */\n      revert\n        /* \"#utility.yul\":7519:7699   */\n    tag_152:\n        /* \"#utility.yul\":7567:7644   */\n      0x4e487b7100000000000000000000000000000000000000000000000000000000\n        /* \"#utility.yul\":7564:7565   */\n      0x00\n        /* \"#utility.yul\":7557:7645   */\n      mstore\n        /* \"#utility.yul\":7664:7668   */\n      0x41\n        /* \"#utility.yul\":7661:7662   */\n      0x04\n        /* \"#utility.yul\":7654:7669   */\n      mstore\n        /* \"#utility.yul\":7688:7692   */\n      0x24\n        /* \"#utility.yul\":7685:7686   */\n      0x00\n        /* \"#utility.yul\":7678:7693   */\n      revert\n        /* \"#utility.yul\":7705:7986   */\n    tag_153:\n        /* \"#utility.yul\":7788:7815   */\n      tag_264\n        /* \"#utility.yul\":7810:7814   */\n      dup3\n        /* \"#utility.yul\":7788:7815   */\n      tag_141\n      jump\t// in\n    tag_264:\n        /* \"#utility.yul\":7780:7786   */\n      dup2\n        /* \"#utility.yul\":7776:7816   */\n      add\n        /* \"#utility.yul\":7918:7924   */\n      dup2\n        /* \"#utility.yul\":7906:7916   */\n      dup2\n        /* \"#utility.yul\":7903:7925   */\n      lt\n        /* \"#utility.yul\":7882:7900   */\n      0xffffffffffffffff\n        /* \"#utility.yul\":7870:7880   */\n      dup3\n        /* \"#utility.yul\":7867:7901   */\n      gt\n        /* \"#utility.yul\":7864:7926   */\n      or\n        /* \"#utility.yul\":7861:7949   */\n      iszero\n      tag_265\n      jumpi\n        /* \"#utility.yul\":7929:7947   */\n      tag_266\n      tag_152\n      jump\t// in\n    tag_266:\n        /* \"#utility.yul\":7861:7949   */\n    tag_265:\n        /* \"#utility.yul\":7969:7979   */\n      dup1\n        /* \"#utility.yul\":7965:7967   */\n      0x40\n        /* \"#utility.yul\":7958:7980   */\n      mstore\n        /* \"#utility.yul\":7748:7986   */\n      pop\n        /* \"#utility.yul\":7705:7986   */\n      pop\n      pop\n      jump\t// out\n        /* \"#utility.yul\":7992:8121   */\n    tag_154:\n        /* \"#utility.yul\":8026:8032   */\n      0x00\n        /* \"#utility.yul\":8053:8073   */\n      tag_268\n      tag_123\n      jump\t// in\n    tag_268:\n        /* \"#utility.yul\":8043:8073   */\n      swap1\n      pop\n        /* \"#utility.yul\":8082:8115   */\n      tag_269\n        /* \"#utility.yul\":8110:8114   */\n      dup3\n        /* \"#utility.yul\":8102:8108   */\n      dup3\n        /* \"#utility.yul\":8082:8115   */\n      tag_153\n      jump\t// in\n    tag_269:\n        /* \"#utility.yul\":7992:8121   */\n      swap2\n      swap1\n      pop\n      jump\t// out\n        /* \"#utility.yul\":8127:8435   */\n    tag_155:\n        /* \"#utility.yul\":8189:8193   */\n      0x00\n        /* \"#utility.yul\":8279:8297   */\n      0xffffffffffffffff\n        /* \"#utility.yul\":8271:8277   */\n      dup3\n        /* \"#utility.yul\":8268:8298   */\n      gt\n        /* \"#utility.yul\":8265:8321   */\n      iszero\n      tag_271\n      jumpi\n        /* \"#utility.yul\":8301:8319   */\n      tag_272\n      tag_152\n      jump\t// in\n    tag_272:\n        /* \"#utility.yul\":8265:8321   */\n    tag_271:\n        /* \"#utility.yul\":8339:8368   */\n      tag_273\n        /* \"#utility.yul\":8361:8367   */\n      dup3\n        /* \"#utility.yul\":8339:8368   */\n      tag_141\n      jump\t// in\n    tag_273:\n        /* \"#utility.yul\":8331:8368   */\n      swap1\n      pop\n        /* \"#utility.yul\":8423:8427   */\n      0x20\n        /* \"#utility.yul\":8417:8421   */\n      dup2\n        /* \"#utility.yul\":8413:8428   */\n      add\n        /* \"#utility.yul\":8405:8428   */\n      swap1\n      pop\n        /* \"#utility.yul\":8127:8435   */\n      swap2\n      swap1\n      pop\n      jump\t// out\n        /* \"#utility.yul\":8441:8587   */\n    tag_156:\n        /* \"#utility.yul\":8538:8544   */\n      dup3\n        /* \"#utility.yul\":8533:8536   */\n      dup2\n        /* \"#utility.yul\":8528:8531   */\n      dup4\n        /* \"#utility.yul\":8515:8545   */\n      calldatacopy\n        /* \"#utility.yul\":8579:8580   */\n      0x00\n        /* \"#utility.yul\":8570:8576   */\n      dup4\n        /* \"#utility.yul\":8565:8568   */\n      dup4\n        /* \"#utility.yul\":8561:8577   */\n      add\n        /* \"#utility.yul\":8554:8581   */\n      mstore\n        /* \"#utility.yul\":8441:8587   */\n      pop\n      pop\n      pop\n      jump\t// out\n        /* \"#utility.yul\":8593:9018   */\n    tag_157:\n        /* \"#utility.yul\":8671:8676   */\n      0x00\n        /* \"#utility.yul\":8696:8762   */\n      tag_276\n        /* \"#utility.yul\":8712:8761   */\n      tag_277\n        /* \"#utility.yul\":8754:8760   */\n      dup5\n        /* \"#utility.yul\":8712:8761   */\n      tag_155\n      jump\t// in\n    tag_277:\n        /* \"#utility.yul\":8696:8762   */\n      tag_154\n      jump\t// in\n    tag_276:\n        /* \"#utility.yul\":8687:8762   */\n      swap1\n      pop\n        /* \"#utility.yul\":8785:8791   */\n      dup3\n        /* \"#utility.yul\":8778:8783   */\n      dup2\n        /* \"#utility.yul\":8771:8792   */\n      mstore\n        /* \"#utility.yul\":8823:8827   */\n      0x20\n        /* \"#utility.yul\":8816:8821   */\n      dup2\n        /* \"#utility.yul\":8812:8828   */\n      add\n        /* \"#utility.yul\":8861:8864   */\n      dup5\n        /* \"#utility.yul\":8852:8858   */\n      dup5\n        /* \"#utility.yul\":8847:8850   */\n      dup5\n        /* \"#utility.yul\":8843:8859   */\n      add\n        /* \"#utility.yul\":8840:8865   */\n      gt\n        /* \"#utility.yul\":8837:8949   */\n      iszero\n      tag_278\n      jumpi\n        /* \"#utility.yul\":8868:8947   */\n      tag_279\n      tag_151\n      jump\t// in\n    tag_279:\n        /* \"#utility.yul\":8837:8949   */\n    tag_278:\n        /* \"#utility.yul\":8958:9012   */\n      tag_280\n        /* \"#utility.yul\":9005:9011   */\n      dup5\n        /* \"#utility.yul\":9000:9003   */\n      dup3\n        /* \"#utility.yul\":8995:8998   */\n      dup6\n        /* \"#utility.yul\":8958:9012   */\n      tag_156\n      jump\t// in\n    tag_280:\n        /* \"#utility.yul\":8677:9018   */\n      pop\n        /* \"#utility.yul\":8593:9018   */\n      swap4\n      swap3\n      pop\n      pop\n      pop\n      jump\t// out\n        /* \"#utility.yul\":9038:9378   */\n    tag_158:\n        /* \"#utility.yul\":9094:9099   */\n      0x00\n        /* \"#utility.yul\":9143:9146   */\n      dup3\n        /* \"#utility.yul\":9136:9140   */\n      0x1f\n        /* \"#utility.yul\":9128:9134   */\n      dup4\n        /* \"#utility.yul\":9124:9141   */\n      add\n        /* \"#utility.yul\":9120:9147   */\n      slt\n        /* \"#utility.yul\":9110:9232   */\n      tag_282\n      jumpi\n        /* \"#utility.yul\":9151:9230   */\n      tag_283\n      tag_150\n      jump\t// in\n    tag_283:\n        /* \"#utility.yul\":9110:9232   */\n    tag_282:\n        /* \"#utility.yul\":9268:9274   */\n      dup2\n        /* \"#utility.yul\":9255:9275   */\n      calldataload\n        /* \"#utility.yul\":9293:9372   */\n      tag_284\n        /* \"#utility.yul\":9368:9371   */\n      dup5\n        /* \"#utility.yul\":9360:9366   */\n      dup3\n        /* \"#utility.yul\":9353:9357   */\n      0x20\n        /* \"#utility.yul\":9345:9351   */\n      dup7\n        /* \"#utility.yul\":9341:9358   */\n      add\n        /* \"#utility.yul\":9293:9372   */\n      tag_157\n      jump\t// in\n    tag_284:\n        /* \"#utility.yul\":9284:9372   */\n      swap2\n      pop\n        /* \"#utility.yul\":9100:9378   */\n      pop\n        /* \"#utility.yul\":9038:9378   */\n      swap3\n      swap2\n      pop\n      pop\n      jump\t// out\n        /* \"#utility.yul\":9384:9893   */\n    tag_28:\n        /* \"#utility.yul\":9453:9459   */\n      0x00\n        /* \"#utility.yul\":9502:9504   */\n      0x20\n        /* \"#utility.yul\":9490:9499   */\n      dup3\n        /* \"#utility.yul\":9481:9488   */\n      dup5\n        /* \"#utility.yul\":9477:9500   */\n      sub\n        /* \"#utility.yul\":9473:9505   */\n      slt\n        /* \"#utility.yul\":9470:9589   */\n      iszero\n      tag_286\n      jumpi\n        /* \"#utility.yul\":9508:9587   */\n      tag_287\n      tag_124\n      jump\t// in\n    tag_287:\n        /* \"#utility.yul\":9470:9589   */\n    tag_286:\n        /* \"#utility.yul\":9656:9657   */\n      0x00\n        /* \"#utility.yul\":9645:9654   */\n      dup3\n        /* \"#utility.yul\":9641:9658   */\n      add\n        /* \"#utility.yul\":9628:9659   */\n      calldataload\n        /* \"#utility.yul\":9686:9704   */\n      0xffffffffffffffff\n        /* \"#utility.yul\":9678:9684   */\n      dup2\n        /* \"#utility.yul\":9675:9705   */\n      gt\n        /* \"#utility.yul\":9672:9789   */\n      iszero\n      tag_288\n      jumpi\n        /* \"#utility.yul\":9708:9787   */\n      tag_289\n      tag_125\n      jump\t// in\n    tag_289:\n        /* \"#utility.yul\":9672:9789   */\n    tag_288:\n        /* \"#utility.yul\":9813:9876   */\n      tag_290\n        /* \"#utility.yul\":9868:9875   */\n      dup5\n        /* \"#utility.yul\":9859:9865   */\n      dup3\n        /* \"#utility.yul\":9848:9857   */\n      dup6\n        /* \"#utility.yul\":9844:9866   */\n      add\n        /* \"#utility.yul\":9813:9876   */\n      tag_158\n      jump\t// in\n    tag_290:\n        /* \"#utility.yul\":9803:9876   */\n      swap2\n      pop\n        /* \"#utility.yul\":9599:9886   */\n      pop\n        /* \"#utility.yul\":9384:9893   */\n      swap3\n      swap2\n      pop\n      pop\n      jump\t// out\n        /* \"#utility.yul\":9899:10228   */\n    tag_32:\n        /* \"#utility.yul\":9958:9964   */\n      0x00\n        /* \"#utility.yul\":10007:10009   */\n      0x20\n        /* \"#utility.yul\":9995:10004   */\n      dup3\n        /* \"#utility.yul\":9986:9993   */\n      dup5\n        /* \"#utility.yul\":9982:10005   */\n      sub\n        /* \"#utility.yul\":9978:10010   */\n      slt\n        /* \"#utility.yul\":9975:10094   */\n      iszero\n      tag_292\n      jumpi\n        /* \"#utility.yul\":10013:10092   */\n      tag_293\n      tag_124\n      jump\t// in\n    tag_293:\n        /* \"#utility.yul\":9975:10094   */\n    tag_292:\n        /* \"#utility.yul\":10133:10134   */\n      0x00\n        /* \"#utility.yul\":10158:10211   */\n      tag_294\n        /* \"#utility.yul\":10203:10210   */\n      dup5\n        /* \"#utility.yul\":10194:10200   */\n      dup3\n        /* \"#utility.yul\":10183:10192   */\n      dup6\n        /* \"#utility.yul\":10179:10201   */\n      add\n        /* \"#utility.yul\":10158:10211   */\n      tag_129\n      jump\t// in\n    tag_294:\n        /* \"#utility.yul\":10148:10211   */\n      swap2\n      pop\n        /* \"#utility.yul\":10104:10221   */\n      pop\n        /* \"#utility.yul\":9899:10228   */\n      swap3\n      swap2\n      pop\n      pop\n      jump\t// out\n        /* \"#utility.yul\":10234:10352   */\n    tag_159:\n        /* \"#utility.yul\":10321:10345   */\n      tag_296\n        /* \"#utility.yul\":10339:10344   */\n      dup2\n        /* \"#utility.yul\":10321:10345   */\n      tag_130\n      jump\t// in\n    tag_296:\n        /* \"#utility.yul\":10316:10319   */\n      dup3\n        /* \"#utility.yul\":10309:10346   */\n      mstore\n        /* \"#utility.yul\":10234:10352   */\n      pop\n      pop\n      jump\t// out\n        /* \"#utility.yul\":10358:10580   */\n    tag_35:\n        /* \"#utility.yul\":10451:10455   */\n      0x00\n        /* \"#utility.yul\":10489:10491   */\n      0x20\n        /* \"#utility.yul\":10478:10487   */\n      dup3\n        /* \"#utility.yul\":10474:10492   */\n      add\n        /* \"#utility.yul\":10466:10492   */\n      swap1\n      pop\n        /* \"#utility.yul\":10502:10573   */\n      tag_298\n        /* \"#utility.yul\":10570:10571   */\n      0x00\n        /* \"#utility.yul\":10559:10568   */\n      dup4\n        /* \"#utility.yul\":10555:10572   */\n      add\n        /* \"#utility.yul\":10546:10552   */\n      dup5\n        /* \"#utility.yul\":10502:10573   */\n      tag_159\n      jump\t// in\n    tag_298:\n        /* \"#utility.yul\":10358:10580   */\n      swap3\n      swap2\n      pop\n      pop\n      jump\t// out\n        /* \"#utility.yul\":10586:10915   */\n    tag_38:\n        /* \"#utility.yul\":10645:10651   */\n      0x00\n        /* \"#utility.yul\":10694:10696   */\n      0x20\n        /* \"#utility.yul\":10682:10691   */\n      dup3\n        /* \"#utility.yul\":10673:10680   */\n      dup5\n        /* \"#utility.yul\":10669:10692   */\n      sub\n        /* \"#utility.yul\":10665:10697   */\n      slt\n        /* \"#utility.yul\":10662:10781   */\n      iszero\n      tag_300\n      jumpi\n        /* \"#utility.yul\":10700:10779   */\n      tag_301\n      tag_124\n      jump\t// in\n    tag_301:\n        /* \"#utility.yul\":10662:10781   */\n    tag_300:\n        /* \"#utility.yul\":10820:10821   */\n      0x00\n        /* \"#utility.yul\":10845:10898   */\n      tag_302\n        /* \"#utility.yul\":10890:10897   */\n      dup5\n        /* \"#utility.yul\":10881:10887   */\n      dup3\n        /* \"#utility.yul\":10870:10879   */\n      dup6\n        /* \"#utility.yul\":10866:10888   */\n      add\n        /* \"#utility.yul\":10845:10898   */\n      tag_132\n      jump\t// in\n    tag_302:\n        /* \"#utility.yul\":10835:10898   */\n      swap2\n      pop\n        /* \"#utility.yul\":10791:10908   */\n      pop\n        /* \"#utility.yul\":10586:10915   */\n      swap3\n      swap2\n      pop\n      pop\n      jump\t// out\n        /* \"#utility.yul\":10921:11090   */\n    tag_160:\n        /* \"#utility.yul\":11005:11016   */\n      0x00\n        /* \"#utility.yul\":11039:11045   */\n      dup3\n        /* \"#utility.yul\":11034:11037   */\n      dup3\n        /* \"#utility.yul\":11027:11046   */\n      mstore\n        /* \"#utility.yul\":11079:11083   */\n      0x20\n        /* \"#utility.yul\":11074:11077   */\n      dup3\n        /* \"#utility.yul\":11070:11084   */\n      add\n        /* \"#utility.yul\":11055:11084   */\n      swap1\n      pop\n        /* \"#utility.yul\":10921:11090   */\n      swap3\n      swap2\n      pop\n      pop\n      jump\t// out\n        /* \"#utility.yul\":11096:11473   */\n    tag_161:\n        /* \"#utility.yul\":11184:11187   */\n      0x00\n        /* \"#utility.yul\":11212:11251   */\n      tag_305\n        /* \"#utility.yul\":11245:11250   */\n      dup3\n        /* \"#utility.yul\":11212:11251   */\n      tag_138\n      jump\t// in\n    tag_305:\n        /* \"#utility.yul\":11267:11338   */\n      tag_306\n        /* \"#utility.yul\":11331:11337   */\n      dup2\n        /* \"#utility.yul\":11326:11329   */\n      dup6\n        /* \"#utility.yul\":11267:11338   */\n      tag_160\n      jump\t// in\n    tag_306:\n        /* \"#utility.yul\":11260:11338   */\n      swap4\n      pop\n        /* \"#utility.yul\":11347:11412   */\n      tag_307\n        /* \"#utility.yul\":11405:11411   */\n      dup2\n        /* \"#utility.yul\":11400:11403   */\n      dup6\n        /* \"#utility.yul\":11393:11397   */\n      0x20\n        /* \"#utility.yul\":11386:11391   */\n      dup7\n        /* \"#utility.yul\":11382:11398   */\n      add\n        /* \"#utility.yul\":11347:11412   */\n      tag_140\n      jump\t// in\n    tag_307:\n        /* \"#utility.yul\":11437:11466   */\n      tag_308\n        /* \"#utility.yul\":11459:11465   */\n      dup2\n        /* \"#utility.yul\":11437:11466   */\n      tag_141\n      jump\t// in\n    tag_308:\n        /* \"#utility.yul\":11432:11435   */\n      dup5\n        /* \"#utility.yul\":11428:11467   */\n      add\n        /* \"#utility.yul\":11421:11467   */\n      swap2\n      pop\n        /* \"#utility.yul\":11188:11473   */\n      pop\n        /* \"#utility.yul\":11096:11473   */\n      swap3\n      swap2\n      pop\n      pop\n      jump\t// out\n        /* \"#utility.yul\":11479:11792   */\n    tag_41:\n        /* \"#utility.yul\":11592:11596   */\n      0x00\n        /* \"#utility.yul\":11630:11632   */\n      0x20\n        /* \"#utility.yul\":11619:11628   */\n      dup3\n        /* \"#utility.yul\":11615:11633   */\n      add\n        /* \"#utility.yul\":11607:11633   */\n      swap1\n      pop\n        /* \"#utility.yul\":11679:11688   */\n      dup2\n        /* \"#utility.yul\":11673:11677   */\n      dup2\n        /* \"#utility.yul\":11669:11689   */\n      sub\n        /* \"#utility.yul\":11665:11666   */\n      0x00\n        /* \"#utility.yul\":11654:11663   */\n      dup4\n        /* \"#utility.yul\":11650:11667   */\n      add\n        /* \"#utility.yul\":11643:11690   */\n      mstore\n        /* \"#utility.yul\":11707:11785   */\n      tag_310\n        /* \"#utility.yul\":11780:11784   */\n      dup2\n        /* \"#utility.yul\":11771:11777   */\n      dup5\n        /* \"#utility.yul\":11707:11785   */\n      tag_161\n      jump\t// in\n    tag_310:\n        /* \"#utility.yul\":11699:11785   */\n      swap1\n      pop\n        /* \"#utility.yul\":11479:11792   */\n      swap3\n      swap2\n      pop\n      pop\n      jump\t// out\n        /* \"#utility.yul\":11798:11978   */\n    tag_45:\n        /* \"#utility.yul\":11846:11923   */\n      0x4e487b7100000000000000000000000000000000000000000000000000000000\n        /* \"#utility.yul\":11843:11844   */\n      0x00\n        /* \"#utility.yul\":11836:11924   */\n      mstore\n        /* \"#utility.yul\":11943:11947   */\n      0x32\n        /* \"#utility.yul\":11940:11941   */\n      0x04\n        /* \"#utility.yul\":11933:11948   */\n      mstore\n        /* \"#utility.yul\":11967:11971   */\n      0x24\n        /* \"#utility.yul\":11964:11965   */\n      0x00\n        /* \"#utility.yul\":11957:11972   */\n      revert\n        /* \"#utility.yul\":11984:12154   */\n    tag_162:\n        /* \"#utility.yul\":12124:12146   */\n      0x547765657420646f6573206e6f74206578697374000000000000000000000000\n        /* \"#utility.yul\":12120:12121   */\n      0x00\n        /* \"#utility.yul\":12112:12118   */\n      dup3\n        /* \"#utility.yul\":12108:12122   */\n      add\n        /* \"#utility.yul\":12101:12147   */\n      mstore\n        /* \"#utility.yul\":11984:12154   */\n      pop\n      jump\t// out\n        /* \"#utility.yul\":12160:12526   */\n    tag_163:\n        /* \"#utility.yul\":12302:12305   */\n      0x00\n        /* \"#utility.yul\":12323:12390   */\n      tag_314\n        /* \"#utility.yul\":12387:12389   */\n      0x14\n        /* \"#utility.yul\":12382:12385   */\n      dup4\n        /* \"#utility.yul\":12323:12390   */\n      tag_160\n      jump\t// in\n    tag_314:\n        /* \"#utility.yul\":12316:12390   */\n      swap2\n      pop\n        /* \"#utility.yul\":12399:12492   */\n      tag_315\n        /* \"#utility.yul\":12488:12491   */\n      dup3\n        /* \"#utility.yul\":12399:12492   */\n      tag_162\n      jump\t// in\n    tag_315:\n        /* \"#utility.yul\":12517:12519   */\n      0x20\n        /* \"#utility.yul\":12512:12515   */\n      dup3\n        /* \"#utility.yul\":12508:12520   */\n      add\n        /* \"#utility.yul\":12501:12520   */\n      swap1\n      pop\n        /* \"#utility.yul\":12160:12526   */\n      swap2\n      swap1\n      pop\n      jump\t// out\n        /* \"#utility.yul\":12532:12951   */\n    tag_49:\n        /* \"#utility.yul\":12698:12702   */\n      0x00\n        /* \"#utility.yul\":12736:12738   */\n      0x20\n        /* \"#utility.yul\":12725:12734   */\n      dup3\n        /* \"#utility.yul\":12721:12739   */\n      add\n        /* \"#utility.yul\":12713:12739   */\n      swap1\n      pop\n        /* \"#utility.yul\":12785:12794   */\n      dup2\n        /* \"#utility.yul\":12779:12783   */\n      dup2\n        /* \"#utility.yul\":12775:12795   */\n      sub\n        /* \"#utility.yul\":12771:12772   */\n      0x00\n        /* \"#utility.yul\":12760:12769   */\n      dup4\n        /* \"#utility.yul\":12756:12773   */\n      add\n        /* \"#utility.yul\":12749:12796   */\n      mstore\n        /* \"#utility.yul\":12813:12944   */\n      tag_317\n        /* \"#utility.yul\":12939:12943   */\n      dup2\n        /* \"#utility.yul\":12813:12944   */\n      tag_163\n      jump\t// in\n    tag_317:\n        /* \"#utility.yul\":12805:12944   */\n      swap1\n      pop\n        /* \"#utility.yul\":12532:12951   */\n      swap2\n      swap1\n      pop\n      jump\t// out\n        /* \"#utility.yul\":12957:13135   */\n    tag_164:\n        /* \"#utility.yul\":13097:13127   */\n      0x547765657420646f65736e2774206861766520616e79206c696b657300000000\n        /* \"#utility.yul\":13093:13094   */\n      0x00\n        /* \"#utility.yul\":13085:13091   */\n      dup3\n        /* \"#utility.yul\":13081:13095   */\n      add\n        /* \"#utility.yul\":13074:13128   */\n      mstore\n        /* \"#utility.yul\":12957:13135   */\n      pop\n      jump\t// out\n        /* \"#utility.yul\":13141:13507   */\n    tag_165:\n        /* \"#utility.yul\":13283:13286   */\n      0x00\n        /* \"#utility.yul\":13304:13371   */\n      tag_320\n        /* \"#utility.yul\":13368:13370   */\n      0x1c\n        /* \"#utility.yul\":13363:13366   */\n      dup4\n        /* \"#utility.yul\":13304:13371   */\n      tag_160\n      jump\t// in\n    tag_320:\n        /* \"#utility.yul\":13297:13371   */\n      swap2\n      pop\n        /* \"#utility.yul\":13380:13473   */\n      tag_321\n        /* \"#utility.yul\":13469:13472   */\n      dup3\n        /* \"#utility.yul\":13380:13473   */\n      tag_164\n      jump\t// in\n    tag_321:\n        /* \"#utility.yul\":13498:13500   */\n      0x20\n        /* \"#utility.yul\":13493:13496   */\n      dup3\n        /* \"#utility.yul\":13489:13501   */\n      add\n        /* \"#utility.yul\":13482:13501   */\n      swap1\n      pop\n        /* \"#utility.yul\":13141:13507   */\n      swap2\n      swap1\n      pop\n      jump\t// out\n        /* \"#utility.yul\":13513:13932   */\n    tag_55:\n        /* \"#utility.yul\":13679:13683   */\n      0x00\n        /* \"#utility.yul\":13717:13719   */\n      0x20\n        /* \"#utility.yul\":13706:13715   */\n      dup3\n        /* \"#utility.yul\":13702:13720   */\n      add\n        /* \"#utility.yul\":13694:13720   */\n      swap1\n      pop\n        /* \"#utility.yul\":13766:13775   */\n      dup2\n        /* \"#utility.yul\":13760:13764   */\n      dup2\n        /* \"#utility.yul\":13756:13776   */\n      sub\n        /* \"#utility.yul\":13752:13753   */\n      0x00\n        /* \"#utility.yul\":13741:13750   */\n      dup4\n        /* \"#utility.yul\":13737:13754   */\n      add\n        /* \"#utility.yul\":13730:13777   */\n      mstore\n        /* \"#utility.yul\":13794:13925   */\n      tag_323\n        /* \"#utility.yul\":13920:13924   */\n      dup2\n        /* \"#utility.yul\":13794:13925   */\n      tag_165\n      jump\t// in\n    tag_323:\n        /* \"#utility.yul\":13786:13925   */\n      swap1\n      pop\n        /* \"#utility.yul\":13513:13932   */\n      swap2\n      swap1\n      pop\n      jump\t// out\n        /* \"#utility.yul\":13938:14118   */\n    tag_166:\n        /* \"#utility.yul\":13986:14063   */\n      0x4e487b7100000000000000000000000000000000000000000000000000000000\n        /* \"#utility.yul\":13983:13984   */\n      0x00\n        /* \"#utility.yul\":13976:14064   */\n      mstore\n        /* \"#utility.yul\":14083:14087   */\n      0x11\n        /* \"#utility.yul\":14080:14081   */\n      0x04\n        /* \"#utility.yul\":14073:14088   */\n      mstore\n        /* \"#utility.yul\":14107:14111   */\n      0x24\n        /* \"#utility.yul\":14104:14105   */\n      0x00\n        /* \"#utility.yul\":14097:14112   */\n      revert\n        /* \"#utility.yul\":14124:14295   */\n    tag_60:\n        /* \"#utility.yul\":14163:14166   */\n      0x00\n        /* \"#utility.yul\":14186:14210   */\n      tag_326\n        /* \"#utility.yul\":14204:14209   */\n      dup3\n        /* \"#utility.yul\":14186:14210   */\n      tag_130\n      jump\t// in\n    tag_326:\n        /* \"#utility.yul\":14177:14210   */\n      swap2\n      pop\n        /* \"#utility.yul\":14232:14236   */\n      0x00\n        /* \"#utility.yul\":14225:14230   */\n      dup3\n        /* \"#utility.yul\":14222:14237   */\n      sub\n        /* \"#utility.yul\":14219:14260   */\n      tag_327\n      jumpi\n        /* \"#utility.yul\":14240:14258   */\n      tag_328\n      tag_166\n      jump\t// in\n    tag_328:\n        /* \"#utility.yul\":14219:14260   */\n    tag_327:\n        /* \"#utility.yul\":14287:14288   */\n      0x01\n        /* \"#utility.yul\":14280:14285   */\n      dup3\n        /* \"#utility.yul\":14276:14289   */\n      sub\n        /* \"#utility.yul\":14269:14289   */\n      swap1\n      pop\n        /* \"#utility.yul\":14124:14295   */\n      swap2\n      swap1\n      pop\n      jump\t// out\n        /* \"#utility.yul\":14301:14419   */\n    tag_167:\n        /* \"#utility.yul\":14388:14412   */\n      tag_330\n        /* \"#utility.yul\":14406:14411   */\n      dup2\n        /* \"#utility.yul\":14388:14412   */\n      tag_127\n      jump\t// in\n    tag_330:\n        /* \"#utility.yul\":14383:14386   */\n      dup3\n        /* \"#utility.yul\":14376:14413   */\n      mstore\n        /* \"#utility.yul\":14301:14419   */\n      pop\n      pop\n      jump\t// out\n        /* \"#utility.yul\":14425:14978   */\n    tag_65:\n        /* \"#utility.yul\":14602:14606   */\n      0x00\n        /* \"#utility.yul\":14640:14643   */\n      0x80\n        /* \"#utility.yul\":14629:14638   */\n      dup3\n        /* \"#utility.yul\":14625:14644   */\n      add\n        /* \"#utility.yul\":14617:14644   */\n      swap1\n      pop\n        /* \"#utility.yul\":14654:14725   */\n      tag_332\n        /* \"#utility.yul\":14722:14723   */\n      0x00\n        /* \"#utility.yul\":14711:14720   */\n      dup4\n        /* \"#utility.yul\":14707:14724   */\n      add\n        /* \"#utility.yul\":14698:14704   */\n      dup8\n        /* \"#utility.yul\":14654:14725   */\n      tag_167\n      jump\t// in\n    tag_332:\n        /* \"#utility.yul\":14735:14807   */\n      tag_333\n        /* \"#utility.yul\":14803:14805   */\n      0x20\n        /* \"#utility.yul\":14792:14801   */\n      dup4\n        /* \"#utility.yul\":14788:14806   */\n      add\n        /* \"#utility.yul\":14779:14785   */\n      dup7\n        /* \"#utility.yul\":14735:14807   */\n      tag_167\n      jump\t// in\n    tag_333:\n        /* \"#utility.yul\":14817:14889   */\n      tag_334\n        /* \"#utility.yul\":14885:14887   */\n      0x40\n        /* \"#utility.yul\":14874:14883   */\n      dup4\n        /* \"#utility.yul\":14870:14888   */\n      add\n        /* \"#utility.yul\":14861:14867   */\n      dup6\n        /* \"#utility.yul\":14817:14889   */\n      tag_159\n      jump\t// in\n    tag_334:\n        /* \"#utility.yul\":14899:14971   */\n      tag_335\n        /* \"#utility.yul\":14967:14969   */\n      0x60\n        /* \"#utility.yul\":14956:14965   */\n      dup4\n        /* \"#utility.yul\":14952:14970   */\n      add\n        /* \"#utility.yul\":14943:14949   */\n      dup5\n        /* \"#utility.yul\":14899:14971   */\n      tag_159\n      jump\t// in\n    tag_335:\n        /* \"#utility.yul\":14425:14978   */\n      swap6\n      swap5\n      pop\n      pop\n      pop\n      pop\n      pop\n      jump\t// out\n        /* \"#utility.yul\":14984:15164   */\n    tag_168:\n        /* \"#utility.yul\":15032:15109   */\n      0x4e487b7100000000000000000000000000000000000000000000000000000000\n        /* \"#utility.yul\":15029:15030   */\n      0x00\n        /* \"#utility.yul\":15022:15110   */\n      mstore\n        /* \"#utility.yul\":15129:15133   */\n      0x22\n        /* \"#utility.yul\":15126:15127   */\n      0x04\n        /* \"#utility.yul\":15119:15134   */\n      mstore\n        /* \"#utility.yul\":15153:15157   */\n      0x24\n        /* \"#utility.yul\":15150:15151   */\n      0x00\n        /* \"#utility.yul\":15143:15158   */\n      revert\n        /* \"#utility.yul\":15170:15490   */\n    tag_71:\n        /* \"#utility.yul\":15214:15220   */\n      0x00\n        /* \"#utility.yul\":15251:15252   */\n      0x02\n        /* \"#utility.yul\":15245:15249   */\n      dup3\n        /* \"#utility.yul\":15241:15253   */\n      div\n        /* \"#utility.yul\":15231:15253   */\n      swap1\n      pop\n        /* \"#utility.yul\":15298:15299   */\n      0x01\n        /* \"#utility.yul\":15292:15296   */\n      dup3\n        /* \"#utility.yul\":15288:15300   */\n      and\n        /* \"#utility.yul\":15319:15337   */\n      dup1\n        /* \"#utility.yul\":15309:15390   */\n      tag_338\n      jumpi\n        /* \"#utility.yul\":15375:15379   */\n      0x7f\n        /* \"#utility.yul\":15367:15373   */\n      dup3\n        /* \"#utility.yul\":15363:15380   */\n      and\n        /* \"#utility.yul\":15353:15380   */\n      swap2\n      pop\n        /* \"#utility.yul\":15309:15390   */\n    tag_338:\n        /* \"#utility.yul\":15437:15439   */\n      0x20\n        /* \"#utility.yul\":15429:15435   */\n      dup3\n        /* \"#utility.yul\":15426:15440   */\n      lt\n        /* \"#utility.yul\":15406:15424   */\n      dup2\n        /* \"#utility.yul\":15403:15441   */\n      sub\n        /* \"#utility.yul\":15400:15484   */\n      tag_339\n      jumpi\n        /* \"#utility.yul\":15456:15474   */\n      tag_340\n      tag_168\n      jump\t// in\n    tag_340:\n        /* \"#utility.yul\":15400:15484   */\n    tag_339:\n        /* \"#utility.yul\":15221:15490   */\n      pop\n        /* \"#utility.yul\":15170:15490   */\n      swap2\n      swap1\n      pop\n      jump\t// out\n        /* \"#utility.yul\":15496:15668   */\n    tag_169:\n        /* \"#utility.yul\":15636:15660   */\n      0x596f7520617265206e6f7420746865206f776e65722100000000000000000000\n        /* \"#utility.yul\":15632:15633   */\n      0x00\n        /* \"#utility.yul\":15624:15630   */\n      dup3\n        /* \"#utility.yul\":15620:15634   */\n      add\n        /* \"#utility.yul\":15613:15661   */\n      mstore\n        /* \"#utility.yul\":15496:15668   */\n      pop\n      jump\t// out\n        /* \"#utility.yul\":15674:16040   */\n    tag_170:\n        /* \"#utility.yul\":15816:15819   */\n      0x00\n        /* \"#utility.yul\":15837:15904   */\n      tag_343\n        /* \"#utility.yul\":15901:15903   */\n      0x16\n        /* \"#utility.yul\":15896:15899   */\n      dup4\n        /* \"#utility.yul\":15837:15904   */\n      tag_160\n      jump\t// in\n    tag_343:\n        /* \"#utility.yul\":15830:15904   */\n      swap2\n      pop\n        /* \"#utility.yul\":15913:16006   */\n      tag_344\n        /* \"#utility.yul\":16002:16005   */\n      dup3\n        /* \"#utility.yul\":15913:16006   */\n      tag_169\n      jump\t// in\n    tag_344:\n        /* \"#utility.yul\":16031:16033   */\n      0x20\n        /* \"#utility.yul\":16026:16029   */\n      dup3\n        /* \"#utility.yul\":16022:16034   */\n      add\n        /* \"#utility.yul\":16015:16034   */\n      swap1\n      pop\n        /* \"#utility.yul\":15674:16040   */\n      swap2\n      swap1\n      pop\n      jump\t// out\n        /* \"#utility.yul\":16046:16465   */\n    tag_79:\n        /* \"#utility.yul\":16212:16216   */\n      0x00\n        /* \"#utility.yul\":16250:16252   */\n      0x20\n        /* \"#utility.yul\":16239:16248   */\n      dup3\n        /* \"#utility.yul\":16235:16253   */\n      add\n        /* \"#utility.yul\":16227:16253   */\n      swap1\n      pop\n        /* \"#utility.yul\":16299:16308   */\n      dup2\n        /* \"#utility.yul\":16293:16297   */\n      dup2\n        /* \"#utility.yul\":16289:16309   */\n      sub\n        /* \"#utility.yul\":16285:16286   */\n      0x00\n        /* \"#utility.yul\":16274:16283   */\n      dup4\n        /* \"#utility.yul\":16270:16287   */\n      add\n        /* \"#utility.yul\":16263:16310   */\n      mstore\n        /* \"#utility.yul\":16327:16458   */\n      tag_346\n        /* \"#utility.yul\":16453:16457   */\n      dup2\n        /* \"#utility.yul\":16327:16458   */\n      tag_170\n      jump\t// in\n    tag_346:\n        /* \"#utility.yul\":16319:16458   */\n      swap1\n      pop\n        /* \"#utility.yul\":16046:16465   */\n      swap2\n      swap1\n      pop\n      jump\t// out\n        /* \"#utility.yul\":16471:16704   */\n    tag_91:\n        /* \"#utility.yul\":16510:16513   */\n      0x00\n        /* \"#utility.yul\":16533:16557   */\n      tag_348\n        /* \"#utility.yul\":16551:16556   */\n      dup3\n        /* \"#utility.yul\":16533:16557   */\n      tag_130\n      jump\t// in\n    tag_348:\n        /* \"#utility.yul\":16524:16557   */\n      swap2\n      pop\n        /* \"#utility.yul\":16579:16645   */\n      0xffffffffffffffffffffffffffffffffffffffffffffffffffffffffffffffff\n        /* \"#utility.yul\":16572:16577   */\n      dup3\n        /* \"#utility.yul\":16569:16646   */\n      sub\n        /* \"#utility.yul\":16566:16669   */\n      tag_349\n      jumpi\n        /* \"#utility.yul\":16649:16667   */\n      tag_350\n      tag_166\n      jump\t// in\n    tag_350:\n        /* \"#utility.yul\":16566:16669   */\n    tag_349:\n        /* \"#utility.yul\":16696:16697   */\n      0x01\n        /* \"#utility.yul\":16689:16694   */\n      dup3\n        /* \"#utility.yul\":16685:16698   */\n      add\n        /* \"#utility.yul\":16678:16698   */\n      swap1\n      pop\n        /* \"#utility.yul\":16471:16704   */\n      swap2\n      swap1\n      pop\n      jump\t// out\n        /* \"#utility.yul\":16710:16878   */\n    tag_171:\n        /* \"#utility.yul\":16850:16870   */\n      0x547765657420697320746f6f206c6f6e672e0000000000000000000000000000\n        /* \"#utility.yul\":16846:16847   */\n      0x00\n        /* \"#utility.yul\":16838:16844   */\n      dup3\n        /* \"#utility.yul\":16834:16848   */\n      add\n        /* \"#utility.yul\":16827:16871   */\n      mstore\n        /* \"#utility.yul\":16710:16878   */\n      pop\n      jump\t// out\n        /* \"#utility.yul\":16884:17250   */\n    tag_172:\n        /* \"#utility.yul\":17026:17029   */\n      0x00\n        /* \"#utility.yul\":17047:17114   */\n      tag_353\n        /* \"#utility.yul\":17111:17113   */\n      0x12\n        /* \"#utility.yul\":17106:17109   */\n      dup4\n        /* \"#utility.yul\":17047:17114   */\n      tag_160\n      jump\t// in\n    tag_353:\n        /* \"#utility.yul\":17040:17114   */\n      swap2\n      pop\n        /* \"#utility.yul\":17123:17216   */\n      tag_354\n        /* \"#utility.yul\":17212:17215   */\n      dup3\n        /* \"#utility.yul\":17123:17216   */\n      tag_171\n      jump\t// in\n    tag_354:\n        /* \"#utility.yul\":17241:17243   */\n      0x20\n        /* \"#utility.yul\":17236:17239   */\n      dup3\n        /* \"#utility.yul\":17232:17244   */\n      add\n        /* \"#utility.yul\":17225:17244   */\n      swap1\n      pop\n        /* \"#utility.yul\":16884:17250   */\n      swap2\n      swap1\n      pop\n      jump\t// out\n        /* \"#utility.yul\":17256:17675   */\n    tag_99:\n        /* \"#utility.yul\":17422:17426   */\n      0x00\n        /* \"#utility.yul\":17460:17462   */\n      0x20\n        /* \"#utility.yul\":17449:17458   */\n      dup3\n        /* \"#utility.yul\":17445:17463   */\n      add\n        /* \"#utility.yul\":17437:17463   */\n      swap1\n      pop\n        /* \"#utility.yul\":17509:17518   */\n      dup2\n        /* \"#utility.yul\":17503:17507   */\n      dup2\n        /* \"#utility.yul\":17499:17519   */\n      sub\n        /* \"#utility.yul\":17495:17496   */\n      0x00\n        /* \"#utility.yul\":17484:17493   */\n      dup4\n        /* \"#utility.yul\":17480:17497   */\n      add\n        /* \"#utility.yul\":17473:17520   */\n      mstore\n        /* \"#utility.yul\":17537:17668   */\n      tag_356\n        /* \"#utility.yul\":17663:17667   */\n      dup2\n        /* \"#utility.yul\":17537:17668   */\n      tag_172\n      jump\t// in\n    tag_356:\n        /* \"#utility.yul\":17529:17668   */\n      swap1\n      pop\n        /* \"#utility.yul\":17256:17675   */\n      swap2\n      swap1\n      pop\n      jump\t// out\n        /* \"#utility.yul\":17681:17822   */\n    tag_173:\n        /* \"#utility.yul\":17730:17734   */\n      0x00\n        /* \"#utility.yul\":17753:17756   */\n      dup2\n        /* \"#utility.yul\":17745:17756   */\n      swap1\n      pop\n        /* \"#utility.yul\":17776:17779   */\n      dup2\n        /* \"#utility.yul\":17773:17774   */\n      0x00\n        /* \"#utility.yul\":17766:17780   */\n      mstore\n        /* \"#utility.yul\":17810:17814   */\n      0x20\n        /* \"#utility.yul\":17807:17808   */\n      0x00\n        /* \"#utility.yul\":17797:17815   */\n      keccak256\n        /* \"#utility.yul\":17789:17815   */\n      swap1\n      pop\n        /* \"#utility.yul\":17681:17822   */\n      swap2\n      swap1\n      pop\n      jump\t// out\n        /* \"#utility.yul\":17828:17921   */\n    tag_174:\n        /* \"#utility.yul\":17865:17871   */\n      0x00\n        /* \"#utility.yul\":17912:17914   */\n      0x20\n        /* \"#utility.yul\":17907:17909   */\n      0x1f\n        /* \"#utility.yul\":17900:17905   */\n      dup4\n        /* \"#utility.yul\":17896:17910   */\n      add\n        /* \"#utility.yul\":17892:17915   */\n      div\n        /* \"#utility.yul\":17882:17915   */\n      swap1\n      pop\n        /* \"#utility.yul\":17828:17921   */\n      swap2\n      swap1\n      pop\n      jump\t// out\n        /* \"#utility.yul\":17927:18034   */\n    tag_175:\n        /* \"#utility.yul\":17971:17979   */\n      0x00\n        /* \"#utility.yul\":18021:18026   */\n      dup3\n        /* \"#utility.yul\":18015:18019   */\n      dup3\n        /* \"#utility.yul\":18011:18027   */\n      shl\n        /* \"#utility.yul\":17990:18027   */\n      swap1\n      pop\n        /* \"#utility.yul\":17927:18034   */\n      swap3\n      swap2\n      pop\n      pop\n      jump\t// out\n        /* \"#utility.yul\":18040:18433   */\n    tag_176:\n        /* \"#utility.yul\":18109:18115   */\n      0x00\n        /* \"#utility.yul\":18159:18160   */\n      0x08\n        /* \"#utility.yul\":18147:18157   */\n      dup4\n        /* \"#utility.yul\":18143:18161   */\n      mul\n        /* \"#utility.yul\":18182:18279   */\n      tag_361\n        /* \"#utility.yul\":18212:18278   */\n      0xffffffffffffffffffffffffffffffffffffffffffffffffffffffffffffffff\n        /* \"#utility.yul\":18201:18210   */\n      dup3\n        /* \"#utility.yul\":18182:18279   */\n      tag_175\n      jump\t// in\n    tag_361:\n        /* \"#utility.yul\":18300:18339   */\n      tag_362\n        /* \"#utility.yul\":18330:18338   */\n      dup7\n        /* \"#utility.yul\":18319:18328   */\n      dup4\n        /* \"#utility.yul\":18300:18339   */\n      tag_175\n      jump\t// in\n    tag_362:\n        /* \"#utility.yul\":18288:18339   */\n      swap6\n      pop\n        /* \"#utility.yul\":18372:18376   */\n      dup1\n        /* \"#utility.yul\":18368:18377   */\n      not\n        /* \"#utility.yul\":18361:18366   */\n      dup5\n        /* \"#utility.yul\":18357:18378   */\n      and\n        /* \"#utility.yul\":18348:18378   */\n      swap4\n      pop\n        /* \"#utility.yul\":18421:18425   */\n      dup1\n        /* \"#utility.yul\":18411:18419   */\n      dup7\n        /* \"#utility.yul\":18407:18426   */\n      and\n        /* \"#utility.yul\":18400:18405   */\n      dup5\n        /* \"#utility.yul\":18397:18427   */\n      or\n        /* \"#utility.yul\":18387:18427   */\n      swap3\n      pop\n        /* \"#utility.yul\":18116:18433   */\n      pop\n      pop\n        /* \"#utility.yul\":18040:18433   */\n      swap4\n      swap3\n      pop\n      pop\n      pop\n      jump\t// out\n        /* \"#utility.yul\":18439:18499   */\n    tag_177:\n        /* \"#utility.yul\":18467:18470   */\n      0x00\n        /* \"#utility.yul\":18488:18493   */\n      dup2\n        /* \"#utility.yul\":18481:18493   */\n      swap1\n      pop\n        /* \"#utility.yul\":18439:18499   */\n      swap2\n      swap1\n      pop\n      jump\t// out\n        /* \"#utility.yul\":18505:18647   */\n    tag_178:\n        /* \"#utility.yul\":18555:18564   */\n      0x00\n        /* \"#utility.yul\":18588:18641   */\n      tag_365\n        /* \"#utility.yul\":18606:18640   */\n      tag_366\n        /* \"#utility.yul\":18615:18639   */\n      tag_367\n        /* \"#utility.yul\":18633:18638   */\n      dup5\n        /* \"#utility.yul\":18615:18639   */\n      tag_130\n      jump\t// in\n    tag_367:\n        /* \"#utility.yul\":18606:18640   */\n      tag_177\n      jump\t// in\n    tag_366:\n        /* \"#utility.yul\":18588:18641   */\n      tag_130\n      jump\t// in\n    tag_365:\n        /* \"#utility.yul\":18575:18641   */\n      swap1\n      pop\n        /* \"#utility.yul\":18505:18647   */\n      swap2\n      swap1\n      pop\n      jump\t// out\n        /* \"#utility.yul\":18653:18728   */\n    tag_179:\n        /* \"#utility.yul\":18696:18699   */\n      0x00\n        /* \"#utility.yul\":18717:18722   */\n      dup2\n        /* \"#utility.yul\":18710:18722   */\n      swap1\n      pop\n        /* \"#utility.yul\":18653:18728   */\n      swap2\n      swap1\n      pop\n      jump\t// out\n        /* \"#utility.yul\":18734:19003   */\n    tag_180:\n        /* \"#utility.yul\":18844:18883   */\n      tag_370\n        /* \"#utility.yul\":18875:18882   */\n      dup4\n        /* \"#utility.yul\":18844:18883   */\n      tag_178\n      jump\t// in\n    tag_370:\n        /* \"#utility.yul\":18905:18996   */\n      tag_371\n        /* \"#utility.yul\":18954:18995   */\n      tag_372\n        /* \"#utility.yul\":18978:18994   */\n      dup3\n        /* \"#utility.yul\":18954:18995   */\n      tag_179\n      jump\t// in\n    tag_372:\n        /* \"#utility.yul\":18946:18952   */\n      dup5\n        /* \"#utility.yul\":18939:18943   */\n      dup5\n        /* \"#utility.yul\":18933:18944   */\n      sload\n        /* \"#utility.yul\":18905:18996   */\n      tag_176\n      jump\t// in\n    tag_371:\n        /* \"#utility.yul\":18899:18903   */\n      dup3\n        /* \"#utility.yul\":18892:18997   */\n      sstore\n        /* \"#utility.yul\":18810:19003   */\n      pop\n        /* \"#utility.yul\":18734:19003   */\n      pop\n      pop\n      pop\n      jump\t// out\n        /* \"#utility.yul\":19009:19082   */\n    tag_181:\n        /* \"#utility.yul\":19054:19057   */\n      0x00\n        /* \"#utility.yul\":19009:19082   */\n      swap1\n      jump\t// out\n        /* \"#utility.yul\":19088:19277   */\n    tag_182:\n        /* \"#utility.yul\":19165:19197   */\n      tag_375\n      tag_181\n      jump\t// in\n    tag_375:\n        /* \"#utility.yul\":19206:19271   */\n      tag_376\n        /* \"#utility.yul\":19264:19270   */\n      dup2\n        /* \"#utility.yul\":19256:19262   */\n      dup5\n        /* \"#utility.yul\":19250:19254   */\n      dup5\n        /* \"#utility.yul\":19206:19271   */\n      tag_180\n      jump\t// in\n    tag_376:\n        /* \"#utility.yul\":19141:19277   */\n      pop\n        /* \"#utility.yul\":19088:19277   */\n      pop\n      pop\n      jump\t// out\n        /* \"#utility.yul\":19283:19469   */\n    tag_183:\n        /* \"#utility.yul\":19343:19463   */\n    tag_378:\n        /* \"#utility.yul\":19360:19363   */\n      dup2\n        /* \"#utility.yul\":19353:19358   */\n      dup2\n        /* \"#utility.yul\":19350:19364   */\n      lt\n        /* \"#utility.yul\":19343:19463   */\n      iszero\n      tag_380\n      jumpi\n        /* \"#utility.yul\":19414:19453   */\n      tag_381\n        /* \"#utility.yul\":19451:19452   */\n      0x00\n        /* \"#utility.yul\":19444:19449   */\n      dup3\n        /* \"#utility.yul\":19414:19453   */\n      tag_182\n      jump\t// in\n    tag_381:\n        /* \"#utility.yul\":19387:19388   */\n      0x01\n        /* \"#utility.yul\":19380:19385   */\n      dup2\n        /* \"#utility.yul\":19376:19389   */\n      add\n        /* \"#utility.yul\":19367:19389   */\n      swap1\n      pop\n        /* \"#utility.yul\":19343:19463   */\n      jump(tag_378)\n    tag_380:\n        /* \"#utility.yul\":19283:19469   */\n      pop\n      pop\n      jump\t// out\n        /* \"#utility.yul\":19475:20018   */\n    tag_184:\n        /* \"#utility.yul\":19576:19578   */\n      0x1f\n        /* \"#utility.yul\":19571:19574   */\n      dup3\n        /* \"#utility.yul\":19568:19579   */\n      gt\n        /* \"#utility.yul\":19565:20011   */\n      iszero\n      tag_383\n      jumpi\n        /* \"#utility.yul\":19610:19648   */\n      tag_384\n        /* \"#utility.yul\":19642:19647   */\n      dup2\n        /* \"#utility.yul\":19610:19648   */\n      tag_173\n      jump\t// in\n    tag_384:\n        /* \"#utility.yul\":19694:19723   */\n      tag_385\n        /* \"#utility.yul\":19712:19722   */\n      dup5\n        /* \"#utility.yul\":19694:19723   */\n      tag_174\n      jump\t// in\n    tag_385:\n        /* \"#utility.yul\":19684:19692   */\n      dup2\n        /* \"#utility.yul\":19680:19724   */\n      add\n        /* \"#utility.yul\":19877:19879   */\n      0x20\n        /* \"#utility.yul\":19865:19875   */\n      dup6\n        /* \"#utility.yul\":19862:19880   */\n      lt\n        /* \"#utility.yul\":19859:19908   */\n      iszero\n      tag_386\n      jumpi\n        /* \"#utility.yul\":19898:19906   */\n      dup2\n        /* \"#utility.yul\":19883:19906   */\n      swap1\n      pop\n        /* \"#utility.yul\":19859:19908   */\n    tag_386:\n        /* \"#utility.yul\":19921:20001   */\n      tag_387\n        /* \"#utility.yul\":19977:19999   */\n      tag_388\n        /* \"#utility.yul\":19995:19998   */\n      dup6\n        /* \"#utility.yul\":19977:19999   */\n      tag_174\n      jump\t// in\n    tag_388:\n        /* \"#utility.yul\":19967:19975   */\n      dup4\n        /* \"#utility.yul\":19963:20000   */\n      add\n        /* \"#utility.yul\":19950:19961   */\n      dup3\n        /* \"#utility.yul\":19921:20001   */\n      tag_183\n      jump\t// in\n    tag_387:\n        /* \"#utility.yul\":19580:20011   */\n      pop\n      pop\n        /* \"#utility.yul\":19565:20011   */\n    tag_383:\n        /* \"#utility.yul\":19475:20018   */\n      pop\n      pop\n      pop\n      jump\t// out\n        /* \"#utility.yul\":20024:20141   */\n    tag_185:\n        /* \"#utility.yul\":20078:20086   */\n      0x00\n        /* \"#utility.yul\":20128:20133   */\n      dup3\n        /* \"#utility.yul\":20122:20126   */\n      dup3\n        /* \"#utility.yul\":20118:20134   */\n      shr\n        /* \"#utility.yul\":20097:20134   */\n      swap1\n      pop\n        /* \"#utility.yul\":20024:20141   */\n      swap3\n      swap2\n      pop\n      pop\n      jump\t// out\n        /* \"#utility.yul\":20147:20316   */\n    tag_186:\n        /* \"#utility.yul\":20191:20197   */\n      0x00\n        /* \"#utility.yul\":20224:20275   */\n      tag_391\n        /* \"#utility.yul\":20272:20273   */\n      0x00\n        /* \"#utility.yul\":20268:20274   */\n      not\n        /* \"#utility.yul\":20260:20265   */\n      dup5\n        /* \"#utility.yul\":20257:20258   */\n      0x08\n        /* \"#utility.yul\":20253:20266   */\n      mul\n        /* \"#utility.yul\":20224:20275   */\n      tag_185\n      jump\t// in\n    tag_391:\n        /* \"#utility.yul\":20220:20276   */\n      not\n        /* \"#utility.yul\":20305:20309   */\n      dup1\n        /* \"#utility.yul\":20299:20303   */\n      dup4\n        /* \"#utility.yul\":20295:20310   */\n      and\n        /* \"#utility.yul\":20285:20310   */\n      swap2\n      pop\n        /* \"#utility.yul\":20198:20316   */\n      pop\n        /* \"#utility.yul\":20147:20316   */\n      swap3\n      swap2\n      pop\n      pop\n      jump\t// out\n        /* \"#utility.yul\":20321:20616   */\n    tag_187:\n        /* \"#utility.yul\":20397:20401   */\n      0x00\n        /* \"#utility.yul\":20543:20572   */\n      tag_393\n        /* \"#utility.yul\":20568:20571   */\n      dup4\n        /* \"#utility.yul\":20562:20566   */\n      dup4\n        /* \"#utility.yul\":20543:20572   */\n      tag_186\n      jump\t// in\n    tag_393:\n        /* \"#utility.yul\":20535:20572   */\n      swap2\n      pop\n        /* \"#utility.yul\":20605:20608   */\n      dup3\n        /* \"#utility.yul\":20602:20603   */\n      0x02\n        /* \"#utility.yul\":20598:20609   */\n      mul\n        /* \"#utility.yul\":20592:20596   */\n      dup3\n        /* \"#utility.yul\":20589:20610   */\n      or\n        /* \"#utility.yul\":20581:20610   */\n      swap1\n      pop\n        /* \"#utility.yul\":20321:20616   */\n      swap3\n      swap2\n      pop\n      pop\n      jump\t// out\n        /* \"#utility.yul\":20621:22016   */\n    tag_102:\n        /* \"#utility.yul\":20738:20775   */\n      tag_395\n        /* \"#utility.yul\":20771:20774   */\n      dup3\n        /* \"#utility.yul\":20738:20775   */\n      tag_138\n      jump\t// in\n    tag_395:\n        /* \"#utility.yul\":20840:20858   */\n      0xffffffffffffffff\n        /* \"#utility.yul\":20832:20838   */\n      dup2\n        /* \"#utility.yul\":20829:20859   */\n      gt\n        /* \"#utility.yul\":20826:20882   */\n      iszero\n      tag_396\n      jumpi\n        /* \"#utility.yul\":20862:20880   */\n      tag_397\n      tag_152\n      jump\t// in\n    tag_397:\n        /* \"#utility.yul\":20826:20882   */\n    tag_396:\n        /* \"#utility.yul\":20906:20944   */\n      tag_398\n        /* \"#utility.yul\":20938:20942   */\n      dup3\n        /* \"#utility.yul\":20932:20943   */\n      sload\n        /* \"#utility.yul\":20906:20944   */\n      tag_71\n      jump\t// in\n    tag_398:\n        /* \"#utility.yul\":20991:21058   */\n      tag_399\n        /* \"#utility.yul\":21051:21057   */\n      dup3\n        /* \"#utility.yul\":21043:21049   */\n      dup3\n        /* \"#utility.yul\":21037:21041   */\n      dup6\n        /* \"#utility.yul\":20991:21058   */\n      tag_184\n      jump\t// in\n    tag_399:\n        /* \"#utility.yul\":21085:21086   */\n      0x00\n        /* \"#utility.yul\":21109:21113   */\n      0x20\n        /* \"#utility.yul\":21096:21113   */\n      swap1\n      pop\n        /* \"#utility.yul\":21141:21143   */\n      0x1f\n        /* \"#utility.yul\":21133:21139   */\n      dup4\n        /* \"#utility.yul\":21130:21144   */\n      gt\n        /* \"#utility.yul\":21158:21159   */\n      0x01\n        /* \"#utility.yul\":21153:21771   */\n      dup2\n      eq\n      tag_401\n      jumpi\n        /* \"#utility.yul\":21815:21816   */\n      0x00\n        /* \"#utility.yul\":21832:21838   */\n      dup5\n        /* \"#utility.yul\":21829:21906   */\n      iszero\n      tag_402\n      jumpi\n        /* \"#utility.yul\":21881:21890   */\n      dup3\n        /* \"#utility.yul\":21876:21879   */\n      dup8\n        /* \"#utility.yul\":21872:21891   */\n      add\n        /* \"#utility.yul\":21866:21892   */\n      mload\n        /* \"#utility.yul\":21857:21892   */\n      swap1\n      pop\n        /* \"#utility.yul\":21829:21906   */\n    tag_402:\n        /* \"#utility.yul\":21932:21999   */\n      tag_403\n        /* \"#utility.yul\":21992:21998   */\n      dup6\n        /* \"#utility.yul\":21985:21990   */\n      dup3\n        /* \"#utility.yul\":21932:21999   */\n      tag_187\n      jump\t// in\n    tag_403:\n        /* \"#utility.yul\":21926:21930   */\n      dup7\n        /* \"#utility.yul\":21919:22000   */\n      sstore\n        /* \"#utility.yul\":21788:22010   */\n      pop\n        /* \"#utility.yul\":21123:22010   */\n      jump(tag_400)\n        /* \"#utility.yul\":21153:21771   */\n    tag_401:\n        /* \"#utility.yul\":21205:21209   */\n      0x1f\n        /* \"#utility.yul\":21201:21210   */\n      not\n        /* \"#utility.yul\":21193:21199   */\n      dup5\n        /* \"#utility.yul\":21189:21211   */\n      and\n        /* \"#utility.yul\":21239:21276   */\n      tag_404\n        /* \"#utility.yul\":21271:21275   */\n      dup7\n        /* \"#utility.yul\":21239:21276   */\n      tag_173\n      jump\t// in\n    tag_404:\n        /* \"#utility.yul\":21298:21299   */\n      0x00\n        /* \"#utility.yul\":21312:21520   */\n    tag_405:\n        /* \"#utility.yul\":21326:21333   */\n      dup3\n        /* \"#utility.yul\":21323:21324   */\n      dup2\n        /* \"#utility.yul\":21320:21334   */\n      lt\n        /* \"#utility.yul\":21312:21520   */\n      iszero\n      tag_407\n      jumpi\n        /* \"#utility.yul\":21405:21414   */\n      dup5\n        /* \"#utility.yul\":21400:21403   */\n      dup10\n        /* \"#utility.yul\":21396:21415   */\n      add\n        /* \"#utility.yul\":21390:21416   */\n      mload\n        /* \"#utility.yul\":21382:21388   */\n      dup3\n        /* \"#utility.yul\":21375:21417   */\n      sstore\n        /* \"#utility.yul\":21456:21457   */\n      0x01\n        /* \"#utility.yul\":21448:21454   */\n      dup3\n        /* \"#utility.yul\":21444:21458   */\n      add\n        /* \"#utility.yul\":21434:21458   */\n      swap2\n      pop\n        /* \"#utility.yul\":21503:21505   */\n      0x20\n        /* \"#utility.yul\":21492:21501   */\n      dup6\n        /* \"#utility.yul\":21488:21506   */\n      add\n        /* \"#utility.yul\":21475:21506   */\n      swap5\n      pop\n        /* \"#utility.yul\":21349:21353   */\n      0x20\n        /* \"#utility.yul\":21346:21347   */\n      dup2\n        /* \"#utility.yul\":21342:21354   */\n      add\n        /* \"#utility.yul\":21337:21354   */\n      swap1\n      pop\n        /* \"#utility.yul\":21312:21520   */\n      jump(tag_405)\n    tag_407:\n        /* \"#utility.yul\":21548:21554   */\n      dup7\n        /* \"#utility.yul\":21539:21546   */\n      dup4\n        /* \"#utility.yul\":21536:21555   */\n      lt\n        /* \"#utility.yul\":21533:21712   */\n      iszero\n      tag_408\n      jumpi\n        /* \"#utility.yul\":21606:21615   */\n      dup5\n        /* \"#utility.yul\":21601:21604   */\n      dup10\n        /* \"#utility.yul\":21597:21616   */\n      add\n        /* \"#utility.yul\":21591:21617   */\n      mload\n        /* \"#utility.yul\":21649:21697   */\n      tag_409\n        /* \"#utility.yul\":21691:21695   */\n      0x1f\n        /* \"#utility.yul\":21683:21689   */\n      dup10\n        /* \"#utility.yul\":21679:21696   */\n      and\n        /* \"#utility.yul\":21668:21677   */\n      dup3\n        /* \"#utility.yul\":21649:21697   */\n      tag_186\n      jump\t// in\n    tag_409:\n        /* \"#utility.yul\":21641:21647   */\n      dup4\n        /* \"#utility.yul\":21634:21698   */\n      sstore\n        /* \"#utility.yul\":21556:21712   */\n      pop\n        /* \"#utility.yul\":21533:21712   */\n    tag_408:\n        /* \"#utility.yul\":21758:21759   */\n      0x01\n        /* \"#utility.yul\":21754:21755   */\n      0x02\n        /* \"#utility.yul\":21746:21752   */\n      dup9\n        /* \"#utility.yul\":21742:21756   */\n      mul\n        /* \"#utility.yul\":21738:21760   */\n      add\n        /* \"#utility.yul\":21732:21736   */\n      dup9\n        /* \"#utility.yul\":21725:21761   */\n      sstore\n        /* \"#utility.yul\":21160:21771   */\n      pop\n      pop\n      pop\n        /* \"#utility.yul\":21123:22010   */\n    tag_400:\n      pop\n        /* \"#utility.yul\":20713:22016   */\n      pop\n      pop\n      pop\n        /* \"#utility.yul\":20621:22016   */\n      pop\n      pop\n      jump\t// out\n        /* \"#utility.yul\":22022:22666   */\n    tag_104:\n        /* \"#utility.yul\":22219:22223   */\n      0x00\n        /* \"#utility.yul\":22257:22260   */\n      0x80\n        /* \"#utility.yul\":22246:22255   */\n      dup3\n        /* \"#utility.yul\":22242:22261   */\n      add\n        /* \"#utility.yul\":22234:22261   */\n      swap1\n      pop\n        /* \"#utility.yul\":22271:22342   */\n      tag_411\n        /* \"#utility.yul\":22339:22340   */\n      0x00\n        /* \"#utility.yul\":22328:22337   */\n      dup4\n        /* \"#utility.yul\":22324:22341   */\n      add\n        /* \"#utility.yul\":22315:22321   */\n      dup8\n        /* \"#utility.yul\":22271:22342   */\n      tag_159\n      jump\t// in\n    tag_411:\n        /* \"#utility.yul\":22352:22424   */\n      tag_412\n        /* \"#utility.yul\":22420:22422   */\n      0x20\n        /* \"#utility.yul\":22409:22418   */\n      dup4\n        /* \"#utility.yul\":22405:22423   */\n      add\n        /* \"#utility.yul\":22396:22402   */\n      dup7\n        /* \"#utility.yul\":22352:22424   */\n      tag_167\n      jump\t// in\n    tag_412:\n        /* \"#utility.yul\":22471:22480   */\n      dup2\n        /* \"#utility.yul\":22465:22469   */\n      dup2\n        /* \"#utility.yul\":22461:22481   */\n      sub\n        /* \"#utility.yul\":22456:22458   */\n      0x40\n        /* \"#utility.yul\":22445:22454   */\n      dup4\n        /* \"#utility.yul\":22441:22459   */\n      add\n        /* \"#utility.yul\":22434:22482   */\n      mstore\n        /* \"#utility.yul\":22499:22577   */\n      tag_413\n        /* \"#utility.yul\":22572:22576   */\n      dup2\n        /* \"#utility.yul\":22563:22569   */\n      dup6\n        /* \"#utility.yul\":22499:22577   */\n      tag_161\n      jump\t// in\n    tag_413:\n        /* \"#utility.yul\":22491:22577   */\n      swap1\n      pop\n        /* \"#utility.yul\":22587:22659   */\n      tag_414\n        /* \"#utility.yul\":22655:22657   */\n      0x60\n        /* \"#utility.yul\":22644:22653   */\n      dup4\n        /* \"#utility.yul\":22640:22658   */\n      add\n        /* \"#utility.yul\":22631:22637   */\n      dup5\n        /* \"#utility.yul\":22587:22659   */\n      tag_159\n      jump\t// in\n    tag_414:\n        /* \"#utility.yul\":22022:22666   */\n      swap6\n      swap5\n      pop\n      pop\n      pop\n      pop\n      pop\n      jump\t// out\n        /* \"#utility.yul\":22672:22863   */\n    tag_113:\n        /* \"#utility.yul\":22712:22715   */\n      0x00\n        /* \"#utility.yul\":22731:22751   */\n      tag_416\n        /* \"#utility.yul\":22749:22750   */\n      dup3\n        /* \"#utility.yul\":22731:22751   */\n      tag_130\n      jump\t// in\n    tag_416:\n        /* \"#utility.yul\":22726:22751   */\n      swap2\n      pop\n        /* \"#utility.yul\":22765:22785   */\n      tag_417\n        /* \"#utility.yul\":22783:22784   */\n      dup4\n        /* \"#utility.yul\":22765:22785   */\n      tag_130\n      jump\t// in\n    tag_417:\n        /* \"#utility.yul\":22760:22785   */\n      swap3\n      pop\n        /* \"#utility.yul\":22808:22809   */\n      dup3\n        /* \"#utility.yul\":22805:22806   */\n      dup3\n        /* \"#utility.yul\":22801:22810   */\n      add\n        /* \"#utility.yul\":22794:22810   */\n      swap1\n      pop\n        /* \"#utility.yul\":22829:22832   */\n      dup1\n        /* \"#utility.yul\":22826:22827   */\n      dup3\n        /* \"#utility.yul\":22823:22833   */\n      gt\n        /* \"#utility.yul\":22820:22856   */\n      iszero\n      tag_418\n      jumpi\n        /* \"#utility.yul\":22836:22854   */\n      tag_419\n      tag_166\n      jump\t// in\n    tag_419:\n        /* \"#utility.yul\":22820:22856   */\n    tag_418:\n        /* \"#utility.yul\":22672:22863   */\n      swap3\n      swap2\n      pop\n      pop\n      jump\t// out\n\n    auxdata: 0xa264697066735822122089bec8da988df91415287d841f60f85325bdf032a208ee109ddfc6ef288fd3b164736f6c63430008160033\n}\n",
				"bytecode": {
					"linkReferences": {},
					"object": "60806040526101185f806101000a81548161ffff021916908361ffff16021790555034801561002c575f80fd5b503360025f6101000a81548173ffffffffffffffffffffffffffffffffffffffff021916908373ffffffffffffffffffffffffffffffffffffffff1602179055506117388061007a5f395ff3fe608060405234801561000f575f80fd5b506004361061007b575f3560e01c8063633782161161005957806363378216146100d55780637c9cd2bc146100f1578063820785cc1461010d578063c3ad5ecb1461013d5761007b565b80633d9b569f1461007f578063532561351461009b57806358bfa4ab146100b9575b5f80fd5b61009960048036038101906100949190610c13565b61016d565b005b6100a36103be565b6040516100b09190610e27565b60405180910390f35b6100d360048036038101906100ce9190610e7e565b610557565b005b6100ef60048036038101906100ea9190610c13565b610604565b005b61010b60048036038101906101069190610fd5565b6107b5565b005b6101276004803603810190610122919061101c565b6109b8565b6040516101349190611056565b60405180910390f35b6101576004803603810190610152919061106f565b610a87565b60405161016491906110e2565b60405180910390f35b8060015f8473ffffffffffffffffffffffffffffffffffffffff1673ffffffffffffffffffffffffffffffffffffffff1681526020019081526020015f2082815481106101bd576101bc611102565b5b905f5260205f2090600502015f01541461020c576040517f08c379a000000000000000000000000000000000000000000000000000000000815260040161020390611179565b60405180910390fd5b5f60015f8473ffffffffffffffffffffffffffffffffffffffff1673ffffffffffffffffffffffffffffffffffffffff1681526020019081526020015f20828154811061025c5761025b611102565b5b905f5260205f20906005020160040154116102ac576040517f08c379a00000000000000000000000000000000000000000000000000000000081526004016102a3906111e1565b60405180910390fd5b60015f8373ffffffffffffffffffffffffffffffffffffffff1673ffffffffffffffffffffffffffffffffffffffff1681526020019081526020015f2081815481106102fb576102fa611102565b5b905f5260205f2090600502016004015f81548092919061031a9061122c565b91905055507f762c2616349603ac16eba0de8e6141b79129a07ab63bd99e0a80b3a47171694333838360015f8773ffffffffffffffffffffffffffffffffffffffff1673ffffffffffffffffffffffffffffffffffffffff1681526020019081526020015f20858154811061039257610391611102565b5b905f5260205f209060050201600401546040516103b29493929190611262565b60405180910390a15050565b606060015f3373ffffffffffffffffffffffffffffffffffffffff1673ffffffffffffffffffffffffffffffffffffffff1681526020019081526020015f20805480602002602001604051908101604052809291908181526020015f905b8282101561054e578382905f5260205f2090600502016040518060a00160405290815f8201548152602001600182015f9054906101000a900473ffffffffffffffffffffffffffffffffffffffff1673ffffffffffffffffffffffffffffffffffffffff1673ffffffffffffffffffffffffffffffffffffffff1681526020016002820180546104ab906112d2565b80601f01602080910402602001604051908101604052809291908181526020018280546104d7906112d2565b80156105225780601f106104f957610100808354040283529160200191610522565b820191905f5260205f20905b81548152906001019060200180831161050557829003601f168201915b50505050508152602001600382015481526020016004820154815250508152602001906001019061041c565b50505050905090565b60025f9054906101000a900473ffffffffffffffffffffffffffffffffffffffff1673ffffffffffffffffffffffffffffffffffffffff163373ffffffffffffffffffffffffffffffffffffffff16146105e6576040517f08c379a00000000000000000000000000000000000000000000000000000000081526004016105dd9061134c565b60405180910390fd5b805f806101000a81548161ffff021916908361ffff16021790555050565b8060015f8473ffffffffffffffffffffffffffffffffffffffff1673ffffffffffffffffffffffffffffffffffffffff1681526020019081526020015f20828154811061065457610653611102565b5b905f5260205f2090600502015f0154146106a3576040517f08c379a000000000000000000000000000000000000000000000000000000000815260040161069a90611179565b60405180910390fd5b60015f8373ffffffffffffffffffffffffffffffffffffffff1673ffffffffffffffffffffffffffffffffffffffff1681526020019081526020015f2081815481106106f2576106f1611102565b5b905f5260205f2090600502016004015f8154809291906107119061136a565b91905055507fe8a76fc0f16d11a00d1e93b689b63d76cf60af914dd3d915375dc41d01a0c3c833838360015f8773ffffffffffffffffffffffffffffffffffffffff1673ffffffffffffffffffffffffffffffffffffffff1681526020019081526020015f20858154811061078957610788611102565b5b905f5260205f209060050201600401546040516107a99493929190611262565b60405180910390a15050565b5f8054906101000a900461ffff1661ffff168151111561080a576040517f08c379a0000000000000000000000000000000000000000000000000000000008152600401610801906113fb565b60405180910390fd5b5f6040518060a0016040528060015f3373ffffffffffffffffffffffffffffffffffffffff1673ffffffffffffffffffffffffffffffffffffffff1681526020019081526020015f208054905081526020013373ffffffffffffffffffffffffffffffffffffffff1681526020018381526020014281526020015f815250905060015f3373ffffffffffffffffffffffffffffffffffffffff1673ffffffffffffffffffffffffffffffffffffffff1681526020019081526020015f2081908060018154018082558091505060019003905f5260205f2090600502015f909190919091505f820151815f01556020820151816001015f6101000a81548173ffffffffffffffffffffffffffffffffffffffff021916908373ffffffffffffffffffffffffffffffffffffffff160217905550604082015181600201908161095191906115b6565b50606082015181600301556080820151816004015550507f16fd3c13e9d46923e0a8bce11c7b473ec508a72e6c96cd2404b29ce972afc29e815f01518260200151836040015184606001516040516109ac9493929190611685565b60405180910390a15050565b5f805f5b60015f8573ffffffffffffffffffffffffffffffffffffffff1673ffffffffffffffffffffffffffffffffffffffff1681526020019081526020015f2080549050811015610a7d5760015f8573ffffffffffffffffffffffffffffffffffffffff1673ffffffffffffffffffffffffffffffffffffffff1681526020019081526020015f208181548110610a5357610a52611102565b5b905f5260205f2090600502016004015482610a6e91906116cf565b915080806001019150506109bc565b5080915050919050565b606060015f3373ffffffffffffffffffffffffffffffffffffffff1673ffffffffffffffffffffffffffffffffffffffff1681526020019081526020015f208281548110610ad857610ad7611102565b5b905f5260205f2090600502016002018054610af2906112d2565b80601f0160208091040260200160405190810160405280929190818152602001828054610b1e906112d2565b8015610b695780601f10610b4057610100808354040283529160200191610b69565b820191905f5260205f20905b815481529060010190602001808311610b4c57829003601f168201915b50505050509050919050565b5f604051905090565b5f80fd5b5f80fd5b5f73ffffffffffffffffffffffffffffffffffffffff82169050919050565b5f610baf82610b86565b9050919050565b610bbf81610ba5565b8114610bc9575f80fd5b50565b5f81359050610bda81610bb6565b92915050565b5f819050919050565b610bf281610be0565b8114610bfc575f80fd5b50565b5f81359050610c0d81610be9565b92915050565b5f8060408385031215610c2957610c28610b7e565b5b5f610c3685828601610bcc565b9250506020610c4785828601610bff565b9150509250929050565b5f81519050919050565b5f82825260208201905092915050565b5f819050602082019050919050565b610c8381610be0565b82525050565b610c9281610ba5565b82525050565b5f81519050919050565b5f82825260208201905092915050565b5f5b83811015610ccf578082015181840152602081019050610cb4565b5f8484015250505050565b5f601f19601f8301169050919050565b5f610cf482610c98565b610cfe8185610ca2565b9350610d0e818560208601610cb2565b610d1781610cda565b840191505092915050565b5f60a083015f830151610d375f860182610c7a565b506020830151610d4a6020860182610c89565b5060408301518482036040860152610d628282610cea565b9150506060830151610d776060860182610c7a565b506080830151610d8a6080860182610c7a565b508091505092915050565b5f610da08383610d22565b905092915050565b5f602082019050919050565b5f610dbe82610c51565b610dc88185610c5b565b935083602082028501610dda85610c6b565b805f5b85811015610e155784840389528151610df68582610d95565b9450610e0183610da8565b925060208a01995050600181019050610ddd565b50829750879550505050505092915050565b5f6020820190508181035f830152610e3f8184610db4565b905092915050565b5f61ffff82169050919050565b610e5d81610e47565b8114610e67575f80fd5b50565b5f81359050610e7881610e54565b92915050565b5f60208284031215610e9357610e92610b7e565b5b5f610ea084828501610e6a565b91505092915050565b5f80fd5b5f80fd5b7f4e487b71000000000000000000000000000000000000000000000000000000005f52604160045260245ffd5b610ee782610cda565b810181811067ffffffffffffffff82111715610f0657610f05610eb1565b5b80604052505050565b5f610f18610b75565b9050610f248282610ede565b919050565b5f67ffffffffffffffff821115610f4357610f42610eb1565b5b610f4c82610cda565b9050602081019050919050565b828183375f83830152505050565b5f610f79610f7484610f29565b610f0f565b905082815260208101848484011115610f9557610f94610ead565b5b610fa0848285610f59565b509392505050565b5f82601f830112610fbc57610fbb610ea9565b5b8135610fcc848260208601610f67565b91505092915050565b5f60208284031215610fea57610fe9610b7e565b5b5f82013567ffffffffffffffff81111561100757611006610b82565b5b61101384828501610fa8565b91505092915050565b5f6020828403121561103157611030610b7e565b5b5f61103e84828501610bcc565b91505092915050565b61105081610be0565b82525050565b5f6020820190506110695f830184611047565b92915050565b5f6020828403121561108457611083610b7e565b5b5f61109184828501610bff565b91505092915050565b5f82825260208201905092915050565b5f6110b482610c98565b6110be818561109a565b93506110ce818560208601610cb2565b6110d781610cda565b840191505092915050565b5f6020820190508181035f8301526110fa81846110aa565b905092915050565b7f4e487b71000000000000000000000000000000000000000000000000000000005f52603260045260245ffd5b7f547765657420646f6573206e6f742065786973740000000000000000000000005f82015250565b5f61116360148361109a565b915061116e8261112f565b602082019050919050565b5f6020820190508181035f83015261119081611157565b9050919050565b7f547765657420646f65736e2774206861766520616e79206c696b6573000000005f82015250565b5f6111cb601c8361109a565b91506111d682611197565b602082019050919050565b5f6020820190508181035f8301526111f8816111bf565b9050919050565b7f4e487b71000000000000000000000000000000000000000000000000000000005f52601160045260245ffd5b5f61123682610be0565b91505f8203611248576112476111ff565b5b600182039050919050565b61125c81610ba5565b82525050565b5f6080820190506112755f830187611253565b6112826020830186611253565b61128f6040830185611047565b61129c6060830184611047565b95945050505050565b7f4e487b71000000000000000000000000000000000000000000000000000000005f52602260045260245ffd5b5f60028204905060018216806112e957607f821691505b6020821081036112fc576112fb6112a5565b5b50919050565b7f596f7520617265206e6f7420746865206f776e657221000000000000000000005f82015250565b5f61133660168361109a565b915061134182611302565b602082019050919050565b5f6020820190508181035f8301526113638161132a565b9050919050565b5f61137482610be0565b91507fffffffffffffffffffffffffffffffffffffffffffffffffffffffffffffffff82036113a6576113a56111ff565b5b600182019050919050565b7f547765657420697320746f6f206c6f6e672e00000000000000000000000000005f82015250565b5f6113e560128361109a565b91506113f0826113b1565b602082019050919050565b5f6020820190508181035f830152611412816113d9565b9050919050565b5f819050815f5260205f209050919050565b5f6020601f8301049050919050565b5f82821b905092915050565b5f600883026114757fffffffffffffffffffffffffffffffffffffffffffffffffffffffffffffffff8261143a565b61147f868361143a565b95508019841693508086168417925050509392505050565b5f819050919050565b5f6114ba6114b56114b084610be0565b611497565b610be0565b9050919050565b5f819050919050565b6114d3836114a0565b6114e76114df826114c1565b848454611446565b825550505050565b5f90565b6114fb6114ef565b6115068184846114ca565b505050565b5b818110156115295761151e5f826114f3565b60018101905061150c565b5050565b601f82111561156e5761153f81611419565b6115488461142b565b81016020851015611557578190505b61156b6115638561142b565b83018261150b565b50505b505050565b5f82821c905092915050565b5f61158e5f1984600802611573565b1980831691505092915050565b5f6115a6838361157f565b9150826002028217905092915050565b6115bf82610c98565b67ffffffffffffffff8111156115d8576115d7610eb1565b5b6115e282546112d2565b6115ed82828561152d565b5f60209050601f83116001811461161e575f841561160c578287015190505b611616858261159b565b86555061167d565b601f19841661162c86611419565b5f5b828110156116535784890151825560018201915060208501945060208101905061162e565b86831015611670578489015161166c601f89168261157f565b8355505b6001600288020188555050505b505050505050565b5f6080820190506116985f830187611047565b6116a56020830186611253565b81810360408301526116b781856110aa565b90506116c66060830184611047565b95945050505050565b5f6116d982610be0565b91506116e483610be0565b92508282019050808211156116fc576116fb6111ff565b5b9291505056fea264697066735822122089bec8da988df91415287d841f60f85325bdf032a208ee109ddfc6ef288fd3b164736f6c63430008160033",
					"opcodes": "PUSH1 0x80 PUSH1 0x40 MSTORE PUSH2 0x118 PUSH0 DUP1 PUSH2 0x100 EXP DUP2 SLOAD DUP2 PUSH2 0xFFFF MUL NOT AND SWAP1 DUP4 PUSH2 0xFFFF AND MUL OR SWAP1 SSTORE POP CALLVALUE DUP1 ISZERO PUSH2 0x2C JUMPI PUSH0 DUP1 REVERT JUMPDEST POP CALLER PUSH1 0x2 PUSH0 PUSH2 0x100 EXP DUP2 SLOAD DUP2 PUSH20 0xFFFFFFFFFFFFFFFFFFFFFFFFFFFFFFFFFFFFFFFF MUL NOT AND SWAP1 DUP4 PUSH20 0xFFFFFFFFFFFFFFFFFFFFFFFFFFFFFFFFFFFFFFFF AND MUL OR SWAP1 SSTORE POP PUSH2 0x1738 DUP1 PUSH2 0x7A PUSH0 CODECOPY PUSH0 RETURN INVALID PUSH1 0x80 PUSH1 0x40 MSTORE CALLVALUE DUP1 ISZERO PUSH2 0xF JUMPI PUSH0 DUP1 REVERT JUMPDEST POP PUSH1 0x4 CALLDATASIZE LT PUSH2 0x7B JUMPI PUSH0 CALLDATALOAD PUSH1 0xE0 SHR DUP1 PUSH4 0x63378216 GT PUSH2 0x59 JUMPI DUP1 PUSH4 0x63378216 EQ PUSH2 0xD5 JUMPI DUP1 PUSH4 0x7C9CD2BC EQ PUSH2 0xF1 JUMPI DUP1 PUSH4 0x820785CC EQ PUSH2 0x10D JUMPI DUP1 PUSH4 0xC3AD5ECB EQ PUSH2 0x13D JUMPI PUSH2 0x7B JUMP JUMPDEST DUP1 PUSH4 0x3D9B569F EQ PUSH2 0x7F JUMPI DUP1 PUSH4 0x53256135 EQ PUSH2 0x9B JUMPI DUP1 PUSH4 0x58BFA4AB EQ PUSH2 0xB9 JUMPI JUMPDEST PUSH0 DUP1 REVERT JUMPDEST PUSH2 0x99 PUSH1 0x4 DUP1 CALLDATASIZE SUB DUP2 ADD SWAP1 PUSH2 0x94 SWAP2 SWAP1 PUSH2 0xC13 JUMP JUMPDEST PUSH2 0x16D JUMP JUMPDEST STOP JUMPDEST PUSH2 0xA3 PUSH2 0x3BE JUMP JUMPDEST PUSH1 0x40 MLOAD PUSH2 0xB0 SWAP2 SWAP1 PUSH2 0xE27 JUMP JUMPDEST PUSH1 0x40 MLOAD DUP1 SWAP2 SUB SWAP1 RETURN JUMPDEST PUSH2 0xD3 PUSH1 0x4 DUP1 CALLDATASIZE SUB DUP2 ADD SWAP1 PUSH2 0xCE SWAP2 SWAP1 PUSH2 0xE7E JUMP JUMPDEST PUSH2 0x557 JUMP JUMPDEST STOP JUMPDEST PUSH2 0xEF PUSH1 0x4 DUP1 CALLDATASIZE SUB DUP2 ADD SWAP1 PUSH2 0xEA SWAP2 SWAP1 PUSH2 0xC13 JUMP JUMPDEST PUSH2 0x604 JUMP JUMPDEST STOP JUMPDEST PUSH2 0x10B PUSH1 0x4 DUP1 CALLDATASIZE SUB DUP2 ADD SWAP1 PUSH2 0x106 SWAP2 SWAP1 PUSH2 0xFD5 JUMP JUMPDEST PUSH2 0x7B5 JUMP JUMPDEST STOP JUMPDEST PUSH2 0x127 PUSH1 0x4 DUP1 CALLDATASIZE SUB DUP2 ADD SWAP1 PUSH2 0x122 SWAP2 SWAP1 PUSH2 0x101C JUMP JUMPDEST PUSH2 0x9B8 JUMP JUMPDEST PUSH1 0x40 MLOAD PUSH2 0x134 SWAP2 SWAP1 PUSH2 0x1056 JUMP JUMPDEST PUSH1 0x40 MLOAD DUP1 SWAP2 SUB SWAP1 RETURN JUMPDEST PUSH2 0x157 PUSH1 0x4 DUP1 CALLDATASIZE SUB DUP2 ADD SWAP1 PUSH2 0x152 SWAP2 SWAP1 PUSH2 0x106F JUMP JUMPDEST PUSH2 0xA87 JUMP JUMPDEST PUSH1 0x40 MLOAD PUSH2 0x164 SWAP2 SWAP1 PUSH2 0x10E2 JUMP JUMPDEST PUSH1 0x40 MLOAD DUP1 SWAP2 SUB SWAP1 RETURN JUMPDEST DUP1 PUSH1 0x1 PUSH0 DUP5 PUSH20 0xFFFFFFFFFFFFFFFFFFFFFFFFFFFFFFFFFFFFFFFF AND PUSH20 0xFFFFFFFFFFFFFFFFFFFFFFFFFFFFFFFFFFFFFFFF AND DUP2 MSTORE PUSH1 0x20 ADD SWAP1 DUP2 MSTORE PUSH1 0x20 ADD PUSH0 KECCAK256 DUP3 DUP2 SLOAD DUP2 LT PUSH2 0x1BD JUMPI PUSH2 0x1BC PUSH2 0x1102 JUMP JUMPDEST JUMPDEST SWAP1 PUSH0 MSTORE PUSH1 0x20 PUSH0 KECCAK256 SWAP1 PUSH1 0x5 MUL ADD PUSH0 ADD SLOAD EQ PUSH2 0x20C JUMPI PUSH1 0x40 MLOAD PUSH32 0x8C379A000000000000000000000000000000000000000000000000000000000 DUP2 MSTORE PUSH1 0x4 ADD PUSH2 0x203 SWAP1 PUSH2 0x1179 JUMP JUMPDEST PUSH1 0x40 MLOAD DUP1 SWAP2 SUB SWAP1 REVERT JUMPDEST PUSH0 PUSH1 0x1 PUSH0 DUP5 PUSH20 0xFFFFFFFFFFFFFFFFFFFFFFFFFFFFFFFFFFFFFFFF AND PUSH20 0xFFFFFFFFFFFFFFFFFFFFFFFFFFFFFFFFFFFFFFFF AND DUP2 MSTORE PUSH1 0x20 ADD SWAP1 DUP2 MSTORE PUSH1 0x20 ADD PUSH0 KECCAK256 DUP3 DUP2 SLOAD DUP2 LT PUSH2 0x25C JUMPI PUSH2 0x25B PUSH2 0x1102 JUMP JUMPDEST JUMPDEST SWAP1 PUSH0 MSTORE PUSH1 0x20 PUSH0 KECCAK256 SWAP1 PUSH1 0x5 MUL ADD PUSH1 0x4 ADD SLOAD GT PUSH2 0x2AC JUMPI PUSH1 0x40 MLOAD PUSH32 0x8C379A000000000000000000000000000000000000000000000000000000000 DUP2 MSTORE PUSH1 0x4 ADD PUSH2 0x2A3 SWAP1 PUSH2 0x11E1 JUMP JUMPDEST PUSH1 0x40 MLOAD DUP1 SWAP2 SUB SWAP1 REVERT JUMPDEST PUSH1 0x1 PUSH0 DUP4 PUSH20 0xFFFFFFFFFFFFFFFFFFFFFFFFFFFFFFFFFFFFFFFF AND PUSH20 0xFFFFFFFFFFFFFFFFFFFFFFFFFFFFFFFFFFFFFFFF AND DUP2 MSTORE PUSH1 0x20 ADD SWAP1 DUP2 MSTORE PUSH1 0x20 ADD PUSH0 KECCAK256 DUP2 DUP2 SLOAD DUP2 LT PUSH2 0x2FB JUMPI PUSH2 0x2FA PUSH2 0x1102 JUMP JUMPDEST JUMPDEST SWAP1 PUSH0 MSTORE PUSH1 0x20 PUSH0 KECCAK256 SWAP1 PUSH1 0x5 MUL ADD PUSH1 0x4 ADD PUSH0 DUP2 SLOAD DUP1 SWAP3 SWAP2 SWAP1 PUSH2 0x31A SWAP1 PUSH2 0x122C JUMP JUMPDEST SWAP2 SWAP1 POP SSTORE POP PUSH32 0x762C2616349603AC16EBA0DE8E6141B79129A07AB63BD99E0A80B3A471716943 CALLER DUP4 DUP4 PUSH1 0x1 PUSH0 DUP8 PUSH20 0xFFFFFFFFFFFFFFFFFFFFFFFFFFFFFFFFFFFFFFFF AND PUSH20 0xFFFFFFFFFFFFFFFFFFFFFFFFFFFFFFFFFFFFFFFF AND DUP2 MSTORE PUSH1 0x20 ADD SWAP1 DUP2 MSTORE PUSH1 0x20 ADD PUSH0 KECCAK256 DUP6 DUP2 SLOAD DUP2 LT PUSH2 0x392 JUMPI PUSH2 0x391 PUSH2 0x1102 JUMP JUMPDEST JUMPDEST SWAP1 PUSH0 MSTORE PUSH1 0x20 PUSH0 KECCAK256 SWAP1 PUSH1 0x5 MUL ADD PUSH1 0x4 ADD SLOAD PUSH1 0x40 MLOAD PUSH2 0x3B2 SWAP5 SWAP4 SWAP3 SWAP2 SWAP1 PUSH2 0x1262 JUMP JUMPDEST PUSH1 0x40 MLOAD DUP1 SWAP2 SUB SWAP1 LOG1 POP POP JUMP JUMPDEST PUSH1 0x60 PUSH1 0x1 PUSH0 CALLER PUSH20 0xFFFFFFFFFFFFFFFFFFFFFFFFFFFFFFFFFFFFFFFF AND PUSH20 0xFFFFFFFFFFFFFFFFFFFFFFFFFFFFFFFFFFFFFFFF AND DUP2 MSTORE PUSH1 0x20 ADD SWAP1 DUP2 MSTORE PUSH1 0x20 ADD PUSH0 KECCAK256 DUP1 SLOAD DUP1 PUSH1 0x20 MUL PUSH1 0x20 ADD PUSH1 0x40 MLOAD SWAP1 DUP2 ADD PUSH1 0x40 MSTORE DUP1 SWAP3 SWAP2 SWAP1 DUP2 DUP2 MSTORE PUSH1 0x20 ADD PUSH0 SWAP1 JUMPDEST DUP3 DUP3 LT ISZERO PUSH2 0x54E JUMPI DUP4 DUP3 SWAP1 PUSH0 MSTORE PUSH1 0x20 PUSH0 KECCAK256 SWAP1 PUSH1 0x5 MUL ADD PUSH1 0x40 MLOAD DUP1 PUSH1 0xA0 ADD PUSH1 0x40 MSTORE SWAP1 DUP2 PUSH0 DUP3 ADD SLOAD DUP2 MSTORE PUSH1 0x20 ADD PUSH1 0x1 DUP3 ADD PUSH0 SWAP1 SLOAD SWAP1 PUSH2 0x100 EXP SWAP1 DIV PUSH20 0xFFFFFFFFFFFFFFFFFFFFFFFFFFFFFFFFFFFFFFFF AND PUSH20 0xFFFFFFFFFFFFFFFFFFFFFFFFFFFFFFFFFFFFFFFF AND PUSH20 0xFFFFFFFFFFFFFFFFFFFFFFFFFFFFFFFFFFFFFFFF AND DUP2 MSTORE PUSH1 0x20 ADD PUSH1 0x2 DUP3 ADD DUP1 SLOAD PUSH2 0x4AB SWAP1 PUSH2 0x12D2 JUMP JUMPDEST DUP1 PUSH1 0x1F ADD PUSH1 0x20 DUP1 SWAP2 DIV MUL PUSH1 0x20 ADD PUSH1 0x40 MLOAD SWAP1 DUP2 ADD PUSH1 0x40 MSTORE DUP1 SWAP3 SWAP2 SWAP1 DUP2 DUP2 MSTORE PUSH1 0x20 ADD DUP3 DUP1 SLOAD PUSH2 0x4D7 SWAP1 PUSH2 0x12D2 JUMP JUMPDEST DUP1 ISZERO PUSH2 0x522 JUMPI DUP1 PUSH1 0x1F LT PUSH2 0x4F9 JUMPI PUSH2 0x100 DUP1 DUP4 SLOAD DIV MUL DUP4 MSTORE SWAP2 PUSH1 0x20 ADD SWAP2 PUSH2 0x522 JUMP JUMPDEST DUP3 ADD SWAP2 SWAP1 PUSH0 MSTORE PUSH1 0x20 PUSH0 KECCAK256 SWAP1 JUMPDEST DUP2 SLOAD DUP2 MSTORE SWAP1 PUSH1 0x1 ADD SWAP1 PUSH1 0x20 ADD DUP1 DUP4 GT PUSH2 0x505 JUMPI DUP3 SWAP1 SUB PUSH1 0x1F AND DUP3 ADD SWAP2 JUMPDEST POP POP POP POP POP DUP2 MSTORE PUSH1 0x20 ADD PUSH1 0x3 DUP3 ADD SLOAD DUP2 MSTORE PUSH1 0x20 ADD PUSH1 0x4 DUP3 ADD SLOAD DUP2 MSTORE POP POP DUP2 MSTORE PUSH1 0x20 ADD SWAP1 PUSH1 0x1 ADD SWAP1 PUSH2 0x41C JUMP JUMPDEST POP POP POP POP SWAP1 POP SWAP1 JUMP JUMPDEST PUSH1 0x2 PUSH0 SWAP1 SLOAD SWAP1 PUSH2 0x100 EXP SWAP1 DIV PUSH20 0xFFFFFFFFFFFFFFFFFFFFFFFFFFFFFFFFFFFFFFFF AND PUSH20 0xFFFFFFFFFFFFFFFFFFFFFFFFFFFFFFFFFFFFFFFF AND CALLER PUSH20 0xFFFFFFFFFFFFFFFFFFFFFFFFFFFFFFFFFFFFFFFF AND EQ PUSH2 0x5E6 JUMPI PUSH1 0x40 MLOAD PUSH32 0x8C379A000000000000000000000000000000000000000000000000000000000 DUP2 MSTORE PUSH1 0x4 ADD PUSH2 0x5DD SWAP1 PUSH2 0x134C JUMP JUMPDEST PUSH1 0x40 MLOAD DUP1 SWAP2 SUB SWAP1 REVERT JUMPDEST DUP1 PUSH0 DUP1 PUSH2 0x100 EXP DUP2 SLOAD DUP2 PUSH2 0xFFFF MUL NOT AND SWAP1 DUP4 PUSH2 0xFFFF AND MUL OR SWAP1 SSTORE POP POP JUMP JUMPDEST DUP1 PUSH1 0x1 PUSH0 DUP5 PUSH20 0xFFFFFFFFFFFFFFFFFFFFFFFFFFFFFFFFFFFFFFFF AND PUSH20 0xFFFFFFFFFFFFFFFFFFFFFFFFFFFFFFFFFFFFFFFF AND DUP2 MSTORE PUSH1 0x20 ADD SWAP1 DUP2 MSTORE PUSH1 0x20 ADD PUSH0 KECCAK256 DUP3 DUP2 SLOAD DUP2 LT PUSH2 0x654 JUMPI PUSH2 0x653 PUSH2 0x1102 JUMP JUMPDEST JUMPDEST SWAP1 PUSH0 MSTORE PUSH1 0x20 PUSH0 KECCAK256 SWAP1 PUSH1 0x5 MUL ADD PUSH0 ADD SLOAD EQ PUSH2 0x6A3 JUMPI PUSH1 0x40 MLOAD PUSH32 0x8C379A000000000000000000000000000000000000000000000000000000000 DUP2 MSTORE PUSH1 0x4 ADD PUSH2 0x69A SWAP1 PUSH2 0x1179 JUMP JUMPDEST PUSH1 0x40 MLOAD DUP1 SWAP2 SUB SWAP1 REVERT JUMPDEST PUSH1 0x1 PUSH0 DUP4 PUSH20 0xFFFFFFFFFFFFFFFFFFFFFFFFFFFFFFFFFFFFFFFF AND PUSH20 0xFFFFFFFFFFFFFFFFFFFFFFFFFFFFFFFFFFFFFFFF AND DUP2 MSTORE PUSH1 0x20 ADD SWAP1 DUP2 MSTORE PUSH1 0x20 ADD PUSH0 KECCAK256 DUP2 DUP2 SLOAD DUP2 LT PUSH2 0x6F2 JUMPI PUSH2 0x6F1 PUSH2 0x1102 JUMP JUMPDEST JUMPDEST SWAP1 PUSH0 MSTORE PUSH1 0x20 PUSH0 KECCAK256 SWAP1 PUSH1 0x5 MUL ADD PUSH1 0x4 ADD PUSH0 DUP2 SLOAD DUP1 SWAP3 SWAP2 SWAP1 PUSH2 0x711 SWAP1 PUSH2 0x136A JUMP JUMPDEST SWAP2 SWAP1 POP SSTORE POP PUSH32 0xE8A76FC0F16D11A00D1E93B689B63D76CF60AF914DD3D915375DC41D01A0C3C8 CALLER DUP4 DUP4 PUSH1 0x1 PUSH0 DUP8 PUSH20 0xFFFFFFFFFFFFFFFFFFFFFFFFFFFFFFFFFFFFFFFF AND PUSH20 0xFFFFFFFFFFFFFFFFFFFFFFFFFFFFFFFFFFFFFFFF AND DUP2 MSTORE PUSH1 0x20 ADD SWAP1 DUP2 MSTORE PUSH1 0x20 ADD PUSH0 KECCAK256 DUP6 DUP2 SLOAD DUP2 LT PUSH2 0x789 JUMPI PUSH2 0x788 PUSH2 0x1102 JUMP JUMPDEST JUMPDEST SWAP1 PUSH0 MSTORE PUSH1 0x20 PUSH0 KECCAK256 SWAP1 PUSH1 0x5 MUL ADD PUSH1 0x4 ADD SLOAD PUSH1 0x40 MLOAD PUSH2 0x7A9 SWAP5 SWAP4 SWAP3 SWAP2 SWAP1 PUSH2 0x1262 JUMP JUMPDEST PUSH1 0x40 MLOAD DUP1 SWAP2 SUB SWAP1 LOG1 POP POP JUMP JUMPDEST PUSH0 DUP1 SLOAD SWAP1 PUSH2 0x100 EXP SWAP1 DIV PUSH2 0xFFFF AND PUSH2 0xFFFF AND DUP2 MLOAD GT ISZERO PUSH2 0x80A JUMPI PUSH1 0x40 MLOAD PUSH32 0x8C379A000000000000000000000000000000000000000000000000000000000 DUP2 MSTORE PUSH1 0x4 ADD PUSH2 0x801 SWAP1 PUSH2 0x13FB JUMP JUMPDEST PUSH1 0x40 MLOAD DUP1 SWAP2 SUB SWAP1 REVERT JUMPDEST PUSH0 PUSH1 0x40 MLOAD DUP1 PUSH1 0xA0 ADD PUSH1 0x40 MSTORE DUP1 PUSH1 0x1 PUSH0 CALLER PUSH20 0xFFFFFFFFFFFFFFFFFFFFFFFFFFFFFFFFFFFFFFFF AND PUSH20 0xFFFFFFFFFFFFFFFFFFFFFFFFFFFFFFFFFFFFFFFF AND DUP2 MSTORE PUSH1 0x20 ADD SWAP1 DUP2 MSTORE PUSH1 0x20 ADD PUSH0 KECCAK256 DUP1 SLOAD SWAP1 POP DUP2 MSTORE PUSH1 0x20 ADD CALLER PUSH20 0xFFFFFFFFFFFFFFFFFFFFFFFFFFFFFFFFFFFFFFFF AND DUP2 MSTORE PUSH1 0x20 ADD DUP4 DUP2 MSTORE PUSH1 0x20 ADD TIMESTAMP DUP2 MSTORE PUSH1 0x20 ADD PUSH0 DUP2 MSTORE POP SWAP1 POP PUSH1 0x1 PUSH0 CALLER PUSH20 0xFFFFFFFFFFFFFFFFFFFFFFFFFFFFFFFFFFFFFFFF AND PUSH20 0xFFFFFFFFFFFFFFFFFFFFFFFFFFFFFFFFFFFFFFFF AND DUP2 MSTORE PUSH1 0x20 ADD SWAP1 DUP2 MSTORE PUSH1 0x20 ADD PUSH0 KECCAK256 DUP2 SWAP1 DUP1 PUSH1 0x1 DUP2 SLOAD ADD DUP1 DUP3 SSTORE DUP1 SWAP2 POP POP PUSH1 0x1 SWAP1 SUB SWAP1 PUSH0 MSTORE PUSH1 0x20 PUSH0 KECCAK256 SWAP1 PUSH1 0x5 MUL ADD PUSH0 SWAP1 SWAP2 SWAP1 SWAP2 SWAP1 SWAP2 POP PUSH0 DUP3 ADD MLOAD DUP2 PUSH0 ADD SSTORE PUSH1 0x20 DUP3 ADD MLOAD DUP2 PUSH1 0x1 ADD PUSH0 PUSH2 0x100 EXP DUP2 SLOAD DUP2 PUSH20 0xFFFFFFFFFFFFFFFFFFFFFFFFFFFFFFFFFFFFFFFF MUL NOT AND SWAP1 DUP4 PUSH20 0xFFFFFFFFFFFFFFFFFFFFFFFFFFFFFFFFFFFFFFFF AND MUL OR SWAP1 SSTORE POP PUSH1 0x40 DUP3 ADD MLOAD DUP2 PUSH1 0x2 ADD SWAP1 DUP2 PUSH2 0x951 SWAP2 SWAP1 PUSH2 0x15B6 JUMP JUMPDEST POP PUSH1 0x60 DUP3 ADD MLOAD DUP2 PUSH1 0x3 ADD SSTORE PUSH1 0x80 DUP3 ADD MLOAD DUP2 PUSH1 0x4 ADD SSTORE POP POP PUSH32 0x16FD3C13E9D46923E0A8BCE11C7B473EC508A72E6C96CD2404B29CE972AFC29E DUP2 PUSH0 ADD MLOAD DUP3 PUSH1 0x20 ADD MLOAD DUP4 PUSH1 0x40 ADD MLOAD DUP5 PUSH1 0x60 ADD MLOAD PUSH1 0x40 MLOAD PUSH2 0x9AC SWAP5 SWAP4 SWAP3 SWAP2 SWAP1 PUSH2 0x1685 JUMP JUMPDEST PUSH1 0x40 MLOAD DUP1 SWAP2 SUB SWAP1 LOG1 POP POP JUMP JUMPDEST PUSH0 DUP1 PUSH0 JUMPDEST PUSH1 0x1 PUSH0 DUP6 PUSH20 0xFFFFFFFFFFFFFFFFFFFFFFFFFFFFFFFFFFFFFFFF AND PUSH20 0xFFFFFFFFFFFFFFFFFFFFFFFFFFFFFFFFFFFFFFFF AND DUP2 MSTORE PUSH1 0x20 ADD SWAP1 DUP2 MSTORE PUSH1 0x20 ADD PUSH0 KECCAK256 DUP1 SLOAD SWAP1 POP DUP2 LT ISZERO PUSH2 0xA7D JUMPI PUSH1 0x1 PUSH0 DUP6 PUSH20 0xFFFFFFFFFFFFFFFFFFFFFFFFFFFFFFFFFFFFFFFF AND PUSH20 0xFFFFFFFFFFFFFFFFFFFFFFFFFFFFFFFFFFFFFFFF AND DUP2 MSTORE PUSH1 0x20 ADD SWAP1 DUP2 MSTORE PUSH1 0x20 ADD PUSH0 KECCAK256 DUP2 DUP2 SLOAD DUP2 LT PUSH2 0xA53 JUMPI PUSH2 0xA52 PUSH2 0x1102 JUMP JUMPDEST JUMPDEST SWAP1 PUSH0 MSTORE PUSH1 0x20 PUSH0 KECCAK256 SWAP1 PUSH1 0x5 MUL ADD PUSH1 0x4 ADD SLOAD DUP3 PUSH2 0xA6E SWAP2 SWAP1 PUSH2 0x16CF JUMP JUMPDEST SWAP2 POP DUP1 DUP1 PUSH1 0x1 ADD SWAP2 POP POP PUSH2 0x9BC JUMP JUMPDEST POP DUP1 SWAP2 POP POP SWAP2 SWAP1 POP JUMP JUMPDEST PUSH1 0x60 PUSH1 0x1 PUSH0 CALLER PUSH20 0xFFFFFFFFFFFFFFFFFFFFFFFFFFFFFFFFFFFFFFFF AND PUSH20 0xFFFFFFFFFFFFFFFFFFFFFFFFFFFFFFFFFFFFFFFF AND DUP2 MSTORE PUSH1 0x20 ADD SWAP1 DUP2 MSTORE PUSH1 0x20 ADD PUSH0 KECCAK256 DUP3 DUP2 SLOAD DUP2 LT PUSH2 0xAD8 JUMPI PUSH2 0xAD7 PUSH2 0x1102 JUMP JUMPDEST JUMPDEST SWAP1 PUSH0 MSTORE PUSH1 0x20 PUSH0 KECCAK256 SWAP1 PUSH1 0x5 MUL ADD PUSH1 0x2 ADD DUP1 SLOAD PUSH2 0xAF2 SWAP1 PUSH2 0x12D2 JUMP JUMPDEST DUP1 PUSH1 0x1F ADD PUSH1 0x20 DUP1 SWAP2 DIV MUL PUSH1 0x20 ADD PUSH1 0x40 MLOAD SWAP1 DUP2 ADD PUSH1 0x40 MSTORE DUP1 SWAP3 SWAP2 SWAP1 DUP2 DUP2 MSTORE PUSH1 0x20 ADD DUP3 DUP1 SLOAD PUSH2 0xB1E SWAP1 PUSH2 0x12D2 JUMP JUMPDEST DUP1 ISZERO PUSH2 0xB69 JUMPI DUP1 PUSH1 0x1F LT PUSH2 0xB40 JUMPI PUSH2 0x100 DUP1 DUP4 SLOAD DIV MUL DUP4 MSTORE SWAP2 PUSH1 0x20 ADD SWAP2 PUSH2 0xB69 JUMP JUMPDEST DUP3 ADD SWAP2 SWAP1 PUSH0 MSTORE PUSH1 0x20 PUSH0 KECCAK256 SWAP1 JUMPDEST DUP2 SLOAD DUP2 MSTORE SWAP1 PUSH1 0x1 ADD SWAP1 PUSH1 0x20 ADD DUP1 DUP4 GT PUSH2 0xB4C JUMPI DUP3 SWAP1 SUB PUSH1 0x1F AND DUP3 ADD SWAP2 JUMPDEST POP POP POP POP POP SWAP1 POP SWAP2 SWAP1 POP JUMP JUMPDEST PUSH0 PUSH1 0x40 MLOAD SWAP1 POP SWAP1 JUMP JUMPDEST PUSH0 DUP1 REVERT JUMPDEST PUSH0 DUP1 REVERT JUMPDEST PUSH0 PUSH20 0xFFFFFFFFFFFFFFFFFFFFFFFFFFFFFFFFFFFFFFFF DUP3 AND SWAP1 POP SWAP2 SWAP1 POP JUMP JUMPDEST PUSH0 PUSH2 0xBAF DUP3 PUSH2 0xB86 JUMP JUMPDEST SWAP1 POP SWAP2 SWAP1 POP JUMP JUMPDEST PUSH2 0xBBF DUP2 PUSH2 0xBA5 JUMP JUMPDEST DUP2 EQ PUSH2 0xBC9 JUMPI PUSH0 DUP1 REVERT JUMPDEST POP JUMP JUMPDEST PUSH0 DUP2 CALLDATALOAD SWAP1 POP PUSH2 0xBDA DUP2 PUSH2 0xBB6 JUMP JUMPDEST SWAP3 SWAP2 POP POP JUMP JUMPDEST PUSH0 DUP2 SWAP1 POP SWAP2 SWAP1 POP JUMP JUMPDEST PUSH2 0xBF2 DUP2 PUSH2 0xBE0 JUMP JUMPDEST DUP2 EQ PUSH2 0xBFC JUMPI PUSH0 DUP1 REVERT JUMPDEST POP JUMP JUMPDEST PUSH0 DUP2 CALLDATALOAD SWAP1 POP PUSH2 0xC0D DUP2 PUSH2 0xBE9 JUMP JUMPDEST SWAP3 SWAP2 POP POP JUMP JUMPDEST PUSH0 DUP1 PUSH1 0x40 DUP4 DUP6 SUB SLT ISZERO PUSH2 0xC29 JUMPI PUSH2 0xC28 PUSH2 0xB7E JUMP JUMPDEST JUMPDEST PUSH0 PUSH2 0xC36 DUP6 DUP3 DUP7 ADD PUSH2 0xBCC JUMP JUMPDEST SWAP3 POP POP PUSH1 0x20 PUSH2 0xC47 DUP6 DUP3 DUP7 ADD PUSH2 0xBFF JUMP JUMPDEST SWAP2 POP POP SWAP3 POP SWAP3 SWAP1 POP JUMP JUMPDEST PUSH0 DUP2 MLOAD SWAP1 POP SWAP2 SWAP1 POP JUMP JUMPDEST PUSH0 DUP3 DUP3 MSTORE PUSH1 0x20 DUP3 ADD SWAP1 POP SWAP3 SWAP2 POP POP JUMP JUMPDEST PUSH0 DUP2 SWAP1 POP PUSH1 0x20 DUP3 ADD SWAP1 POP SWAP2 SWAP1 POP JUMP JUMPDEST PUSH2 0xC83 DUP2 PUSH2 0xBE0 JUMP JUMPDEST DUP3 MSTORE POP POP JUMP JUMPDEST PUSH2 0xC92 DUP2 PUSH2 0xBA5 JUMP JUMPDEST DUP3 MSTORE POP POP JUMP JUMPDEST PUSH0 DUP2 MLOAD SWAP1 POP SWAP2 SWAP1 POP JUMP JUMPDEST PUSH0 DUP3 DUP3 MSTORE PUSH1 0x20 DUP3 ADD SWAP1 POP SWAP3 SWAP2 POP POP JUMP JUMPDEST PUSH0 JUMPDEST DUP4 DUP2 LT ISZERO PUSH2 0xCCF JUMPI DUP1 DUP3 ADD MLOAD DUP2 DUP5 ADD MSTORE PUSH1 0x20 DUP2 ADD SWAP1 POP PUSH2 0xCB4 JUMP JUMPDEST PUSH0 DUP5 DUP5 ADD MSTORE POP POP POP POP JUMP JUMPDEST PUSH0 PUSH1 0x1F NOT PUSH1 0x1F DUP4 ADD AND SWAP1 POP SWAP2 SWAP1 POP JUMP JUMPDEST PUSH0 PUSH2 0xCF4 DUP3 PUSH2 0xC98 JUMP JUMPDEST PUSH2 0xCFE DUP2 DUP6 PUSH2 0xCA2 JUMP JUMPDEST SWAP4 POP PUSH2 0xD0E DUP2 DUP6 PUSH1 0x20 DUP7 ADD PUSH2 0xCB2 JUMP JUMPDEST PUSH2 0xD17 DUP2 PUSH2 0xCDA JUMP JUMPDEST DUP5 ADD SWAP2 POP POP SWAP3 SWAP2 POP POP JUMP JUMPDEST PUSH0 PUSH1 0xA0 DUP4 ADD PUSH0 DUP4 ADD MLOAD PUSH2 0xD37 PUSH0 DUP7 ADD DUP3 PUSH2 0xC7A JUMP JUMPDEST POP PUSH1 0x20 DUP4 ADD MLOAD PUSH2 0xD4A PUSH1 0x20 DUP7 ADD DUP3 PUSH2 0xC89 JUMP JUMPDEST POP PUSH1 0x40 DUP4 ADD MLOAD DUP5 DUP3 SUB PUSH1 0x40 DUP7 ADD MSTORE PUSH2 0xD62 DUP3 DUP3 PUSH2 0xCEA JUMP JUMPDEST SWAP2 POP POP PUSH1 0x60 DUP4 ADD MLOAD PUSH2 0xD77 PUSH1 0x60 DUP7 ADD DUP3 PUSH2 0xC7A JUMP JUMPDEST POP PUSH1 0x80 DUP4 ADD MLOAD PUSH2 0xD8A PUSH1 0x80 DUP7 ADD DUP3 PUSH2 0xC7A JUMP JUMPDEST POP DUP1 SWAP2 POP POP SWAP3 SWAP2 POP POP JUMP JUMPDEST PUSH0 PUSH2 0xDA0 DUP4 DUP4 PUSH2 0xD22 JUMP JUMPDEST SWAP1 POP SWAP3 SWAP2 POP POP JUMP JUMPDEST PUSH0 PUSH1 0x20 DUP3 ADD SWAP1 POP SWAP2 SWAP1 POP JUMP JUMPDEST PUSH0 PUSH2 0xDBE DUP3 PUSH2 0xC51 JUMP JUMPDEST PUSH2 0xDC8 DUP2 DUP6 PUSH2 0xC5B JUMP JUMPDEST SWAP4 POP DUP4 PUSH1 0x20 DUP3 MUL DUP6 ADD PUSH2 0xDDA DUP6 PUSH2 0xC6B JUMP JUMPDEST DUP1 PUSH0 JUMPDEST DUP6 DUP2 LT ISZERO PUSH2 0xE15 JUMPI DUP5 DUP5 SUB DUP10 MSTORE DUP2 MLOAD PUSH2 0xDF6 DUP6 DUP3 PUSH2 0xD95 JUMP JUMPDEST SWAP5 POP PUSH2 0xE01 DUP4 PUSH2 0xDA8 JUMP JUMPDEST SWAP3 POP PUSH1 0x20 DUP11 ADD SWAP10 POP POP PUSH1 0x1 DUP2 ADD SWAP1 POP PUSH2 0xDDD JUMP JUMPDEST POP DUP3 SWAP8 POP DUP8 SWAP6 POP POP POP POP POP POP SWAP3 SWAP2 POP POP JUMP JUMPDEST PUSH0 PUSH1 0x20 DUP3 ADD SWAP1 POP DUP2 DUP2 SUB PUSH0 DUP4 ADD MSTORE PUSH2 0xE3F DUP2 DUP5 PUSH2 0xDB4 JUMP JUMPDEST SWAP1 POP SWAP3 SWAP2 POP POP JUMP JUMPDEST PUSH0 PUSH2 0xFFFF DUP3 AND SWAP1 POP SWAP2 SWAP1 POP JUMP JUMPDEST PUSH2 0xE5D DUP2 PUSH2 0xE47 JUMP JUMPDEST DUP2 EQ PUSH2 0xE67 JUMPI PUSH0 DUP1 REVERT JUMPDEST POP JUMP JUMPDEST PUSH0 DUP2 CALLDATALOAD SWAP1 POP PUSH2 0xE78 DUP2 PUSH2 0xE54 JUMP JUMPDEST SWAP3 SWAP2 POP POP JUMP JUMPDEST PUSH0 PUSH1 0x20 DUP3 DUP5 SUB SLT ISZERO PUSH2 0xE93 JUMPI PUSH2 0xE92 PUSH2 0xB7E JUMP JUMPDEST JUMPDEST PUSH0 PUSH2 0xEA0 DUP5 DUP3 DUP6 ADD PUSH2 0xE6A JUMP JUMPDEST SWAP2 POP POP SWAP3 SWAP2 POP POP JUMP JUMPDEST PUSH0 DUP1 REVERT JUMPDEST PUSH0 DUP1 REVERT JUMPDEST PUSH32 0x4E487B7100000000000000000000000000000000000000000000000000000000 PUSH0 MSTORE PUSH1 0x41 PUSH1 0x4 MSTORE PUSH1 0x24 PUSH0 REVERT JUMPDEST PUSH2 0xEE7 DUP3 PUSH2 0xCDA JUMP JUMPDEST DUP2 ADD DUP2 DUP2 LT PUSH8 0xFFFFFFFFFFFFFFFF DUP3 GT OR ISZERO PUSH2 0xF06 JUMPI PUSH2 0xF05 PUSH2 0xEB1 JUMP JUMPDEST JUMPDEST DUP1 PUSH1 0x40 MSTORE POP POP POP JUMP JUMPDEST PUSH0 PUSH2 0xF18 PUSH2 0xB75 JUMP JUMPDEST SWAP1 POP PUSH2 0xF24 DUP3 DUP3 PUSH2 0xEDE JUMP JUMPDEST SWAP2 SWAP1 POP JUMP JUMPDEST PUSH0 PUSH8 0xFFFFFFFFFFFFFFFF DUP3 GT ISZERO PUSH2 0xF43 JUMPI PUSH2 0xF42 PUSH2 0xEB1 JUMP JUMPDEST JUMPDEST PUSH2 0xF4C DUP3 PUSH2 0xCDA JUMP JUMPDEST SWAP1 POP PUSH1 0x20 DUP2 ADD SWAP1 POP SWAP2 SWAP1 POP JUMP JUMPDEST DUP3 DUP2 DUP4 CALLDATACOPY PUSH0 DUP4 DUP4 ADD MSTORE POP POP POP JUMP JUMPDEST PUSH0 PUSH2 0xF79 PUSH2 0xF74 DUP5 PUSH2 0xF29 JUMP JUMPDEST PUSH2 0xF0F JUMP JUMPDEST SWAP1 POP DUP3 DUP2 MSTORE PUSH1 0x20 DUP2 ADD DUP5 DUP5 DUP5 ADD GT ISZERO PUSH2 0xF95 JUMPI PUSH2 0xF94 PUSH2 0xEAD JUMP JUMPDEST JUMPDEST PUSH2 0xFA0 DUP5 DUP3 DUP6 PUSH2 0xF59 JUMP JUMPDEST POP SWAP4 SWAP3 POP POP POP JUMP JUMPDEST PUSH0 DUP3 PUSH1 0x1F DUP4 ADD SLT PUSH2 0xFBC JUMPI PUSH2 0xFBB PUSH2 0xEA9 JUMP JUMPDEST JUMPDEST DUP2 CALLDATALOAD PUSH2 0xFCC DUP5 DUP3 PUSH1 0x20 DUP7 ADD PUSH2 0xF67 JUMP JUMPDEST SWAP2 POP POP SWAP3 SWAP2 POP POP JUMP JUMPDEST PUSH0 PUSH1 0x20 DUP3 DUP5 SUB SLT ISZERO PUSH2 0xFEA JUMPI PUSH2 0xFE9 PUSH2 0xB7E JUMP JUMPDEST JUMPDEST PUSH0 DUP3 ADD CALLDATALOAD PUSH8 0xFFFFFFFFFFFFFFFF DUP2 GT ISZERO PUSH2 0x1007 JUMPI PUSH2 0x1006 PUSH2 0xB82 JUMP JUMPDEST JUMPDEST PUSH2 0x1013 DUP5 DUP3 DUP6 ADD PUSH2 0xFA8 JUMP JUMPDEST SWAP2 POP POP SWAP3 SWAP2 POP POP JUMP JUMPDEST PUSH0 PUSH1 0x20 DUP3 DUP5 SUB SLT ISZERO PUSH2 0x1031 JUMPI PUSH2 0x1030 PUSH2 0xB7E JUMP JUMPDEST JUMPDEST PUSH0 PUSH2 0x103E DUP5 DUP3 DUP6 ADD PUSH2 0xBCC JUMP JUMPDEST SWAP2 POP POP SWAP3 SWAP2 POP POP JUMP JUMPDEST PUSH2 0x1050 DUP2 PUSH2 0xBE0 JUMP JUMPDEST DUP3 MSTORE POP POP JUMP JUMPDEST PUSH0 PUSH1 0x20 DUP3 ADD SWAP1 POP PUSH2 0x1069 PUSH0 DUP4 ADD DUP5 PUSH2 0x1047 JUMP JUMPDEST SWAP3 SWAP2 POP POP JUMP JUMPDEST PUSH0 PUSH1 0x20 DUP3 DUP5 SUB SLT ISZERO PUSH2 0x1084 JUMPI PUSH2 0x1083 PUSH2 0xB7E JUMP JUMPDEST JUMPDEST PUSH0 PUSH2 0x1091 DUP5 DUP3 DUP6 ADD PUSH2 0xBFF JUMP JUMPDEST SWAP2 POP POP SWAP3 SWAP2 POP POP JUMP JUMPDEST PUSH0 DUP3 DUP3 MSTORE PUSH1 0x20 DUP3 ADD SWAP1 POP SWAP3 SWAP2 POP POP JUMP JUMPDEST PUSH0 PUSH2 0x10B4 DUP3 PUSH2 0xC98 JUMP JUMPDEST PUSH2 0x10BE DUP2 DUP6 PUSH2 0x109A JUMP JUMPDEST SWAP4 POP PUSH2 0x10CE DUP2 DUP6 PUSH1 0x20 DUP7 ADD PUSH2 0xCB2 JUMP JUMPDEST PUSH2 0x10D7 DUP2 PUSH2 0xCDA JUMP JUMPDEST DUP5 ADD SWAP2 POP POP SWAP3 SWAP2 POP POP JUMP JUMPDEST PUSH0 PUSH1 0x20 DUP3 ADD SWAP1 POP DUP2 DUP2 SUB PUSH0 DUP4 ADD MSTORE PUSH2 0x10FA DUP2 DUP5 PUSH2 0x10AA JUMP JUMPDEST SWAP1 POP SWAP3 SWAP2 POP POP JUMP JUMPDEST PUSH32 0x4E487B7100000000000000000000000000000000000000000000000000000000 PUSH0 MSTORE PUSH1 0x32 PUSH1 0x4 MSTORE PUSH1 0x24 PUSH0 REVERT JUMPDEST PUSH32 0x547765657420646F6573206E6F74206578697374000000000000000000000000 PUSH0 DUP3 ADD MSTORE POP JUMP JUMPDEST PUSH0 PUSH2 0x1163 PUSH1 0x14 DUP4 PUSH2 0x109A JUMP JUMPDEST SWAP2 POP PUSH2 0x116E DUP3 PUSH2 0x112F JUMP JUMPDEST PUSH1 0x20 DUP3 ADD SWAP1 POP SWAP2 SWAP1 POP JUMP JUMPDEST PUSH0 PUSH1 0x20 DUP3 ADD SWAP1 POP DUP2 DUP2 SUB PUSH0 DUP4 ADD MSTORE PUSH2 0x1190 DUP2 PUSH2 0x1157 JUMP JUMPDEST SWAP1 POP SWAP2 SWAP1 POP JUMP JUMPDEST PUSH32 0x547765657420646F65736E2774206861766520616E79206C696B657300000000 PUSH0 DUP3 ADD MSTORE POP JUMP JUMPDEST PUSH0 PUSH2 0x11CB PUSH1 0x1C DUP4 PUSH2 0x109A JUMP JUMPDEST SWAP2 POP PUSH2 0x11D6 DUP3 PUSH2 0x1197 JUMP JUMPDEST PUSH1 0x20 DUP3 ADD SWAP1 POP SWAP2 SWAP1 POP JUMP JUMPDEST PUSH0 PUSH1 0x20 DUP3 ADD SWAP1 POP DUP2 DUP2 SUB PUSH0 DUP4 ADD MSTORE PUSH2 0x11F8 DUP2 PUSH2 0x11BF JUMP JUMPDEST SWAP1 POP SWAP2 SWAP1 POP JUMP JUMPDEST PUSH32 0x4E487B7100000000000000000000000000000000000000000000000000000000 PUSH0 MSTORE PUSH1 0x11 PUSH1 0x4 MSTORE PUSH1 0x24 PUSH0 REVERT JUMPDEST PUSH0 PUSH2 0x1236 DUP3 PUSH2 0xBE0 JUMP JUMPDEST SWAP2 POP PUSH0 DUP3 SUB PUSH2 0x1248 JUMPI PUSH2 0x1247 PUSH2 0x11FF JUMP JUMPDEST JUMPDEST PUSH1 0x1 DUP3 SUB SWAP1 POP SWAP2 SWAP1 POP JUMP JUMPDEST PUSH2 0x125C DUP2 PUSH2 0xBA5 JUMP JUMPDEST DUP3 MSTORE POP POP JUMP JUMPDEST PUSH0 PUSH1 0x80 DUP3 ADD SWAP1 POP PUSH2 0x1275 PUSH0 DUP4 ADD DUP8 PUSH2 0x1253 JUMP JUMPDEST PUSH2 0x1282 PUSH1 0x20 DUP4 ADD DUP7 PUSH2 0x1253 JUMP JUMPDEST PUSH2 0x128F PUSH1 0x40 DUP4 ADD DUP6 PUSH2 0x1047 JUMP JUMPDEST PUSH2 0x129C PUSH1 0x60 DUP4 ADD DUP5 PUSH2 0x1047 JUMP JUMPDEST SWAP6 SWAP5 POP POP POP POP POP JUMP JUMPDEST PUSH32 0x4E487B7100000000000000000000000000000000000000000000000000000000 PUSH0 MSTORE PUSH1 0x22 PUSH1 0x4 MSTORE PUSH1 0x24 PUSH0 REVERT JUMPDEST PUSH0 PUSH1 0x2 DUP3 DIV SWAP1 POP PUSH1 0x1 DUP3 AND DUP1 PUSH2 0x12E9 JUMPI PUSH1 0x7F DUP3 AND SWAP2 POP JUMPDEST PUSH1 0x20 DUP3 LT DUP2 SUB PUSH2 0x12FC JUMPI PUSH2 0x12FB PUSH2 0x12A5 JUMP JUMPDEST JUMPDEST POP SWAP2 SWAP1 POP JUMP JUMPDEST PUSH32 0x596F7520617265206E6F7420746865206F776E65722100000000000000000000 PUSH0 DUP3 ADD MSTORE POP JUMP JUMPDEST PUSH0 PUSH2 0x1336 PUSH1 0x16 DUP4 PUSH2 0x109A JUMP JUMPDEST SWAP2 POP PUSH2 0x1341 DUP3 PUSH2 0x1302 JUMP JUMPDEST PUSH1 0x20 DUP3 ADD SWAP1 POP SWAP2 SWAP1 POP JUMP JUMPDEST PUSH0 PUSH1 0x20 DUP3 ADD SWAP1 POP DUP2 DUP2 SUB PUSH0 DUP4 ADD MSTORE PUSH2 0x1363 DUP2 PUSH2 0x132A JUMP JUMPDEST SWAP1 POP SWAP2 SWAP1 POP JUMP JUMPDEST PUSH0 PUSH2 0x1374 DUP3 PUSH2 0xBE0 JUMP JUMPDEST SWAP2 POP PUSH32 0xFFFFFFFFFFFFFFFFFFFFFFFFFFFFFFFFFFFFFFFFFFFFFFFFFFFFFFFFFFFFFFFF DUP3 SUB PUSH2 0x13A6 JUMPI PUSH2 0x13A5 PUSH2 0x11FF JUMP JUMPDEST JUMPDEST PUSH1 0x1 DUP3 ADD SWAP1 POP SWAP2 SWAP1 POP JUMP JUMPDEST PUSH32 0x547765657420697320746F6F206C6F6E672E0000000000000000000000000000 PUSH0 DUP3 ADD MSTORE POP JUMP JUMPDEST PUSH0 PUSH2 0x13E5 PUSH1 0x12 DUP4 PUSH2 0x109A JUMP JUMPDEST SWAP2 POP PUSH2 0x13F0 DUP3 PUSH2 0x13B1 JUMP JUMPDEST PUSH1 0x20 DUP3 ADD SWAP1 POP SWAP2 SWAP1 POP JUMP JUMPDEST PUSH0 PUSH1 0x20 DUP3 ADD SWAP1 POP DUP2 DUP2 SUB PUSH0 DUP4 ADD MSTORE PUSH2 0x1412 DUP2 PUSH2 0x13D9 JUMP JUMPDEST SWAP1 POP SWAP2 SWAP1 POP JUMP JUMPDEST PUSH0 DUP2 SWAP1 POP DUP2 PUSH0 MSTORE PUSH1 0x20 PUSH0 KECCAK256 SWAP1 POP SWAP2 SWAP1 POP JUMP JUMPDEST PUSH0 PUSH1 0x20 PUSH1 0x1F DUP4 ADD DIV SWAP1 POP SWAP2 SWAP1 POP JUMP JUMPDEST PUSH0 DUP3 DUP3 SHL SWAP1 POP SWAP3 SWAP2 POP POP JUMP JUMPDEST PUSH0 PUSH1 0x8 DUP4 MUL PUSH2 0x1475 PUSH32 0xFFFFFFFFFFFFFFFFFFFFFFFFFFFFFFFFFFFFFFFFFFFFFFFFFFFFFFFFFFFFFFFF DUP3 PUSH2 0x143A JUMP JUMPDEST PUSH2 0x147F DUP7 DUP4 PUSH2 0x143A JUMP JUMPDEST SWAP6 POP DUP1 NOT DUP5 AND SWAP4 POP DUP1 DUP7 AND DUP5 OR SWAP3 POP POP POP SWAP4 SWAP3 POP POP POP JUMP JUMPDEST PUSH0 DUP2 SWAP1 POP SWAP2 SWAP1 POP JUMP JUMPDEST PUSH0 PUSH2 0x14BA PUSH2 0x14B5 PUSH2 0x14B0 DUP5 PUSH2 0xBE0 JUMP JUMPDEST PUSH2 0x1497 JUMP JUMPDEST PUSH2 0xBE0 JUMP JUMPDEST SWAP1 POP SWAP2 SWAP1 POP JUMP JUMPDEST PUSH0 DUP2 SWAP1 POP SWAP2 SWAP1 POP JUMP JUMPDEST PUSH2 0x14D3 DUP4 PUSH2 0x14A0 JUMP JUMPDEST PUSH2 0x14E7 PUSH2 0x14DF DUP3 PUSH2 0x14C1 JUMP JUMPDEST DUP5 DUP5 SLOAD PUSH2 0x1446 JUMP JUMPDEST DUP3 SSTORE POP POP POP POP JUMP JUMPDEST PUSH0 SWAP1 JUMP JUMPDEST PUSH2 0x14FB PUSH2 0x14EF JUMP JUMPDEST PUSH2 0x1506 DUP2 DUP5 DUP5 PUSH2 0x14CA JUMP JUMPDEST POP POP POP JUMP JUMPDEST JUMPDEST DUP2 DUP2 LT ISZERO PUSH2 0x1529 JUMPI PUSH2 0x151E PUSH0 DUP3 PUSH2 0x14F3 JUMP JUMPDEST PUSH1 0x1 DUP2 ADD SWAP1 POP PUSH2 0x150C JUMP JUMPDEST POP POP JUMP JUMPDEST PUSH1 0x1F DUP3 GT ISZERO PUSH2 0x156E JUMPI PUSH2 0x153F DUP2 PUSH2 0x1419 JUMP JUMPDEST PUSH2 0x1548 DUP5 PUSH2 0x142B JUMP JUMPDEST DUP2 ADD PUSH1 0x20 DUP6 LT ISZERO PUSH2 0x1557 JUMPI DUP2 SWAP1 POP JUMPDEST PUSH2 0x156B PUSH2 0x1563 DUP6 PUSH2 0x142B JUMP JUMPDEST DUP4 ADD DUP3 PUSH2 0x150B JUMP JUMPDEST POP POP JUMPDEST POP POP POP JUMP JUMPDEST PUSH0 DUP3 DUP3 SHR SWAP1 POP SWAP3 SWAP2 POP POP JUMP JUMPDEST PUSH0 PUSH2 0x158E PUSH0 NOT DUP5 PUSH1 0x8 MUL PUSH2 0x1573 JUMP JUMPDEST NOT DUP1 DUP4 AND SWAP2 POP POP SWAP3 SWAP2 POP POP JUMP JUMPDEST PUSH0 PUSH2 0x15A6 DUP4 DUP4 PUSH2 0x157F JUMP JUMPDEST SWAP2 POP DUP3 PUSH1 0x2 MUL DUP3 OR SWAP1 POP SWAP3 SWAP2 POP POP JUMP JUMPDEST PUSH2 0x15BF DUP3 PUSH2 0xC98 JUMP JUMPDEST PUSH8 0xFFFFFFFFFFFFFFFF DUP2 GT ISZERO PUSH2 0x15D8 JUMPI PUSH2 0x15D7 PUSH2 0xEB1 JUMP JUMPDEST JUMPDEST PUSH2 0x15E2 DUP3 SLOAD PUSH2 0x12D2 JUMP JUMPDEST PUSH2 0x15ED DUP3 DUP3 DUP6 PUSH2 0x152D JUMP JUMPDEST PUSH0 PUSH1 0x20 SWAP1 POP PUSH1 0x1F DUP4 GT PUSH1 0x1 DUP2 EQ PUSH2 0x161E JUMPI PUSH0 DUP5 ISZERO PUSH2 0x160C JUMPI DUP3 DUP8 ADD MLOAD SWAP1 POP JUMPDEST PUSH2 0x1616 DUP6 DUP3 PUSH2 0x159B JUMP JUMPDEST DUP7 SSTORE POP PUSH2 0x167D JUMP JUMPDEST PUSH1 0x1F NOT DUP5 AND PUSH2 0x162C DUP7 PUSH2 0x1419 JUMP JUMPDEST PUSH0 JUMPDEST DUP3 DUP2 LT ISZERO PUSH2 0x1653 JUMPI DUP5 DUP10 ADD MLOAD DUP3 SSTORE PUSH1 0x1 DUP3 ADD SWAP2 POP PUSH1 0x20 DUP6 ADD SWAP5 POP PUSH1 0x20 DUP2 ADD SWAP1 POP PUSH2 0x162E JUMP JUMPDEST DUP7 DUP4 LT ISZERO PUSH2 0x1670 JUMPI DUP5 DUP10 ADD MLOAD PUSH2 0x166C PUSH1 0x1F DUP10 AND DUP3 PUSH2 0x157F JUMP JUMPDEST DUP4 SSTORE POP JUMPDEST PUSH1 0x1 PUSH1 0x2 DUP9 MUL ADD DUP9 SSTORE POP POP POP JUMPDEST POP POP POP POP POP POP JUMP JUMPDEST PUSH0 PUSH1 0x80 DUP3 ADD SWAP1 POP PUSH2 0x1698 PUSH0 DUP4 ADD DUP8 PUSH2 0x1047 JUMP JUMPDEST PUSH2 0x16A5 PUSH1 0x20 DUP4 ADD DUP7 PUSH2 0x1253 JUMP JUMPDEST DUP2 DUP2 SUB PUSH1 0x40 DUP4 ADD MSTORE PUSH2 0x16B7 DUP2 DUP6 PUSH2 0x10AA JUMP JUMPDEST SWAP1 POP PUSH2 0x16C6 PUSH1 0x60 DUP4 ADD DUP5 PUSH2 0x1047 JUMP JUMPDEST SWAP6 SWAP5 POP POP POP POP POP JUMP JUMPDEST PUSH0 PUSH2 0x16D9 DUP3 PUSH2 0xBE0 JUMP JUMPDEST SWAP2 POP PUSH2 0x16E4 DUP4 PUSH2 0xBE0 JUMP JUMPDEST SWAP3 POP DUP3 DUP3 ADD SWAP1 POP DUP1 DUP3 GT ISZERO PUSH2 0x16FC JUMPI PUSH2 0x16FB PUSH2 0x11FF JUMP JUMPDEST JUMPDEST SWAP3 SWAP2 POP POP JUMP INVALID LOG2 PUSH5 0x6970667358 0x22 SLT KECCAK256 DUP10 0xBE 0xC8 0xDA SWAP9 DUP14 0xF9 EQ ISZERO 0x28 PUSH30 0x841F60F85325BDF032A208EE109DDFC6EF288FD3B164736F6C6343000816 STOP CALLER "
				},
				"gasEstimates": {
					"creation": {
						"codeDepositCost": "1188800",
						"executionCost": "49763",
						"totalCost": "1238563"
					},
					"external": {
						"changeTweetLength(uint16)": "26887",
						"createTweet(string)": "infinite",
						"getAllTweets()": "infinite",
						"getTotalLikes(address)": "infinite",
						"getTweet(uint256)": "infinite",
						"likeTweet(address,uint256)": "infinite",
						"unlikeTweet(address,uint256)": "infinite"
					}
				},
				"methodIdentifiers": {
					"changeTweetLength(uint16)": "58bfa4ab",
					"createTweet(string)": "7c9cd2bc",
					"getAllTweets()": "53256135",
					"getTotalLikes(address)": "820785cc",
					"getTweet(uint256)": "c3ad5ecb",
					"likeTweet(address,uint256)": "63378216",
					"unlikeTweet(address,uint256)": "3d9b569f"
				}
			},
			"storageLayout": {
				"storage": [
					{
						"astId": 4,
						"contract": "contracts/Twitter.sol:Twitter",
						"label": "MAX_TWEET_LENGTH",
						"offset": 0,
						"slot": "0",
						"type": "t_uint16"
					},
					{
						"astId": 21,
						"contract": "contracts/Twitter.sol:Twitter",
						"label": "tweets",
						"offset": 0,
						"slot": "1",
						"type": "t_mapping(t_address,t_array(t_struct(Tweet)15_storage)dyn_storage)"
					},
					{
						"astId": 23,
						"contract": "contracts/Twitter.sol:Twitter",
						"label": "owner",
						"offset": 0,
						"slot": "2",
						"type": "t_address"
					}
				],
				"types": {
					"t_address": {
						"encoding": "inplace",
						"label": "address",
						"numberOfBytes": "20"
					},
					"t_array(t_struct(Tweet)15_storage)dyn_storage": {
						"base": "t_struct(Tweet)15_storage",
						"encoding": "dynamic_array",
						"label": "struct Twitter.Tweet[]",
						"numberOfBytes": "32"
					},
					"t_mapping(t_address,t_array(t_struct(Tweet)15_storage)dyn_storage)": {
						"encoding": "mapping",
						"key": "t_address",
						"label": "mapping(address => struct Twitter.Tweet[])",
						"numberOfBytes": "32",
						"value": "t_array(t_struct(Tweet)15_storage)dyn_storage"
					},
					"t_string_storage": {
						"encoding": "bytes",
						"label": "string",
						"numberOfBytes": "32"
					},
					"t_struct(Tweet)15_storage": {
						"encoding": "inplace",
						"label": "struct Twitter.Tweet",
						"members": [
							{
								"astId": 6,
								"contract": "contracts/Twitter.sol:Twitter",
								"label": "id",
								"offset": 0,
								"slot": "0",
								"type": "t_uint256"
							},
							{
								"astId": 8,
								"contract": "contracts/Twitter.sol:Twitter",
								"label": "author",
								"offset": 0,
								"slot": "1",
								"type": "t_address"
							},
							{
								"astId": 10,
								"contract": "contracts/Twitter.sol:Twitter",
								"label": "content",
								"offset": 0,
								"slot": "2",
								"type": "t_string_storage"
							},
							{
								"astId": 12,
								"contract": "contracts/Twitter.sol:Twitter",
								"label": "timestamp",
								"offset": 0,
								"slot": "3",
								"type": "t_uint256"
							},
							{
								"astId": 14,
								"contract": "contracts/Twitter.sol:Twitter",
								"label": "likes",
								"offset": 0,
								"slot": "4",
								"type": "t_uint256"
							}
						],
						"numberOfBytes": "160"
					},
					"t_uint16": {
						"encoding": "inplace",
						"label": "uint16",
						"numberOfBytes": "2"
					},
					"t_uint256": {
						"encoding": "inplace",
						"label": "uint256",
						"numberOfBytes": "32"
					}
				}
			},
			"userdoc": {
				"kind": "user",
				"methods": {},
				"version": 1
			}
		}
	}
}