{
	"contracts/Twitter.sol": {
		"Twitter": {
			"abi": [
				{
					"inputs": [
						{
							"internalType": "string",
							"name": "_tweet",
							"type": "string"
						}
					],
					"name": "createTweet",
					"outputs": [],
					"stateMutability": "nonpayable",
					"type": "function"
				},
				{
					"inputs": [],
					"name": "getAllTweets",
					"outputs": [
						{
							"components": [
								{
									"internalType": "address",
									"name": "author",
									"type": "address"
								},
								{
									"internalType": "string",
									"name": "content",
									"type": "string"
								},
								{
									"internalType": "uint256",
									"name": "timestamp",
									"type": "uint256"
								},
								{
									"internalType": "uint256",
									"name": "likes",
									"type": "uint256"
								}
							],
							"internalType": "struct Twitter.Tweet[]",
							"name": "",
							"type": "tuple[]"
						}
					],
					"stateMutability": "view",
					"type": "function"
				},
				{
					"inputs": [
						{
							"internalType": "uint256",
							"name": "_i",
							"type": "uint256"
						}
					],
					"name": "getTweet",
					"outputs": [
						{
							"internalType": "string",
							"name": "",
							"type": "string"
						}
					],
					"stateMutability": "view",
					"type": "function"
				}
			],
			"devdoc": {
				"kind": "dev",
				"methods": {},
				"version": 1
			},
			"evm": {
				"assembly": "    /* \"contracts/Twitter.sol\":59:882  contract Twitter {... */\n  mstore(0x40, 0x80)\n  callvalue\n  dup1\n  iszero\n  tag_1\n  jumpi\n  0x00\n  dup1\n  revert\ntag_1:\n  pop\n  dataSize(sub_0)\n  dup1\n  dataOffset(sub_0)\n  0x00\n  codecopy\n  0x00\n  return\nstop\n\nsub_0: assembly {\n        /* \"contracts/Twitter.sol\":59:882  contract Twitter {... */\n      mstore(0x40, 0x80)\n      callvalue\n      dup1\n      iszero\n      tag_1\n      jumpi\n      0x00\n      dup1\n      revert\n    tag_1:\n      pop\n      jumpi(tag_2, lt(calldatasize, 0x04))\n      shr(0xe0, calldataload(0x00))\n      dup1\n      0x53256135\n      eq\n      tag_3\n      jumpi\n      dup1\n      0x7c9cd2bc\n      eq\n      tag_4\n      jumpi\n      dup1\n      0xc3ad5ecb\n      eq\n      tag_5\n      jumpi\n    tag_2:\n      0x00\n      dup1\n      revert\n        /* \"contracts/Twitter.sol\":778:880  function getAllTweets() public view returns(Tweet[] memory) {... */\n    tag_3:\n      tag_6\n      tag_7\n      jump\t// in\n    tag_6:\n      mload(0x40)\n      tag_8\n      swap2\n      swap1\n      tag_9\n      jump\t// in\n    tag_8:\n      mload(0x40)\n      dup1\n      swap2\n      sub\n      swap1\n      return\n        /* \"contracts/Twitter.sol\":293:650  function createTweet(string memory _tweet) public {... */\n    tag_4:\n      tag_10\n      0x04\n      dup1\n      calldatasize\n      sub\n      dup2\n      add\n      swap1\n      tag_11\n      swap2\n      swap1\n      tag_12\n      jump\t// in\n    tag_11:\n      tag_13\n      jump\t// in\n    tag_10:\n      stop\n        /* \"contracts/Twitter.sol\":656:772  function getTweet(uint _i) public view returns(string memory) {... */\n    tag_5:\n      tag_14\n      0x04\n      dup1\n      calldatasize\n      sub\n      dup2\n      add\n      swap1\n      tag_15\n      swap2\n      swap1\n      tag_16\n      jump\t// in\n    tag_15:\n      tag_17\n      jump\t// in\n    tag_14:\n      mload(0x40)\n      tag_18\n      swap2\n      swap1\n      tag_19\n      jump\t// in\n    tag_18:\n      mload(0x40)\n      dup1\n      swap2\n      sub\n      swap1\n      return\n        /* \"contracts/Twitter.sol\":778:880  function getAllTweets() public view returns(Tweet[] memory) {... */\n    tag_7:\n        /* \"contracts/Twitter.sol\":822:836  Tweet[] memory */\n      0x60\n        /* \"contracts/Twitter.sol\":855:861  tweets */\n      0x00\n        /* \"contracts/Twitter.sol\":855:873  tweets[msg.sender] */\n      dup1\n        /* \"contracts/Twitter.sol\":862:872  msg.sender */\n      caller\n        /* \"contracts/Twitter.sol\":855:873  tweets[msg.sender] */\n      0xffffffffffffffffffffffffffffffffffffffff\n      and\n      0xffffffffffffffffffffffffffffffffffffffff\n      and\n      dup2\n      mstore\n      0x20\n      add\n      swap1\n      dup2\n      mstore\n      0x20\n      add\n      0x00\n      keccak256\n        /* \"contracts/Twitter.sol\":848:873  return tweets[msg.sender] */\n      dup1\n      sload\n      dup1\n      0x20\n      mul\n      0x20\n      add\n      mload(0x40)\n      swap1\n      dup2\n      add\n      0x40\n      mstore\n      dup1\n      swap3\n      swap2\n      swap1\n      dup2\n      dup2\n      mstore\n      0x20\n      add\n      0x00\n      swap1\n    tag_21:\n      dup3\n      dup3\n      lt\n      iszero\n      tag_22\n      jumpi\n      dup4\n      dup3\n      swap1\n      0x00\n      mstore\n      keccak256(0x00, 0x20)\n      swap1\n      0x04\n      mul\n      add\n      mload(0x40)\n      dup1\n      0x80\n      add\n      0x40\n      mstore\n      swap1\n      dup2\n      0x00\n      dup3\n      add\n      0x00\n      swap1\n      sload\n      swap1\n      0x0100\n      exp\n      swap1\n      div\n      0xffffffffffffffffffffffffffffffffffffffff\n      and\n      0xffffffffffffffffffffffffffffffffffffffff\n      and\n      0xffffffffffffffffffffffffffffffffffffffff\n      and\n      dup2\n      mstore\n      0x20\n      add\n      0x01\n      dup3\n      add\n      dup1\n      sload\n      tag_24\n      swap1\n      tag_25\n      jump\t// in\n    tag_24:\n      dup1\n      0x1f\n      add\n      0x20\n      dup1\n      swap2\n      div\n      mul\n      0x20\n      add\n      mload(0x40)\n      swap1\n      dup2\n      add\n      0x40\n      mstore\n      dup1\n      swap3\n      swap2\n      swap1\n      dup2\n      dup2\n      mstore\n      0x20\n      add\n      dup3\n      dup1\n      sload\n      tag_26\n      swap1\n      tag_25\n      jump\t// in\n    tag_26:\n      dup1\n      iszero\n      tag_27\n      jumpi\n      dup1\n      0x1f\n      lt\n      tag_28\n      jumpi\n      0x0100\n      dup1\n      dup4\n      sload\n      div\n      mul\n      dup4\n      mstore\n      swap2\n      0x20\n      add\n      swap2\n      jump(tag_27)\n    tag_28:\n      dup3\n      add\n      swap2\n      swap1\n      0x00\n      mstore\n      keccak256(0x00, 0x20)\n      swap1\n    tag_29:\n      dup2\n      sload\n      dup2\n      mstore\n      swap1\n      0x01\n      add\n      swap1\n      0x20\n      add\n      dup1\n      dup4\n      gt\n      tag_29\n      jumpi\n      dup3\n      swap1\n      sub\n      0x1f\n      and\n      dup3\n      add\n      swap2\n    tag_27:\n      pop\n      pop\n      pop\n      pop\n      pop\n      dup2\n      mstore\n      0x20\n      add\n      0x02\n      dup3\n      add\n      sload\n      dup2\n      mstore\n      0x20\n      add\n      0x03\n      dup3\n      add\n      sload\n      dup2\n      mstore\n      pop\n      pop\n      dup2\n      mstore\n      0x20\n      add\n      swap1\n      0x01\n      add\n      swap1\n      jump(tag_21)\n    tag_22:\n      pop\n      pop\n      pop\n      pop\n      swap1\n      pop\n        /* \"contracts/Twitter.sol\":778:880  function getAllTweets() public view returns(Tweet[] memory) {... */\n      swap1\n      jump\t// out\n        /* \"contracts/Twitter.sol\":293:650  function createTweet(string memory _tweet) public {... */\n    tag_13:\n        /* \"contracts/Twitter.sol\":118:121  280 */\n      0x0118\n        /* \"contracts/Twitter.sol\":361:401  bytes(_tweet).length <= MAX_TWEET_LENGTH */\n      0xffff\n      and\n        /* \"contracts/Twitter.sol\":367:373  _tweet */\n      dup2\n        /* \"contracts/Twitter.sol\":361:381  bytes(_tweet).length */\n      mload\n        /* \"contracts/Twitter.sol\":361:401  bytes(_tweet).length <= MAX_TWEET_LENGTH */\n      gt\n      iszero\n        /* \"contracts/Twitter.sol\":353:424  require(bytes(_tweet).length <= MAX_TWEET_LENGTH, \"Tweet is too long.\") */\n      tag_31\n      jumpi\n      mload(0x40)\n      0x08c379a000000000000000000000000000000000000000000000000000000000\n      dup2\n      mstore\n      0x04\n      add\n      tag_32\n      swap1\n      tag_33\n      jump\t// in\n    tag_32:\n      mload(0x40)\n      dup1\n      swap2\n      sub\n      swap1\n      revert\n    tag_31:\n        /* \"contracts/Twitter.sol\":435:456  Tweet memory newTweet */\n      0x00\n        /* \"contracts/Twitter.sol\":459:599  Tweet({... */\n      mload(0x40)\n      dup1\n      0x80\n      add\n      0x40\n      mstore\n      dup1\n        /* \"contracts/Twitter.sol\":487:497  msg.sender */\n      caller\n        /* \"contracts/Twitter.sol\":459:599  Tweet({... */\n      0xffffffffffffffffffffffffffffffffffffffff\n      and\n      dup2\n      mstore\n      0x20\n      add\n        /* \"contracts/Twitter.sol\":520:526  _tweet */\n      dup4\n        /* \"contracts/Twitter.sol\":459:599  Tweet({... */\n      dup2\n      mstore\n      0x20\n      add\n        /* \"contracts/Twitter.sol\":551:566  block.timestamp */\n      timestamp\n        /* \"contracts/Twitter.sol\":459:599  Tweet({... */\n      dup2\n      mstore\n      0x20\n      add\n        /* \"contracts/Twitter.sol\":587:588  0 */\n      0x00\n        /* \"contracts/Twitter.sol\":459:599  Tweet({... */\n      dup2\n      mstore\n      pop\n        /* \"contracts/Twitter.sol\":435:599  Tweet memory newTweet = Tweet({... */\n      swap1\n      pop\n        /* \"contracts/Twitter.sol\":610:616  tweets */\n      0x00\n        /* \"contracts/Twitter.sol\":610:628  tweets[msg.sender] */\n      dup1\n        /* \"contracts/Twitter.sol\":617:627  msg.sender */\n      caller\n        /* \"contracts/Twitter.sol\":610:628  tweets[msg.sender] */\n      0xffffffffffffffffffffffffffffffffffffffff\n      and\n      0xffffffffffffffffffffffffffffffffffffffff\n      and\n      dup2\n      mstore\n      0x20\n      add\n      swap1\n      dup2\n      mstore\n      0x20\n      add\n      0x00\n      keccak256\n        /* \"contracts/Twitter.sol\":634:642  newTweet */\n      dup2\n        /* \"contracts/Twitter.sol\":610:643  tweets[msg.sender].push(newTweet) */\n      swap1\n      dup1\n      0x01\n      dup2\n      sload\n      add\n      dup1\n      dup3\n      sstore\n      dup1\n      swap2\n      pop\n      pop\n      0x01\n      swap1\n      sub\n      swap1\n      0x00\n      mstore\n      keccak256(0x00, 0x20)\n      swap1\n      0x04\n      mul\n      add\n      0x00\n      swap1\n      swap2\n      swap1\n      swap2\n      swap1\n      swap2\n      pop\n      0x00\n      dup3\n      add\n      mload\n      dup2\n      0x00\n      add\n      exp(0x0100, 0x00)\n      dup2\n      sload\n      dup2\n      0xffffffffffffffffffffffffffffffffffffffff\n      mul\n      not\n      and\n      swap1\n      dup4\n      0xffffffffffffffffffffffffffffffffffffffff\n      and\n      mul\n      or\n      swap1\n      sstore\n      pop\n      0x20\n      dup3\n      add\n      mload\n      dup2\n      0x01\n      add\n      swap1\n      dup2\n      tag_35\n      swap2\n      swap1\n      tag_36\n      jump\t// in\n    tag_35:\n      pop\n      0x40\n      dup3\n      add\n      mload\n      dup2\n      0x02\n      add\n      sstore\n      0x60\n      dup3\n      add\n      mload\n      dup2\n      0x03\n      add\n      sstore\n      pop\n      pop\n        /* \"contracts/Twitter.sol\":343:650  {... */\n      pop\n        /* \"contracts/Twitter.sol\":293:650  function createTweet(string memory _tweet) public {... */\n      pop\n      jump\t// out\n        /* \"contracts/Twitter.sol\":656:772  function getTweet(uint _i) public view returns(string memory) {... */\n    tag_17:\n        /* \"contracts/Twitter.sol\":703:716  string memory */\n      0x60\n        /* \"contracts/Twitter.sol\":735:741  tweets */\n      0x00\n        /* \"contracts/Twitter.sol\":735:753  tweets[msg.sender] */\n      dup1\n        /* \"contracts/Twitter.sol\":742:752  msg.sender */\n      caller\n        /* \"contracts/Twitter.sol\":735:753  tweets[msg.sender] */\n      0xffffffffffffffffffffffffffffffffffffffff\n      and\n      0xffffffffffffffffffffffffffffffffffffffff\n      and\n      dup2\n      mstore\n      0x20\n      add\n      swap1\n      dup2\n      mstore\n      0x20\n      add\n      0x00\n      keccak256\n        /* \"contracts/Twitter.sol\":754:756  _i */\n      dup3\n        /* \"contracts/Twitter.sol\":735:757  tweets[msg.sender][_i] */\n      dup2\n      sload\n      dup2\n      lt\n      tag_38\n      jumpi\n      tag_39\n      tag_40\n      jump\t// in\n    tag_39:\n    tag_38:\n      swap1\n      0x00\n      mstore\n      keccak256(0x00, 0x20)\n      swap1\n      0x04\n      mul\n      add\n        /* \"contracts/Twitter.sol\":735:765  tweets[msg.sender][_i].content */\n      0x01\n      add\n        /* \"contracts/Twitter.sol\":728:765  return tweets[msg.sender][_i].content */\n      dup1\n      sload\n      tag_42\n      swap1\n      tag_25\n      jump\t// in\n    tag_42:\n      dup1\n      0x1f\n      add\n      0x20\n      dup1\n      swap2\n      div\n      mul\n      0x20\n      add\n      mload(0x40)\n      swap1\n      dup2\n      add\n      0x40\n      mstore\n      dup1\n      swap3\n      swap2\n      swap1\n      dup2\n      dup2\n      mstore\n      0x20\n      add\n      dup3\n      dup1\n      sload\n      tag_43\n      swap1\n      tag_25\n      jump\t// in\n    tag_43:\n      dup1\n      iszero\n      tag_44\n      jumpi\n      dup1\n      0x1f\n      lt\n      tag_45\n      jumpi\n      0x0100\n      dup1\n      dup4\n      sload\n      div\n      mul\n      dup4\n      mstore\n      swap2\n      0x20\n      add\n      swap2\n      jump(tag_44)\n    tag_45:\n      dup3\n      add\n      swap2\n      swap1\n      0x00\n      mstore\n      keccak256(0x00, 0x20)\n      swap1\n    tag_46:\n      dup2\n      sload\n      dup2\n      mstore\n      swap1\n      0x01\n      add\n      swap1\n      0x20\n      add\n      dup1\n      dup4\n      gt\n      tag_46\n      jumpi\n      dup3\n      swap1\n      sub\n      0x1f\n      and\n      dup3\n      add\n      swap2\n    tag_44:\n      pop\n      pop\n      pop\n      pop\n      pop\n      swap1\n      pop\n        /* \"contracts/Twitter.sol\":656:772  function getTweet(uint _i) public view returns(string memory) {... */\n      swap2\n      swap1\n      pop\n      jump\t// out\n        /* \"#utility.yul\":7:142   */\n    tag_47:\n        /* \"#utility.yul\":95:101   */\n      0x00\n        /* \"#utility.yul\":129:134   */\n      dup2\n        /* \"#utility.yul\":123:135   */\n      mload\n        /* \"#utility.yul\":113:135   */\n      swap1\n      pop\n        /* \"#utility.yul\":7:142   */\n      swap2\n      swap1\n      pop\n      jump\t// out\n        /* \"#utility.yul\":148:353   */\n    tag_48:\n        /* \"#utility.yul\":268:279   */\n      0x00\n        /* \"#utility.yul\":302:308   */\n      dup3\n        /* \"#utility.yul\":297:300   */\n      dup3\n        /* \"#utility.yul\":290:309   */\n      mstore\n        /* \"#utility.yul\":342:346   */\n      0x20\n        /* \"#utility.yul\":337:340   */\n      dup3\n        /* \"#utility.yul\":333:347   */\n      add\n        /* \"#utility.yul\":318:347   */\n      swap1\n      pop\n        /* \"#utility.yul\":148:353   */\n      swap3\n      swap2\n      pop\n      pop\n      jump\t// out\n        /* \"#utility.yul\":359:512   */\n    tag_49:\n        /* \"#utility.yul\":447:451   */\n      0x00\n        /* \"#utility.yul\":470:473   */\n      dup2\n        /* \"#utility.yul\":462:473   */\n      swap1\n      pop\n        /* \"#utility.yul\":500:504   */\n      0x20\n        /* \"#utility.yul\":495:498   */\n      dup3\n        /* \"#utility.yul\":491:505   */\n      add\n        /* \"#utility.yul\":483:505   */\n      swap1\n      pop\n        /* \"#utility.yul\":359:512   */\n      swap2\n      swap1\n      pop\n      jump\t// out\n        /* \"#utility.yul\":518:644   */\n    tag_50:\n        /* \"#utility.yul\":555:562   */\n      0x00\n        /* \"#utility.yul\":595:637   */\n      0xffffffffffffffffffffffffffffffffffffffff\n        /* \"#utility.yul\":588:593   */\n      dup3\n        /* \"#utility.yul\":584:638   */\n      and\n        /* \"#utility.yul\":573:638   */\n      swap1\n      pop\n        /* \"#utility.yul\":518:644   */\n      swap2\n      swap1\n      pop\n      jump\t// out\n        /* \"#utility.yul\":650:746   */\n    tag_51:\n        /* \"#utility.yul\":687:694   */\n      0x00\n        /* \"#utility.yul\":716:740   */\n      tag_104\n        /* \"#utility.yul\":734:739   */\n      dup3\n        /* \"#utility.yul\":716:740   */\n      tag_50\n      jump\t// in\n    tag_104:\n        /* \"#utility.yul\":705:740   */\n      swap1\n      pop\n        /* \"#utility.yul\":650:746   */\n      swap2\n      swap1\n      pop\n      jump\t// out\n        /* \"#utility.yul\":752:860   */\n    tag_52:\n        /* \"#utility.yul\":829:853   */\n      tag_106\n        /* \"#utility.yul\":847:852   */\n      dup2\n        /* \"#utility.yul\":829:853   */\n      tag_51\n      jump\t// in\n    tag_106:\n        /* \"#utility.yul\":824:827   */\n      dup3\n        /* \"#utility.yul\":817:854   */\n      mstore\n        /* \"#utility.yul\":752:860   */\n      pop\n      pop\n      jump\t// out\n        /* \"#utility.yul\":866:965   */\n    tag_53:\n        /* \"#utility.yul\":918:924   */\n      0x00\n        /* \"#utility.yul\":952:957   */\n      dup2\n        /* \"#utility.yul\":946:958   */\n      mload\n        /* \"#utility.yul\":936:958   */\n      swap1\n      pop\n        /* \"#utility.yul\":866:965   */\n      swap2\n      swap1\n      pop\n      jump\t// out\n        /* \"#utility.yul\":971:1130   */\n    tag_54:\n        /* \"#utility.yul\":1045:1056   */\n      0x00\n        /* \"#utility.yul\":1079:1085   */\n      dup3\n        /* \"#utility.yul\":1074:1077   */\n      dup3\n        /* \"#utility.yul\":1067:1086   */\n      mstore\n        /* \"#utility.yul\":1119:1123   */\n      0x20\n        /* \"#utility.yul\":1114:1117   */\n      dup3\n        /* \"#utility.yul\":1110:1124   */\n      add\n        /* \"#utility.yul\":1095:1124   */\n      swap1\n      pop\n        /* \"#utility.yul\":971:1130   */\n      swap3\n      swap2\n      pop\n      pop\n      jump\t// out\n        /* \"#utility.yul\":1136:1382   */\n    tag_55:\n        /* \"#utility.yul\":1217:1218   */\n      0x00\n        /* \"#utility.yul\":1227:1340   */\n    tag_110:\n        /* \"#utility.yul\":1241:1247   */\n      dup4\n        /* \"#utility.yul\":1238:1239   */\n      dup2\n        /* \"#utility.yul\":1235:1248   */\n      lt\n        /* \"#utility.yul\":1227:1340   */\n      iszero\n      tag_112\n      jumpi\n        /* \"#utility.yul\":1326:1327   */\n      dup1\n        /* \"#utility.yul\":1321:1324   */\n      dup3\n        /* \"#utility.yul\":1317:1328   */\n      add\n        /* \"#utility.yul\":1311:1329   */\n      mload\n        /* \"#utility.yul\":1307:1308   */\n      dup2\n        /* \"#utility.yul\":1302:1305   */\n      dup5\n        /* \"#utility.yul\":1298:1309   */\n      add\n        /* \"#utility.yul\":1291:1330   */\n      mstore\n        /* \"#utility.yul\":1263:1265   */\n      0x20\n        /* \"#utility.yul\":1260:1261   */\n      dup2\n        /* \"#utility.yul\":1256:1266   */\n      add\n        /* \"#utility.yul\":1251:1266   */\n      swap1\n      pop\n        /* \"#utility.yul\":1227:1340   */\n      jump(tag_110)\n    tag_112:\n        /* \"#utility.yul\":1374:1375   */\n      0x00\n        /* \"#utility.yul\":1365:1371   */\n      dup5\n        /* \"#utility.yul\":1360:1363   */\n      dup5\n        /* \"#utility.yul\":1356:1372   */\n      add\n        /* \"#utility.yul\":1349:1376   */\n      mstore\n        /* \"#utility.yul\":1198:1382   */\n      pop\n        /* \"#utility.yul\":1136:1382   */\n      pop\n      pop\n      pop\n      jump\t// out\n        /* \"#utility.yul\":1388:1490   */\n    tag_56:\n        /* \"#utility.yul\":1429:1435   */\n      0x00\n        /* \"#utility.yul\":1480:1482   */\n      0x1f\n        /* \"#utility.yul\":1476:1483   */\n      not\n        /* \"#utility.yul\":1471:1473   */\n      0x1f\n        /* \"#utility.yul\":1464:1469   */\n      dup4\n        /* \"#utility.yul\":1460:1474   */\n      add\n        /* \"#utility.yul\":1456:1484   */\n      and\n        /* \"#utility.yul\":1446:1484   */\n      swap1\n      pop\n        /* \"#utility.yul\":1388:1490   */\n      swap2\n      swap1\n      pop\n      jump\t// out\n        /* \"#utility.yul\":1496:1853   */\n    tag_57:\n        /* \"#utility.yul\":1574:1577   */\n      0x00\n        /* \"#utility.yul\":1602:1641   */\n      tag_115\n        /* \"#utility.yul\":1635:1640   */\n      dup3\n        /* \"#utility.yul\":1602:1641   */\n      tag_53\n      jump\t// in\n    tag_115:\n        /* \"#utility.yul\":1657:1718   */\n      tag_116\n        /* \"#utility.yul\":1711:1717   */\n      dup2\n        /* \"#utility.yul\":1706:1709   */\n      dup6\n        /* \"#utility.yul\":1657:1718   */\n      tag_54\n      jump\t// in\n    tag_116:\n        /* \"#utility.yul\":1650:1718   */\n      swap4\n      pop\n        /* \"#utility.yul\":1727:1792   */\n      tag_117\n        /* \"#utility.yul\":1785:1791   */\n      dup2\n        /* \"#utility.yul\":1780:1783   */\n      dup6\n        /* \"#utility.yul\":1773:1777   */\n      0x20\n        /* \"#utility.yul\":1766:1771   */\n      dup7\n        /* \"#utility.yul\":1762:1778   */\n      add\n        /* \"#utility.yul\":1727:1792   */\n      tag_55\n      jump\t// in\n    tag_117:\n        /* \"#utility.yul\":1817:1846   */\n      tag_118\n        /* \"#utility.yul\":1839:1845   */\n      dup2\n        /* \"#utility.yul\":1817:1846   */\n      tag_56\n      jump\t// in\n    tag_118:\n        /* \"#utility.yul\":1812:1815   */\n      dup5\n        /* \"#utility.yul\":1808:1847   */\n      add\n        /* \"#utility.yul\":1801:1847   */\n      swap2\n      pop\n        /* \"#utility.yul\":1578:1853   */\n      pop\n        /* \"#utility.yul\":1496:1853   */\n      swap3\n      swap2\n      pop\n      pop\n      jump\t// out\n        /* \"#utility.yul\":1859:1936   */\n    tag_58:\n        /* \"#utility.yul\":1896:1903   */\n      0x00\n        /* \"#utility.yul\":1925:1930   */\n      dup2\n        /* \"#utility.yul\":1914:1930   */\n      swap1\n      pop\n        /* \"#utility.yul\":1859:1936   */\n      swap2\n      swap1\n      pop\n      jump\t// out\n        /* \"#utility.yul\":1942:2050   */\n    tag_59:\n        /* \"#utility.yul\":2019:2043   */\n      tag_121\n        /* \"#utility.yul\":2037:2042   */\n      dup2\n        /* \"#utility.yul\":2019:2043   */\n      tag_58\n      jump\t// in\n    tag_121:\n        /* \"#utility.yul\":2014:2017   */\n      dup3\n        /* \"#utility.yul\":2007:2044   */\n      mstore\n        /* \"#utility.yul\":1942:2050   */\n      pop\n      pop\n      jump\t// out\n        /* \"#utility.yul\":2108:3055   */\n    tag_60:\n        /* \"#utility.yul\":2209:2212   */\n      0x00\n        /* \"#utility.yul\":2245:2249   */\n      0x80\n        /* \"#utility.yul\":2240:2243   */\n      dup4\n        /* \"#utility.yul\":2236:2250   */\n      add\n        /* \"#utility.yul\":2334:2338   */\n      0x00\n        /* \"#utility.yul\":2327:2332   */\n      dup4\n        /* \"#utility.yul\":2323:2339   */\n      add\n        /* \"#utility.yul\":2317:2340   */\n      mload\n        /* \"#utility.yul\":2353:2416   */\n      tag_123\n        /* \"#utility.yul\":2410:2414   */\n      0x00\n        /* \"#utility.yul\":2405:2408   */\n      dup7\n        /* \"#utility.yul\":2401:2415   */\n      add\n        /* \"#utility.yul\":2387:2399   */\n      dup3\n        /* \"#utility.yul\":2353:2416   */\n      tag_52\n      jump\t// in\n    tag_123:\n        /* \"#utility.yul\":2260:2426   */\n      pop\n        /* \"#utility.yul\":2511:2515   */\n      0x20\n        /* \"#utility.yul\":2504:2509   */\n      dup4\n        /* \"#utility.yul\":2500:2516   */\n      add\n        /* \"#utility.yul\":2494:2517   */\n      mload\n        /* \"#utility.yul\":2564:2567   */\n      dup5\n        /* \"#utility.yul\":2558:2562   */\n      dup3\n        /* \"#utility.yul\":2554:2568   */\n      sub\n        /* \"#utility.yul\":2547:2551   */\n      0x20\n        /* \"#utility.yul\":2542:2545   */\n      dup7\n        /* \"#utility.yul\":2538:2552   */\n      add\n        /* \"#utility.yul\":2531:2569   */\n      mstore\n        /* \"#utility.yul\":2590:2663   */\n      tag_124\n        /* \"#utility.yul\":2658:2662   */\n      dup3\n        /* \"#utility.yul\":2644:2656   */\n      dup3\n        /* \"#utility.yul\":2590:2663   */\n      tag_57\n      jump\t// in\n    tag_124:\n        /* \"#utility.yul\":2582:2663   */\n      swap2\n      pop\n        /* \"#utility.yul\":2436:2674   */\n      pop\n        /* \"#utility.yul\":2761:2765   */\n      0x40\n        /* \"#utility.yul\":2754:2759   */\n      dup4\n        /* \"#utility.yul\":2750:2766   */\n      add\n        /* \"#utility.yul\":2744:2767   */\n      mload\n        /* \"#utility.yul\":2780:2843   */\n      tag_125\n        /* \"#utility.yul\":2837:2841   */\n      0x40\n        /* \"#utility.yul\":2832:2835   */\n      dup7\n        /* \"#utility.yul\":2828:2842   */\n      add\n        /* \"#utility.yul\":2814:2826   */\n      dup3\n        /* \"#utility.yul\":2780:2843   */\n      tag_59\n      jump\t// in\n    tag_125:\n        /* \"#utility.yul\":2684:2853   */\n      pop\n        /* \"#utility.yul\":2936:2940   */\n      0x60\n        /* \"#utility.yul\":2929:2934   */\n      dup4\n        /* \"#utility.yul\":2925:2941   */\n      add\n        /* \"#utility.yul\":2919:2942   */\n      mload\n        /* \"#utility.yul\":2955:3018   */\n      tag_126\n        /* \"#utility.yul\":3012:3016   */\n      0x60\n        /* \"#utility.yul\":3007:3010   */\n      dup7\n        /* \"#utility.yul\":3003:3017   */\n      add\n        /* \"#utility.yul\":2989:3001   */\n      dup3\n        /* \"#utility.yul\":2955:3018   */\n      tag_59\n      jump\t// in\n    tag_126:\n        /* \"#utility.yul\":2863:3028   */\n      pop\n        /* \"#utility.yul\":3045:3049   */\n      dup1\n        /* \"#utility.yul\":3038:3049   */\n      swap2\n      pop\n        /* \"#utility.yul\":2214:3055   */\n      pop\n        /* \"#utility.yul\":2108:3055   */\n      swap3\n      swap2\n      pop\n      pop\n      jump\t// out\n        /* \"#utility.yul\":3061:3301   */\n    tag_61:\n        /* \"#utility.yul\":3172:3182   */\n      0x00\n        /* \"#utility.yul\":3207:3295   */\n      tag_128\n        /* \"#utility.yul\":3291:3294   */\n      dup4\n        /* \"#utility.yul\":3283:3289   */\n      dup4\n        /* \"#utility.yul\":3207:3295   */\n      tag_60\n      jump\t// in\n    tag_128:\n        /* \"#utility.yul\":3193:3295   */\n      swap1\n      pop\n        /* \"#utility.yul\":3061:3301   */\n      swap3\n      swap2\n      pop\n      pop\n      jump\t// out\n        /* \"#utility.yul\":3307:3441   */\n    tag_62:\n        /* \"#utility.yul\":3398:3402   */\n      0x00\n        /* \"#utility.yul\":3430:3434   */\n      0x20\n        /* \"#utility.yul\":3425:3428   */\n      dup3\n        /* \"#utility.yul\":3421:3435   */\n      add\n        /* \"#utility.yul\":3413:3435   */\n      swap1\n      pop\n        /* \"#utility.yul\":3307:3441   */\n      swap2\n      swap1\n      pop\n      jump\t// out\n        /* \"#utility.yul\":3503:4582   */\n    tag_63:\n        /* \"#utility.yul\":3664:3667   */\n      0x00\n        /* \"#utility.yul\":3693:3768   */\n      tag_131\n        /* \"#utility.yul\":3762:3767   */\n      dup3\n        /* \"#utility.yul\":3693:3768   */\n      tag_47\n      jump\t// in\n    tag_131:\n        /* \"#utility.yul\":3784:3891   */\n      tag_132\n        /* \"#utility.yul\":3884:3890   */\n      dup2\n        /* \"#utility.yul\":3879:3882   */\n      dup6\n        /* \"#utility.yul\":3784:3891   */\n      tag_48\n      jump\t// in\n    tag_132:\n        /* \"#utility.yul\":3777:3891   */\n      swap4\n      pop\n        /* \"#utility.yul\":3917:3920   */\n      dup4\n        /* \"#utility.yul\":3962:3966   */\n      0x20\n        /* \"#utility.yul\":3954:3960   */\n      dup3\n        /* \"#utility.yul\":3950:3967   */\n      mul\n        /* \"#utility.yul\":3945:3948   */\n      dup6\n        /* \"#utility.yul\":3941:3968   */\n      add\n        /* \"#utility.yul\":3992:4069   */\n      tag_133\n        /* \"#utility.yul\":4063:4068   */\n      dup6\n        /* \"#utility.yul\":3992:4069   */\n      tag_49\n      jump\t// in\n    tag_133:\n        /* \"#utility.yul\":4092:4099   */\n      dup1\n        /* \"#utility.yul\":4123:4124   */\n      0x00\n        /* \"#utility.yul\":4108:4537   */\n    tag_134:\n        /* \"#utility.yul\":4133:4139   */\n      dup6\n        /* \"#utility.yul\":4130:4131   */\n      dup2\n        /* \"#utility.yul\":4127:4140   */\n      lt\n        /* \"#utility.yul\":4108:4537   */\n      iszero\n      tag_136\n      jumpi\n        /* \"#utility.yul\":4204:4213   */\n      dup5\n        /* \"#utility.yul\":4198:4202   */\n      dup5\n        /* \"#utility.yul\":4194:4214   */\n      sub\n        /* \"#utility.yul\":4189:4192   */\n      dup10\n        /* \"#utility.yul\":4182:4215   */\n      mstore\n        /* \"#utility.yul\":4255:4261   */\n      dup2\n        /* \"#utility.yul\":4249:4262   */\n      mload\n        /* \"#utility.yul\":4283:4389   */\n      tag_137\n        /* \"#utility.yul\":4384:4388   */\n      dup6\n        /* \"#utility.yul\":4369:4382   */\n      dup3\n        /* \"#utility.yul\":4283:4389   */\n      tag_61\n      jump\t// in\n    tag_137:\n        /* \"#utility.yul\":4275:4389   */\n      swap5\n      pop\n        /* \"#utility.yul\":4412:4493   */\n      tag_138\n        /* \"#utility.yul\":4486:4492   */\n      dup4\n        /* \"#utility.yul\":4412:4493   */\n      tag_62\n      jump\t// in\n    tag_138:\n        /* \"#utility.yul\":4402:4493   */\n      swap3\n      pop\n        /* \"#utility.yul\":4522:4526   */\n      0x20\n        /* \"#utility.yul\":4517:4520   */\n      dup11\n        /* \"#utility.yul\":4513:4527   */\n      add\n        /* \"#utility.yul\":4506:4527   */\n      swap10\n      pop\n        /* \"#utility.yul\":4168:4537   */\n      pop\n        /* \"#utility.yul\":4155:4156   */\n      0x01\n        /* \"#utility.yul\":4152:4153   */\n      dup2\n        /* \"#utility.yul\":4148:4157   */\n      add\n        /* \"#utility.yul\":4143:4157   */\n      swap1\n      pop\n        /* \"#utility.yul\":4108:4537   */\n      jump(tag_134)\n    tag_136:\n        /* \"#utility.yul\":4112:4126   */\n      pop\n        /* \"#utility.yul\":4553:4557   */\n      dup3\n        /* \"#utility.yul\":4546:4557   */\n      swap8\n      pop\n        /* \"#utility.yul\":4573:4576   */\n      dup8\n        /* \"#utility.yul\":4566:4576   */\n      swap6\n      pop\n        /* \"#utility.yul\":3669:4582   */\n      pop\n      pop\n      pop\n      pop\n      pop\n        /* \"#utility.yul\":3503:4582   */\n      swap3\n      swap2\n      pop\n      pop\n      jump\t// out\n        /* \"#utility.yul\":4588:5045   */\n    tag_9:\n        /* \"#utility.yul\":4773:4777   */\n      0x00\n        /* \"#utility.yul\":4811:4813   */\n      0x20\n        /* \"#utility.yul\":4800:4809   */\n      dup3\n        /* \"#utility.yul\":4796:4814   */\n      add\n        /* \"#utility.yul\":4788:4814   */\n      swap1\n      pop\n        /* \"#utility.yul\":4860:4869   */\n      dup2\n        /* \"#utility.yul\":4854:4858   */\n      dup2\n        /* \"#utility.yul\":4850:4870   */\n      sub\n        /* \"#utility.yul\":4846:4847   */\n      0x00\n        /* \"#utility.yul\":4835:4844   */\n      dup4\n        /* \"#utility.yul\":4831:4848   */\n      add\n        /* \"#utility.yul\":4824:4871   */\n      mstore\n        /* \"#utility.yul\":4888:5038   */\n      tag_140\n        /* \"#utility.yul\":5033:5037   */\n      dup2\n        /* \"#utility.yul\":5024:5030   */\n      dup5\n        /* \"#utility.yul\":4888:5038   */\n      tag_63\n      jump\t// in\n    tag_140:\n        /* \"#utility.yul\":4880:5038   */\n      swap1\n      pop\n        /* \"#utility.yul\":4588:5045   */\n      swap3\n      swap2\n      pop\n      pop\n      jump\t// out\n        /* \"#utility.yul\":5051:5126   */\n    tag_64:\n        /* \"#utility.yul\":5084:5090   */\n      0x00\n        /* \"#utility.yul\":5117:5119   */\n      0x40\n        /* \"#utility.yul\":5111:5120   */\n      mload\n        /* \"#utility.yul\":5101:5120   */\n      swap1\n      pop\n        /* \"#utility.yul\":5051:5126   */\n      swap1\n      jump\t// out\n        /* \"#utility.yul\":5132:5249   */\n    tag_65:\n        /* \"#utility.yul\":5241:5242   */\n      0x00\n        /* \"#utility.yul\":5238:5239   */\n      dup1\n        /* \"#utility.yul\":5231:5243   */\n      revert\n        /* \"#utility.yul\":5255:5372   */\n    tag_66:\n        /* \"#utility.yul\":5364:5365   */\n      0x00\n        /* \"#utility.yul\":5361:5362   */\n      dup1\n        /* \"#utility.yul\":5354:5366   */\n      revert\n        /* \"#utility.yul\":5378:5495   */\n    tag_67:\n        /* \"#utility.yul\":5487:5488   */\n      0x00\n        /* \"#utility.yul\":5484:5485   */\n      dup1\n        /* \"#utility.yul\":5477:5489   */\n      revert\n        /* \"#utility.yul\":5501:5618   */\n    tag_68:\n        /* \"#utility.yul\":5610:5611   */\n      0x00\n        /* \"#utility.yul\":5607:5608   */\n      dup1\n        /* \"#utility.yul\":5600:5612   */\n      revert\n        /* \"#utility.yul\":5624:5804   */\n    tag_69:\n        /* \"#utility.yul\":5672:5749   */\n      0x4e487b7100000000000000000000000000000000000000000000000000000000\n        /* \"#utility.yul\":5669:5670   */\n      0x00\n        /* \"#utility.yul\":5662:5750   */\n      mstore\n        /* \"#utility.yul\":5769:5773   */\n      0x41\n        /* \"#utility.yul\":5766:5767   */\n      0x04\n        /* \"#utility.yul\":5759:5774   */\n      mstore\n        /* \"#utility.yul\":5793:5797   */\n      0x24\n        /* \"#utility.yul\":5790:5791   */\n      0x00\n        /* \"#utility.yul\":5783:5798   */\n      revert\n        /* \"#utility.yul\":5810:6091   */\n    tag_70:\n        /* \"#utility.yul\":5893:5920   */\n      tag_148\n        /* \"#utility.yul\":5915:5919   */\n      dup3\n        /* \"#utility.yul\":5893:5920   */\n      tag_56\n      jump\t// in\n    tag_148:\n        /* \"#utility.yul\":5885:5891   */\n      dup2\n        /* \"#utility.yul\":5881:5921   */\n      add\n        /* \"#utility.yul\":6023:6029   */\n      dup2\n        /* \"#utility.yul\":6011:6021   */\n      dup2\n        /* \"#utility.yul\":6008:6030   */\n      lt\n        /* \"#utility.yul\":5987:6005   */\n      0xffffffffffffffff\n        /* \"#utility.yul\":5975:5985   */\n      dup3\n        /* \"#utility.yul\":5972:6006   */\n      gt\n        /* \"#utility.yul\":5969:6031   */\n      or\n        /* \"#utility.yul\":5966:6054   */\n      iszero\n      tag_149\n      jumpi\n        /* \"#utility.yul\":6034:6052   */\n      tag_150\n      tag_69\n      jump\t// in\n    tag_150:\n        /* \"#utility.yul\":5966:6054   */\n    tag_149:\n        /* \"#utility.yul\":6074:6084   */\n      dup1\n        /* \"#utility.yul\":6070:6072   */\n      0x40\n        /* \"#utility.yul\":6063:6085   */\n      mstore\n        /* \"#utility.yul\":5853:6091   */\n      pop\n        /* \"#utility.yul\":5810:6091   */\n      pop\n      pop\n      jump\t// out\n        /* \"#utility.yul\":6097:6226   */\n    tag_71:\n        /* \"#utility.yul\":6131:6137   */\n      0x00\n        /* \"#utility.yul\":6158:6178   */\n      tag_152\n      tag_64\n      jump\t// in\n    tag_152:\n        /* \"#utility.yul\":6148:6178   */\n      swap1\n      pop\n        /* \"#utility.yul\":6187:6220   */\n      tag_153\n        /* \"#utility.yul\":6215:6219   */\n      dup3\n        /* \"#utility.yul\":6207:6213   */\n      dup3\n        /* \"#utility.yul\":6187:6220   */\n      tag_70\n      jump\t// in\n    tag_153:\n        /* \"#utility.yul\":6097:6226   */\n      swap2\n      swap1\n      pop\n      jump\t// out\n        /* \"#utility.yul\":6232:6540   */\n    tag_72:\n        /* \"#utility.yul\":6294:6298   */\n      0x00\n        /* \"#utility.yul\":6384:6402   */\n      0xffffffffffffffff\n        /* \"#utility.yul\":6376:6382   */\n      dup3\n        /* \"#utility.yul\":6373:6403   */\n      gt\n        /* \"#utility.yul\":6370:6426   */\n      iszero\n      tag_155\n      jumpi\n        /* \"#utility.yul\":6406:6424   */\n      tag_156\n      tag_69\n      jump\t// in\n    tag_156:\n        /* \"#utility.yul\":6370:6426   */\n    tag_155:\n        /* \"#utility.yul\":6444:6473   */\n      tag_157\n        /* \"#utility.yul\":6466:6472   */\n      dup3\n        /* \"#utility.yul\":6444:6473   */\n      tag_56\n      jump\t// in\n    tag_157:\n        /* \"#utility.yul\":6436:6473   */\n      swap1\n      pop\n        /* \"#utility.yul\":6528:6532   */\n      0x20\n        /* \"#utility.yul\":6522:6526   */\n      dup2\n        /* \"#utility.yul\":6518:6533   */\n      add\n        /* \"#utility.yul\":6510:6533   */\n      swap1\n      pop\n        /* \"#utility.yul\":6232:6540   */\n      swap2\n      swap1\n      pop\n      jump\t// out\n        /* \"#utility.yul\":6546:6692   */\n    tag_73:\n        /* \"#utility.yul\":6643:6649   */\n      dup3\n        /* \"#utility.yul\":6638:6641   */\n      dup2\n        /* \"#utility.yul\":6633:6636   */\n      dup4\n        /* \"#utility.yul\":6620:6650   */\n      calldatacopy\n        /* \"#utility.yul\":6684:6685   */\n      0x00\n        /* \"#utility.yul\":6675:6681   */\n      dup4\n        /* \"#utility.yul\":6670:6673   */\n      dup4\n        /* \"#utility.yul\":6666:6682   */\n      add\n        /* \"#utility.yul\":6659:6686   */\n      mstore\n        /* \"#utility.yul\":6546:6692   */\n      pop\n      pop\n      pop\n      jump\t// out\n        /* \"#utility.yul\":6698:7123   */\n    tag_74:\n        /* \"#utility.yul\":6776:6781   */\n      0x00\n        /* \"#utility.yul\":6801:6867   */\n      tag_160\n        /* \"#utility.yul\":6817:6866   */\n      tag_161\n        /* \"#utility.yul\":6859:6865   */\n      dup5\n        /* \"#utility.yul\":6817:6866   */\n      tag_72\n      jump\t// in\n    tag_161:\n        /* \"#utility.yul\":6801:6867   */\n      tag_71\n      jump\t// in\n    tag_160:\n        /* \"#utility.yul\":6792:6867   */\n      swap1\n      pop\n        /* \"#utility.yul\":6890:6896   */\n      dup3\n        /* \"#utility.yul\":6883:6888   */\n      dup2\n        /* \"#utility.yul\":6876:6897   */\n      mstore\n        /* \"#utility.yul\":6928:6932   */\n      0x20\n        /* \"#utility.yul\":6921:6926   */\n      dup2\n        /* \"#utility.yul\":6917:6933   */\n      add\n        /* \"#utility.yul\":6966:6969   */\n      dup5\n        /* \"#utility.yul\":6957:6963   */\n      dup5\n        /* \"#utility.yul\":6952:6955   */\n      dup5\n        /* \"#utility.yul\":6948:6964   */\n      add\n        /* \"#utility.yul\":6945:6970   */\n      gt\n        /* \"#utility.yul\":6942:7054   */\n      iszero\n      tag_162\n      jumpi\n        /* \"#utility.yul\":6973:7052   */\n      tag_163\n      tag_68\n      jump\t// in\n    tag_163:\n        /* \"#utility.yul\":6942:7054   */\n    tag_162:\n        /* \"#utility.yul\":7063:7117   */\n      tag_164\n        /* \"#utility.yul\":7110:7116   */\n      dup5\n        /* \"#utility.yul\":7105:7108   */\n      dup3\n        /* \"#utility.yul\":7100:7103   */\n      dup6\n        /* \"#utility.yul\":7063:7117   */\n      tag_73\n      jump\t// in\n    tag_164:\n        /* \"#utility.yul\":6782:7123   */\n      pop\n        /* \"#utility.yul\":6698:7123   */\n      swap4\n      swap3\n      pop\n      pop\n      pop\n      jump\t// out\n        /* \"#utility.yul\":7143:7483   */\n    tag_75:\n        /* \"#utility.yul\":7199:7204   */\n      0x00\n        /* \"#utility.yul\":7248:7251   */\n      dup3\n        /* \"#utility.yul\":7241:7245   */\n      0x1f\n        /* \"#utility.yul\":7233:7239   */\n      dup4\n        /* \"#utility.yul\":7229:7246   */\n      add\n        /* \"#utility.yul\":7225:7252   */\n      slt\n        /* \"#utility.yul\":7215:7337   */\n      tag_166\n      jumpi\n        /* \"#utility.yul\":7256:7335   */\n      tag_167\n      tag_67\n      jump\t// in\n    tag_167:\n        /* \"#utility.yul\":7215:7337   */\n    tag_166:\n        /* \"#utility.yul\":7373:7379   */\n      dup2\n        /* \"#utility.yul\":7360:7380   */\n      calldataload\n        /* \"#utility.yul\":7398:7477   */\n      tag_168\n        /* \"#utility.yul\":7473:7476   */\n      dup5\n        /* \"#utility.yul\":7465:7471   */\n      dup3\n        /* \"#utility.yul\":7458:7462   */\n      0x20\n        /* \"#utility.yul\":7450:7456   */\n      dup7\n        /* \"#utility.yul\":7446:7463   */\n      add\n        /* \"#utility.yul\":7398:7477   */\n      tag_74\n      jump\t// in\n    tag_168:\n        /* \"#utility.yul\":7389:7477   */\n      swap2\n      pop\n        /* \"#utility.yul\":7205:7483   */\n      pop\n        /* \"#utility.yul\":7143:7483   */\n      swap3\n      swap2\n      pop\n      pop\n      jump\t// out\n        /* \"#utility.yul\":7489:7998   */\n    tag_12:\n        /* \"#utility.yul\":7558:7564   */\n      0x00\n        /* \"#utility.yul\":7607:7609   */\n      0x20\n        /* \"#utility.yul\":7595:7604   */\n      dup3\n        /* \"#utility.yul\":7586:7593   */\n      dup5\n        /* \"#utility.yul\":7582:7605   */\n      sub\n        /* \"#utility.yul\":7578:7610   */\n      slt\n        /* \"#utility.yul\":7575:7694   */\n      iszero\n      tag_170\n      jumpi\n        /* \"#utility.yul\":7613:7692   */\n      tag_171\n      tag_65\n      jump\t// in\n    tag_171:\n        /* \"#utility.yul\":7575:7694   */\n    tag_170:\n        /* \"#utility.yul\":7761:7762   */\n      0x00\n        /* \"#utility.yul\":7750:7759   */\n      dup3\n        /* \"#utility.yul\":7746:7763   */\n      add\n        /* \"#utility.yul\":7733:7764   */\n      calldataload\n        /* \"#utility.yul\":7791:7809   */\n      0xffffffffffffffff\n        /* \"#utility.yul\":7783:7789   */\n      dup2\n        /* \"#utility.yul\":7780:7810   */\n      gt\n        /* \"#utility.yul\":7777:7894   */\n      iszero\n      tag_172\n      jumpi\n        /* \"#utility.yul\":7813:7892   */\n      tag_173\n      tag_66\n      jump\t// in\n    tag_173:\n        /* \"#utility.yul\":7777:7894   */\n    tag_172:\n        /* \"#utility.yul\":7918:7981   */\n      tag_174\n        /* \"#utility.yul\":7973:7980   */\n      dup5\n        /* \"#utility.yul\":7964:7970   */\n      dup3\n        /* \"#utility.yul\":7953:7962   */\n      dup6\n        /* \"#utility.yul\":7949:7971   */\n      add\n        /* \"#utility.yul\":7918:7981   */\n      tag_75\n      jump\t// in\n    tag_174:\n        /* \"#utility.yul\":7908:7981   */\n      swap2\n      pop\n        /* \"#utility.yul\":7704:7991   */\n      pop\n        /* \"#utility.yul\":7489:7998   */\n      swap3\n      swap2\n      pop\n      pop\n      jump\t// out\n        /* \"#utility.yul\":8004:8126   */\n    tag_76:\n        /* \"#utility.yul\":8077:8101   */\n      tag_176\n        /* \"#utility.yul\":8095:8100   */\n      dup2\n        /* \"#utility.yul\":8077:8101   */\n      tag_58\n      jump\t// in\n    tag_176:\n        /* \"#utility.yul\":8070:8075   */\n      dup2\n        /* \"#utility.yul\":8067:8102   */\n      eq\n        /* \"#utility.yul\":8057:8120   */\n      tag_177\n      jumpi\n        /* \"#utility.yul\":8116:8117   */\n      0x00\n        /* \"#utility.yul\":8113:8114   */\n      dup1\n        /* \"#utility.yul\":8106:8118   */\n      revert\n        /* \"#utility.yul\":8057:8120   */\n    tag_177:\n        /* \"#utility.yul\":8004:8126   */\n      pop\n      jump\t// out\n        /* \"#utility.yul\":8132:8271   */\n    tag_77:\n        /* \"#utility.yul\":8178:8183   */\n      0x00\n        /* \"#utility.yul\":8216:8222   */\n      dup2\n        /* \"#utility.yul\":8203:8223   */\n      calldataload\n        /* \"#utility.yul\":8194:8223   */\n      swap1\n      pop\n        /* \"#utility.yul\":8232:8265   */\n      tag_179\n        /* \"#utility.yul\":8259:8264   */\n      dup2\n        /* \"#utility.yul\":8232:8265   */\n      tag_76\n      jump\t// in\n    tag_179:\n        /* \"#utility.yul\":8132:8271   */\n      swap3\n      swap2\n      pop\n      pop\n      jump\t// out\n        /* \"#utility.yul\":8277:8606   */\n    tag_16:\n        /* \"#utility.yul\":8336:8342   */\n      0x00\n        /* \"#utility.yul\":8385:8387   */\n      0x20\n        /* \"#utility.yul\":8373:8382   */\n      dup3\n        /* \"#utility.yul\":8364:8371   */\n      dup5\n        /* \"#utility.yul\":8360:8383   */\n      sub\n        /* \"#utility.yul\":8356:8388   */\n      slt\n        /* \"#utility.yul\":8353:8472   */\n      iszero\n      tag_181\n      jumpi\n        /* \"#utility.yul\":8391:8470   */\n      tag_182\n      tag_65\n      jump\t// in\n    tag_182:\n        /* \"#utility.yul\":8353:8472   */\n    tag_181:\n        /* \"#utility.yul\":8511:8512   */\n      0x00\n        /* \"#utility.yul\":8536:8589   */\n      tag_183\n        /* \"#utility.yul\":8581:8588   */\n      dup5\n        /* \"#utility.yul\":8572:8578   */\n      dup3\n        /* \"#utility.yul\":8561:8570   */\n      dup6\n        /* \"#utility.yul\":8557:8579   */\n      add\n        /* \"#utility.yul\":8536:8589   */\n      tag_77\n      jump\t// in\n    tag_183:\n        /* \"#utility.yul\":8526:8589   */\n      swap2\n      pop\n        /* \"#utility.yul\":8482:8599   */\n      pop\n        /* \"#utility.yul\":8277:8606   */\n      swap3\n      swap2\n      pop\n      pop\n      jump\t// out\n        /* \"#utility.yul\":8612:8781   */\n    tag_78:\n        /* \"#utility.yul\":8696:8707   */\n      0x00\n        /* \"#utility.yul\":8730:8736   */\n      dup3\n        /* \"#utility.yul\":8725:8728   */\n      dup3\n        /* \"#utility.yul\":8718:8737   */\n      mstore\n        /* \"#utility.yul\":8770:8774   */\n      0x20\n        /* \"#utility.yul\":8765:8768   */\n      dup3\n        /* \"#utility.yul\":8761:8775   */\n      add\n        /* \"#utility.yul\":8746:8775   */\n      swap1\n      pop\n        /* \"#utility.yul\":8612:8781   */\n      swap3\n      swap2\n      pop\n      pop\n      jump\t// out\n        /* \"#utility.yul\":8787:9164   */\n    tag_79:\n        /* \"#utility.yul\":8875:8878   */\n      0x00\n        /* \"#utility.yul\":8903:8942   */\n      tag_186\n        /* \"#utility.yul\":8936:8941   */\n      dup3\n        /* \"#utility.yul\":8903:8942   */\n      tag_53\n      jump\t// in\n    tag_186:\n        /* \"#utility.yul\":8958:9029   */\n      tag_187\n        /* \"#utility.yul\":9022:9028   */\n      dup2\n        /* \"#utility.yul\":9017:9020   */\n      dup6\n        /* \"#utility.yul\":8958:9029   */\n      tag_78\n      jump\t// in\n    tag_187:\n        /* \"#utility.yul\":8951:9029   */\n      swap4\n      pop\n        /* \"#utility.yul\":9038:9103   */\n      tag_188\n        /* \"#utility.yul\":9096:9102   */\n      dup2\n        /* \"#utility.yul\":9091:9094   */\n      dup6\n        /* \"#utility.yul\":9084:9088   */\n      0x20\n        /* \"#utility.yul\":9077:9082   */\n      dup7\n        /* \"#utility.yul\":9073:9089   */\n      add\n        /* \"#utility.yul\":9038:9103   */\n      tag_55\n      jump\t// in\n    tag_188:\n        /* \"#utility.yul\":9128:9157   */\n      tag_189\n        /* \"#utility.yul\":9150:9156   */\n      dup2\n        /* \"#utility.yul\":9128:9157   */\n      tag_56\n      jump\t// in\n    tag_189:\n        /* \"#utility.yul\":9123:9126   */\n      dup5\n        /* \"#utility.yul\":9119:9158   */\n      add\n        /* \"#utility.yul\":9112:9158   */\n      swap2\n      pop\n        /* \"#utility.yul\":8879:9164   */\n      pop\n        /* \"#utility.yul\":8787:9164   */\n      swap3\n      swap2\n      pop\n      pop\n      jump\t// out\n        /* \"#utility.yul\":9170:9483   */\n    tag_19:\n        /* \"#utility.yul\":9283:9287   */\n      0x00\n        /* \"#utility.yul\":9321:9323   */\n      0x20\n        /* \"#utility.yul\":9310:9319   */\n      dup3\n        /* \"#utility.yul\":9306:9324   */\n      add\n        /* \"#utility.yul\":9298:9324   */\n      swap1\n      pop\n        /* \"#utility.yul\":9370:9379   */\n      dup2\n        /* \"#utility.yul\":9364:9368   */\n      dup2\n        /* \"#utility.yul\":9360:9380   */\n      sub\n        /* \"#utility.yul\":9356:9357   */\n      0x00\n        /* \"#utility.yul\":9345:9354   */\n      dup4\n        /* \"#utility.yul\":9341:9358   */\n      add\n        /* \"#utility.yul\":9334:9381   */\n      mstore\n        /* \"#utility.yul\":9398:9476   */\n      tag_191\n        /* \"#utility.yul\":9471:9475   */\n      dup2\n        /* \"#utility.yul\":9462:9468   */\n      dup5\n        /* \"#utility.yul\":9398:9476   */\n      tag_79\n      jump\t// in\n    tag_191:\n        /* \"#utility.yul\":9390:9476   */\n      swap1\n      pop\n        /* \"#utility.yul\":9170:9483   */\n      swap3\n      swap2\n      pop\n      pop\n      jump\t// out\n        /* \"#utility.yul\":9489:9669   */\n    tag_80:\n        /* \"#utility.yul\":9537:9614   */\n      0x4e487b7100000000000000000000000000000000000000000000000000000000\n        /* \"#utility.yul\":9534:9535   */\n      0x00\n        /* \"#utility.yul\":9527:9615   */\n      mstore\n        /* \"#utility.yul\":9634:9638   */\n      0x22\n        /* \"#utility.yul\":9631:9632   */\n      0x04\n        /* \"#utility.yul\":9624:9639   */\n      mstore\n        /* \"#utility.yul\":9658:9662   */\n      0x24\n        /* \"#utility.yul\":9655:9656   */\n      0x00\n        /* \"#utility.yul\":9648:9663   */\n      revert\n        /* \"#utility.yul\":9675:9995   */\n    tag_25:\n        /* \"#utility.yul\":9719:9725   */\n      0x00\n        /* \"#utility.yul\":9756:9757   */\n      0x02\n        /* \"#utility.yul\":9750:9754   */\n      dup3\n        /* \"#utility.yul\":9746:9758   */\n      div\n        /* \"#utility.yul\":9736:9758   */\n      swap1\n      pop\n        /* \"#utility.yul\":9803:9804   */\n      0x01\n        /* \"#utility.yul\":9797:9801   */\n      dup3\n        /* \"#utility.yul\":9793:9805   */\n      and\n        /* \"#utility.yul\":9824:9842   */\n      dup1\n        /* \"#utility.yul\":9814:9895   */\n      tag_194\n      jumpi\n        /* \"#utility.yul\":9880:9884   */\n      0x7f\n        /* \"#utility.yul\":9872:9878   */\n      dup3\n        /* \"#utility.yul\":9868:9885   */\n      and\n        /* \"#utility.yul\":9858:9885   */\n      swap2\n      pop\n        /* \"#utility.yul\":9814:9895   */\n    tag_194:\n        /* \"#utility.yul\":9942:9944   */\n      0x20\n        /* \"#utility.yul\":9934:9940   */\n      dup3\n        /* \"#utility.yul\":9931:9945   */\n      lt\n        /* \"#utility.yul\":9911:9929   */\n      dup2\n        /* \"#utility.yul\":9908:9946   */\n      sub\n        /* \"#utility.yul\":9905:9989   */\n      tag_195\n      jumpi\n        /* \"#utility.yul\":9961:9979   */\n      tag_196\n      tag_80\n      jump\t// in\n    tag_196:\n        /* \"#utility.yul\":9905:9989   */\n    tag_195:\n        /* \"#utility.yul\":9726:9995   */\n      pop\n        /* \"#utility.yul\":9675:9995   */\n      swap2\n      swap1\n      pop\n      jump\t// out\n        /* \"#utility.yul\":10001:10169   */\n    tag_81:\n        /* \"#utility.yul\":10141:10161   */\n      0x547765657420697320746f6f206c6f6e672e0000000000000000000000000000\n        /* \"#utility.yul\":10137:10138   */\n      0x00\n        /* \"#utility.yul\":10129:10135   */\n      dup3\n        /* \"#utility.yul\":10125:10139   */\n      add\n        /* \"#utility.yul\":10118:10162   */\n      mstore\n        /* \"#utility.yul\":10001:10169   */\n      pop\n      jump\t// out\n        /* \"#utility.yul\":10175:10541   */\n    tag_82:\n        /* \"#utility.yul\":10317:10320   */\n      0x00\n        /* \"#utility.yul\":10338:10405   */\n      tag_199\n        /* \"#utility.yul\":10402:10404   */\n      0x12\n        /* \"#utility.yul\":10397:10400   */\n      dup4\n        /* \"#utility.yul\":10338:10405   */\n      tag_78\n      jump\t// in\n    tag_199:\n        /* \"#utility.yul\":10331:10405   */\n      swap2\n      pop\n        /* \"#utility.yul\":10414:10507   */\n      tag_200\n        /* \"#utility.yul\":10503:10506   */\n      dup3\n        /* \"#utility.yul\":10414:10507   */\n      tag_81\n      jump\t// in\n    tag_200:\n        /* \"#utility.yul\":10532:10534   */\n      0x20\n        /* \"#utility.yul\":10527:10530   */\n      dup3\n        /* \"#utility.yul\":10523:10535   */\n      add\n        /* \"#utility.yul\":10516:10535   */\n      swap1\n      pop\n        /* \"#utility.yul\":10175:10541   */\n      swap2\n      swap1\n      pop\n      jump\t// out\n        /* \"#utility.yul\":10547:10966   */\n    tag_33:\n        /* \"#utility.yul\":10713:10717   */\n      0x00\n        /* \"#utility.yul\":10751:10753   */\n      0x20\n        /* \"#utility.yul\":10740:10749   */\n      dup3\n        /* \"#utility.yul\":10736:10754   */\n      add\n        /* \"#utility.yul\":10728:10754   */\n      swap1\n      pop\n        /* \"#utility.yul\":10800:10809   */\n      dup2\n        /* \"#utility.yul\":10794:10798   */\n      dup2\n        /* \"#utility.yul\":10790:10810   */\n      sub\n        /* \"#utility.yul\":10786:10787   */\n      0x00\n        /* \"#utility.yul\":10775:10784   */\n      dup4\n        /* \"#utility.yul\":10771:10788   */\n      add\n        /* \"#utility.yul\":10764:10811   */\n      mstore\n        /* \"#utility.yul\":10828:10959   */\n      tag_202\n        /* \"#utility.yul\":10954:10958   */\n      dup2\n        /* \"#utility.yul\":10828:10959   */\n      tag_82\n      jump\t// in\n    tag_202:\n        /* \"#utility.yul\":10820:10959   */\n      swap1\n      pop\n        /* \"#utility.yul\":10547:10966   */\n      swap2\n      swap1\n      pop\n      jump\t// out\n        /* \"#utility.yul\":10972:11113   */\n    tag_83:\n        /* \"#utility.yul\":11021:11025   */\n      0x00\n        /* \"#utility.yul\":11044:11047   */\n      dup2\n        /* \"#utility.yul\":11036:11047   */\n      swap1\n      pop\n        /* \"#utility.yul\":11067:11070   */\n      dup2\n        /* \"#utility.yul\":11064:11065   */\n      0x00\n        /* \"#utility.yul\":11057:11071   */\n      mstore\n        /* \"#utility.yul\":11101:11105   */\n      0x20\n        /* \"#utility.yul\":11098:11099   */\n      0x00\n        /* \"#utility.yul\":11088:11106   */\n      keccak256\n        /* \"#utility.yul\":11080:11106   */\n      swap1\n      pop\n        /* \"#utility.yul\":10972:11113   */\n      swap2\n      swap1\n      pop\n      jump\t// out\n        /* \"#utility.yul\":11119:11212   */\n    tag_84:\n        /* \"#utility.yul\":11156:11162   */\n      0x00\n        /* \"#utility.yul\":11203:11205   */\n      0x20\n        /* \"#utility.yul\":11198:11200   */\n      0x1f\n        /* \"#utility.yul\":11191:11196   */\n      dup4\n        /* \"#utility.yul\":11187:11201   */\n      add\n        /* \"#utility.yul\":11183:11206   */\n      div\n        /* \"#utility.yul\":11173:11206   */\n      swap1\n      pop\n        /* \"#utility.yul\":11119:11212   */\n      swap2\n      swap1\n      pop\n      jump\t// out\n        /* \"#utility.yul\":11218:11325   */\n    tag_85:\n        /* \"#utility.yul\":11262:11270   */\n      0x00\n        /* \"#utility.yul\":11312:11317   */\n      dup3\n        /* \"#utility.yul\":11306:11310   */\n      dup3\n        /* \"#utility.yul\":11302:11318   */\n      shl\n        /* \"#utility.yul\":11281:11318   */\n      swap1\n      pop\n        /* \"#utility.yul\":11218:11325   */\n      swap3\n      swap2\n      pop\n      pop\n      jump\t// out\n        /* \"#utility.yul\":11331:11724   */\n    tag_86:\n        /* \"#utility.yul\":11400:11406   */\n      0x00\n        /* \"#utility.yul\":11450:11451   */\n      0x08\n        /* \"#utility.yul\":11438:11448   */\n      dup4\n        /* \"#utility.yul\":11434:11452   */\n      mul\n        /* \"#utility.yul\":11473:11570   */\n      tag_207\n        /* \"#utility.yul\":11503:11569   */\n      0xffffffffffffffffffffffffffffffffffffffffffffffffffffffffffffffff\n        /* \"#utility.yul\":11492:11501   */\n      dup3\n        /* \"#utility.yul\":11473:11570   */\n      tag_85\n      jump\t// in\n    tag_207:\n        /* \"#utility.yul\":11591:11630   */\n      tag_208\n        /* \"#utility.yul\":11621:11629   */\n      dup7\n        /* \"#utility.yul\":11610:11619   */\n      dup4\n        /* \"#utility.yul\":11591:11630   */\n      tag_85\n      jump\t// in\n    tag_208:\n        /* \"#utility.yul\":11579:11630   */\n      swap6\n      pop\n        /* \"#utility.yul\":11663:11667   */\n      dup1\n        /* \"#utility.yul\":11659:11668   */\n      not\n        /* \"#utility.yul\":11652:11657   */\n      dup5\n        /* \"#utility.yul\":11648:11669   */\n      and\n        /* \"#utility.yul\":11639:11669   */\n      swap4\n      pop\n        /* \"#utility.yul\":11712:11716   */\n      dup1\n        /* \"#utility.yul\":11702:11710   */\n      dup7\n        /* \"#utility.yul\":11698:11717   */\n      and\n        /* \"#utility.yul\":11691:11696   */\n      dup5\n        /* \"#utility.yul\":11688:11718   */\n      or\n        /* \"#utility.yul\":11678:11718   */\n      swap3\n      pop\n        /* \"#utility.yul\":11407:11724   */\n      pop\n      pop\n        /* \"#utility.yul\":11331:11724   */\n      swap4\n      swap3\n      pop\n      pop\n      pop\n      jump\t// out\n        /* \"#utility.yul\":11730:11790   */\n    tag_87:\n        /* \"#utility.yul\":11758:11761   */\n      0x00\n        /* \"#utility.yul\":11779:11784   */\n      dup2\n        /* \"#utility.yul\":11772:11784   */\n      swap1\n      pop\n        /* \"#utility.yul\":11730:11790   */\n      swap2\n      swap1\n      pop\n      jump\t// out\n        /* \"#utility.yul\":11796:11938   */\n    tag_88:\n        /* \"#utility.yul\":11846:11855   */\n      0x00\n        /* \"#utility.yul\":11879:11932   */\n      tag_211\n        /* \"#utility.yul\":11897:11931   */\n      tag_212\n        /* \"#utility.yul\":11906:11930   */\n      tag_213\n        /* \"#utility.yul\":11924:11929   */\n      dup5\n        /* \"#utility.yul\":11906:11930   */\n      tag_58\n      jump\t// in\n    tag_213:\n        /* \"#utility.yul\":11897:11931   */\n      tag_87\n      jump\t// in\n    tag_212:\n        /* \"#utility.yul\":11879:11932   */\n      tag_58\n      jump\t// in\n    tag_211:\n        /* \"#utility.yul\":11866:11932   */\n      swap1\n      pop\n        /* \"#utility.yul\":11796:11938   */\n      swap2\n      swap1\n      pop\n      jump\t// out\n        /* \"#utility.yul\":11944:12019   */\n    tag_89:\n        /* \"#utility.yul\":11987:11990   */\n      0x00\n        /* \"#utility.yul\":12008:12013   */\n      dup2\n        /* \"#utility.yul\":12001:12013   */\n      swap1\n      pop\n        /* \"#utility.yul\":11944:12019   */\n      swap2\n      swap1\n      pop\n      jump\t// out\n        /* \"#utility.yul\":12025:12294   */\n    tag_90:\n        /* \"#utility.yul\":12135:12174   */\n      tag_216\n        /* \"#utility.yul\":12166:12173   */\n      dup4\n        /* \"#utility.yul\":12135:12174   */\n      tag_88\n      jump\t// in\n    tag_216:\n        /* \"#utility.yul\":12196:12287   */\n      tag_217\n        /* \"#utility.yul\":12245:12286   */\n      tag_218\n        /* \"#utility.yul\":12269:12285   */\n      dup3\n        /* \"#utility.yul\":12245:12286   */\n      tag_89\n      jump\t// in\n    tag_218:\n        /* \"#utility.yul\":12237:12243   */\n      dup5\n        /* \"#utility.yul\":12230:12234   */\n      dup5\n        /* \"#utility.yul\":12224:12235   */\n      sload\n        /* \"#utility.yul\":12196:12287   */\n      tag_86\n      jump\t// in\n    tag_217:\n        /* \"#utility.yul\":12190:12194   */\n      dup3\n        /* \"#utility.yul\":12183:12288   */\n      sstore\n        /* \"#utility.yul\":12101:12294   */\n      pop\n        /* \"#utility.yul\":12025:12294   */\n      pop\n      pop\n      pop\n      jump\t// out\n        /* \"#utility.yul\":12300:12373   */\n    tag_91:\n        /* \"#utility.yul\":12345:12348   */\n      0x00\n        /* \"#utility.yul\":12300:12373   */\n      swap1\n      jump\t// out\n        /* \"#utility.yul\":12379:12568   */\n    tag_92:\n        /* \"#utility.yul\":12456:12488   */\n      tag_221\n      tag_91\n      jump\t// in\n    tag_221:\n        /* \"#utility.yul\":12497:12562   */\n      tag_222\n        /* \"#utility.yul\":12555:12561   */\n      dup2\n        /* \"#utility.yul\":12547:12553   */\n      dup5\n        /* \"#utility.yul\":12541:12545   */\n      dup5\n        /* \"#utility.yul\":12497:12562   */\n      tag_90\n      jump\t// in\n    tag_222:\n        /* \"#utility.yul\":12432:12568   */\n      pop\n        /* \"#utility.yul\":12379:12568   */\n      pop\n      pop\n      jump\t// out\n        /* \"#utility.yul\":12574:12760   */\n    tag_93:\n        /* \"#utility.yul\":12634:12754   */\n    tag_224:\n        /* \"#utility.yul\":12651:12654   */\n      dup2\n        /* \"#utility.yul\":12644:12649   */\n      dup2\n        /* \"#utility.yul\":12641:12655   */\n      lt\n        /* \"#utility.yul\":12634:12754   */\n      iszero\n      tag_226\n      jumpi\n        /* \"#utility.yul\":12705:12744   */\n      tag_227\n        /* \"#utility.yul\":12742:12743   */\n      0x00\n        /* \"#utility.yul\":12735:12740   */\n      dup3\n        /* \"#utility.yul\":12705:12744   */\n      tag_92\n      jump\t// in\n    tag_227:\n        /* \"#utility.yul\":12678:12679   */\n      0x01\n        /* \"#utility.yul\":12671:12676   */\n      dup2\n        /* \"#utility.yul\":12667:12680   */\n      add\n        /* \"#utility.yul\":12658:12680   */\n      swap1\n      pop\n        /* \"#utility.yul\":12634:12754   */\n      jump(tag_224)\n    tag_226:\n        /* \"#utility.yul\":12574:12760   */\n      pop\n      pop\n      jump\t// out\n        /* \"#utility.yul\":12766:13309   */\n    tag_94:\n        /* \"#utility.yul\":12867:12869   */\n      0x1f\n        /* \"#utility.yul\":12862:12865   */\n      dup3\n        /* \"#utility.yul\":12859:12870   */\n      gt\n        /* \"#utility.yul\":12856:13302   */\n      iszero\n      tag_229\n      jumpi\n        /* \"#utility.yul\":12901:12939   */\n      tag_230\n        /* \"#utility.yul\":12933:12938   */\n      dup2\n        /* \"#utility.yul\":12901:12939   */\n      tag_83\n      jump\t// in\n    tag_230:\n        /* \"#utility.yul\":12985:13014   */\n      tag_231\n        /* \"#utility.yul\":13003:13013   */\n      dup5\n        /* \"#utility.yul\":12985:13014   */\n      tag_84\n      jump\t// in\n    tag_231:\n        /* \"#utility.yul\":12975:12983   */\n      dup2\n        /* \"#utility.yul\":12971:13015   */\n      add\n        /* \"#utility.yul\":13168:13170   */\n      0x20\n        /* \"#utility.yul\":13156:13166   */\n      dup6\n        /* \"#utility.yul\":13153:13171   */\n      lt\n        /* \"#utility.yul\":13150:13199   */\n      iszero\n      tag_232\n      jumpi\n        /* \"#utility.yul\":13189:13197   */\n      dup2\n        /* \"#utility.yul\":13174:13197   */\n      swap1\n      pop\n        /* \"#utility.yul\":13150:13199   */\n    tag_232:\n        /* \"#utility.yul\":13212:13292   */\n      tag_233\n        /* \"#utility.yul\":13268:13290   */\n      tag_234\n        /* \"#utility.yul\":13286:13289   */\n      dup6\n        /* \"#utility.yul\":13268:13290   */\n      tag_84\n      jump\t// in\n    tag_234:\n        /* \"#utility.yul\":13258:13266   */\n      dup4\n        /* \"#utility.yul\":13254:13291   */\n      add\n        /* \"#utility.yul\":13241:13252   */\n      dup3\n        /* \"#utility.yul\":13212:13292   */\n      tag_93\n      jump\t// in\n    tag_233:\n        /* \"#utility.yul\":12871:13302   */\n      pop\n      pop\n        /* \"#utility.yul\":12856:13302   */\n    tag_229:\n        /* \"#utility.yul\":12766:13309   */\n      pop\n      pop\n      pop\n      jump\t// out\n        /* \"#utility.yul\":13315:13432   */\n    tag_95:\n        /* \"#utility.yul\":13369:13377   */\n      0x00\n        /* \"#utility.yul\":13419:13424   */\n      dup3\n        /* \"#utility.yul\":13413:13417   */\n      dup3\n        /* \"#utility.yul\":13409:13425   */\n      shr\n        /* \"#utility.yul\":13388:13425   */\n      swap1\n      pop\n        /* \"#utility.yul\":13315:13432   */\n      swap3\n      swap2\n      pop\n      pop\n      jump\t// out\n        /* \"#utility.yul\":13438:13607   */\n    tag_96:\n        /* \"#utility.yul\":13482:13488   */\n      0x00\n        /* \"#utility.yul\":13515:13566   */\n      tag_237\n        /* \"#utility.yul\":13563:13564   */\n      0x00\n        /* \"#utility.yul\":13559:13565   */\n      not\n        /* \"#utility.yul\":13551:13556   */\n      dup5\n        /* \"#utility.yul\":13548:13549   */\n      0x08\n        /* \"#utility.yul\":13544:13557   */\n      mul\n        /* \"#utility.yul\":13515:13566   */\n      tag_95\n      jump\t// in\n    tag_237:\n        /* \"#utility.yul\":13511:13567   */\n      not\n        /* \"#utility.yul\":13596:13600   */\n      dup1\n        /* \"#utility.yul\":13590:13594   */\n      dup4\n        /* \"#utility.yul\":13586:13601   */\n      and\n        /* \"#utility.yul\":13576:13601   */\n      swap2\n      pop\n        /* \"#utility.yul\":13489:13607   */\n      pop\n        /* \"#utility.yul\":13438:13607   */\n      swap3\n      swap2\n      pop\n      pop\n      jump\t// out\n        /* \"#utility.yul\":13612:13907   */\n    tag_97:\n        /* \"#utility.yul\":13688:13692   */\n      0x00\n        /* \"#utility.yul\":13834:13863   */\n      tag_239\n        /* \"#utility.yul\":13859:13862   */\n      dup4\n        /* \"#utility.yul\":13853:13857   */\n      dup4\n        /* \"#utility.yul\":13834:13863   */\n      tag_96\n      jump\t// in\n    tag_239:\n        /* \"#utility.yul\":13826:13863   */\n      swap2\n      pop\n        /* \"#utility.yul\":13896:13899   */\n      dup3\n        /* \"#utility.yul\":13893:13894   */\n      0x02\n        /* \"#utility.yul\":13889:13900   */\n      mul\n        /* \"#utility.yul\":13883:13887   */\n      dup3\n        /* \"#utility.yul\":13880:13901   */\n      or\n        /* \"#utility.yul\":13872:13901   */\n      swap1\n      pop\n        /* \"#utility.yul\":13612:13907   */\n      swap3\n      swap2\n      pop\n      pop\n      jump\t// out\n        /* \"#utility.yul\":13912:15307   */\n    tag_36:\n        /* \"#utility.yul\":14029:14066   */\n      tag_241\n        /* \"#utility.yul\":14062:14065   */\n      dup3\n        /* \"#utility.yul\":14029:14066   */\n      tag_53\n      jump\t// in\n    tag_241:\n        /* \"#utility.yul\":14131:14149   */\n      0xffffffffffffffff\n        /* \"#utility.yul\":14123:14129   */\n      dup2\n        /* \"#utility.yul\":14120:14150   */\n      gt\n        /* \"#utility.yul\":14117:14173   */\n      iszero\n      tag_242\n      jumpi\n        /* \"#utility.yul\":14153:14171   */\n      tag_243\n      tag_69\n      jump\t// in\n    tag_243:\n        /* \"#utility.yul\":14117:14173   */\n    tag_242:\n        /* \"#utility.yul\":14197:14235   */\n      tag_244\n        /* \"#utility.yul\":14229:14233   */\n      dup3\n        /* \"#utility.yul\":14223:14234   */\n      sload\n        /* \"#utility.yul\":14197:14235   */\n      tag_25\n      jump\t// in\n    tag_244:\n        /* \"#utility.yul\":14282:14349   */\n      tag_245\n        /* \"#utility.yul\":14342:14348   */\n      dup3\n        /* \"#utility.yul\":14334:14340   */\n      dup3\n        /* \"#utility.yul\":14328:14332   */\n      dup6\n        /* \"#utility.yul\":14282:14349   */\n      tag_94\n      jump\t// in\n    tag_245:\n        /* \"#utility.yul\":14376:14377   */\n      0x00\n        /* \"#utility.yul\":14400:14404   */\n      0x20\n        /* \"#utility.yul\":14387:14404   */\n      swap1\n      pop\n        /* \"#utility.yul\":14432:14434   */\n      0x1f\n        /* \"#utility.yul\":14424:14430   */\n      dup4\n        /* \"#utility.yul\":14421:14435   */\n      gt\n        /* \"#utility.yul\":14449:14450   */\n      0x01\n        /* \"#utility.yul\":14444:15062   */\n      dup2\n      eq\n      tag_247\n      jumpi\n        /* \"#utility.yul\":15106:15107   */\n      0x00\n        /* \"#utility.yul\":15123:15129   */\n      dup5\n        /* \"#utility.yul\":15120:15197   */\n      iszero\n      tag_248\n      jumpi\n        /* \"#utility.yul\":15172:15181   */\n      dup3\n        /* \"#utility.yul\":15167:15170   */\n      dup8\n        /* \"#utility.yul\":15163:15182   */\n      add\n        /* \"#utility.yul\":15157:15183   */\n      mload\n        /* \"#utility.yul\":15148:15183   */\n      swap1\n      pop\n        /* \"#utility.yul\":15120:15197   */\n    tag_248:\n        /* \"#utility.yul\":15223:15290   */\n      tag_249\n        /* \"#utility.yul\":15283:15289   */\n      dup6\n        /* \"#utility.yul\":15276:15281   */\n      dup3\n        /* \"#utility.yul\":15223:15290   */\n      tag_97\n      jump\t// in\n    tag_249:\n        /* \"#utility.yul\":15217:15221   */\n      dup7\n        /* \"#utility.yul\":15210:15291   */\n      sstore\n        /* \"#utility.yul\":15079:15301   */\n      pop\n        /* \"#utility.yul\":14414:15301   */\n      jump(tag_246)\n        /* \"#utility.yul\":14444:15062   */\n    tag_247:\n        /* \"#utility.yul\":14496:14500   */\n      0x1f\n        /* \"#utility.yul\":14492:14501   */\n      not\n        /* \"#utility.yul\":14484:14490   */\n      dup5\n        /* \"#utility.yul\":14480:14502   */\n      and\n        /* \"#utility.yul\":14530:14567   */\n      tag_250\n        /* \"#utility.yul\":14562:14566   */\n      dup7\n        /* \"#utility.yul\":14530:14567   */\n      tag_83\n      jump\t// in\n    tag_250:\n        /* \"#utility.yul\":14589:14590   */\n      0x00\n        /* \"#utility.yul\":14603:14811   */\n    tag_251:\n        /* \"#utility.yul\":14617:14624   */\n      dup3\n        /* \"#utility.yul\":14614:14615   */\n      dup2\n        /* \"#utility.yul\":14611:14625   */\n      lt\n        /* \"#utility.yul\":14603:14811   */\n      iszero\n      tag_253\n      jumpi\n        /* \"#utility.yul\":14696:14705   */\n      dup5\n        /* \"#utility.yul\":14691:14694   */\n      dup10\n        /* \"#utility.yul\":14687:14706   */\n      add\n        /* \"#utility.yul\":14681:14707   */\n      mload\n        /* \"#utility.yul\":14673:14679   */\n      dup3\n        /* \"#utility.yul\":14666:14708   */\n      sstore\n        /* \"#utility.yul\":14747:14748   */\n      0x01\n        /* \"#utility.yul\":14739:14745   */\n      dup3\n        /* \"#utility.yul\":14735:14749   */\n      add\n        /* \"#utility.yul\":14725:14749   */\n      swap2\n      pop\n        /* \"#utility.yul\":14794:14796   */\n      0x20\n        /* \"#utility.yul\":14783:14792   */\n      dup6\n        /* \"#utility.yul\":14779:14797   */\n      add\n        /* \"#utility.yul\":14766:14797   */\n      swap5\n      pop\n        /* \"#utility.yul\":14640:14644   */\n      0x20\n        /* \"#utility.yul\":14637:14638   */\n      dup2\n        /* \"#utility.yul\":14633:14645   */\n      add\n        /* \"#utility.yul\":14628:14645   */\n      swap1\n      pop\n        /* \"#utility.yul\":14603:14811   */\n      jump(tag_251)\n    tag_253:\n        /* \"#utility.yul\":14839:14845   */\n      dup7\n        /* \"#utility.yul\":14830:14837   */\n      dup4\n        /* \"#utility.yul\":14827:14846   */\n      lt\n        /* \"#utility.yul\":14824:15003   */\n      iszero\n      tag_254\n      jumpi\n        /* \"#utility.yul\":14897:14906   */\n      dup5\n        /* \"#utility.yul\":14892:14895   */\n      dup10\n        /* \"#utility.yul\":14888:14907   */\n      add\n        /* \"#utility.yul\":14882:14908   */\n      mload\n        /* \"#utility.yul\":14940:14988   */\n      tag_255\n        /* \"#utility.yul\":14982:14986   */\n      0x1f\n        /* \"#utility.yul\":14974:14980   */\n      dup10\n        /* \"#utility.yul\":14970:14987   */\n      and\n        /* \"#utility.yul\":14959:14968   */\n      dup3\n        /* \"#utility.yul\":14940:14988   */\n      tag_96\n      jump\t// in\n    tag_255:\n        /* \"#utility.yul\":14932:14938   */\n      dup4\n        /* \"#utility.yul\":14925:14989   */\n      sstore\n        /* \"#utility.yul\":14847:15003   */\n      pop\n        /* \"#utility.yul\":14824:15003   */\n    tag_254:\n        /* \"#utility.yul\":15049:15050   */\n      0x01\n        /* \"#utility.yul\":15045:15046   */\n      0x02\n        /* \"#utility.yul\":15037:15043   */\n      dup9\n        /* \"#utility.yul\":15033:15047   */\n      mul\n        /* \"#utility.yul\":15029:15051   */\n      add\n        /* \"#utility.yul\":15023:15027   */\n      dup9\n        /* \"#utility.yul\":15016:15052   */\n      sstore\n        /* \"#utility.yul\":14451:15062   */\n      pop\n      pop\n      pop\n        /* \"#utility.yul\":14414:15301   */\n    tag_246:\n      pop\n        /* \"#utility.yul\":14004:15307   */\n      pop\n      pop\n      pop\n        /* \"#utility.yul\":13912:15307   */\n      pop\n      pop\n      jump\t// out\n        /* \"#utility.yul\":15313:15493   */\n    tag_40:\n        /* \"#utility.yul\":15361:15438   */\n      0x4e487b7100000000000000000000000000000000000000000000000000000000\n        /* \"#utility.yul\":15358:15359   */\n      0x00\n        /* \"#utility.yul\":15351:15439   */\n      mstore\n        /* \"#utility.yul\":15458:15462   */\n      0x32\n        /* \"#utility.yul\":15455:15456   */\n      0x04\n        /* \"#utility.yul\":15448:15463   */\n      mstore\n        /* \"#utility.yul\":15482:15486   */\n      0x24\n        /* \"#utility.yul\":15479:15480   */\n      0x00\n        /* \"#utility.yul\":15472:15487   */\n      revert\n\n    auxdata: 0xa26469706673582212205d4a9255d4334b715a71db4484ca7e10cb13b43dabb9983103d0c06ded70ee3e64736f6c63430008160033\n}\n",
				"bytecode": {
					"linkReferences": {},
					"object": "608060405234801561000f575f80fd5b50610c748061001d5f395ff3fe608060405234801561000f575f80fd5b506004361061003f575f3560e01c806353256135146100435780637c9cd2bc14610061578063c3ad5ecb1461007d575b5f80fd5b61004b6100ad565b604051610058919061067f565b60405180910390f35b61007b600480360381019061007691906107dc565b61023b565b005b6100976004803603810190610092919061084d565b610396565b6040516100a491906108c0565b60405180910390f35b60605f803373ffffffffffffffffffffffffffffffffffffffff1673ffffffffffffffffffffffffffffffffffffffff1681526020019081526020015f20805480602002602001604051908101604052809291908181526020015f905b82821015610232578382905f5260205f2090600402016040518060800160405290815f82015f9054906101000a900473ffffffffffffffffffffffffffffffffffffffff1673ffffffffffffffffffffffffffffffffffffffff1673ffffffffffffffffffffffffffffffffffffffff16815260200160018201805461018f9061090d565b80601f01602080910402602001604051908101604052809291908181526020018280546101bb9061090d565b80156102065780601f106101dd57610100808354040283529160200191610206565b820191905f5260205f20905b8154815290600101906020018083116101e957829003601f168201915b50505050508152602001600282015481526020016003820154815250508152602001906001019061010a565b50505050905090565b61011861ffff1681511115610285576040517f08c379a000000000000000000000000000000000000000000000000000000000815260040161027c90610987565b60405180910390fd5b5f60405180608001604052803373ffffffffffffffffffffffffffffffffffffffff1681526020018381526020014281526020015f81525090505f803373ffffffffffffffffffffffffffffffffffffffff1673ffffffffffffffffffffffffffffffffffffffff1681526020019081526020015f2081908060018154018082558091505060019003905f5260205f2090600402015f909190919091505f820151815f015f6101000a81548173ffffffffffffffffffffffffffffffffffffffff021916908373ffffffffffffffffffffffffffffffffffffffff160217905550602082015181600101908161037b9190610b42565b50604082015181600201556060820151816003015550505050565b60605f803373ffffffffffffffffffffffffffffffffffffffff1673ffffffffffffffffffffffffffffffffffffffff1681526020019081526020015f2082815481106103e6576103e5610c11565b5b905f5260205f20906004020160010180546104009061090d565b80601f016020809104026020016040519081016040528092919081815260200182805461042c9061090d565b80156104775780601f1061044e57610100808354040283529160200191610477565b820191905f5260205f20905b81548152906001019060200180831161045a57829003601f168201915b50505050509050919050565b5f81519050919050565b5f82825260208201905092915050565b5f819050602082019050919050565b5f73ffffffffffffffffffffffffffffffffffffffff82169050919050565b5f6104d5826104ac565b9050919050565b6104e5816104cb565b82525050565b5f81519050919050565b5f82825260208201905092915050565b5f5b83811015610522578082015181840152602081019050610507565b5f8484015250505050565b5f601f19601f8301169050919050565b5f610547826104eb565b61055181856104f5565b9350610561818560208601610505565b61056a8161052d565b840191505092915050565b5f819050919050565b61058781610575565b82525050565b5f608083015f8301516105a25f8601826104dc565b50602083015184820360208601526105ba828261053d565b91505060408301516105cf604086018261057e565b5060608301516105e2606086018261057e565b508091505092915050565b5f6105f8838361058d565b905092915050565b5f602082019050919050565b5f61061682610483565b610620818561048d565b9350836020820285016106328561049d565b805f5b8581101561066d578484038952815161064e85826105ed565b945061065983610600565b925060208a01995050600181019050610635565b50829750879550505050505092915050565b5f6020820190508181035f830152610697818461060c565b905092915050565b5f604051905090565b5f80fd5b5f80fd5b5f80fd5b5f80fd5b7f4e487b71000000000000000000000000000000000000000000000000000000005f52604160045260245ffd5b6106ee8261052d565b810181811067ffffffffffffffff8211171561070d5761070c6106b8565b5b80604052505050565b5f61071f61069f565b905061072b82826106e5565b919050565b5f67ffffffffffffffff82111561074a576107496106b8565b5b6107538261052d565b9050602081019050919050565b828183375f83830152505050565b5f61078061077b84610730565b610716565b90508281526020810184848401111561079c5761079b6106b4565b5b6107a7848285610760565b509392505050565b5f82601f8301126107c3576107c26106b0565b5b81356107d384826020860161076e565b91505092915050565b5f602082840312156107f1576107f06106a8565b5b5f82013567ffffffffffffffff81111561080e5761080d6106ac565b5b61081a848285016107af565b91505092915050565b61082c81610575565b8114610836575f80fd5b50565b5f8135905061084781610823565b92915050565b5f60208284031215610862576108616106a8565b5b5f61086f84828501610839565b91505092915050565b5f82825260208201905092915050565b5f610892826104eb565b61089c8185610878565b93506108ac818560208601610505565b6108b58161052d565b840191505092915050565b5f6020820190508181035f8301526108d88184610888565b905092915050565b7f4e487b71000000000000000000000000000000000000000000000000000000005f52602260045260245ffd5b5f600282049050600182168061092457607f821691505b602082108103610937576109366108e0565b5b50919050565b7f547765657420697320746f6f206c6f6e672e00000000000000000000000000005f82015250565b5f610971601283610878565b915061097c8261093d565b602082019050919050565b5f6020820190508181035f83015261099e81610965565b9050919050565b5f819050815f5260205f209050919050565b5f6020601f8301049050919050565b5f82821b905092915050565b5f60088302610a017fffffffffffffffffffffffffffffffffffffffffffffffffffffffffffffffff826109c6565b610a0b86836109c6565b95508019841693508086168417925050509392505050565b5f819050919050565b5f610a46610a41610a3c84610575565b610a23565b610575565b9050919050565b5f819050919050565b610a5f83610a2c565b610a73610a6b82610a4d565b8484546109d2565b825550505050565b5f90565b610a87610a7b565b610a92818484610a56565b505050565b5b81811015610ab557610aaa5f82610a7f565b600181019050610a98565b5050565b601f821115610afa57610acb816109a5565b610ad4846109b7565b81016020851015610ae3578190505b610af7610aef856109b7565b830182610a97565b50505b505050565b5f82821c905092915050565b5f610b1a5f1984600802610aff565b1980831691505092915050565b5f610b328383610b0b565b9150826002028217905092915050565b610b4b826104eb565b67ffffffffffffffff811115610b6457610b636106b8565b5b610b6e825461090d565b610b79828285610ab9565b5f60209050601f831160018114610baa575f8415610b98578287015190505b610ba28582610b27565b865550610c09565b601f198416610bb8866109a5565b5f5b82811015610bdf57848901518255600182019150602085019450602081019050610bba565b86831015610bfc5784890151610bf8601f891682610b0b565b8355505b6001600288020188555050505b505050505050565b7f4e487b71000000000000000000000000000000000000000000000000000000005f52603260045260245ffdfea26469706673582212205d4a9255d4334b715a71db4484ca7e10cb13b43dabb9983103d0c06ded70ee3e64736f6c63430008160033",
					"opcodes": "PUSH1 0x80 PUSH1 0x40 MSTORE CALLVALUE DUP1 ISZERO PUSH2 0xF JUMPI PUSH0 DUP1 REVERT JUMPDEST POP PUSH2 0xC74 DUP1 PUSH2 0x1D PUSH0 CODECOPY PUSH0 RETURN INVALID PUSH1 0x80 PUSH1 0x40 MSTORE CALLVALUE DUP1 ISZERO PUSH2 0xF JUMPI PUSH0 DUP1 REVERT JUMPDEST POP PUSH1 0x4 CALLDATASIZE LT PUSH2 0x3F JUMPI PUSH0 CALLDATALOAD PUSH1 0xE0 SHR DUP1 PUSH4 0x53256135 EQ PUSH2 0x43 JUMPI DUP1 PUSH4 0x7C9CD2BC EQ PUSH2 0x61 JUMPI DUP1 PUSH4 0xC3AD5ECB EQ PUSH2 0x7D JUMPI JUMPDEST PUSH0 DUP1 REVERT JUMPDEST PUSH2 0x4B PUSH2 0xAD JUMP JUMPDEST PUSH1 0x40 MLOAD PUSH2 0x58 SWAP2 SWAP1 PUSH2 0x67F JUMP JUMPDEST PUSH1 0x40 MLOAD DUP1 SWAP2 SUB SWAP1 RETURN JUMPDEST PUSH2 0x7B PUSH1 0x4 DUP1 CALLDATASIZE SUB DUP2 ADD SWAP1 PUSH2 0x76 SWAP2 SWAP1 PUSH2 0x7DC JUMP JUMPDEST PUSH2 0x23B JUMP JUMPDEST STOP JUMPDEST PUSH2 0x97 PUSH1 0x4 DUP1 CALLDATASIZE SUB DUP2 ADD SWAP1 PUSH2 0x92 SWAP2 SWAP1 PUSH2 0x84D JUMP JUMPDEST PUSH2 0x396 JUMP JUMPDEST PUSH1 0x40 MLOAD PUSH2 0xA4 SWAP2 SWAP1 PUSH2 0x8C0 JUMP JUMPDEST PUSH1 0x40 MLOAD DUP1 SWAP2 SUB SWAP1 RETURN JUMPDEST PUSH1 0x60 PUSH0 DUP1 CALLER PUSH20 0xFFFFFFFFFFFFFFFFFFFFFFFFFFFFFFFFFFFFFFFF AND PUSH20 0xFFFFFFFFFFFFFFFFFFFFFFFFFFFFFFFFFFFFFFFF AND DUP2 MSTORE PUSH1 0x20 ADD SWAP1 DUP2 MSTORE PUSH1 0x20 ADD PUSH0 KECCAK256 DUP1 SLOAD DUP1 PUSH1 0x20 MUL PUSH1 0x20 ADD PUSH1 0x40 MLOAD SWAP1 DUP2 ADD PUSH1 0x40 MSTORE DUP1 SWAP3 SWAP2 SWAP1 DUP2 DUP2 MSTORE PUSH1 0x20 ADD PUSH0 SWAP1 JUMPDEST DUP3 DUP3 LT ISZERO PUSH2 0x232 JUMPI DUP4 DUP3 SWAP1 PUSH0 MSTORE PUSH1 0x20 PUSH0 KECCAK256 SWAP1 PUSH1 0x4 MUL ADD PUSH1 0x40 MLOAD DUP1 PUSH1 0x80 ADD PUSH1 0x40 MSTORE SWAP1 DUP2 PUSH0 DUP3 ADD PUSH0 SWAP1 SLOAD SWAP1 PUSH2 0x100 EXP SWAP1 DIV PUSH20 0xFFFFFFFFFFFFFFFFFFFFFFFFFFFFFFFFFFFFFFFF AND PUSH20 0xFFFFFFFFFFFFFFFFFFFFFFFFFFFFFFFFFFFFFFFF AND PUSH20 0xFFFFFFFFFFFFFFFFFFFFFFFFFFFFFFFFFFFFFFFF AND DUP2 MSTORE PUSH1 0x20 ADD PUSH1 0x1 DUP3 ADD DUP1 SLOAD PUSH2 0x18F SWAP1 PUSH2 0x90D JUMP JUMPDEST DUP1 PUSH1 0x1F ADD PUSH1 0x20 DUP1 SWAP2 DIV MUL PUSH1 0x20 ADD PUSH1 0x40 MLOAD SWAP1 DUP2 ADD PUSH1 0x40 MSTORE DUP1 SWAP3 SWAP2 SWAP1 DUP2 DUP2 MSTORE PUSH1 0x20 ADD DUP3 DUP1 SLOAD PUSH2 0x1BB SWAP1 PUSH2 0x90D JUMP JUMPDEST DUP1 ISZERO PUSH2 0x206 JUMPI DUP1 PUSH1 0x1F LT PUSH2 0x1DD JUMPI PUSH2 0x100 DUP1 DUP4 SLOAD DIV MUL DUP4 MSTORE SWAP2 PUSH1 0x20 ADD SWAP2 PUSH2 0x206 JUMP JUMPDEST DUP3 ADD SWAP2 SWAP1 PUSH0 MSTORE PUSH1 0x20 PUSH0 KECCAK256 SWAP1 JUMPDEST DUP2 SLOAD DUP2 MSTORE SWAP1 PUSH1 0x1 ADD SWAP1 PUSH1 0x20 ADD DUP1 DUP4 GT PUSH2 0x1E9 JUMPI DUP3 SWAP1 SUB PUSH1 0x1F AND DUP3 ADD SWAP2 JUMPDEST POP POP POP POP POP DUP2 MSTORE PUSH1 0x20 ADD PUSH1 0x2 DUP3 ADD SLOAD DUP2 MSTORE PUSH1 0x20 ADD PUSH1 0x3 DUP3 ADD SLOAD DUP2 MSTORE POP POP DUP2 MSTORE PUSH1 0x20 ADD SWAP1 PUSH1 0x1 ADD SWAP1 PUSH2 0x10A JUMP JUMPDEST POP POP POP POP SWAP1 POP SWAP1 JUMP JUMPDEST PUSH2 0x118 PUSH2 0xFFFF AND DUP2 MLOAD GT ISZERO PUSH2 0x285 JUMPI PUSH1 0x40 MLOAD PUSH32 0x8C379A000000000000000000000000000000000000000000000000000000000 DUP2 MSTORE PUSH1 0x4 ADD PUSH2 0x27C SWAP1 PUSH2 0x987 JUMP JUMPDEST PUSH1 0x40 MLOAD DUP1 SWAP2 SUB SWAP1 REVERT JUMPDEST PUSH0 PUSH1 0x40 MLOAD DUP1 PUSH1 0x80 ADD PUSH1 0x40 MSTORE DUP1 CALLER PUSH20 0xFFFFFFFFFFFFFFFFFFFFFFFFFFFFFFFFFFFFFFFF AND DUP2 MSTORE PUSH1 0x20 ADD DUP4 DUP2 MSTORE PUSH1 0x20 ADD TIMESTAMP DUP2 MSTORE PUSH1 0x20 ADD PUSH0 DUP2 MSTORE POP SWAP1 POP PUSH0 DUP1 CALLER PUSH20 0xFFFFFFFFFFFFFFFFFFFFFFFFFFFFFFFFFFFFFFFF AND PUSH20 0xFFFFFFFFFFFFFFFFFFFFFFFFFFFFFFFFFFFFFFFF AND DUP2 MSTORE PUSH1 0x20 ADD SWAP1 DUP2 MSTORE PUSH1 0x20 ADD PUSH0 KECCAK256 DUP2 SWAP1 DUP1 PUSH1 0x1 DUP2 SLOAD ADD DUP1 DUP3 SSTORE DUP1 SWAP2 POP POP PUSH1 0x1 SWAP1 SUB SWAP1 PUSH0 MSTORE PUSH1 0x20 PUSH0 KECCAK256 SWAP1 PUSH1 0x4 MUL ADD PUSH0 SWAP1 SWAP2 SWAP1 SWAP2 SWAP1 SWAP2 POP PUSH0 DUP3 ADD MLOAD DUP2 PUSH0 ADD PUSH0 PUSH2 0x100 EXP DUP2 SLOAD DUP2 PUSH20 0xFFFFFFFFFFFFFFFFFFFFFFFFFFFFFFFFFFFFFFFF MUL NOT AND SWAP1 DUP4 PUSH20 0xFFFFFFFFFFFFFFFFFFFFFFFFFFFFFFFFFFFFFFFF AND MUL OR SWAP1 SSTORE POP PUSH1 0x20 DUP3 ADD MLOAD DUP2 PUSH1 0x1 ADD SWAP1 DUP2 PUSH2 0x37B SWAP2 SWAP1 PUSH2 0xB42 JUMP JUMPDEST POP PUSH1 0x40 DUP3 ADD MLOAD DUP2 PUSH1 0x2 ADD SSTORE PUSH1 0x60 DUP3 ADD MLOAD DUP2 PUSH1 0x3 ADD SSTORE POP POP POP POP JUMP JUMPDEST PUSH1 0x60 PUSH0 DUP1 CALLER PUSH20 0xFFFFFFFFFFFFFFFFFFFFFFFFFFFFFFFFFFFFFFFF AND PUSH20 0xFFFFFFFFFFFFFFFFFFFFFFFFFFFFFFFFFFFFFFFF AND DUP2 MSTORE PUSH1 0x20 ADD SWAP1 DUP2 MSTORE PUSH1 0x20 ADD PUSH0 KECCAK256 DUP3 DUP2 SLOAD DUP2 LT PUSH2 0x3E6 JUMPI PUSH2 0x3E5 PUSH2 0xC11 JUMP JUMPDEST JUMPDEST SWAP1 PUSH0 MSTORE PUSH1 0x20 PUSH0 KECCAK256 SWAP1 PUSH1 0x4 MUL ADD PUSH1 0x1 ADD DUP1 SLOAD PUSH2 0x400 SWAP1 PUSH2 0x90D JUMP JUMPDEST DUP1 PUSH1 0x1F ADD PUSH1 0x20 DUP1 SWAP2 DIV MUL PUSH1 0x20 ADD PUSH1 0x40 MLOAD SWAP1 DUP2 ADD PUSH1 0x40 MSTORE DUP1 SWAP3 SWAP2 SWAP1 DUP2 DUP2 MSTORE PUSH1 0x20 ADD DUP3 DUP1 SLOAD PUSH2 0x42C SWAP1 PUSH2 0x90D JUMP JUMPDEST DUP1 ISZERO PUSH2 0x477 JUMPI DUP1 PUSH1 0x1F LT PUSH2 0x44E JUMPI PUSH2 0x100 DUP1 DUP4 SLOAD DIV MUL DUP4 MSTORE SWAP2 PUSH1 0x20 ADD SWAP2 PUSH2 0x477 JUMP JUMPDEST DUP3 ADD SWAP2 SWAP1 PUSH0 MSTORE PUSH1 0x20 PUSH0 KECCAK256 SWAP1 JUMPDEST DUP2 SLOAD DUP2 MSTORE SWAP1 PUSH1 0x1 ADD SWAP1 PUSH1 0x20 ADD DUP1 DUP4 GT PUSH2 0x45A JUMPI DUP3 SWAP1 SUB PUSH1 0x1F AND DUP3 ADD SWAP2 JUMPDEST POP POP POP POP POP SWAP1 POP SWAP2 SWAP1 POP JUMP JUMPDEST PUSH0 DUP2 MLOAD SWAP1 POP SWAP2 SWAP1 POP JUMP JUMPDEST PUSH0 DUP3 DUP3 MSTORE PUSH1 0x20 DUP3 ADD SWAP1 POP SWAP3 SWAP2 POP POP JUMP JUMPDEST PUSH0 DUP2 SWAP1 POP PUSH1 0x20 DUP3 ADD SWAP1 POP SWAP2 SWAP1 POP JUMP JUMPDEST PUSH0 PUSH20 0xFFFFFFFFFFFFFFFFFFFFFFFFFFFFFFFFFFFFFFFF DUP3 AND SWAP1 POP SWAP2 SWAP1 POP JUMP JUMPDEST PUSH0 PUSH2 0x4D5 DUP3 PUSH2 0x4AC JUMP JUMPDEST SWAP1 POP SWAP2 SWAP1 POP JUMP JUMPDEST PUSH2 0x4E5 DUP2 PUSH2 0x4CB JUMP JUMPDEST DUP3 MSTORE POP POP JUMP JUMPDEST PUSH0 DUP2 MLOAD SWAP1 POP SWAP2 SWAP1 POP JUMP JUMPDEST PUSH0 DUP3 DUP3 MSTORE PUSH1 0x20 DUP3 ADD SWAP1 POP SWAP3 SWAP2 POP POP JUMP JUMPDEST PUSH0 JUMPDEST DUP4 DUP2 LT ISZERO PUSH2 0x522 JUMPI DUP1 DUP3 ADD MLOAD DUP2 DUP5 ADD MSTORE PUSH1 0x20 DUP2 ADD SWAP1 POP PUSH2 0x507 JUMP JUMPDEST PUSH0 DUP5 DUP5 ADD MSTORE POP POP POP POP JUMP JUMPDEST PUSH0 PUSH1 0x1F NOT PUSH1 0x1F DUP4 ADD AND SWAP1 POP SWAP2 SWAP1 POP JUMP JUMPDEST PUSH0 PUSH2 0x547 DUP3 PUSH2 0x4EB JUMP JUMPDEST PUSH2 0x551 DUP2 DUP6 PUSH2 0x4F5 JUMP JUMPDEST SWAP4 POP PUSH2 0x561 DUP2 DUP6 PUSH1 0x20 DUP7 ADD PUSH2 0x505 JUMP JUMPDEST PUSH2 0x56A DUP2 PUSH2 0x52D JUMP JUMPDEST DUP5 ADD SWAP2 POP POP SWAP3 SWAP2 POP POP JUMP JUMPDEST PUSH0 DUP2 SWAP1 POP SWAP2 SWAP1 POP JUMP JUMPDEST PUSH2 0x587 DUP2 PUSH2 0x575 JUMP JUMPDEST DUP3 MSTORE POP POP JUMP JUMPDEST PUSH0 PUSH1 0x80 DUP4 ADD PUSH0 DUP4 ADD MLOAD PUSH2 0x5A2 PUSH0 DUP7 ADD DUP3 PUSH2 0x4DC JUMP JUMPDEST POP PUSH1 0x20 DUP4 ADD MLOAD DUP5 DUP3 SUB PUSH1 0x20 DUP7 ADD MSTORE PUSH2 0x5BA DUP3 DUP3 PUSH2 0x53D JUMP JUMPDEST SWAP2 POP POP PUSH1 0x40 DUP4 ADD MLOAD PUSH2 0x5CF PUSH1 0x40 DUP7 ADD DUP3 PUSH2 0x57E JUMP JUMPDEST POP PUSH1 0x60 DUP4 ADD MLOAD PUSH2 0x5E2 PUSH1 0x60 DUP7 ADD DUP3 PUSH2 0x57E JUMP JUMPDEST POP DUP1 SWAP2 POP POP SWAP3 SWAP2 POP POP JUMP JUMPDEST PUSH0 PUSH2 0x5F8 DUP4 DUP4 PUSH2 0x58D JUMP JUMPDEST SWAP1 POP SWAP3 SWAP2 POP POP JUMP JUMPDEST PUSH0 PUSH1 0x20 DUP3 ADD SWAP1 POP SWAP2 SWAP1 POP JUMP JUMPDEST PUSH0 PUSH2 0x616 DUP3 PUSH2 0x483 JUMP JUMPDEST PUSH2 0x620 DUP2 DUP6 PUSH2 0x48D JUMP JUMPDEST SWAP4 POP DUP4 PUSH1 0x20 DUP3 MUL DUP6 ADD PUSH2 0x632 DUP6 PUSH2 0x49D JUMP JUMPDEST DUP1 PUSH0 JUMPDEST DUP6 DUP2 LT ISZERO PUSH2 0x66D JUMPI DUP5 DUP5 SUB DUP10 MSTORE DUP2 MLOAD PUSH2 0x64E DUP6 DUP3 PUSH2 0x5ED JUMP JUMPDEST SWAP5 POP PUSH2 0x659 DUP4 PUSH2 0x600 JUMP JUMPDEST SWAP3 POP PUSH1 0x20 DUP11 ADD SWAP10 POP POP PUSH1 0x1 DUP2 ADD SWAP1 POP PUSH2 0x635 JUMP JUMPDEST POP DUP3 SWAP8 POP DUP8 SWAP6 POP POP POP POP POP POP SWAP3 SWAP2 POP POP JUMP JUMPDEST PUSH0 PUSH1 0x20 DUP3 ADD SWAP1 POP DUP2 DUP2 SUB PUSH0 DUP4 ADD MSTORE PUSH2 0x697 DUP2 DUP5 PUSH2 0x60C JUMP JUMPDEST SWAP1 POP SWAP3 SWAP2 POP POP JUMP JUMPDEST PUSH0 PUSH1 0x40 MLOAD SWAP1 POP SWAP1 JUMP JUMPDEST PUSH0 DUP1 REVERT JUMPDEST PUSH0 DUP1 REVERT JUMPDEST PUSH0 DUP1 REVERT JUMPDEST PUSH0 DUP1 REVERT JUMPDEST PUSH32 0x4E487B7100000000000000000000000000000000000000000000000000000000 PUSH0 MSTORE PUSH1 0x41 PUSH1 0x4 MSTORE PUSH1 0x24 PUSH0 REVERT JUMPDEST PUSH2 0x6EE DUP3 PUSH2 0x52D JUMP JUMPDEST DUP2 ADD DUP2 DUP2 LT PUSH8 0xFFFFFFFFFFFFFFFF DUP3 GT OR ISZERO PUSH2 0x70D JUMPI PUSH2 0x70C PUSH2 0x6B8 JUMP JUMPDEST JUMPDEST DUP1 PUSH1 0x40 MSTORE POP POP POP JUMP JUMPDEST PUSH0 PUSH2 0x71F PUSH2 0x69F JUMP JUMPDEST SWAP1 POP PUSH2 0x72B DUP3 DUP3 PUSH2 0x6E5 JUMP JUMPDEST SWAP2 SWAP1 POP JUMP JUMPDEST PUSH0 PUSH8 0xFFFFFFFFFFFFFFFF DUP3 GT ISZERO PUSH2 0x74A JUMPI PUSH2 0x749 PUSH2 0x6B8 JUMP JUMPDEST JUMPDEST PUSH2 0x753 DUP3 PUSH2 0x52D JUMP JUMPDEST SWAP1 POP PUSH1 0x20 DUP2 ADD SWAP1 POP SWAP2 SWAP1 POP JUMP JUMPDEST DUP3 DUP2 DUP4 CALLDATACOPY PUSH0 DUP4 DUP4 ADD MSTORE POP POP POP JUMP JUMPDEST PUSH0 PUSH2 0x780 PUSH2 0x77B DUP5 PUSH2 0x730 JUMP JUMPDEST PUSH2 0x716 JUMP JUMPDEST SWAP1 POP DUP3 DUP2 MSTORE PUSH1 0x20 DUP2 ADD DUP5 DUP5 DUP5 ADD GT ISZERO PUSH2 0x79C JUMPI PUSH2 0x79B PUSH2 0x6B4 JUMP JUMPDEST JUMPDEST PUSH2 0x7A7 DUP5 DUP3 DUP6 PUSH2 0x760 JUMP JUMPDEST POP SWAP4 SWAP3 POP POP POP JUMP JUMPDEST PUSH0 DUP3 PUSH1 0x1F DUP4 ADD SLT PUSH2 0x7C3 JUMPI PUSH2 0x7C2 PUSH2 0x6B0 JUMP JUMPDEST JUMPDEST DUP2 CALLDATALOAD PUSH2 0x7D3 DUP5 DUP3 PUSH1 0x20 DUP7 ADD PUSH2 0x76E JUMP JUMPDEST SWAP2 POP POP SWAP3 SWAP2 POP POP JUMP JUMPDEST PUSH0 PUSH1 0x20 DUP3 DUP5 SUB SLT ISZERO PUSH2 0x7F1 JUMPI PUSH2 0x7F0 PUSH2 0x6A8 JUMP JUMPDEST JUMPDEST PUSH0 DUP3 ADD CALLDATALOAD PUSH8 0xFFFFFFFFFFFFFFFF DUP2 GT ISZERO PUSH2 0x80E JUMPI PUSH2 0x80D PUSH2 0x6AC JUMP JUMPDEST JUMPDEST PUSH2 0x81A DUP5 DUP3 DUP6 ADD PUSH2 0x7AF JUMP JUMPDEST SWAP2 POP POP SWAP3 SWAP2 POP POP JUMP JUMPDEST PUSH2 0x82C DUP2 PUSH2 0x575 JUMP JUMPDEST DUP2 EQ PUSH2 0x836 JUMPI PUSH0 DUP1 REVERT JUMPDEST POP JUMP JUMPDEST PUSH0 DUP2 CALLDATALOAD SWAP1 POP PUSH2 0x847 DUP2 PUSH2 0x823 JUMP JUMPDEST SWAP3 SWAP2 POP POP JUMP JUMPDEST PUSH0 PUSH1 0x20 DUP3 DUP5 SUB SLT ISZERO PUSH2 0x862 JUMPI PUSH2 0x861 PUSH2 0x6A8 JUMP JUMPDEST JUMPDEST PUSH0 PUSH2 0x86F DUP5 DUP3 DUP6 ADD PUSH2 0x839 JUMP JUMPDEST SWAP2 POP POP SWAP3 SWAP2 POP POP JUMP JUMPDEST PUSH0 DUP3 DUP3 MSTORE PUSH1 0x20 DUP3 ADD SWAP1 POP SWAP3 SWAP2 POP POP JUMP JUMPDEST PUSH0 PUSH2 0x892 DUP3 PUSH2 0x4EB JUMP JUMPDEST PUSH2 0x89C DUP2 DUP6 PUSH2 0x878 JUMP JUMPDEST SWAP4 POP PUSH2 0x8AC DUP2 DUP6 PUSH1 0x20 DUP7 ADD PUSH2 0x505 JUMP JUMPDEST PUSH2 0x8B5 DUP2 PUSH2 0x52D JUMP JUMPDEST DUP5 ADD SWAP2 POP POP SWAP3 SWAP2 POP POP JUMP JUMPDEST PUSH0 PUSH1 0x20 DUP3 ADD SWAP1 POP DUP2 DUP2 SUB PUSH0 DUP4 ADD MSTORE PUSH2 0x8D8 DUP2 DUP5 PUSH2 0x888 JUMP JUMPDEST SWAP1 POP SWAP3 SWAP2 POP POP JUMP JUMPDEST PUSH32 0x4E487B7100000000000000000000000000000000000000000000000000000000 PUSH0 MSTORE PUSH1 0x22 PUSH1 0x4 MSTORE PUSH1 0x24 PUSH0 REVERT JUMPDEST PUSH0 PUSH1 0x2 DUP3 DIV SWAP1 POP PUSH1 0x1 DUP3 AND DUP1 PUSH2 0x924 JUMPI PUSH1 0x7F DUP3 AND SWAP2 POP JUMPDEST PUSH1 0x20 DUP3 LT DUP2 SUB PUSH2 0x937 JUMPI PUSH2 0x936 PUSH2 0x8E0 JUMP JUMPDEST JUMPDEST POP SWAP2 SWAP1 POP JUMP JUMPDEST PUSH32 0x547765657420697320746F6F206C6F6E672E0000000000000000000000000000 PUSH0 DUP3 ADD MSTORE POP JUMP JUMPDEST PUSH0 PUSH2 0x971 PUSH1 0x12 DUP4 PUSH2 0x878 JUMP JUMPDEST SWAP2 POP PUSH2 0x97C DUP3 PUSH2 0x93D JUMP JUMPDEST PUSH1 0x20 DUP3 ADD SWAP1 POP SWAP2 SWAP1 POP JUMP JUMPDEST PUSH0 PUSH1 0x20 DUP3 ADD SWAP1 POP DUP2 DUP2 SUB PUSH0 DUP4 ADD MSTORE PUSH2 0x99E DUP2 PUSH2 0x965 JUMP JUMPDEST SWAP1 POP SWAP2 SWAP1 POP JUMP JUMPDEST PUSH0 DUP2 SWAP1 POP DUP2 PUSH0 MSTORE PUSH1 0x20 PUSH0 KECCAK256 SWAP1 POP SWAP2 SWAP1 POP JUMP JUMPDEST PUSH0 PUSH1 0x20 PUSH1 0x1F DUP4 ADD DIV SWAP1 POP SWAP2 SWAP1 POP JUMP JUMPDEST PUSH0 DUP3 DUP3 SHL SWAP1 POP SWAP3 SWAP2 POP POP JUMP JUMPDEST PUSH0 PUSH1 0x8 DUP4 MUL PUSH2 0xA01 PUSH32 0xFFFFFFFFFFFFFFFFFFFFFFFFFFFFFFFFFFFFFFFFFFFFFFFFFFFFFFFFFFFFFFFF DUP3 PUSH2 0x9C6 JUMP JUMPDEST PUSH2 0xA0B DUP7 DUP4 PUSH2 0x9C6 JUMP JUMPDEST SWAP6 POP DUP1 NOT DUP5 AND SWAP4 POP DUP1 DUP7 AND DUP5 OR SWAP3 POP POP POP SWAP4 SWAP3 POP POP POP JUMP JUMPDEST PUSH0 DUP2 SWAP1 POP SWAP2 SWAP1 POP JUMP JUMPDEST PUSH0 PUSH2 0xA46 PUSH2 0xA41 PUSH2 0xA3C DUP5 PUSH2 0x575 JUMP JUMPDEST PUSH2 0xA23 JUMP JUMPDEST PUSH2 0x575 JUMP JUMPDEST SWAP1 POP SWAP2 SWAP1 POP JUMP JUMPDEST PUSH0 DUP2 SWAP1 POP SWAP2 SWAP1 POP JUMP JUMPDEST PUSH2 0xA5F DUP4 PUSH2 0xA2C JUMP JUMPDEST PUSH2 0xA73 PUSH2 0xA6B DUP3 PUSH2 0xA4D JUMP JUMPDEST DUP5 DUP5 SLOAD PUSH2 0x9D2 JUMP JUMPDEST DUP3 SSTORE POP POP POP POP JUMP JUMPDEST PUSH0 SWAP1 JUMP JUMPDEST PUSH2 0xA87 PUSH2 0xA7B JUMP JUMPDEST PUSH2 0xA92 DUP2 DUP5 DUP5 PUSH2 0xA56 JUMP JUMPDEST POP POP POP JUMP JUMPDEST JUMPDEST DUP2 DUP2 LT ISZERO PUSH2 0xAB5 JUMPI PUSH2 0xAAA PUSH0 DUP3 PUSH2 0xA7F JUMP JUMPDEST PUSH1 0x1 DUP2 ADD SWAP1 POP PUSH2 0xA98 JUMP JUMPDEST POP POP JUMP JUMPDEST PUSH1 0x1F DUP3 GT ISZERO PUSH2 0xAFA JUMPI PUSH2 0xACB DUP2 PUSH2 0x9A5 JUMP JUMPDEST PUSH2 0xAD4 DUP5 PUSH2 0x9B7 JUMP JUMPDEST DUP2 ADD PUSH1 0x20 DUP6 LT ISZERO PUSH2 0xAE3 JUMPI DUP2 SWAP1 POP JUMPDEST PUSH2 0xAF7 PUSH2 0xAEF DUP6 PUSH2 0x9B7 JUMP JUMPDEST DUP4 ADD DUP3 PUSH2 0xA97 JUMP JUMPDEST POP POP JUMPDEST POP POP POP JUMP JUMPDEST PUSH0 DUP3 DUP3 SHR SWAP1 POP SWAP3 SWAP2 POP POP JUMP JUMPDEST PUSH0 PUSH2 0xB1A PUSH0 NOT DUP5 PUSH1 0x8 MUL PUSH2 0xAFF JUMP JUMPDEST NOT DUP1 DUP4 AND SWAP2 POP POP SWAP3 SWAP2 POP POP JUMP JUMPDEST PUSH0 PUSH2 0xB32 DUP4 DUP4 PUSH2 0xB0B JUMP JUMPDEST SWAP2 POP DUP3 PUSH1 0x2 MUL DUP3 OR SWAP1 POP SWAP3 SWAP2 POP POP JUMP JUMPDEST PUSH2 0xB4B DUP3 PUSH2 0x4EB JUMP JUMPDEST PUSH8 0xFFFFFFFFFFFFFFFF DUP2 GT ISZERO PUSH2 0xB64 JUMPI PUSH2 0xB63 PUSH2 0x6B8 JUMP JUMPDEST JUMPDEST PUSH2 0xB6E DUP3 SLOAD PUSH2 0x90D JUMP JUMPDEST PUSH2 0xB79 DUP3 DUP3 DUP6 PUSH2 0xAB9 JUMP JUMPDEST PUSH0 PUSH1 0x20 SWAP1 POP PUSH1 0x1F DUP4 GT PUSH1 0x1 DUP2 EQ PUSH2 0xBAA JUMPI PUSH0 DUP5 ISZERO PUSH2 0xB98 JUMPI DUP3 DUP8 ADD MLOAD SWAP1 POP JUMPDEST PUSH2 0xBA2 DUP6 DUP3 PUSH2 0xB27 JUMP JUMPDEST DUP7 SSTORE POP PUSH2 0xC09 JUMP JUMPDEST PUSH1 0x1F NOT DUP5 AND PUSH2 0xBB8 DUP7 PUSH2 0x9A5 JUMP JUMPDEST PUSH0 JUMPDEST DUP3 DUP2 LT ISZERO PUSH2 0xBDF JUMPI DUP5 DUP10 ADD MLOAD DUP3 SSTORE PUSH1 0x1 DUP3 ADD SWAP2 POP PUSH1 0x20 DUP6 ADD SWAP5 POP PUSH1 0x20 DUP2 ADD SWAP1 POP PUSH2 0xBBA JUMP JUMPDEST DUP7 DUP4 LT ISZERO PUSH2 0xBFC JUMPI DUP5 DUP10 ADD MLOAD PUSH2 0xBF8 PUSH1 0x1F DUP10 AND DUP3 PUSH2 0xB0B JUMP JUMPDEST DUP4 SSTORE POP JUMPDEST PUSH1 0x1 PUSH1 0x2 DUP9 MUL ADD DUP9 SSTORE POP POP POP JUMPDEST POP POP POP POP POP POP JUMP JUMPDEST PUSH32 0x4E487B7100000000000000000000000000000000000000000000000000000000 PUSH0 MSTORE PUSH1 0x32 PUSH1 0x4 MSTORE PUSH1 0x24 PUSH0 REVERT INVALID LOG2 PUSH5 0x6970667358 0x22 SLT KECCAK256 0x5D 0x4A SWAP3 SSTORE 0xD4 CALLER 0x4B PUSH18 0x5A71DB4484CA7E10CB13B43DABB9983103D0 0xC0 PUSH14 0xED70EE3E64736F6C634300081600 CALLER "
				},
				"gasEstimates": {
					"creation": {
						"codeDepositCost": "637600",
						"executionCost": "668",
						"totalCost": "638268"
					},
					"external": {
						"createTweet(string)": "infinite",
						"getAllTweets()": "infinite",
						"getTweet(uint256)": "infinite"
					}
				},
				"methodIdentifiers": {
					"createTweet(string)": "7c9cd2bc",
					"getAllTweets()": "53256135",
					"getTweet(uint256)": "c3ad5ecb"
				}
			},
			"storageLayout": {
				"storage": [
					{
						"astId": 19,
						"contract": "contracts/Twitter.sol:Twitter",
						"label": "tweets",
						"offset": 0,
						"slot": "0",
						"type": "t_mapping(t_address,t_array(t_struct(Tweet)13_storage)dyn_storage)"
					}
				],
				"types": {
					"t_address": {
						"encoding": "inplace",
						"label": "address",
						"numberOfBytes": "20"
					},
					"t_array(t_struct(Tweet)13_storage)dyn_storage": {
						"base": "t_struct(Tweet)13_storage",
						"encoding": "dynamic_array",
						"label": "struct Twitter.Tweet[]",
						"numberOfBytes": "32"
					},
					"t_mapping(t_address,t_array(t_struct(Tweet)13_storage)dyn_storage)": {
						"encoding": "mapping",
						"key": "t_address",
						"label": "mapping(address => struct Twitter.Tweet[])",
						"numberOfBytes": "32",
						"value": "t_array(t_struct(Tweet)13_storage)dyn_storage"
					},
					"t_string_storage": {
						"encoding": "bytes",
						"label": "string",
						"numberOfBytes": "32"
					},
					"t_struct(Tweet)13_storage": {
						"encoding": "inplace",
						"label": "struct Twitter.Tweet",
						"members": [
							{
								"astId": 6,
								"contract": "contracts/Twitter.sol:Twitter",
								"label": "author",
								"offset": 0,
								"slot": "0",
								"type": "t_address"
							},
							{
								"astId": 8,
								"contract": "contracts/Twitter.sol:Twitter",
								"label": "content",
								"offset": 0,
								"slot": "1",
								"type": "t_string_storage"
							},
							{
								"astId": 10,
								"contract": "contracts/Twitter.sol:Twitter",
								"label": "timestamp",
								"offset": 0,
								"slot": "2",
								"type": "t_uint256"
							},
							{
								"astId": 12,
								"contract": "contracts/Twitter.sol:Twitter",
								"label": "likes",
								"offset": 0,
								"slot": "3",
								"type": "t_uint256"
							}
						],
						"numberOfBytes": "128"
					},
					"t_uint256": {
						"encoding": "inplace",
						"label": "uint256",
						"numberOfBytes": "32"
					}
				}
			},
			"userdoc": {
				"kind": "user",
				"methods": {},
				"version": 1
			}
		}
	}
}