{
	"contracts/Twitter.sol": {
		"Twitter": {
			"abi": [
				{
					"inputs": [],
					"stateMutability": "nonpayable",
					"type": "constructor"
				},
				{
					"anonymous": false,
					"inputs": [
						{
							"indexed": false,
							"internalType": "uint256",
							"name": "id",
							"type": "uint256"
						},
						{
							"indexed": false,
							"internalType": "address",
							"name": "author",
							"type": "address"
						},
						{
							"indexed": false,
							"internalType": "string",
							"name": "content",
							"type": "string"
						},
						{
							"indexed": false,
							"internalType": "uint256",
							"name": "timestamp",
							"type": "uint256"
						}
					],
					"name": "TweetCreated",
					"type": "event"
				},
				{
					"anonymous": false,
					"inputs": [
						{
							"indexed": false,
							"internalType": "address",
							"name": "liker",
							"type": "address"
						},
						{
							"indexed": false,
							"internalType": "address",
							"name": "tweetAuthor",
							"type": "address"
						},
						{
							"indexed": false,
							"internalType": "uint256",
							"name": "tweetId",
							"type": "uint256"
						},
						{
							"indexed": false,
							"internalType": "uint256",
							"name": "newLikeCount",
							"type": "uint256"
						}
					],
					"name": "TweetLiked",
					"type": "event"
				},
				{
					"anonymous": false,
					"inputs": [
						{
							"indexed": false,
							"internalType": "address",
							"name": "liker",
							"type": "address"
						},
						{
							"indexed": false,
							"internalType": "address",
							"name": "tweetAuthor",
							"type": "address"
						},
						{
							"indexed": false,
							"internalType": "uint256",
							"name": "tweetId",
							"type": "uint256"
						},
						{
							"indexed": false,
							"internalType": "uint256",
							"name": "newLikeCount",
							"type": "uint256"
						}
					],
					"name": "TweetUnliked",
					"type": "event"
				},
				{
					"inputs": [
						{
							"internalType": "uint16",
							"name": "newTweetLength",
							"type": "uint16"
						}
					],
					"name": "changeTweetLength",
					"outputs": [],
					"stateMutability": "nonpayable",
					"type": "function"
				},
				{
					"inputs": [
						{
							"internalType": "string",
							"name": "_tweet",
							"type": "string"
						}
					],
					"name": "createTweet",
					"outputs": [],
					"stateMutability": "nonpayable",
					"type": "function"
				},
				{
					"inputs": [],
					"name": "getAllTweets",
					"outputs": [
						{
							"components": [
								{
									"internalType": "uint256",
									"name": "id",
									"type": "uint256"
								},
								{
									"internalType": "address",
									"name": "author",
									"type": "address"
								},
								{
									"internalType": "string",
									"name": "content",
									"type": "string"
								},
								{
									"internalType": "uint256",
									"name": "timestamp",
									"type": "uint256"
								},
								{
									"internalType": "uint256",
									"name": "likes",
									"type": "uint256"
								}
							],
							"internalType": "struct Twitter.Tweet[]",
							"name": "",
							"type": "tuple[]"
						}
					],
					"stateMutability": "view",
					"type": "function"
				},
				{
					"inputs": [
						{
							"internalType": "uint256",
							"name": "_i",
							"type": "uint256"
						}
					],
					"name": "getTweet",
					"outputs": [
						{
							"internalType": "string",
							"name": "",
							"type": "string"
						}
					],
					"stateMutability": "view",
					"type": "function"
				},
				{
					"inputs": [
						{
							"internalType": "address",
							"name": "_author",
							"type": "address"
						},
						{
							"internalType": "uint256",
							"name": "_id",
							"type": "uint256"
						}
					],
					"name": "likeTweet",
					"outputs": [],
					"stateMutability": "nonpayable",
					"type": "function"
				},
				{
					"inputs": [
						{
							"internalType": "address",
							"name": "_author",
							"type": "address"
						},
						{
							"internalType": "uint256",
							"name": "_id",
							"type": "uint256"
						}
					],
					"name": "unlikeTweet",
					"outputs": [],
					"stateMutability": "nonpayable",
					"type": "function"
				}
			],
			"devdoc": {
				"kind": "dev",
				"methods": {},
				"version": 1
			},
			"evm": {
				"assembly": "    /* \"contracts/Twitter.sol\":59:2236  contract Twitter {... */\n  mstore(0x40, 0x80)\n    /* \"contracts/Twitter.sol\":109:112  280 */\n  0x0118\n    /* \"contracts/Twitter.sol\":83:112  uint16 MAX_TWEET_LENGTH = 280 */\n  0x00\n  dup1\n  0x0100\n  exp\n  dup2\n  sload\n  dup2\n  0xffff\n  mul\n  not\n  and\n  swap1\n  dup4\n  0xffff\n  and\n  mul\n  or\n  swap1\n  sstore\n  pop\n    /* \"contracts/Twitter.sol\":609:658  constructor() {... */\n  callvalue\n  dup1\n  iszero\n  tag_1\n  jumpi\n  0x00\n  dup1\n  revert\ntag_1:\n  pop\n    /* \"contracts/Twitter.sol\":641:651  msg.sender */\n  caller\n    /* \"contracts/Twitter.sol\":633:638  owner */\n  0x02\n  0x00\n    /* \"contracts/Twitter.sol\":633:651  owner = msg.sender */\n  0x0100\n  exp\n  dup2\n  sload\n  dup2\n  0xffffffffffffffffffffffffffffffffffffffff\n  mul\n  not\n  and\n  swap1\n  dup4\n  0xffffffffffffffffffffffffffffffffffffffff\n  and\n  mul\n  or\n  swap1\n  sstore\n  pop\n    /* \"contracts/Twitter.sol\":59:2236  contract Twitter {... */\n  dataSize(sub_0)\n  dup1\n  dataOffset(sub_0)\n  0x00\n  codecopy\n  0x00\n  return\nstop\n\nsub_0: assembly {\n        /* \"contracts/Twitter.sol\":59:2236  contract Twitter {... */\n      mstore(0x40, 0x80)\n      callvalue\n      dup1\n      iszero\n      tag_1\n      jumpi\n      0x00\n      dup1\n      revert\n    tag_1:\n      pop\n      jumpi(tag_2, lt(calldatasize, 0x04))\n      shr(0xe0, calldataload(0x00))\n      dup1\n      0x3d9b569f\n      eq\n      tag_3\n      jumpi\n      dup1\n      0x53256135\n      eq\n      tag_4\n      jumpi\n      dup1\n      0x58bfa4ab\n      eq\n      tag_5\n      jumpi\n      dup1\n      0x63378216\n      eq\n      tag_6\n      jumpi\n      dup1\n      0x7c9cd2bc\n      eq\n      tag_7\n      jumpi\n      dup1\n      0xc3ad5ecb\n      eq\n      tag_8\n      jumpi\n    tag_2:\n      0x00\n      dup1\n      revert\n        /* \"contracts/Twitter.sol\":1661:2004  function unlikeTweet(address _author, uint256 _id) external {... */\n    tag_3:\n      tag_9\n      0x04\n      dup1\n      calldatasize\n      sub\n      dup2\n      add\n      swap1\n      tag_10\n      swap2\n      swap1\n      tag_11\n      jump\t// in\n    tag_10:\n      tag_12\n      jump\t// in\n    tag_9:\n      stop\n        /* \"contracts/Twitter.sol\":2132:2234  function getAllTweets() public view returns(Tweet[] memory) {... */\n    tag_4:\n      tag_13\n      tag_14\n      jump\t// in\n    tag_13:\n      mload(0x40)\n      tag_15\n      swap2\n      swap1\n      tag_16\n      jump\t// in\n    tag_15:\n      mload(0x40)\n      dup1\n      swap2\n      sub\n      swap1\n      return\n        /* \"contracts/Twitter.sol\":773:890  function changeTweetLength(uint16 newTweetLength) public onlyOwner {... */\n    tag_5:\n      tag_17\n      0x04\n      dup1\n      calldatasize\n      sub\n      dup2\n      add\n      swap1\n      tag_18\n      swap2\n      swap1\n      tag_19\n      jump\t// in\n    tag_18:\n      tag_20\n      jump\t// in\n    tag_17:\n      stop\n        /* \"contracts/Twitter.sol\":1398:1655  function likeTweet(address _author, uint256 _id) external {... */\n    tag_6:\n      tag_21\n      0x04\n      dup1\n      calldatasize\n      sub\n      dup2\n      add\n      swap1\n      tag_22\n      swap2\n      swap1\n      tag_11\n      jump\t// in\n    tag_22:\n      tag_23\n      jump\t// in\n    tag_21:\n      stop\n        /* \"contracts/Twitter.sol\":896:1392  function createTweet(string memory _tweet) public {... */\n    tag_7:\n      tag_24\n      0x04\n      dup1\n      calldatasize\n      sub\n      dup2\n      add\n      swap1\n      tag_25\n      swap2\n      swap1\n      tag_26\n      jump\t// in\n    tag_25:\n      tag_27\n      jump\t// in\n    tag_24:\n      stop\n        /* \"contracts/Twitter.sol\":2010:2126  function getTweet(uint _i) public view returns(string memory) {... */\n    tag_8:\n      tag_28\n      0x04\n      dup1\n      calldatasize\n      sub\n      dup2\n      add\n      swap1\n      tag_29\n      swap2\n      swap1\n      tag_30\n      jump\t// in\n    tag_29:\n      tag_31\n      jump\t// in\n    tag_28:\n      mload(0x40)\n      tag_32\n      swap2\n      swap1\n      tag_33\n      jump\t// in\n    tag_32:\n      mload(0x40)\n      dup1\n      swap2\n      sub\n      swap1\n      return\n        /* \"contracts/Twitter.sol\":1661:2004  function unlikeTweet(address _author, uint256 _id) external {... */\n    tag_12:\n        /* \"contracts/Twitter.sol\":1766:1769  _id */\n      dup1\n        /* \"contracts/Twitter.sol\":1739:1745  tweets */\n      0x01\n        /* \"contracts/Twitter.sol\":1739:1754  tweets[_author] */\n      0x00\n        /* \"contracts/Twitter.sol\":1746:1753  _author */\n      dup5\n        /* \"contracts/Twitter.sol\":1739:1754  tweets[_author] */\n      0xffffffffffffffffffffffffffffffffffffffff\n      and\n      0xffffffffffffffffffffffffffffffffffffffff\n      and\n      dup2\n      mstore\n      0x20\n      add\n      swap1\n      dup2\n      mstore\n      0x20\n      add\n      0x00\n      keccak256\n        /* \"contracts/Twitter.sol\":1755:1758  _id */\n      dup3\n        /* \"contracts/Twitter.sol\":1739:1759  tweets[_author][_id] */\n      dup2\n      sload\n      dup2\n      lt\n      tag_35\n      jumpi\n      tag_36\n      tag_37\n      jump\t// in\n    tag_36:\n    tag_35:\n      swap1\n      0x00\n      mstore\n      keccak256(0x00, 0x20)\n      swap1\n      0x05\n      mul\n      add\n        /* \"contracts/Twitter.sol\":1739:1762  tweets[_author][_id].id */\n      0x00\n      add\n      sload\n        /* \"contracts/Twitter.sol\":1739:1769  tweets[_author][_id].id == _id */\n      eq\n        /* \"contracts/Twitter.sol\":1731:1794  require(tweets[_author][_id].id == _id, \"Tweet does not exist\") */\n      tag_39\n      jumpi\n      mload(0x40)\n      0x08c379a000000000000000000000000000000000000000000000000000000000\n      dup2\n      mstore\n      0x04\n      add\n      tag_40\n      swap1\n      tag_41\n      jump\t// in\n    tag_40:\n      mload(0x40)\n      dup1\n      swap2\n      sub\n      swap1\n      revert\n    tag_39:\n        /* \"contracts/Twitter.sol\":1841:1842  0 */\n      0x00\n        /* \"contracts/Twitter.sol\":1812:1818  tweets */\n      0x01\n        /* \"contracts/Twitter.sol\":1812:1827  tweets[_author] */\n      0x00\n        /* \"contracts/Twitter.sol\":1819:1826  _author */\n      dup5\n        /* \"contracts/Twitter.sol\":1812:1827  tweets[_author] */\n      0xffffffffffffffffffffffffffffffffffffffff\n      and\n      0xffffffffffffffffffffffffffffffffffffffff\n      and\n      dup2\n      mstore\n      0x20\n      add\n      swap1\n      dup2\n      mstore\n      0x20\n      add\n      0x00\n      keccak256\n        /* \"contracts/Twitter.sol\":1828:1831  _id */\n      dup3\n        /* \"contracts/Twitter.sol\":1812:1832  tweets[_author][_id] */\n      dup2\n      sload\n      dup2\n      lt\n      tag_42\n      jumpi\n      tag_43\n      tag_37\n      jump\t// in\n    tag_43:\n    tag_42:\n      swap1\n      0x00\n      mstore\n      keccak256(0x00, 0x20)\n      swap1\n      0x05\n      mul\n      add\n        /* \"contracts/Twitter.sol\":1812:1838  tweets[_author][_id].likes */\n      0x04\n      add\n      sload\n        /* \"contracts/Twitter.sol\":1812:1842  tweets[_author][_id].likes > 0 */\n      gt\n        /* \"contracts/Twitter.sol\":1804:1875  require(tweets[_author][_id].likes > 0, \"Tweet doesn't have any likes\") */\n      tag_45\n      jumpi\n      mload(0x40)\n      0x08c379a000000000000000000000000000000000000000000000000000000000\n      dup2\n      mstore\n      0x04\n      add\n      tag_46\n      swap1\n      tag_47\n      jump\t// in\n    tag_46:\n      mload(0x40)\n      dup1\n      swap2\n      sub\n      swap1\n      revert\n    tag_45:\n        /* \"contracts/Twitter.sol\":1886:1892  tweets */\n      0x01\n        /* \"contracts/Twitter.sol\":1886:1901  tweets[_author] */\n      0x00\n        /* \"contracts/Twitter.sol\":1893:1900  _author */\n      dup4\n        /* \"contracts/Twitter.sol\":1886:1901  tweets[_author] */\n      0xffffffffffffffffffffffffffffffffffffffff\n      and\n      0xffffffffffffffffffffffffffffffffffffffff\n      and\n      dup2\n      mstore\n      0x20\n      add\n      swap1\n      dup2\n      mstore\n      0x20\n      add\n      0x00\n      keccak256\n        /* \"contracts/Twitter.sol\":1902:1905  _id */\n      dup2\n        /* \"contracts/Twitter.sol\":1886:1906  tweets[_author][_id] */\n      dup2\n      sload\n      dup2\n      lt\n      tag_48\n      jumpi\n      tag_49\n      tag_37\n      jump\t// in\n    tag_49:\n    tag_48:\n      swap1\n      0x00\n      mstore\n      keccak256(0x00, 0x20)\n      swap1\n      0x05\n      mul\n      add\n        /* \"contracts/Twitter.sol\":1886:1912  tweets[_author][_id].likes */\n      0x04\n      add\n      0x00\n        /* \"contracts/Twitter.sol\":1886:1914  tweets[_author][_id].likes-- */\n      dup2\n      sload\n      dup1\n      swap3\n      swap2\n      swap1\n      tag_51\n      swap1\n      tag_52\n      jump\t// in\n    tag_51:\n      swap2\n      swap1\n      pop\n      sstore\n      pop\n        /* \"contracts/Twitter.sol\":1930:1996  TweetUnliked(msg.sender, _author, _id, tweets[_author][_id].likes) */\n      0x762c2616349603ac16eba0de8e6141b79129a07ab63bd99e0a80b3a471716943\n        /* \"contracts/Twitter.sol\":1943:1953  msg.sender */\n      caller\n        /* \"contracts/Twitter.sol\":1955:1962  _author */\n      dup4\n        /* \"contracts/Twitter.sol\":1964:1967  _id */\n      dup4\n        /* \"contracts/Twitter.sol\":1969:1975  tweets */\n      0x01\n        /* \"contracts/Twitter.sol\":1969:1984  tweets[_author] */\n      0x00\n        /* \"contracts/Twitter.sol\":1976:1983  _author */\n      dup8\n        /* \"contracts/Twitter.sol\":1969:1984  tweets[_author] */\n      0xffffffffffffffffffffffffffffffffffffffff\n      and\n      0xffffffffffffffffffffffffffffffffffffffff\n      and\n      dup2\n      mstore\n      0x20\n      add\n      swap1\n      dup2\n      mstore\n      0x20\n      add\n      0x00\n      keccak256\n        /* \"contracts/Twitter.sol\":1985:1988  _id */\n      dup6\n        /* \"contracts/Twitter.sol\":1969:1989  tweets[_author][_id] */\n      dup2\n      sload\n      dup2\n      lt\n      tag_53\n      jumpi\n      tag_54\n      tag_37\n      jump\t// in\n    tag_54:\n    tag_53:\n      swap1\n      0x00\n      mstore\n      keccak256(0x00, 0x20)\n      swap1\n      0x05\n      mul\n      add\n        /* \"contracts/Twitter.sol\":1969:1995  tweets[_author][_id].likes */\n      0x04\n      add\n      sload\n        /* \"contracts/Twitter.sol\":1930:1996  TweetUnliked(msg.sender, _author, _id, tweets[_author][_id].likes) */\n      mload(0x40)\n      tag_56\n      swap5\n      swap4\n      swap3\n      swap2\n      swap1\n      tag_57\n      jump\t// in\n    tag_56:\n      mload(0x40)\n      dup1\n      swap2\n      sub\n      swap1\n      log1\n        /* \"contracts/Twitter.sol\":1661:2004  function unlikeTweet(address _author, uint256 _id) external {... */\n      pop\n      pop\n      jump\t// out\n        /* \"contracts/Twitter.sol\":2132:2234  function getAllTweets() public view returns(Tweet[] memory) {... */\n    tag_14:\n        /* \"contracts/Twitter.sol\":2176:2190  Tweet[] memory */\n      0x60\n        /* \"contracts/Twitter.sol\":2209:2215  tweets */\n      0x01\n        /* \"contracts/Twitter.sol\":2209:2227  tweets[msg.sender] */\n      0x00\n        /* \"contracts/Twitter.sol\":2216:2226  msg.sender */\n      caller\n        /* \"contracts/Twitter.sol\":2209:2227  tweets[msg.sender] */\n      0xffffffffffffffffffffffffffffffffffffffff\n      and\n      0xffffffffffffffffffffffffffffffffffffffff\n      and\n      dup2\n      mstore\n      0x20\n      add\n      swap1\n      dup2\n      mstore\n      0x20\n      add\n      0x00\n      keccak256\n        /* \"contracts/Twitter.sol\":2202:2227  return tweets[msg.sender] */\n      dup1\n      sload\n      dup1\n      0x20\n      mul\n      0x20\n      add\n      mload(0x40)\n      swap1\n      dup2\n      add\n      0x40\n      mstore\n      dup1\n      swap3\n      swap2\n      swap1\n      dup2\n      dup2\n      mstore\n      0x20\n      add\n      0x00\n      swap1\n    tag_59:\n      dup3\n      dup3\n      lt\n      iszero\n      tag_60\n      jumpi\n      dup4\n      dup3\n      swap1\n      0x00\n      mstore\n      keccak256(0x00, 0x20)\n      swap1\n      0x05\n      mul\n      add\n      mload(0x40)\n      dup1\n      0xa0\n      add\n      0x40\n      mstore\n      swap1\n      dup2\n      0x00\n      dup3\n      add\n      sload\n      dup2\n      mstore\n      0x20\n      add\n      0x01\n      dup3\n      add\n      0x00\n      swap1\n      sload\n      swap1\n      0x0100\n      exp\n      swap1\n      div\n      0xffffffffffffffffffffffffffffffffffffffff\n      and\n      0xffffffffffffffffffffffffffffffffffffffff\n      and\n      0xffffffffffffffffffffffffffffffffffffffff\n      and\n      dup2\n      mstore\n      0x20\n      add\n      0x02\n      dup3\n      add\n      dup1\n      sload\n      tag_62\n      swap1\n      tag_63\n      jump\t// in\n    tag_62:\n      dup1\n      0x1f\n      add\n      0x20\n      dup1\n      swap2\n      div\n      mul\n      0x20\n      add\n      mload(0x40)\n      swap1\n      dup2\n      add\n      0x40\n      mstore\n      dup1\n      swap3\n      swap2\n      swap1\n      dup2\n      dup2\n      mstore\n      0x20\n      add\n      dup3\n      dup1\n      sload\n      tag_64\n      swap1\n      tag_63\n      jump\t// in\n    tag_64:\n      dup1\n      iszero\n      tag_65\n      jumpi\n      dup1\n      0x1f\n      lt\n      tag_66\n      jumpi\n      0x0100\n      dup1\n      dup4\n      sload\n      div\n      mul\n      dup4\n      mstore\n      swap2\n      0x20\n      add\n      swap2\n      jump(tag_65)\n    tag_66:\n      dup3\n      add\n      swap2\n      swap1\n      0x00\n      mstore\n      keccak256(0x00, 0x20)\n      swap1\n    tag_67:\n      dup2\n      sload\n      dup2\n      mstore\n      swap1\n      0x01\n      add\n      swap1\n      0x20\n      add\n      dup1\n      dup4\n      gt\n      tag_67\n      jumpi\n      dup3\n      swap1\n      sub\n      0x1f\n      and\n      dup3\n      add\n      swap2\n    tag_65:\n      pop\n      pop\n      pop\n      pop\n      pop\n      dup2\n      mstore\n      0x20\n      add\n      0x03\n      dup3\n      add\n      sload\n      dup2\n      mstore\n      0x20\n      add\n      0x04\n      dup3\n      add\n      sload\n      dup2\n      mstore\n      pop\n      pop\n      dup2\n      mstore\n      0x20\n      add\n      swap1\n      0x01\n      add\n      swap1\n      jump(tag_59)\n    tag_60:\n      pop\n      pop\n      pop\n      pop\n      swap1\n      pop\n        /* \"contracts/Twitter.sol\":2132:2234  function getAllTweets() public view returns(Tweet[] memory) {... */\n      swap1\n      jump\t// out\n        /* \"contracts/Twitter.sol\":773:890  function changeTweetLength(uint16 newTweetLength) public onlyOwner {... */\n    tag_20:\n        /* \"contracts/Twitter.sol\":717:722  owner */\n      0x02\n      0x00\n      swap1\n      sload\n      swap1\n      0x0100\n      exp\n      swap1\n      div\n      0xffffffffffffffffffffffffffffffffffffffff\n      and\n        /* \"contracts/Twitter.sol\":703:722  msg.sender == owner */\n      0xffffffffffffffffffffffffffffffffffffffff\n      and\n        /* \"contracts/Twitter.sol\":703:713  msg.sender */\n      caller\n        /* \"contracts/Twitter.sol\":703:722  msg.sender == owner */\n      0xffffffffffffffffffffffffffffffffffffffff\n      and\n      eq\n        /* \"contracts/Twitter.sol\":695:749  require(msg.sender == owner, \"You are not the owner!\") */\n      tag_69\n      jumpi\n      mload(0x40)\n      0x08c379a000000000000000000000000000000000000000000000000000000000\n      dup2\n      mstore\n      0x04\n      add\n      tag_70\n      swap1\n      tag_71\n      jump\t// in\n    tag_70:\n      mload(0x40)\n      dup1\n      swap2\n      sub\n      swap1\n      revert\n    tag_69:\n        /* \"contracts/Twitter.sol\":869:883  newTweetLength */\n      dup1\n        /* \"contracts/Twitter.sol\":850:866  MAX_TWEET_LENGTH */\n      0x00\n      dup1\n        /* \"contracts/Twitter.sol\":850:883  MAX_TWEET_LENGTH = newTweetLength */\n      0x0100\n      exp\n      dup2\n      sload\n      dup2\n      0xffff\n      mul\n      not\n      and\n      swap1\n      dup4\n      0xffff\n      and\n      mul\n      or\n      swap1\n      sstore\n      pop\n        /* \"contracts/Twitter.sol\":773:890  function changeTweetLength(uint16 newTweetLength) public onlyOwner {... */\n      pop\n      jump\t// out\n        /* \"contracts/Twitter.sol\":1398:1655  function likeTweet(address _author, uint256 _id) external {... */\n    tag_23:\n        /* \"contracts/Twitter.sol\":1501:1504  _id */\n      dup1\n        /* \"contracts/Twitter.sol\":1474:1480  tweets */\n      0x01\n        /* \"contracts/Twitter.sol\":1474:1489  tweets[_author] */\n      0x00\n        /* \"contracts/Twitter.sol\":1481:1488  _author */\n      dup5\n        /* \"contracts/Twitter.sol\":1474:1489  tweets[_author] */\n      0xffffffffffffffffffffffffffffffffffffffff\n      and\n      0xffffffffffffffffffffffffffffffffffffffff\n      and\n      dup2\n      mstore\n      0x20\n      add\n      swap1\n      dup2\n      mstore\n      0x20\n      add\n      0x00\n      keccak256\n        /* \"contracts/Twitter.sol\":1490:1493  _id */\n      dup3\n        /* \"contracts/Twitter.sol\":1474:1494  tweets[_author][_id] */\n      dup2\n      sload\n      dup2\n      lt\n      tag_74\n      jumpi\n      tag_75\n      tag_37\n      jump\t// in\n    tag_75:\n    tag_74:\n      swap1\n      0x00\n      mstore\n      keccak256(0x00, 0x20)\n      swap1\n      0x05\n      mul\n      add\n        /* \"contracts/Twitter.sol\":1474:1497  tweets[_author][_id].id */\n      0x00\n      add\n      sload\n        /* \"contracts/Twitter.sol\":1474:1504  tweets[_author][_id].id == _id */\n      eq\n        /* \"contracts/Twitter.sol\":1466:1529  require(tweets[_author][_id].id == _id, \"Tweet does not exist\") */\n      tag_77\n      jumpi\n      mload(0x40)\n      0x08c379a000000000000000000000000000000000000000000000000000000000\n      dup2\n      mstore\n      0x04\n      add\n      tag_78\n      swap1\n      tag_41\n      jump\t// in\n    tag_78:\n      mload(0x40)\n      dup1\n      swap2\n      sub\n      swap1\n      revert\n    tag_77:\n        /* \"contracts/Twitter.sol\":1540:1546  tweets */\n      0x01\n        /* \"contracts/Twitter.sol\":1540:1555  tweets[_author] */\n      0x00\n        /* \"contracts/Twitter.sol\":1547:1554  _author */\n      dup4\n        /* \"contracts/Twitter.sol\":1540:1555  tweets[_author] */\n      0xffffffffffffffffffffffffffffffffffffffff\n      and\n      0xffffffffffffffffffffffffffffffffffffffff\n      and\n      dup2\n      mstore\n      0x20\n      add\n      swap1\n      dup2\n      mstore\n      0x20\n      add\n      0x00\n      keccak256\n        /* \"contracts/Twitter.sol\":1556:1559  _id */\n      dup2\n        /* \"contracts/Twitter.sol\":1540:1560  tweets[_author][_id] */\n      dup2\n      sload\n      dup2\n      lt\n      tag_79\n      jumpi\n      tag_80\n      tag_37\n      jump\t// in\n    tag_80:\n    tag_79:\n      swap1\n      0x00\n      mstore\n      keccak256(0x00, 0x20)\n      swap1\n      0x05\n      mul\n      add\n        /* \"contracts/Twitter.sol\":1540:1566  tweets[_author][_id].likes */\n      0x04\n      add\n      0x00\n        /* \"contracts/Twitter.sol\":1540:1568  tweets[_author][_id].likes++ */\n      dup2\n      sload\n      dup1\n      swap3\n      swap2\n      swap1\n      tag_82\n      swap1\n      tag_83\n      jump\t// in\n    tag_82:\n      swap2\n      swap1\n      pop\n      sstore\n      pop\n        /* \"contracts/Twitter.sol\":1584:1648  TweetLiked(msg.sender, _author, _id, tweets[_author][_id].likes) */\n      0xe8a76fc0f16d11a00d1e93b689b63d76cf60af914dd3d915375dc41d01a0c3c8\n        /* \"contracts/Twitter.sol\":1595:1605  msg.sender */\n      caller\n        /* \"contracts/Twitter.sol\":1607:1614  _author */\n      dup4\n        /* \"contracts/Twitter.sol\":1616:1619  _id */\n      dup4\n        /* \"contracts/Twitter.sol\":1621:1627  tweets */\n      0x01\n        /* \"contracts/Twitter.sol\":1621:1636  tweets[_author] */\n      0x00\n        /* \"contracts/Twitter.sol\":1628:1635  _author */\n      dup8\n        /* \"contracts/Twitter.sol\":1621:1636  tweets[_author] */\n      0xffffffffffffffffffffffffffffffffffffffff\n      and\n      0xffffffffffffffffffffffffffffffffffffffff\n      and\n      dup2\n      mstore\n      0x20\n      add\n      swap1\n      dup2\n      mstore\n      0x20\n      add\n      0x00\n      keccak256\n        /* \"contracts/Twitter.sol\":1637:1640  _id */\n      dup6\n        /* \"contracts/Twitter.sol\":1621:1641  tweets[_author][_id] */\n      dup2\n      sload\n      dup2\n      lt\n      tag_84\n      jumpi\n      tag_85\n      tag_37\n      jump\t// in\n    tag_85:\n    tag_84:\n      swap1\n      0x00\n      mstore\n      keccak256(0x00, 0x20)\n      swap1\n      0x05\n      mul\n      add\n        /* \"contracts/Twitter.sol\":1621:1647  tweets[_author][_id].likes */\n      0x04\n      add\n      sload\n        /* \"contracts/Twitter.sol\":1584:1648  TweetLiked(msg.sender, _author, _id, tweets[_author][_id].likes) */\n      mload(0x40)\n      tag_87\n      swap5\n      swap4\n      swap3\n      swap2\n      swap1\n      tag_57\n      jump\t// in\n    tag_87:\n      mload(0x40)\n      dup1\n      swap2\n      sub\n      swap1\n      log1\n        /* \"contracts/Twitter.sol\":1398:1655  function likeTweet(address _author, uint256 _id) external {... */\n      pop\n      pop\n      jump\t// out\n        /* \"contracts/Twitter.sol\":896:1392  function createTweet(string memory _tweet) public {... */\n    tag_27:\n        /* \"contracts/Twitter.sol\":988:1004  MAX_TWEET_LENGTH */\n      0x00\n      dup1\n      sload\n      swap1\n      0x0100\n      exp\n      swap1\n      div\n      0xffff\n      and\n        /* \"contracts/Twitter.sol\":964:1004  bytes(_tweet).length <= MAX_TWEET_LENGTH */\n      0xffff\n      and\n        /* \"contracts/Twitter.sol\":970:976  _tweet */\n      dup2\n        /* \"contracts/Twitter.sol\":964:984  bytes(_tweet).length */\n      mload\n        /* \"contracts/Twitter.sol\":964:1004  bytes(_tweet).length <= MAX_TWEET_LENGTH */\n      gt\n      iszero\n        /* \"contracts/Twitter.sol\":956:1027  require(bytes(_tweet).length <= MAX_TWEET_LENGTH, \"Tweet is too long.\") */\n      tag_89\n      jumpi\n      mload(0x40)\n      0x08c379a000000000000000000000000000000000000000000000000000000000\n      dup2\n      mstore\n      0x04\n      add\n      tag_90\n      swap1\n      tag_91\n      jump\t// in\n    tag_90:\n      mload(0x40)\n      dup1\n      swap2\n      sub\n      swap1\n      revert\n    tag_89:\n        /* \"contracts/Twitter.sol\":1038:1059  Tweet memory newTweet */\n      0x00\n        /* \"contracts/Twitter.sol\":1062:1245  Tweet({... */\n      mload(0x40)\n      dup1\n      0xa0\n      add\n      0x40\n      mstore\n      dup1\n        /* \"contracts/Twitter.sol\":1086:1092  tweets */\n      0x01\n        /* \"contracts/Twitter.sol\":1086:1104  tweets[msg.sender] */\n      0x00\n        /* \"contracts/Twitter.sol\":1093:1103  msg.sender */\n      caller\n        /* \"contracts/Twitter.sol\":1086:1104  tweets[msg.sender] */\n      0xffffffffffffffffffffffffffffffffffffffff\n      and\n      0xffffffffffffffffffffffffffffffffffffffff\n      and\n      dup2\n      mstore\n      0x20\n      add\n      swap1\n      dup2\n      mstore\n      0x20\n      add\n      0x00\n      keccak256\n        /* \"contracts/Twitter.sol\":1086:1111  tweets[msg.sender].length */\n      dup1\n      sload\n      swap1\n      pop\n        /* \"contracts/Twitter.sol\":1062:1245  Tweet({... */\n      dup2\n      mstore\n      0x20\n      add\n        /* \"contracts/Twitter.sol\":1133:1143  msg.sender */\n      caller\n        /* \"contracts/Twitter.sol\":1062:1245  Tweet({... */\n      0xffffffffffffffffffffffffffffffffffffffff\n      and\n      dup2\n      mstore\n      0x20\n      add\n        /* \"contracts/Twitter.sol\":1166:1172  _tweet */\n      dup4\n        /* \"contracts/Twitter.sol\":1062:1245  Tweet({... */\n      dup2\n      mstore\n      0x20\n      add\n        /* \"contracts/Twitter.sol\":1197:1212  block.timestamp */\n      timestamp\n        /* \"contracts/Twitter.sol\":1062:1245  Tweet({... */\n      dup2\n      mstore\n      0x20\n      add\n        /* \"contracts/Twitter.sol\":1233:1234  0 */\n      0x00\n        /* \"contracts/Twitter.sol\":1062:1245  Tweet({... */\n      dup2\n      mstore\n      pop\n        /* \"contracts/Twitter.sol\":1038:1245  Tweet memory newTweet = Tweet({... */\n      swap1\n      pop\n        /* \"contracts/Twitter.sol\":1256:1262  tweets */\n      0x01\n        /* \"contracts/Twitter.sol\":1256:1274  tweets[msg.sender] */\n      0x00\n        /* \"contracts/Twitter.sol\":1263:1273  msg.sender */\n      caller\n        /* \"contracts/Twitter.sol\":1256:1274  tweets[msg.sender] */\n      0xffffffffffffffffffffffffffffffffffffffff\n      and\n      0xffffffffffffffffffffffffffffffffffffffff\n      and\n      dup2\n      mstore\n      0x20\n      add\n      swap1\n      dup2\n      mstore\n      0x20\n      add\n      0x00\n      keccak256\n        /* \"contracts/Twitter.sol\":1280:1288  newTweet */\n      dup2\n        /* \"contracts/Twitter.sol\":1256:1289  tweets[msg.sender].push(newTweet) */\n      swap1\n      dup1\n      0x01\n      dup2\n      sload\n      add\n      dup1\n      dup3\n      sstore\n      dup1\n      swap2\n      pop\n      pop\n      0x01\n      swap1\n      sub\n      swap1\n      0x00\n      mstore\n      keccak256(0x00, 0x20)\n      swap1\n      0x05\n      mul\n      add\n      0x00\n      swap1\n      swap2\n      swap1\n      swap2\n      swap1\n      swap2\n      pop\n      0x00\n      dup3\n      add\n      mload\n      dup2\n      0x00\n      add\n      sstore\n      0x20\n      dup3\n      add\n      mload\n      dup2\n      0x01\n      add\n      exp(0x0100, 0x00)\n      dup2\n      sload\n      dup2\n      0xffffffffffffffffffffffffffffffffffffffff\n      mul\n      not\n      and\n      swap1\n      dup4\n      0xffffffffffffffffffffffffffffffffffffffff\n      and\n      mul\n      or\n      swap1\n      sstore\n      pop\n      0x40\n      dup3\n      add\n      mload\n      dup2\n      0x02\n      add\n      swap1\n      dup2\n      tag_93\n      swap2\n      swap1\n      tag_94\n      jump\t// in\n    tag_93:\n      pop\n      0x60\n      dup3\n      add\n      mload\n      dup2\n      0x03\n      add\n      sstore\n      0x80\n      dup3\n      add\n      mload\n      dup2\n      0x04\n      add\n      sstore\n      pop\n      pop\n        /* \"contracts/Twitter.sol\":1305:1385  TweetCreated(newTweet.id, newTweet.author, newTweet.content, newTweet.timestamp) */\n      0x16fd3c13e9d46923e0a8bce11c7b473ec508a72e6c96cd2404b29ce972afc29e\n        /* \"contracts/Twitter.sol\":1318:1326  newTweet */\n      dup2\n        /* \"contracts/Twitter.sol\":1318:1329  newTweet.id */\n      0x00\n      add\n      mload\n        /* \"contracts/Twitter.sol\":1331:1339  newTweet */\n      dup3\n        /* \"contracts/Twitter.sol\":1331:1346  newTweet.author */\n      0x20\n      add\n      mload\n        /* \"contracts/Twitter.sol\":1348:1356  newTweet */\n      dup4\n        /* \"contracts/Twitter.sol\":1348:1364  newTweet.content */\n      0x40\n      add\n      mload\n        /* \"contracts/Twitter.sol\":1366:1374  newTweet */\n      dup5\n        /* \"contracts/Twitter.sol\":1366:1384  newTweet.timestamp */\n      0x60\n      add\n      mload\n        /* \"contracts/Twitter.sol\":1305:1385  TweetCreated(newTweet.id, newTweet.author, newTweet.content, newTweet.timestamp) */\n      mload(0x40)\n      tag_95\n      swap5\n      swap4\n      swap3\n      swap2\n      swap1\n      tag_96\n      jump\t// in\n    tag_95:\n      mload(0x40)\n      dup1\n      swap2\n      sub\n      swap1\n      log1\n        /* \"contracts/Twitter.sol\":946:1392  {... */\n      pop\n        /* \"contracts/Twitter.sol\":896:1392  function createTweet(string memory _tweet) public {... */\n      pop\n      jump\t// out\n        /* \"contracts/Twitter.sol\":2010:2126  function getTweet(uint _i) public view returns(string memory) {... */\n    tag_31:\n        /* \"contracts/Twitter.sol\":2057:2070  string memory */\n      0x60\n        /* \"contracts/Twitter.sol\":2089:2095  tweets */\n      0x01\n        /* \"contracts/Twitter.sol\":2089:2107  tweets[msg.sender] */\n      0x00\n        /* \"contracts/Twitter.sol\":2096:2106  msg.sender */\n      caller\n        /* \"contracts/Twitter.sol\":2089:2107  tweets[msg.sender] */\n      0xffffffffffffffffffffffffffffffffffffffff\n      and\n      0xffffffffffffffffffffffffffffffffffffffff\n      and\n      dup2\n      mstore\n      0x20\n      add\n      swap1\n      dup2\n      mstore\n      0x20\n      add\n      0x00\n      keccak256\n        /* \"contracts/Twitter.sol\":2108:2110  _i */\n      dup3\n        /* \"contracts/Twitter.sol\":2089:2111  tweets[msg.sender][_i] */\n      dup2\n      sload\n      dup2\n      lt\n      tag_98\n      jumpi\n      tag_99\n      tag_37\n      jump\t// in\n    tag_99:\n    tag_98:\n      swap1\n      0x00\n      mstore\n      keccak256(0x00, 0x20)\n      swap1\n      0x05\n      mul\n      add\n        /* \"contracts/Twitter.sol\":2089:2119  tweets[msg.sender][_i].content */\n      0x02\n      add\n        /* \"contracts/Twitter.sol\":2082:2119  return tweets[msg.sender][_i].content */\n      dup1\n      sload\n      tag_101\n      swap1\n      tag_63\n      jump\t// in\n    tag_101:\n      dup1\n      0x1f\n      add\n      0x20\n      dup1\n      swap2\n      div\n      mul\n      0x20\n      add\n      mload(0x40)\n      swap1\n      dup2\n      add\n      0x40\n      mstore\n      dup1\n      swap3\n      swap2\n      swap1\n      dup2\n      dup2\n      mstore\n      0x20\n      add\n      dup3\n      dup1\n      sload\n      tag_102\n      swap1\n      tag_63\n      jump\t// in\n    tag_102:\n      dup1\n      iszero\n      tag_103\n      jumpi\n      dup1\n      0x1f\n      lt\n      tag_104\n      jumpi\n      0x0100\n      dup1\n      dup4\n      sload\n      div\n      mul\n      dup4\n      mstore\n      swap2\n      0x20\n      add\n      swap2\n      jump(tag_103)\n    tag_104:\n      dup3\n      add\n      swap2\n      swap1\n      0x00\n      mstore\n      keccak256(0x00, 0x20)\n      swap1\n    tag_105:\n      dup2\n      sload\n      dup2\n      mstore\n      swap1\n      0x01\n      add\n      swap1\n      0x20\n      add\n      dup1\n      dup4\n      gt\n      tag_105\n      jumpi\n      dup3\n      swap1\n      sub\n      0x1f\n      and\n      dup3\n      add\n      swap2\n    tag_103:\n      pop\n      pop\n      pop\n      pop\n      pop\n      swap1\n      pop\n        /* \"contracts/Twitter.sol\":2010:2126  function getTweet(uint _i) public view returns(string memory) {... */\n      swap2\n      swap1\n      pop\n      jump\t// out\n        /* \"#utility.yul\":7:82   */\n    tag_106:\n        /* \"#utility.yul\":40:46   */\n      0x00\n        /* \"#utility.yul\":73:75   */\n      0x40\n        /* \"#utility.yul\":67:76   */\n      mload\n        /* \"#utility.yul\":57:76   */\n      swap1\n      pop\n        /* \"#utility.yul\":7:82   */\n      swap1\n      jump\t// out\n        /* \"#utility.yul\":88:205   */\n    tag_107:\n        /* \"#utility.yul\":197:198   */\n      0x00\n        /* \"#utility.yul\":194:195   */\n      dup1\n        /* \"#utility.yul\":187:199   */\n      revert\n        /* \"#utility.yul\":211:328   */\n    tag_108:\n        /* \"#utility.yul\":320:321   */\n      0x00\n        /* \"#utility.yul\":317:318   */\n      dup1\n        /* \"#utility.yul\":310:322   */\n      revert\n        /* \"#utility.yul\":334:460   */\n    tag_109:\n        /* \"#utility.yul\":371:378   */\n      0x00\n        /* \"#utility.yul\":411:453   */\n      0xffffffffffffffffffffffffffffffffffffffff\n        /* \"#utility.yul\":404:409   */\n      dup3\n        /* \"#utility.yul\":400:454   */\n      and\n        /* \"#utility.yul\":389:454   */\n      swap1\n      pop\n        /* \"#utility.yul\":334:460   */\n      swap2\n      swap1\n      pop\n      jump\t// out\n        /* \"#utility.yul\":466:562   */\n    tag_110:\n        /* \"#utility.yul\":503:510   */\n      0x00\n        /* \"#utility.yul\":532:556   */\n      tag_177\n        /* \"#utility.yul\":550:555   */\n      dup3\n        /* \"#utility.yul\":532:556   */\n      tag_109\n      jump\t// in\n    tag_177:\n        /* \"#utility.yul\":521:556   */\n      swap1\n      pop\n        /* \"#utility.yul\":466:562   */\n      swap2\n      swap1\n      pop\n      jump\t// out\n        /* \"#utility.yul\":568:690   */\n    tag_111:\n        /* \"#utility.yul\":641:665   */\n      tag_179\n        /* \"#utility.yul\":659:664   */\n      dup2\n        /* \"#utility.yul\":641:665   */\n      tag_110\n      jump\t// in\n    tag_179:\n        /* \"#utility.yul\":634:639   */\n      dup2\n        /* \"#utility.yul\":631:666   */\n      eq\n        /* \"#utility.yul\":621:684   */\n      tag_180\n      jumpi\n        /* \"#utility.yul\":680:681   */\n      0x00\n        /* \"#utility.yul\":677:678   */\n      dup1\n        /* \"#utility.yul\":670:682   */\n      revert\n        /* \"#utility.yul\":621:684   */\n    tag_180:\n        /* \"#utility.yul\":568:690   */\n      pop\n      jump\t// out\n        /* \"#utility.yul\":696:835   */\n    tag_112:\n        /* \"#utility.yul\":742:747   */\n      0x00\n        /* \"#utility.yul\":780:786   */\n      dup2\n        /* \"#utility.yul\":767:787   */\n      calldataload\n        /* \"#utility.yul\":758:787   */\n      swap1\n      pop\n        /* \"#utility.yul\":796:829   */\n      tag_182\n        /* \"#utility.yul\":823:828   */\n      dup2\n        /* \"#utility.yul\":796:829   */\n      tag_111\n      jump\t// in\n    tag_182:\n        /* \"#utility.yul\":696:835   */\n      swap3\n      swap2\n      pop\n      pop\n      jump\t// out\n        /* \"#utility.yul\":841:918   */\n    tag_113:\n        /* \"#utility.yul\":878:885   */\n      0x00\n        /* \"#utility.yul\":907:912   */\n      dup2\n        /* \"#utility.yul\":896:912   */\n      swap1\n      pop\n        /* \"#utility.yul\":841:918   */\n      swap2\n      swap1\n      pop\n      jump\t// out\n        /* \"#utility.yul\":924:1046   */\n    tag_114:\n        /* \"#utility.yul\":997:1021   */\n      tag_185\n        /* \"#utility.yul\":1015:1020   */\n      dup2\n        /* \"#utility.yul\":997:1021   */\n      tag_113\n      jump\t// in\n    tag_185:\n        /* \"#utility.yul\":990:995   */\n      dup2\n        /* \"#utility.yul\":987:1022   */\n      eq\n        /* \"#utility.yul\":977:1040   */\n      tag_186\n      jumpi\n        /* \"#utility.yul\":1036:1037   */\n      0x00\n        /* \"#utility.yul\":1033:1034   */\n      dup1\n        /* \"#utility.yul\":1026:1038   */\n      revert\n        /* \"#utility.yul\":977:1040   */\n    tag_186:\n        /* \"#utility.yul\":924:1046   */\n      pop\n      jump\t// out\n        /* \"#utility.yul\":1052:1191   */\n    tag_115:\n        /* \"#utility.yul\":1098:1103   */\n      0x00\n        /* \"#utility.yul\":1136:1142   */\n      dup2\n        /* \"#utility.yul\":1123:1143   */\n      calldataload\n        /* \"#utility.yul\":1114:1143   */\n      swap1\n      pop\n        /* \"#utility.yul\":1152:1185   */\n      tag_188\n        /* \"#utility.yul\":1179:1184   */\n      dup2\n        /* \"#utility.yul\":1152:1185   */\n      tag_114\n      jump\t// in\n    tag_188:\n        /* \"#utility.yul\":1052:1191   */\n      swap3\n      swap2\n      pop\n      pop\n      jump\t// out\n        /* \"#utility.yul\":1197:1671   */\n    tag_11:\n        /* \"#utility.yul\":1265:1271   */\n      0x00\n        /* \"#utility.yul\":1273:1279   */\n      dup1\n        /* \"#utility.yul\":1322:1324   */\n      0x40\n        /* \"#utility.yul\":1310:1319   */\n      dup4\n        /* \"#utility.yul\":1301:1308   */\n      dup6\n        /* \"#utility.yul\":1297:1320   */\n      sub\n        /* \"#utility.yul\":1293:1325   */\n      slt\n        /* \"#utility.yul\":1290:1409   */\n      iszero\n      tag_190\n      jumpi\n        /* \"#utility.yul\":1328:1407   */\n      tag_191\n      tag_107\n      jump\t// in\n    tag_191:\n        /* \"#utility.yul\":1290:1409   */\n    tag_190:\n        /* \"#utility.yul\":1448:1449   */\n      0x00\n        /* \"#utility.yul\":1473:1526   */\n      tag_192\n        /* \"#utility.yul\":1518:1525   */\n      dup6\n        /* \"#utility.yul\":1509:1515   */\n      dup3\n        /* \"#utility.yul\":1498:1507   */\n      dup7\n        /* \"#utility.yul\":1494:1516   */\n      add\n        /* \"#utility.yul\":1473:1526   */\n      tag_112\n      jump\t// in\n    tag_192:\n        /* \"#utility.yul\":1463:1526   */\n      swap3\n      pop\n        /* \"#utility.yul\":1419:1536   */\n      pop\n        /* \"#utility.yul\":1575:1577   */\n      0x20\n        /* \"#utility.yul\":1601:1654   */\n      tag_193\n        /* \"#utility.yul\":1646:1653   */\n      dup6\n        /* \"#utility.yul\":1637:1643   */\n      dup3\n        /* \"#utility.yul\":1626:1635   */\n      dup7\n        /* \"#utility.yul\":1622:1644   */\n      add\n        /* \"#utility.yul\":1601:1654   */\n      tag_115\n      jump\t// in\n    tag_193:\n        /* \"#utility.yul\":1591:1654   */\n      swap2\n      pop\n        /* \"#utility.yul\":1546:1664   */\n      pop\n        /* \"#utility.yul\":1197:1671   */\n      swap3\n      pop\n      swap3\n      swap1\n      pop\n      jump\t// out\n        /* \"#utility.yul\":1677:1812   */\n    tag_116:\n        /* \"#utility.yul\":1765:1771   */\n      0x00\n        /* \"#utility.yul\":1799:1804   */\n      dup2\n        /* \"#utility.yul\":1793:1805   */\n      mload\n        /* \"#utility.yul\":1783:1805   */\n      swap1\n      pop\n        /* \"#utility.yul\":1677:1812   */\n      swap2\n      swap1\n      pop\n      jump\t// out\n        /* \"#utility.yul\":1818:2023   */\n    tag_117:\n        /* \"#utility.yul\":1938:1949   */\n      0x00\n        /* \"#utility.yul\":1972:1978   */\n      dup3\n        /* \"#utility.yul\":1967:1970   */\n      dup3\n        /* \"#utility.yul\":1960:1979   */\n      mstore\n        /* \"#utility.yul\":2012:2016   */\n      0x20\n        /* \"#utility.yul\":2007:2010   */\n      dup3\n        /* \"#utility.yul\":2003:2017   */\n      add\n        /* \"#utility.yul\":1988:2017   */\n      swap1\n      pop\n        /* \"#utility.yul\":1818:2023   */\n      swap3\n      swap2\n      pop\n      pop\n      jump\t// out\n        /* \"#utility.yul\":2029:2182   */\n    tag_118:\n        /* \"#utility.yul\":2117:2121   */\n      0x00\n        /* \"#utility.yul\":2140:2143   */\n      dup2\n        /* \"#utility.yul\":2132:2143   */\n      swap1\n      pop\n        /* \"#utility.yul\":2170:2174   */\n      0x20\n        /* \"#utility.yul\":2165:2168   */\n      dup3\n        /* \"#utility.yul\":2161:2175   */\n      add\n        /* \"#utility.yul\":2153:2175   */\n      swap1\n      pop\n        /* \"#utility.yul\":2029:2182   */\n      swap2\n      swap1\n      pop\n      jump\t// out\n        /* \"#utility.yul\":2188:2296   */\n    tag_119:\n        /* \"#utility.yul\":2265:2289   */\n      tag_198\n        /* \"#utility.yul\":2283:2288   */\n      dup2\n        /* \"#utility.yul\":2265:2289   */\n      tag_113\n      jump\t// in\n    tag_198:\n        /* \"#utility.yul\":2260:2263   */\n      dup3\n        /* \"#utility.yul\":2253:2290   */\n      mstore\n        /* \"#utility.yul\":2188:2296   */\n      pop\n      pop\n      jump\t// out\n        /* \"#utility.yul\":2302:2410   */\n    tag_120:\n        /* \"#utility.yul\":2379:2403   */\n      tag_200\n        /* \"#utility.yul\":2397:2402   */\n      dup2\n        /* \"#utility.yul\":2379:2403   */\n      tag_110\n      jump\t// in\n    tag_200:\n        /* \"#utility.yul\":2374:2377   */\n      dup3\n        /* \"#utility.yul\":2367:2404   */\n      mstore\n        /* \"#utility.yul\":2302:2410   */\n      pop\n      pop\n      jump\t// out\n        /* \"#utility.yul\":2416:2515   */\n    tag_121:\n        /* \"#utility.yul\":2468:2474   */\n      0x00\n        /* \"#utility.yul\":2502:2507   */\n      dup2\n        /* \"#utility.yul\":2496:2508   */\n      mload\n        /* \"#utility.yul\":2486:2508   */\n      swap1\n      pop\n        /* \"#utility.yul\":2416:2515   */\n      swap2\n      swap1\n      pop\n      jump\t// out\n        /* \"#utility.yul\":2521:2680   */\n    tag_122:\n        /* \"#utility.yul\":2595:2606   */\n      0x00\n        /* \"#utility.yul\":2629:2635   */\n      dup3\n        /* \"#utility.yul\":2624:2627   */\n      dup3\n        /* \"#utility.yul\":2617:2636   */\n      mstore\n        /* \"#utility.yul\":2669:2673   */\n      0x20\n        /* \"#utility.yul\":2664:2667   */\n      dup3\n        /* \"#utility.yul\":2660:2674   */\n      add\n        /* \"#utility.yul\":2645:2674   */\n      swap1\n      pop\n        /* \"#utility.yul\":2521:2680   */\n      swap3\n      swap2\n      pop\n      pop\n      jump\t// out\n        /* \"#utility.yul\":2686:2932   */\n    tag_123:\n        /* \"#utility.yul\":2767:2768   */\n      0x00\n        /* \"#utility.yul\":2777:2890   */\n    tag_204:\n        /* \"#utility.yul\":2791:2797   */\n      dup4\n        /* \"#utility.yul\":2788:2789   */\n      dup2\n        /* \"#utility.yul\":2785:2798   */\n      lt\n        /* \"#utility.yul\":2777:2890   */\n      iszero\n      tag_206\n      jumpi\n        /* \"#utility.yul\":2876:2877   */\n      dup1\n        /* \"#utility.yul\":2871:2874   */\n      dup3\n        /* \"#utility.yul\":2867:2878   */\n      add\n        /* \"#utility.yul\":2861:2879   */\n      mload\n        /* \"#utility.yul\":2857:2858   */\n      dup2\n        /* \"#utility.yul\":2852:2855   */\n      dup5\n        /* \"#utility.yul\":2848:2859   */\n      add\n        /* \"#utility.yul\":2841:2880   */\n      mstore\n        /* \"#utility.yul\":2813:2815   */\n      0x20\n        /* \"#utility.yul\":2810:2811   */\n      dup2\n        /* \"#utility.yul\":2806:2816   */\n      add\n        /* \"#utility.yul\":2801:2816   */\n      swap1\n      pop\n        /* \"#utility.yul\":2777:2890   */\n      jump(tag_204)\n    tag_206:\n        /* \"#utility.yul\":2924:2925   */\n      0x00\n        /* \"#utility.yul\":2915:2921   */\n      dup5\n        /* \"#utility.yul\":2910:2913   */\n      dup5\n        /* \"#utility.yul\":2906:2922   */\n      add\n        /* \"#utility.yul\":2899:2926   */\n      mstore\n        /* \"#utility.yul\":2748:2932   */\n      pop\n        /* \"#utility.yul\":2686:2932   */\n      pop\n      pop\n      pop\n      jump\t// out\n        /* \"#utility.yul\":2938:3040   */\n    tag_124:\n        /* \"#utility.yul\":2979:2985   */\n      0x00\n        /* \"#utility.yul\":3030:3032   */\n      0x1f\n        /* \"#utility.yul\":3026:3033   */\n      not\n        /* \"#utility.yul\":3021:3023   */\n      0x1f\n        /* \"#utility.yul\":3014:3019   */\n      dup4\n        /* \"#utility.yul\":3010:3024   */\n      add\n        /* \"#utility.yul\":3006:3034   */\n      and\n        /* \"#utility.yul\":2996:3034   */\n      swap1\n      pop\n        /* \"#utility.yul\":2938:3040   */\n      swap2\n      swap1\n      pop\n      jump\t// out\n        /* \"#utility.yul\":3046:3403   */\n    tag_125:\n        /* \"#utility.yul\":3124:3127   */\n      0x00\n        /* \"#utility.yul\":3152:3191   */\n      tag_209\n        /* \"#utility.yul\":3185:3190   */\n      dup3\n        /* \"#utility.yul\":3152:3191   */\n      tag_121\n      jump\t// in\n    tag_209:\n        /* \"#utility.yul\":3207:3268   */\n      tag_210\n        /* \"#utility.yul\":3261:3267   */\n      dup2\n        /* \"#utility.yul\":3256:3259   */\n      dup6\n        /* \"#utility.yul\":3207:3268   */\n      tag_122\n      jump\t// in\n    tag_210:\n        /* \"#utility.yul\":3200:3268   */\n      swap4\n      pop\n        /* \"#utility.yul\":3277:3342   */\n      tag_211\n        /* \"#utility.yul\":3335:3341   */\n      dup2\n        /* \"#utility.yul\":3330:3333   */\n      dup6\n        /* \"#utility.yul\":3323:3327   */\n      0x20\n        /* \"#utility.yul\":3316:3321   */\n      dup7\n        /* \"#utility.yul\":3312:3328   */\n      add\n        /* \"#utility.yul\":3277:3342   */\n      tag_123\n      jump\t// in\n    tag_211:\n        /* \"#utility.yul\":3367:3396   */\n      tag_212\n        /* \"#utility.yul\":3389:3395   */\n      dup2\n        /* \"#utility.yul\":3367:3396   */\n      tag_124\n      jump\t// in\n    tag_212:\n        /* \"#utility.yul\":3362:3365   */\n      dup5\n        /* \"#utility.yul\":3358:3397   */\n      add\n        /* \"#utility.yul\":3351:3397   */\n      swap2\n      pop\n        /* \"#utility.yul\":3128:3403   */\n      pop\n        /* \"#utility.yul\":3046:3403   */\n      swap3\n      swap2\n      pop\n      pop\n      jump\t// out\n        /* \"#utility.yul\":3461:4580   */\n    tag_126:\n        /* \"#utility.yul\":3562:3565   */\n      0x00\n        /* \"#utility.yul\":3598:3602   */\n      0xa0\n        /* \"#utility.yul\":3593:3596   */\n      dup4\n        /* \"#utility.yul\":3589:3603   */\n      add\n        /* \"#utility.yul\":3683:3687   */\n      0x00\n        /* \"#utility.yul\":3676:3681   */\n      dup4\n        /* \"#utility.yul\":3672:3688   */\n      add\n        /* \"#utility.yul\":3666:3689   */\n      mload\n        /* \"#utility.yul\":3702:3765   */\n      tag_214\n        /* \"#utility.yul\":3759:3763   */\n      0x00\n        /* \"#utility.yul\":3754:3757   */\n      dup7\n        /* \"#utility.yul\":3750:3764   */\n      add\n        /* \"#utility.yul\":3736:3748   */\n      dup3\n        /* \"#utility.yul\":3702:3765   */\n      tag_119\n      jump\t// in\n    tag_214:\n        /* \"#utility.yul\":3613:3775   */\n      pop\n        /* \"#utility.yul\":3859:3863   */\n      0x20\n        /* \"#utility.yul\":3852:3857   */\n      dup4\n        /* \"#utility.yul\":3848:3864   */\n      add\n        /* \"#utility.yul\":3842:3865   */\n      mload\n        /* \"#utility.yul\":3878:3941   */\n      tag_215\n        /* \"#utility.yul\":3935:3939   */\n      0x20\n        /* \"#utility.yul\":3930:3933   */\n      dup7\n        /* \"#utility.yul\":3926:3940   */\n      add\n        /* \"#utility.yul\":3912:3924   */\n      dup3\n        /* \"#utility.yul\":3878:3941   */\n      tag_120\n      jump\t// in\n    tag_215:\n        /* \"#utility.yul\":3785:3951   */\n      pop\n        /* \"#utility.yul\":4036:4040   */\n      0x40\n        /* \"#utility.yul\":4029:4034   */\n      dup4\n        /* \"#utility.yul\":4025:4041   */\n      add\n        /* \"#utility.yul\":4019:4042   */\n      mload\n        /* \"#utility.yul\":4089:4092   */\n      dup5\n        /* \"#utility.yul\":4083:4087   */\n      dup3\n        /* \"#utility.yul\":4079:4093   */\n      sub\n        /* \"#utility.yul\":4072:4076   */\n      0x40\n        /* \"#utility.yul\":4067:4070   */\n      dup7\n        /* \"#utility.yul\":4063:4077   */\n      add\n        /* \"#utility.yul\":4056:4094   */\n      mstore\n        /* \"#utility.yul\":4115:4188   */\n      tag_216\n        /* \"#utility.yul\":4183:4187   */\n      dup3\n        /* \"#utility.yul\":4169:4181   */\n      dup3\n        /* \"#utility.yul\":4115:4188   */\n      tag_125\n      jump\t// in\n    tag_216:\n        /* \"#utility.yul\":4107:4188   */\n      swap2\n      pop\n        /* \"#utility.yul\":3961:4199   */\n      pop\n        /* \"#utility.yul\":4286:4290   */\n      0x60\n        /* \"#utility.yul\":4279:4284   */\n      dup4\n        /* \"#utility.yul\":4275:4291   */\n      add\n        /* \"#utility.yul\":4269:4292   */\n      mload\n        /* \"#utility.yul\":4305:4368   */\n      tag_217\n        /* \"#utility.yul\":4362:4366   */\n      0x60\n        /* \"#utility.yul\":4357:4360   */\n      dup7\n        /* \"#utility.yul\":4353:4367   */\n      add\n        /* \"#utility.yul\":4339:4351   */\n      dup3\n        /* \"#utility.yul\":4305:4368   */\n      tag_119\n      jump\t// in\n    tag_217:\n        /* \"#utility.yul\":4209:4378   */\n      pop\n        /* \"#utility.yul\":4461:4465   */\n      0x80\n        /* \"#utility.yul\":4454:4459   */\n      dup4\n        /* \"#utility.yul\":4450:4466   */\n      add\n        /* \"#utility.yul\":4444:4467   */\n      mload\n        /* \"#utility.yul\":4480:4543   */\n      tag_218\n        /* \"#utility.yul\":4537:4541   */\n      0x80\n        /* \"#utility.yul\":4532:4535   */\n      dup7\n        /* \"#utility.yul\":4528:4542   */\n      add\n        /* \"#utility.yul\":4514:4526   */\n      dup3\n        /* \"#utility.yul\":4480:4543   */\n      tag_119\n      jump\t// in\n    tag_218:\n        /* \"#utility.yul\":4388:4553   */\n      pop\n        /* \"#utility.yul\":4570:4574   */\n      dup1\n        /* \"#utility.yul\":4563:4574   */\n      swap2\n      pop\n        /* \"#utility.yul\":3567:4580   */\n      pop\n        /* \"#utility.yul\":3461:4580   */\n      swap3\n      swap2\n      pop\n      pop\n      jump\t// out\n        /* \"#utility.yul\":4586:4826   */\n    tag_127:\n        /* \"#utility.yul\":4697:4707   */\n      0x00\n        /* \"#utility.yul\":4732:4820   */\n      tag_220\n        /* \"#utility.yul\":4816:4819   */\n      dup4\n        /* \"#utility.yul\":4808:4814   */\n      dup4\n        /* \"#utility.yul\":4732:4820   */\n      tag_126\n      jump\t// in\n    tag_220:\n        /* \"#utility.yul\":4718:4820   */\n      swap1\n      pop\n        /* \"#utility.yul\":4586:4826   */\n      swap3\n      swap2\n      pop\n      pop\n      jump\t// out\n        /* \"#utility.yul\":4832:4966   */\n    tag_128:\n        /* \"#utility.yul\":4923:4927   */\n      0x00\n        /* \"#utility.yul\":4955:4959   */\n      0x20\n        /* \"#utility.yul\":4950:4953   */\n      dup3\n        /* \"#utility.yul\":4946:4960   */\n      add\n        /* \"#utility.yul\":4938:4960   */\n      swap1\n      pop\n        /* \"#utility.yul\":4832:4966   */\n      swap2\n      swap1\n      pop\n      jump\t// out\n        /* \"#utility.yul\":5028:6107   */\n    tag_129:\n        /* \"#utility.yul\":5189:5192   */\n      0x00\n        /* \"#utility.yul\":5218:5293   */\n      tag_223\n        /* \"#utility.yul\":5287:5292   */\n      dup3\n        /* \"#utility.yul\":5218:5293   */\n      tag_116\n      jump\t// in\n    tag_223:\n        /* \"#utility.yul\":5309:5416   */\n      tag_224\n        /* \"#utility.yul\":5409:5415   */\n      dup2\n        /* \"#utility.yul\":5404:5407   */\n      dup6\n        /* \"#utility.yul\":5309:5416   */\n      tag_117\n      jump\t// in\n    tag_224:\n        /* \"#utility.yul\":5302:5416   */\n      swap4\n      pop\n        /* \"#utility.yul\":5442:5445   */\n      dup4\n        /* \"#utility.yul\":5487:5491   */\n      0x20\n        /* \"#utility.yul\":5479:5485   */\n      dup3\n        /* \"#utility.yul\":5475:5492   */\n      mul\n        /* \"#utility.yul\":5470:5473   */\n      dup6\n        /* \"#utility.yul\":5466:5493   */\n      add\n        /* \"#utility.yul\":5517:5594   */\n      tag_225\n        /* \"#utility.yul\":5588:5593   */\n      dup6\n        /* \"#utility.yul\":5517:5594   */\n      tag_118\n      jump\t// in\n    tag_225:\n        /* \"#utility.yul\":5617:5624   */\n      dup1\n        /* \"#utility.yul\":5648:5649   */\n      0x00\n        /* \"#utility.yul\":5633:6062   */\n    tag_226:\n        /* \"#utility.yul\":5658:5664   */\n      dup6\n        /* \"#utility.yul\":5655:5656   */\n      dup2\n        /* \"#utility.yul\":5652:5665   */\n      lt\n        /* \"#utility.yul\":5633:6062   */\n      iszero\n      tag_228\n      jumpi\n        /* \"#utility.yul\":5729:5738   */\n      dup5\n        /* \"#utility.yul\":5723:5727   */\n      dup5\n        /* \"#utility.yul\":5719:5739   */\n      sub\n        /* \"#utility.yul\":5714:5717   */\n      dup10\n        /* \"#utility.yul\":5707:5740   */\n      mstore\n        /* \"#utility.yul\":5780:5786   */\n      dup2\n        /* \"#utility.yul\":5774:5787   */\n      mload\n        /* \"#utility.yul\":5808:5914   */\n      tag_229\n        /* \"#utility.yul\":5909:5913   */\n      dup6\n        /* \"#utility.yul\":5894:5907   */\n      dup3\n        /* \"#utility.yul\":5808:5914   */\n      tag_127\n      jump\t// in\n    tag_229:\n        /* \"#utility.yul\":5800:5914   */\n      swap5\n      pop\n        /* \"#utility.yul\":5937:6018   */\n      tag_230\n        /* \"#utility.yul\":6011:6017   */\n      dup4\n        /* \"#utility.yul\":5937:6018   */\n      tag_128\n      jump\t// in\n    tag_230:\n        /* \"#utility.yul\":5927:6018   */\n      swap3\n      pop\n        /* \"#utility.yul\":6047:6051   */\n      0x20\n        /* \"#utility.yul\":6042:6045   */\n      dup11\n        /* \"#utility.yul\":6038:6052   */\n      add\n        /* \"#utility.yul\":6031:6052   */\n      swap10\n      pop\n        /* \"#utility.yul\":5693:6062   */\n      pop\n        /* \"#utility.yul\":5680:5681   */\n      0x01\n        /* \"#utility.yul\":5677:5678   */\n      dup2\n        /* \"#utility.yul\":5673:5682   */\n      add\n        /* \"#utility.yul\":5668:5682   */\n      swap1\n      pop\n        /* \"#utility.yul\":5633:6062   */\n      jump(tag_226)\n    tag_228:\n        /* \"#utility.yul\":5637:5651   */\n      pop\n        /* \"#utility.yul\":6078:6082   */\n      dup3\n        /* \"#utility.yul\":6071:6082   */\n      swap8\n      pop\n        /* \"#utility.yul\":6098:6101   */\n      dup8\n        /* \"#utility.yul\":6091:6101   */\n      swap6\n      pop\n        /* \"#utility.yul\":5194:6107   */\n      pop\n      pop\n      pop\n      pop\n      pop\n        /* \"#utility.yul\":5028:6107   */\n      swap3\n      swap2\n      pop\n      pop\n      jump\t// out\n        /* \"#utility.yul\":6113:6570   */\n    tag_16:\n        /* \"#utility.yul\":6298:6302   */\n      0x00\n        /* \"#utility.yul\":6336:6338   */\n      0x20\n        /* \"#utility.yul\":6325:6334   */\n      dup3\n        /* \"#utility.yul\":6321:6339   */\n      add\n        /* \"#utility.yul\":6313:6339   */\n      swap1\n      pop\n        /* \"#utility.yul\":6385:6394   */\n      dup2\n        /* \"#utility.yul\":6379:6383   */\n      dup2\n        /* \"#utility.yul\":6375:6395   */\n      sub\n        /* \"#utility.yul\":6371:6372   */\n      0x00\n        /* \"#utility.yul\":6360:6369   */\n      dup4\n        /* \"#utility.yul\":6356:6373   */\n      add\n        /* \"#utility.yul\":6349:6396   */\n      mstore\n        /* \"#utility.yul\":6413:6563   */\n      tag_232\n        /* \"#utility.yul\":6558:6562   */\n      dup2\n        /* \"#utility.yul\":6549:6555   */\n      dup5\n        /* \"#utility.yul\":6413:6563   */\n      tag_129\n      jump\t// in\n    tag_232:\n        /* \"#utility.yul\":6405:6563   */\n      swap1\n      pop\n        /* \"#utility.yul\":6113:6570   */\n      swap3\n      swap2\n      pop\n      pop\n      jump\t// out\n        /* \"#utility.yul\":6576:6665   */\n    tag_130:\n        /* \"#utility.yul\":6612:6619   */\n      0x00\n        /* \"#utility.yul\":6652:6658   */\n      0xffff\n        /* \"#utility.yul\":6645:6650   */\n      dup3\n        /* \"#utility.yul\":6641:6659   */\n      and\n        /* \"#utility.yul\":6630:6659   */\n      swap1\n      pop\n        /* \"#utility.yul\":6576:6665   */\n      swap2\n      swap1\n      pop\n      jump\t// out\n        /* \"#utility.yul\":6671:6791   */\n    tag_131:\n        /* \"#utility.yul\":6743:6766   */\n      tag_235\n        /* \"#utility.yul\":6760:6765   */\n      dup2\n        /* \"#utility.yul\":6743:6766   */\n      tag_130\n      jump\t// in\n    tag_235:\n        /* \"#utility.yul\":6736:6741   */\n      dup2\n        /* \"#utility.yul\":6733:6767   */\n      eq\n        /* \"#utility.yul\":6723:6785   */\n      tag_236\n      jumpi\n        /* \"#utility.yul\":6781:6782   */\n      0x00\n        /* \"#utility.yul\":6778:6779   */\n      dup1\n        /* \"#utility.yul\":6771:6783   */\n      revert\n        /* \"#utility.yul\":6723:6785   */\n    tag_236:\n        /* \"#utility.yul\":6671:6791   */\n      pop\n      jump\t// out\n        /* \"#utility.yul\":6797:6934   */\n    tag_132:\n        /* \"#utility.yul\":6842:6847   */\n      0x00\n        /* \"#utility.yul\":6880:6886   */\n      dup2\n        /* \"#utility.yul\":6867:6887   */\n      calldataload\n        /* \"#utility.yul\":6858:6887   */\n      swap1\n      pop\n        /* \"#utility.yul\":6896:6928   */\n      tag_238\n        /* \"#utility.yul\":6922:6927   */\n      dup2\n        /* \"#utility.yul\":6896:6928   */\n      tag_131\n      jump\t// in\n    tag_238:\n        /* \"#utility.yul\":6797:6934   */\n      swap3\n      swap2\n      pop\n      pop\n      jump\t// out\n        /* \"#utility.yul\":6940:7267   */\n    tag_19:\n        /* \"#utility.yul\":6998:7004   */\n      0x00\n        /* \"#utility.yul\":7047:7049   */\n      0x20\n        /* \"#utility.yul\":7035:7044   */\n      dup3\n        /* \"#utility.yul\":7026:7033   */\n      dup5\n        /* \"#utility.yul\":7022:7045   */\n      sub\n        /* \"#utility.yul\":7018:7050   */\n      slt\n        /* \"#utility.yul\":7015:7134   */\n      iszero\n      tag_240\n      jumpi\n        /* \"#utility.yul\":7053:7132   */\n      tag_241\n      tag_107\n      jump\t// in\n    tag_241:\n        /* \"#utility.yul\":7015:7134   */\n    tag_240:\n        /* \"#utility.yul\":7173:7174   */\n      0x00\n        /* \"#utility.yul\":7198:7250   */\n      tag_242\n        /* \"#utility.yul\":7242:7249   */\n      dup5\n        /* \"#utility.yul\":7233:7239   */\n      dup3\n        /* \"#utility.yul\":7222:7231   */\n      dup6\n        /* \"#utility.yul\":7218:7240   */\n      add\n        /* \"#utility.yul\":7198:7250   */\n      tag_132\n      jump\t// in\n    tag_242:\n        /* \"#utility.yul\":7188:7250   */\n      swap2\n      pop\n        /* \"#utility.yul\":7144:7260   */\n      pop\n        /* \"#utility.yul\":6940:7267   */\n      swap3\n      swap2\n      pop\n      pop\n      jump\t// out\n        /* \"#utility.yul\":7273:7390   */\n    tag_133:\n        /* \"#utility.yul\":7382:7383   */\n      0x00\n        /* \"#utility.yul\":7379:7380   */\n      dup1\n        /* \"#utility.yul\":7372:7384   */\n      revert\n        /* \"#utility.yul\":7396:7513   */\n    tag_134:\n        /* \"#utility.yul\":7505:7506   */\n      0x00\n        /* \"#utility.yul\":7502:7503   */\n      dup1\n        /* \"#utility.yul\":7495:7507   */\n      revert\n        /* \"#utility.yul\":7519:7699   */\n    tag_135:\n        /* \"#utility.yul\":7567:7644   */\n      0x4e487b7100000000000000000000000000000000000000000000000000000000\n        /* \"#utility.yul\":7564:7565   */\n      0x00\n        /* \"#utility.yul\":7557:7645   */\n      mstore\n        /* \"#utility.yul\":7664:7668   */\n      0x41\n        /* \"#utility.yul\":7661:7662   */\n      0x04\n        /* \"#utility.yul\":7654:7669   */\n      mstore\n        /* \"#utility.yul\":7688:7692   */\n      0x24\n        /* \"#utility.yul\":7685:7686   */\n      0x00\n        /* \"#utility.yul\":7678:7693   */\n      revert\n        /* \"#utility.yul\":7705:7986   */\n    tag_136:\n        /* \"#utility.yul\":7788:7815   */\n      tag_247\n        /* \"#utility.yul\":7810:7814   */\n      dup3\n        /* \"#utility.yul\":7788:7815   */\n      tag_124\n      jump\t// in\n    tag_247:\n        /* \"#utility.yul\":7780:7786   */\n      dup2\n        /* \"#utility.yul\":7776:7816   */\n      add\n        /* \"#utility.yul\":7918:7924   */\n      dup2\n        /* \"#utility.yul\":7906:7916   */\n      dup2\n        /* \"#utility.yul\":7903:7925   */\n      lt\n        /* \"#utility.yul\":7882:7900   */\n      0xffffffffffffffff\n        /* \"#utility.yul\":7870:7880   */\n      dup3\n        /* \"#utility.yul\":7867:7901   */\n      gt\n        /* \"#utility.yul\":7864:7926   */\n      or\n        /* \"#utility.yul\":7861:7949   */\n      iszero\n      tag_248\n      jumpi\n        /* \"#utility.yul\":7929:7947   */\n      tag_249\n      tag_135\n      jump\t// in\n    tag_249:\n        /* \"#utility.yul\":7861:7949   */\n    tag_248:\n        /* \"#utility.yul\":7969:7979   */\n      dup1\n        /* \"#utility.yul\":7965:7967   */\n      0x40\n        /* \"#utility.yul\":7958:7980   */\n      mstore\n        /* \"#utility.yul\":7748:7986   */\n      pop\n        /* \"#utility.yul\":7705:7986   */\n      pop\n      pop\n      jump\t// out\n        /* \"#utility.yul\":7992:8121   */\n    tag_137:\n        /* \"#utility.yul\":8026:8032   */\n      0x00\n        /* \"#utility.yul\":8053:8073   */\n      tag_251\n      tag_106\n      jump\t// in\n    tag_251:\n        /* \"#utility.yul\":8043:8073   */\n      swap1\n      pop\n        /* \"#utility.yul\":8082:8115   */\n      tag_252\n        /* \"#utility.yul\":8110:8114   */\n      dup3\n        /* \"#utility.yul\":8102:8108   */\n      dup3\n        /* \"#utility.yul\":8082:8115   */\n      tag_136\n      jump\t// in\n    tag_252:\n        /* \"#utility.yul\":7992:8121   */\n      swap2\n      swap1\n      pop\n      jump\t// out\n        /* \"#utility.yul\":8127:8435   */\n    tag_138:\n        /* \"#utility.yul\":8189:8193   */\n      0x00\n        /* \"#utility.yul\":8279:8297   */\n      0xffffffffffffffff\n        /* \"#utility.yul\":8271:8277   */\n      dup3\n        /* \"#utility.yul\":8268:8298   */\n      gt\n        /* \"#utility.yul\":8265:8321   */\n      iszero\n      tag_254\n      jumpi\n        /* \"#utility.yul\":8301:8319   */\n      tag_255\n      tag_135\n      jump\t// in\n    tag_255:\n        /* \"#utility.yul\":8265:8321   */\n    tag_254:\n        /* \"#utility.yul\":8339:8368   */\n      tag_256\n        /* \"#utility.yul\":8361:8367   */\n      dup3\n        /* \"#utility.yul\":8339:8368   */\n      tag_124\n      jump\t// in\n    tag_256:\n        /* \"#utility.yul\":8331:8368   */\n      swap1\n      pop\n        /* \"#utility.yul\":8423:8427   */\n      0x20\n        /* \"#utility.yul\":8417:8421   */\n      dup2\n        /* \"#utility.yul\":8413:8428   */\n      add\n        /* \"#utility.yul\":8405:8428   */\n      swap1\n      pop\n        /* \"#utility.yul\":8127:8435   */\n      swap2\n      swap1\n      pop\n      jump\t// out\n        /* \"#utility.yul\":8441:8587   */\n    tag_139:\n        /* \"#utility.yul\":8538:8544   */\n      dup3\n        /* \"#utility.yul\":8533:8536   */\n      dup2\n        /* \"#utility.yul\":8528:8531   */\n      dup4\n        /* \"#utility.yul\":8515:8545   */\n      calldatacopy\n        /* \"#utility.yul\":8579:8580   */\n      0x00\n        /* \"#utility.yul\":8570:8576   */\n      dup4\n        /* \"#utility.yul\":8565:8568   */\n      dup4\n        /* \"#utility.yul\":8561:8577   */\n      add\n        /* \"#utility.yul\":8554:8581   */\n      mstore\n        /* \"#utility.yul\":8441:8587   */\n      pop\n      pop\n      pop\n      jump\t// out\n        /* \"#utility.yul\":8593:9018   */\n    tag_140:\n        /* \"#utility.yul\":8671:8676   */\n      0x00\n        /* \"#utility.yul\":8696:8762   */\n      tag_259\n        /* \"#utility.yul\":8712:8761   */\n      tag_260\n        /* \"#utility.yul\":8754:8760   */\n      dup5\n        /* \"#utility.yul\":8712:8761   */\n      tag_138\n      jump\t// in\n    tag_260:\n        /* \"#utility.yul\":8696:8762   */\n      tag_137\n      jump\t// in\n    tag_259:\n        /* \"#utility.yul\":8687:8762   */\n      swap1\n      pop\n        /* \"#utility.yul\":8785:8791   */\n      dup3\n        /* \"#utility.yul\":8778:8783   */\n      dup2\n        /* \"#utility.yul\":8771:8792   */\n      mstore\n        /* \"#utility.yul\":8823:8827   */\n      0x20\n        /* \"#utility.yul\":8816:8821   */\n      dup2\n        /* \"#utility.yul\":8812:8828   */\n      add\n        /* \"#utility.yul\":8861:8864   */\n      dup5\n        /* \"#utility.yul\":8852:8858   */\n      dup5\n        /* \"#utility.yul\":8847:8850   */\n      dup5\n        /* \"#utility.yul\":8843:8859   */\n      add\n        /* \"#utility.yul\":8840:8865   */\n      gt\n        /* \"#utility.yul\":8837:8949   */\n      iszero\n      tag_261\n      jumpi\n        /* \"#utility.yul\":8868:8947   */\n      tag_262\n      tag_134\n      jump\t// in\n    tag_262:\n        /* \"#utility.yul\":8837:8949   */\n    tag_261:\n        /* \"#utility.yul\":8958:9012   */\n      tag_263\n        /* \"#utility.yul\":9005:9011   */\n      dup5\n        /* \"#utility.yul\":9000:9003   */\n      dup3\n        /* \"#utility.yul\":8995:8998   */\n      dup6\n        /* \"#utility.yul\":8958:9012   */\n      tag_139\n      jump\t// in\n    tag_263:\n        /* \"#utility.yul\":8677:9018   */\n      pop\n        /* \"#utility.yul\":8593:9018   */\n      swap4\n      swap3\n      pop\n      pop\n      pop\n      jump\t// out\n        /* \"#utility.yul\":9038:9378   */\n    tag_141:\n        /* \"#utility.yul\":9094:9099   */\n      0x00\n        /* \"#utility.yul\":9143:9146   */\n      dup3\n        /* \"#utility.yul\":9136:9140   */\n      0x1f\n        /* \"#utility.yul\":9128:9134   */\n      dup4\n        /* \"#utility.yul\":9124:9141   */\n      add\n        /* \"#utility.yul\":9120:9147   */\n      slt\n        /* \"#utility.yul\":9110:9232   */\n      tag_265\n      jumpi\n        /* \"#utility.yul\":9151:9230   */\n      tag_266\n      tag_133\n      jump\t// in\n    tag_266:\n        /* \"#utility.yul\":9110:9232   */\n    tag_265:\n        /* \"#utility.yul\":9268:9274   */\n      dup2\n        /* \"#utility.yul\":9255:9275   */\n      calldataload\n        /* \"#utility.yul\":9293:9372   */\n      tag_267\n        /* \"#utility.yul\":9368:9371   */\n      dup5\n        /* \"#utility.yul\":9360:9366   */\n      dup3\n        /* \"#utility.yul\":9353:9357   */\n      0x20\n        /* \"#utility.yul\":9345:9351   */\n      dup7\n        /* \"#utility.yul\":9341:9358   */\n      add\n        /* \"#utility.yul\":9293:9372   */\n      tag_140\n      jump\t// in\n    tag_267:\n        /* \"#utility.yul\":9284:9372   */\n      swap2\n      pop\n        /* \"#utility.yul\":9100:9378   */\n      pop\n        /* \"#utility.yul\":9038:9378   */\n      swap3\n      swap2\n      pop\n      pop\n      jump\t// out\n        /* \"#utility.yul\":9384:9893   */\n    tag_26:\n        /* \"#utility.yul\":9453:9459   */\n      0x00\n        /* \"#utility.yul\":9502:9504   */\n      0x20\n        /* \"#utility.yul\":9490:9499   */\n      dup3\n        /* \"#utility.yul\":9481:9488   */\n      dup5\n        /* \"#utility.yul\":9477:9500   */\n      sub\n        /* \"#utility.yul\":9473:9505   */\n      slt\n        /* \"#utility.yul\":9470:9589   */\n      iszero\n      tag_269\n      jumpi\n        /* \"#utility.yul\":9508:9587   */\n      tag_270\n      tag_107\n      jump\t// in\n    tag_270:\n        /* \"#utility.yul\":9470:9589   */\n    tag_269:\n        /* \"#utility.yul\":9656:9657   */\n      0x00\n        /* \"#utility.yul\":9645:9654   */\n      dup3\n        /* \"#utility.yul\":9641:9658   */\n      add\n        /* \"#utility.yul\":9628:9659   */\n      calldataload\n        /* \"#utility.yul\":9686:9704   */\n      0xffffffffffffffff\n        /* \"#utility.yul\":9678:9684   */\n      dup2\n        /* \"#utility.yul\":9675:9705   */\n      gt\n        /* \"#utility.yul\":9672:9789   */\n      iszero\n      tag_271\n      jumpi\n        /* \"#utility.yul\":9708:9787   */\n      tag_272\n      tag_108\n      jump\t// in\n    tag_272:\n        /* \"#utility.yul\":9672:9789   */\n    tag_271:\n        /* \"#utility.yul\":9813:9876   */\n      tag_273\n        /* \"#utility.yul\":9868:9875   */\n      dup5\n        /* \"#utility.yul\":9859:9865   */\n      dup3\n        /* \"#utility.yul\":9848:9857   */\n      dup6\n        /* \"#utility.yul\":9844:9866   */\n      add\n        /* \"#utility.yul\":9813:9876   */\n      tag_141\n      jump\t// in\n    tag_273:\n        /* \"#utility.yul\":9803:9876   */\n      swap2\n      pop\n        /* \"#utility.yul\":9599:9886   */\n      pop\n        /* \"#utility.yul\":9384:9893   */\n      swap3\n      swap2\n      pop\n      pop\n      jump\t// out\n        /* \"#utility.yul\":9899:10228   */\n    tag_30:\n        /* \"#utility.yul\":9958:9964   */\n      0x00\n        /* \"#utility.yul\":10007:10009   */\n      0x20\n        /* \"#utility.yul\":9995:10004   */\n      dup3\n        /* \"#utility.yul\":9986:9993   */\n      dup5\n        /* \"#utility.yul\":9982:10005   */\n      sub\n        /* \"#utility.yul\":9978:10010   */\n      slt\n        /* \"#utility.yul\":9975:10094   */\n      iszero\n      tag_275\n      jumpi\n        /* \"#utility.yul\":10013:10092   */\n      tag_276\n      tag_107\n      jump\t// in\n    tag_276:\n        /* \"#utility.yul\":9975:10094   */\n    tag_275:\n        /* \"#utility.yul\":10133:10134   */\n      0x00\n        /* \"#utility.yul\":10158:10211   */\n      tag_277\n        /* \"#utility.yul\":10203:10210   */\n      dup5\n        /* \"#utility.yul\":10194:10200   */\n      dup3\n        /* \"#utility.yul\":10183:10192   */\n      dup6\n        /* \"#utility.yul\":10179:10201   */\n      add\n        /* \"#utility.yul\":10158:10211   */\n      tag_115\n      jump\t// in\n    tag_277:\n        /* \"#utility.yul\":10148:10211   */\n      swap2\n      pop\n        /* \"#utility.yul\":10104:10221   */\n      pop\n        /* \"#utility.yul\":9899:10228   */\n      swap3\n      swap2\n      pop\n      pop\n      jump\t// out\n        /* \"#utility.yul\":10234:10403   */\n    tag_142:\n        /* \"#utility.yul\":10318:10329   */\n      0x00\n        /* \"#utility.yul\":10352:10358   */\n      dup3\n        /* \"#utility.yul\":10347:10350   */\n      dup3\n        /* \"#utility.yul\":10340:10359   */\n      mstore\n        /* \"#utility.yul\":10392:10396   */\n      0x20\n        /* \"#utility.yul\":10387:10390   */\n      dup3\n        /* \"#utility.yul\":10383:10397   */\n      add\n        /* \"#utility.yul\":10368:10397   */\n      swap1\n      pop\n        /* \"#utility.yul\":10234:10403   */\n      swap3\n      swap2\n      pop\n      pop\n      jump\t// out\n        /* \"#utility.yul\":10409:10786   */\n    tag_143:\n        /* \"#utility.yul\":10497:10500   */\n      0x00\n        /* \"#utility.yul\":10525:10564   */\n      tag_280\n        /* \"#utility.yul\":10558:10563   */\n      dup3\n        /* \"#utility.yul\":10525:10564   */\n      tag_121\n      jump\t// in\n    tag_280:\n        /* \"#utility.yul\":10580:10651   */\n      tag_281\n        /* \"#utility.yul\":10644:10650   */\n      dup2\n        /* \"#utility.yul\":10639:10642   */\n      dup6\n        /* \"#utility.yul\":10580:10651   */\n      tag_142\n      jump\t// in\n    tag_281:\n        /* \"#utility.yul\":10573:10651   */\n      swap4\n      pop\n        /* \"#utility.yul\":10660:10725   */\n      tag_282\n        /* \"#utility.yul\":10718:10724   */\n      dup2\n        /* \"#utility.yul\":10713:10716   */\n      dup6\n        /* \"#utility.yul\":10706:10710   */\n      0x20\n        /* \"#utility.yul\":10699:10704   */\n      dup7\n        /* \"#utility.yul\":10695:10711   */\n      add\n        /* \"#utility.yul\":10660:10725   */\n      tag_123\n      jump\t// in\n    tag_282:\n        /* \"#utility.yul\":10750:10779   */\n      tag_283\n        /* \"#utility.yul\":10772:10778   */\n      dup2\n        /* \"#utility.yul\":10750:10779   */\n      tag_124\n      jump\t// in\n    tag_283:\n        /* \"#utility.yul\":10745:10748   */\n      dup5\n        /* \"#utility.yul\":10741:10780   */\n      add\n        /* \"#utility.yul\":10734:10780   */\n      swap2\n      pop\n        /* \"#utility.yul\":10501:10786   */\n      pop\n        /* \"#utility.yul\":10409:10786   */\n      swap3\n      swap2\n      pop\n      pop\n      jump\t// out\n        /* \"#utility.yul\":10792:11105   */\n    tag_33:\n        /* \"#utility.yul\":10905:10909   */\n      0x00\n        /* \"#utility.yul\":10943:10945   */\n      0x20\n        /* \"#utility.yul\":10932:10941   */\n      dup3\n        /* \"#utility.yul\":10928:10946   */\n      add\n        /* \"#utility.yul\":10920:10946   */\n      swap1\n      pop\n        /* \"#utility.yul\":10992:11001   */\n      dup2\n        /* \"#utility.yul\":10986:10990   */\n      dup2\n        /* \"#utility.yul\":10982:11002   */\n      sub\n        /* \"#utility.yul\":10978:10979   */\n      0x00\n        /* \"#utility.yul\":10967:10976   */\n      dup4\n        /* \"#utility.yul\":10963:10980   */\n      add\n        /* \"#utility.yul\":10956:11003   */\n      mstore\n        /* \"#utility.yul\":11020:11098   */\n      tag_285\n        /* \"#utility.yul\":11093:11097   */\n      dup2\n        /* \"#utility.yul\":11084:11090   */\n      dup5\n        /* \"#utility.yul\":11020:11098   */\n      tag_143\n      jump\t// in\n    tag_285:\n        /* \"#utility.yul\":11012:11098   */\n      swap1\n      pop\n        /* \"#utility.yul\":10792:11105   */\n      swap3\n      swap2\n      pop\n      pop\n      jump\t// out\n        /* \"#utility.yul\":11111:11291   */\n    tag_37:\n        /* \"#utility.yul\":11159:11236   */\n      0x4e487b7100000000000000000000000000000000000000000000000000000000\n        /* \"#utility.yul\":11156:11157   */\n      0x00\n        /* \"#utility.yul\":11149:11237   */\n      mstore\n        /* \"#utility.yul\":11256:11260   */\n      0x32\n        /* \"#utility.yul\":11253:11254   */\n      0x04\n        /* \"#utility.yul\":11246:11261   */\n      mstore\n        /* \"#utility.yul\":11280:11284   */\n      0x24\n        /* \"#utility.yul\":11277:11278   */\n      0x00\n        /* \"#utility.yul\":11270:11285   */\n      revert\n        /* \"#utility.yul\":11297:11467   */\n    tag_144:\n        /* \"#utility.yul\":11437:11459   */\n      0x547765657420646f6573206e6f74206578697374000000000000000000000000\n        /* \"#utility.yul\":11433:11434   */\n      0x00\n        /* \"#utility.yul\":11425:11431   */\n      dup3\n        /* \"#utility.yul\":11421:11435   */\n      add\n        /* \"#utility.yul\":11414:11460   */\n      mstore\n        /* \"#utility.yul\":11297:11467   */\n      pop\n      jump\t// out\n        /* \"#utility.yul\":11473:11839   */\n    tag_145:\n        /* \"#utility.yul\":11615:11618   */\n      0x00\n        /* \"#utility.yul\":11636:11703   */\n      tag_289\n        /* \"#utility.yul\":11700:11702   */\n      0x14\n        /* \"#utility.yul\":11695:11698   */\n      dup4\n        /* \"#utility.yul\":11636:11703   */\n      tag_142\n      jump\t// in\n    tag_289:\n        /* \"#utility.yul\":11629:11703   */\n      swap2\n      pop\n        /* \"#utility.yul\":11712:11805   */\n      tag_290\n        /* \"#utility.yul\":11801:11804   */\n      dup3\n        /* \"#utility.yul\":11712:11805   */\n      tag_144\n      jump\t// in\n    tag_290:\n        /* \"#utility.yul\":11830:11832   */\n      0x20\n        /* \"#utility.yul\":11825:11828   */\n      dup3\n        /* \"#utility.yul\":11821:11833   */\n      add\n        /* \"#utility.yul\":11814:11833   */\n      swap1\n      pop\n        /* \"#utility.yul\":11473:11839   */\n      swap2\n      swap1\n      pop\n      jump\t// out\n        /* \"#utility.yul\":11845:12264   */\n    tag_41:\n        /* \"#utility.yul\":12011:12015   */\n      0x00\n        /* \"#utility.yul\":12049:12051   */\n      0x20\n        /* \"#utility.yul\":12038:12047   */\n      dup3\n        /* \"#utility.yul\":12034:12052   */\n      add\n        /* \"#utility.yul\":12026:12052   */\n      swap1\n      pop\n        /* \"#utility.yul\":12098:12107   */\n      dup2\n        /* \"#utility.yul\":12092:12096   */\n      dup2\n        /* \"#utility.yul\":12088:12108   */\n      sub\n        /* \"#utility.yul\":12084:12085   */\n      0x00\n        /* \"#utility.yul\":12073:12082   */\n      dup4\n        /* \"#utility.yul\":12069:12086   */\n      add\n        /* \"#utility.yul\":12062:12109   */\n      mstore\n        /* \"#utility.yul\":12126:12257   */\n      tag_292\n        /* \"#utility.yul\":12252:12256   */\n      dup2\n        /* \"#utility.yul\":12126:12257   */\n      tag_145\n      jump\t// in\n    tag_292:\n        /* \"#utility.yul\":12118:12257   */\n      swap1\n      pop\n        /* \"#utility.yul\":11845:12264   */\n      swap2\n      swap1\n      pop\n      jump\t// out\n        /* \"#utility.yul\":12270:12448   */\n    tag_146:\n        /* \"#utility.yul\":12410:12440   */\n      0x547765657420646f65736e2774206861766520616e79206c696b657300000000\n        /* \"#utility.yul\":12406:12407   */\n      0x00\n        /* \"#utility.yul\":12398:12404   */\n      dup3\n        /* \"#utility.yul\":12394:12408   */\n      add\n        /* \"#utility.yul\":12387:12441   */\n      mstore\n        /* \"#utility.yul\":12270:12448   */\n      pop\n      jump\t// out\n        /* \"#utility.yul\":12454:12820   */\n    tag_147:\n        /* \"#utility.yul\":12596:12599   */\n      0x00\n        /* \"#utility.yul\":12617:12684   */\n      tag_295\n        /* \"#utility.yul\":12681:12683   */\n      0x1c\n        /* \"#utility.yul\":12676:12679   */\n      dup4\n        /* \"#utility.yul\":12617:12684   */\n      tag_142\n      jump\t// in\n    tag_295:\n        /* \"#utility.yul\":12610:12684   */\n      swap2\n      pop\n        /* \"#utility.yul\":12693:12786   */\n      tag_296\n        /* \"#utility.yul\":12782:12785   */\n      dup3\n        /* \"#utility.yul\":12693:12786   */\n      tag_146\n      jump\t// in\n    tag_296:\n        /* \"#utility.yul\":12811:12813   */\n      0x20\n        /* \"#utility.yul\":12806:12809   */\n      dup3\n        /* \"#utility.yul\":12802:12814   */\n      add\n        /* \"#utility.yul\":12795:12814   */\n      swap1\n      pop\n        /* \"#utility.yul\":12454:12820   */\n      swap2\n      swap1\n      pop\n      jump\t// out\n        /* \"#utility.yul\":12826:13245   */\n    tag_47:\n        /* \"#utility.yul\":12992:12996   */\n      0x00\n        /* \"#utility.yul\":13030:13032   */\n      0x20\n        /* \"#utility.yul\":13019:13028   */\n      dup3\n        /* \"#utility.yul\":13015:13033   */\n      add\n        /* \"#utility.yul\":13007:13033   */\n      swap1\n      pop\n        /* \"#utility.yul\":13079:13088   */\n      dup2\n        /* \"#utility.yul\":13073:13077   */\n      dup2\n        /* \"#utility.yul\":13069:13089   */\n      sub\n        /* \"#utility.yul\":13065:13066   */\n      0x00\n        /* \"#utility.yul\":13054:13063   */\n      dup4\n        /* \"#utility.yul\":13050:13067   */\n      add\n        /* \"#utility.yul\":13043:13090   */\n      mstore\n        /* \"#utility.yul\":13107:13238   */\n      tag_298\n        /* \"#utility.yul\":13233:13237   */\n      dup2\n        /* \"#utility.yul\":13107:13238   */\n      tag_147\n      jump\t// in\n    tag_298:\n        /* \"#utility.yul\":13099:13238   */\n      swap1\n      pop\n        /* \"#utility.yul\":12826:13245   */\n      swap2\n      swap1\n      pop\n      jump\t// out\n        /* \"#utility.yul\":13251:13431   */\n    tag_148:\n        /* \"#utility.yul\":13299:13376   */\n      0x4e487b7100000000000000000000000000000000000000000000000000000000\n        /* \"#utility.yul\":13296:13297   */\n      0x00\n        /* \"#utility.yul\":13289:13377   */\n      mstore\n        /* \"#utility.yul\":13396:13400   */\n      0x11\n        /* \"#utility.yul\":13393:13394   */\n      0x04\n        /* \"#utility.yul\":13386:13401   */\n      mstore\n        /* \"#utility.yul\":13420:13424   */\n      0x24\n        /* \"#utility.yul\":13417:13418   */\n      0x00\n        /* \"#utility.yul\":13410:13425   */\n      revert\n        /* \"#utility.yul\":13437:13608   */\n    tag_52:\n        /* \"#utility.yul\":13476:13479   */\n      0x00\n        /* \"#utility.yul\":13499:13523   */\n      tag_301\n        /* \"#utility.yul\":13517:13522   */\n      dup3\n        /* \"#utility.yul\":13499:13523   */\n      tag_113\n      jump\t// in\n    tag_301:\n        /* \"#utility.yul\":13490:13523   */\n      swap2\n      pop\n        /* \"#utility.yul\":13545:13549   */\n      0x00\n        /* \"#utility.yul\":13538:13543   */\n      dup3\n        /* \"#utility.yul\":13535:13550   */\n      sub\n        /* \"#utility.yul\":13532:13573   */\n      tag_302\n      jumpi\n        /* \"#utility.yul\":13553:13571   */\n      tag_303\n      tag_148\n      jump\t// in\n    tag_303:\n        /* \"#utility.yul\":13532:13573   */\n    tag_302:\n        /* \"#utility.yul\":13600:13601   */\n      0x01\n        /* \"#utility.yul\":13593:13598   */\n      dup3\n        /* \"#utility.yul\":13589:13602   */\n      sub\n        /* \"#utility.yul\":13582:13602   */\n      swap1\n      pop\n        /* \"#utility.yul\":13437:13608   */\n      swap2\n      swap1\n      pop\n      jump\t// out\n        /* \"#utility.yul\":13614:13732   */\n    tag_149:\n        /* \"#utility.yul\":13701:13725   */\n      tag_305\n        /* \"#utility.yul\":13719:13724   */\n      dup2\n        /* \"#utility.yul\":13701:13725   */\n      tag_110\n      jump\t// in\n    tag_305:\n        /* \"#utility.yul\":13696:13699   */\n      dup3\n        /* \"#utility.yul\":13689:13726   */\n      mstore\n        /* \"#utility.yul\":13614:13732   */\n      pop\n      pop\n      jump\t// out\n        /* \"#utility.yul\":13738:13856   */\n    tag_150:\n        /* \"#utility.yul\":13825:13849   */\n      tag_307\n        /* \"#utility.yul\":13843:13848   */\n      dup2\n        /* \"#utility.yul\":13825:13849   */\n      tag_113\n      jump\t// in\n    tag_307:\n        /* \"#utility.yul\":13820:13823   */\n      dup3\n        /* \"#utility.yul\":13813:13850   */\n      mstore\n        /* \"#utility.yul\":13738:13856   */\n      pop\n      pop\n      jump\t// out\n        /* \"#utility.yul\":13862:14415   */\n    tag_57:\n        /* \"#utility.yul\":14039:14043   */\n      0x00\n        /* \"#utility.yul\":14077:14080   */\n      0x80\n        /* \"#utility.yul\":14066:14075   */\n      dup3\n        /* \"#utility.yul\":14062:14081   */\n      add\n        /* \"#utility.yul\":14054:14081   */\n      swap1\n      pop\n        /* \"#utility.yul\":14091:14162   */\n      tag_309\n        /* \"#utility.yul\":14159:14160   */\n      0x00\n        /* \"#utility.yul\":14148:14157   */\n      dup4\n        /* \"#utility.yul\":14144:14161   */\n      add\n        /* \"#utility.yul\":14135:14141   */\n      dup8\n        /* \"#utility.yul\":14091:14162   */\n      tag_149\n      jump\t// in\n    tag_309:\n        /* \"#utility.yul\":14172:14244   */\n      tag_310\n        /* \"#utility.yul\":14240:14242   */\n      0x20\n        /* \"#utility.yul\":14229:14238   */\n      dup4\n        /* \"#utility.yul\":14225:14243   */\n      add\n        /* \"#utility.yul\":14216:14222   */\n      dup7\n        /* \"#utility.yul\":14172:14244   */\n      tag_149\n      jump\t// in\n    tag_310:\n        /* \"#utility.yul\":14254:14326   */\n      tag_311\n        /* \"#utility.yul\":14322:14324   */\n      0x40\n        /* \"#utility.yul\":14311:14320   */\n      dup4\n        /* \"#utility.yul\":14307:14325   */\n      add\n        /* \"#utility.yul\":14298:14304   */\n      dup6\n        /* \"#utility.yul\":14254:14326   */\n      tag_150\n      jump\t// in\n    tag_311:\n        /* \"#utility.yul\":14336:14408   */\n      tag_312\n        /* \"#utility.yul\":14404:14406   */\n      0x60\n        /* \"#utility.yul\":14393:14402   */\n      dup4\n        /* \"#utility.yul\":14389:14407   */\n      add\n        /* \"#utility.yul\":14380:14386   */\n      dup5\n        /* \"#utility.yul\":14336:14408   */\n      tag_150\n      jump\t// in\n    tag_312:\n        /* \"#utility.yul\":13862:14415   */\n      swap6\n      swap5\n      pop\n      pop\n      pop\n      pop\n      pop\n      jump\t// out\n        /* \"#utility.yul\":14421:14601   */\n    tag_151:\n        /* \"#utility.yul\":14469:14546   */\n      0x4e487b7100000000000000000000000000000000000000000000000000000000\n        /* \"#utility.yul\":14466:14467   */\n      0x00\n        /* \"#utility.yul\":14459:14547   */\n      mstore\n        /* \"#utility.yul\":14566:14570   */\n      0x22\n        /* \"#utility.yul\":14563:14564   */\n      0x04\n        /* \"#utility.yul\":14556:14571   */\n      mstore\n        /* \"#utility.yul\":14590:14594   */\n      0x24\n        /* \"#utility.yul\":14587:14588   */\n      0x00\n        /* \"#utility.yul\":14580:14595   */\n      revert\n        /* \"#utility.yul\":14607:14927   */\n    tag_63:\n        /* \"#utility.yul\":14651:14657   */\n      0x00\n        /* \"#utility.yul\":14688:14689   */\n      0x02\n        /* \"#utility.yul\":14682:14686   */\n      dup3\n        /* \"#utility.yul\":14678:14690   */\n      div\n        /* \"#utility.yul\":14668:14690   */\n      swap1\n      pop\n        /* \"#utility.yul\":14735:14736   */\n      0x01\n        /* \"#utility.yul\":14729:14733   */\n      dup3\n        /* \"#utility.yul\":14725:14737   */\n      and\n        /* \"#utility.yul\":14756:14774   */\n      dup1\n        /* \"#utility.yul\":14746:14827   */\n      tag_315\n      jumpi\n        /* \"#utility.yul\":14812:14816   */\n      0x7f\n        /* \"#utility.yul\":14804:14810   */\n      dup3\n        /* \"#utility.yul\":14800:14817   */\n      and\n        /* \"#utility.yul\":14790:14817   */\n      swap2\n      pop\n        /* \"#utility.yul\":14746:14827   */\n    tag_315:\n        /* \"#utility.yul\":14874:14876   */\n      0x20\n        /* \"#utility.yul\":14866:14872   */\n      dup3\n        /* \"#utility.yul\":14863:14877   */\n      lt\n        /* \"#utility.yul\":14843:14861   */\n      dup2\n        /* \"#utility.yul\":14840:14878   */\n      sub\n        /* \"#utility.yul\":14837:14921   */\n      tag_316\n      jumpi\n        /* \"#utility.yul\":14893:14911   */\n      tag_317\n      tag_151\n      jump\t// in\n    tag_317:\n        /* \"#utility.yul\":14837:14921   */\n    tag_316:\n        /* \"#utility.yul\":14658:14927   */\n      pop\n        /* \"#utility.yul\":14607:14927   */\n      swap2\n      swap1\n      pop\n      jump\t// out\n        /* \"#utility.yul\":14933:15105   */\n    tag_152:\n        /* \"#utility.yul\":15073:15097   */\n      0x596f7520617265206e6f7420746865206f776e65722100000000000000000000\n        /* \"#utility.yul\":15069:15070   */\n      0x00\n        /* \"#utility.yul\":15061:15067   */\n      dup3\n        /* \"#utility.yul\":15057:15071   */\n      add\n        /* \"#utility.yul\":15050:15098   */\n      mstore\n        /* \"#utility.yul\":14933:15105   */\n      pop\n      jump\t// out\n        /* \"#utility.yul\":15111:15477   */\n    tag_153:\n        /* \"#utility.yul\":15253:15256   */\n      0x00\n        /* \"#utility.yul\":15274:15341   */\n      tag_320\n        /* \"#utility.yul\":15338:15340   */\n      0x16\n        /* \"#utility.yul\":15333:15336   */\n      dup4\n        /* \"#utility.yul\":15274:15341   */\n      tag_142\n      jump\t// in\n    tag_320:\n        /* \"#utility.yul\":15267:15341   */\n      swap2\n      pop\n        /* \"#utility.yul\":15350:15443   */\n      tag_321\n        /* \"#utility.yul\":15439:15442   */\n      dup3\n        /* \"#utility.yul\":15350:15443   */\n      tag_152\n      jump\t// in\n    tag_321:\n        /* \"#utility.yul\":15468:15470   */\n      0x20\n        /* \"#utility.yul\":15463:15466   */\n      dup3\n        /* \"#utility.yul\":15459:15471   */\n      add\n        /* \"#utility.yul\":15452:15471   */\n      swap1\n      pop\n        /* \"#utility.yul\":15111:15477   */\n      swap2\n      swap1\n      pop\n      jump\t// out\n        /* \"#utility.yul\":15483:15902   */\n    tag_71:\n        /* \"#utility.yul\":15649:15653   */\n      0x00\n        /* \"#utility.yul\":15687:15689   */\n      0x20\n        /* \"#utility.yul\":15676:15685   */\n      dup3\n        /* \"#utility.yul\":15672:15690   */\n      add\n        /* \"#utility.yul\":15664:15690   */\n      swap1\n      pop\n        /* \"#utility.yul\":15736:15745   */\n      dup2\n        /* \"#utility.yul\":15730:15734   */\n      dup2\n        /* \"#utility.yul\":15726:15746   */\n      sub\n        /* \"#utility.yul\":15722:15723   */\n      0x00\n        /* \"#utility.yul\":15711:15720   */\n      dup4\n        /* \"#utility.yul\":15707:15724   */\n      add\n        /* \"#utility.yul\":15700:15747   */\n      mstore\n        /* \"#utility.yul\":15764:15895   */\n      tag_323\n        /* \"#utility.yul\":15890:15894   */\n      dup2\n        /* \"#utility.yul\":15764:15895   */\n      tag_153\n      jump\t// in\n    tag_323:\n        /* \"#utility.yul\":15756:15895   */\n      swap1\n      pop\n        /* \"#utility.yul\":15483:15902   */\n      swap2\n      swap1\n      pop\n      jump\t// out\n        /* \"#utility.yul\":15908:16141   */\n    tag_83:\n        /* \"#utility.yul\":15947:15950   */\n      0x00\n        /* \"#utility.yul\":15970:15994   */\n      tag_325\n        /* \"#utility.yul\":15988:15993   */\n      dup3\n        /* \"#utility.yul\":15970:15994   */\n      tag_113\n      jump\t// in\n    tag_325:\n        /* \"#utility.yul\":15961:15994   */\n      swap2\n      pop\n        /* \"#utility.yul\":16016:16082   */\n      0xffffffffffffffffffffffffffffffffffffffffffffffffffffffffffffffff\n        /* \"#utility.yul\":16009:16014   */\n      dup3\n        /* \"#utility.yul\":16006:16083   */\n      sub\n        /* \"#utility.yul\":16003:16106   */\n      tag_326\n      jumpi\n        /* \"#utility.yul\":16086:16104   */\n      tag_327\n      tag_148\n      jump\t// in\n    tag_327:\n        /* \"#utility.yul\":16003:16106   */\n    tag_326:\n        /* \"#utility.yul\":16133:16134   */\n      0x01\n        /* \"#utility.yul\":16126:16131   */\n      dup3\n        /* \"#utility.yul\":16122:16135   */\n      add\n        /* \"#utility.yul\":16115:16135   */\n      swap1\n      pop\n        /* \"#utility.yul\":15908:16141   */\n      swap2\n      swap1\n      pop\n      jump\t// out\n        /* \"#utility.yul\":16147:16315   */\n    tag_154:\n        /* \"#utility.yul\":16287:16307   */\n      0x547765657420697320746f6f206c6f6e672e0000000000000000000000000000\n        /* \"#utility.yul\":16283:16284   */\n      0x00\n        /* \"#utility.yul\":16275:16281   */\n      dup3\n        /* \"#utility.yul\":16271:16285   */\n      add\n        /* \"#utility.yul\":16264:16308   */\n      mstore\n        /* \"#utility.yul\":16147:16315   */\n      pop\n      jump\t// out\n        /* \"#utility.yul\":16321:16687   */\n    tag_155:\n        /* \"#utility.yul\":16463:16466   */\n      0x00\n        /* \"#utility.yul\":16484:16551   */\n      tag_330\n        /* \"#utility.yul\":16548:16550   */\n      0x12\n        /* \"#utility.yul\":16543:16546   */\n      dup4\n        /* \"#utility.yul\":16484:16551   */\n      tag_142\n      jump\t// in\n    tag_330:\n        /* \"#utility.yul\":16477:16551   */\n      swap2\n      pop\n        /* \"#utility.yul\":16560:16653   */\n      tag_331\n        /* \"#utility.yul\":16649:16652   */\n      dup3\n        /* \"#utility.yul\":16560:16653   */\n      tag_154\n      jump\t// in\n    tag_331:\n        /* \"#utility.yul\":16678:16680   */\n      0x20\n        /* \"#utility.yul\":16673:16676   */\n      dup3\n        /* \"#utility.yul\":16669:16681   */\n      add\n        /* \"#utility.yul\":16662:16681   */\n      swap1\n      pop\n        /* \"#utility.yul\":16321:16687   */\n      swap2\n      swap1\n      pop\n      jump\t// out\n        /* \"#utility.yul\":16693:17112   */\n    tag_91:\n        /* \"#utility.yul\":16859:16863   */\n      0x00\n        /* \"#utility.yul\":16897:16899   */\n      0x20\n        /* \"#utility.yul\":16886:16895   */\n      dup3\n        /* \"#utility.yul\":16882:16900   */\n      add\n        /* \"#utility.yul\":16874:16900   */\n      swap1\n      pop\n        /* \"#utility.yul\":16946:16955   */\n      dup2\n        /* \"#utility.yul\":16940:16944   */\n      dup2\n        /* \"#utility.yul\":16936:16956   */\n      sub\n        /* \"#utility.yul\":16932:16933   */\n      0x00\n        /* \"#utility.yul\":16921:16930   */\n      dup4\n        /* \"#utility.yul\":16917:16934   */\n      add\n        /* \"#utility.yul\":16910:16957   */\n      mstore\n        /* \"#utility.yul\":16974:17105   */\n      tag_333\n        /* \"#utility.yul\":17100:17104   */\n      dup2\n        /* \"#utility.yul\":16974:17105   */\n      tag_155\n      jump\t// in\n    tag_333:\n        /* \"#utility.yul\":16966:17105   */\n      swap1\n      pop\n        /* \"#utility.yul\":16693:17112   */\n      swap2\n      swap1\n      pop\n      jump\t// out\n        /* \"#utility.yul\":17118:17259   */\n    tag_156:\n        /* \"#utility.yul\":17167:17171   */\n      0x00\n        /* \"#utility.yul\":17190:17193   */\n      dup2\n        /* \"#utility.yul\":17182:17193   */\n      swap1\n      pop\n        /* \"#utility.yul\":17213:17216   */\n      dup2\n        /* \"#utility.yul\":17210:17211   */\n      0x00\n        /* \"#utility.yul\":17203:17217   */\n      mstore\n        /* \"#utility.yul\":17247:17251   */\n      0x20\n        /* \"#utility.yul\":17244:17245   */\n      0x00\n        /* \"#utility.yul\":17234:17252   */\n      keccak256\n        /* \"#utility.yul\":17226:17252   */\n      swap1\n      pop\n        /* \"#utility.yul\":17118:17259   */\n      swap2\n      swap1\n      pop\n      jump\t// out\n        /* \"#utility.yul\":17265:17358   */\n    tag_157:\n        /* \"#utility.yul\":17302:17308   */\n      0x00\n        /* \"#utility.yul\":17349:17351   */\n      0x20\n        /* \"#utility.yul\":17344:17346   */\n      0x1f\n        /* \"#utility.yul\":17337:17342   */\n      dup4\n        /* \"#utility.yul\":17333:17347   */\n      add\n        /* \"#utility.yul\":17329:17352   */\n      div\n        /* \"#utility.yul\":17319:17352   */\n      swap1\n      pop\n        /* \"#utility.yul\":17265:17358   */\n      swap2\n      swap1\n      pop\n      jump\t// out\n        /* \"#utility.yul\":17364:17471   */\n    tag_158:\n        /* \"#utility.yul\":17408:17416   */\n      0x00\n        /* \"#utility.yul\":17458:17463   */\n      dup3\n        /* \"#utility.yul\":17452:17456   */\n      dup3\n        /* \"#utility.yul\":17448:17464   */\n      shl\n        /* \"#utility.yul\":17427:17464   */\n      swap1\n      pop\n        /* \"#utility.yul\":17364:17471   */\n      swap3\n      swap2\n      pop\n      pop\n      jump\t// out\n        /* \"#utility.yul\":17477:17870   */\n    tag_159:\n        /* \"#utility.yul\":17546:17552   */\n      0x00\n        /* \"#utility.yul\":17596:17597   */\n      0x08\n        /* \"#utility.yul\":17584:17594   */\n      dup4\n        /* \"#utility.yul\":17580:17598   */\n      mul\n        /* \"#utility.yul\":17619:17716   */\n      tag_338\n        /* \"#utility.yul\":17649:17715   */\n      0xffffffffffffffffffffffffffffffffffffffffffffffffffffffffffffffff\n        /* \"#utility.yul\":17638:17647   */\n      dup3\n        /* \"#utility.yul\":17619:17716   */\n      tag_158\n      jump\t// in\n    tag_338:\n        /* \"#utility.yul\":17737:17776   */\n      tag_339\n        /* \"#utility.yul\":17767:17775   */\n      dup7\n        /* \"#utility.yul\":17756:17765   */\n      dup4\n        /* \"#utility.yul\":17737:17776   */\n      tag_158\n      jump\t// in\n    tag_339:\n        /* \"#utility.yul\":17725:17776   */\n      swap6\n      pop\n        /* \"#utility.yul\":17809:17813   */\n      dup1\n        /* \"#utility.yul\":17805:17814   */\n      not\n        /* \"#utility.yul\":17798:17803   */\n      dup5\n        /* \"#utility.yul\":17794:17815   */\n      and\n        /* \"#utility.yul\":17785:17815   */\n      swap4\n      pop\n        /* \"#utility.yul\":17858:17862   */\n      dup1\n        /* \"#utility.yul\":17848:17856   */\n      dup7\n        /* \"#utility.yul\":17844:17863   */\n      and\n        /* \"#utility.yul\":17837:17842   */\n      dup5\n        /* \"#utility.yul\":17834:17864   */\n      or\n        /* \"#utility.yul\":17824:17864   */\n      swap3\n      pop\n        /* \"#utility.yul\":17553:17870   */\n      pop\n      pop\n        /* \"#utility.yul\":17477:17870   */\n      swap4\n      swap3\n      pop\n      pop\n      pop\n      jump\t// out\n        /* \"#utility.yul\":17876:17936   */\n    tag_160:\n        /* \"#utility.yul\":17904:17907   */\n      0x00\n        /* \"#utility.yul\":17925:17930   */\n      dup2\n        /* \"#utility.yul\":17918:17930   */\n      swap1\n      pop\n        /* \"#utility.yul\":17876:17936   */\n      swap2\n      swap1\n      pop\n      jump\t// out\n        /* \"#utility.yul\":17942:18084   */\n    tag_161:\n        /* \"#utility.yul\":17992:18001   */\n      0x00\n        /* \"#utility.yul\":18025:18078   */\n      tag_342\n        /* \"#utility.yul\":18043:18077   */\n      tag_343\n        /* \"#utility.yul\":18052:18076   */\n      tag_344\n        /* \"#utility.yul\":18070:18075   */\n      dup5\n        /* \"#utility.yul\":18052:18076   */\n      tag_113\n      jump\t// in\n    tag_344:\n        /* \"#utility.yul\":18043:18077   */\n      tag_160\n      jump\t// in\n    tag_343:\n        /* \"#utility.yul\":18025:18078   */\n      tag_113\n      jump\t// in\n    tag_342:\n        /* \"#utility.yul\":18012:18078   */\n      swap1\n      pop\n        /* \"#utility.yul\":17942:18084   */\n      swap2\n      swap1\n      pop\n      jump\t// out\n        /* \"#utility.yul\":18090:18165   */\n    tag_162:\n        /* \"#utility.yul\":18133:18136   */\n      0x00\n        /* \"#utility.yul\":18154:18159   */\n      dup2\n        /* \"#utility.yul\":18147:18159   */\n      swap1\n      pop\n        /* \"#utility.yul\":18090:18165   */\n      swap2\n      swap1\n      pop\n      jump\t// out\n        /* \"#utility.yul\":18171:18440   */\n    tag_163:\n        /* \"#utility.yul\":18281:18320   */\n      tag_347\n        /* \"#utility.yul\":18312:18319   */\n      dup4\n        /* \"#utility.yul\":18281:18320   */\n      tag_161\n      jump\t// in\n    tag_347:\n        /* \"#utility.yul\":18342:18433   */\n      tag_348\n        /* \"#utility.yul\":18391:18432   */\n      tag_349\n        /* \"#utility.yul\":18415:18431   */\n      dup3\n        /* \"#utility.yul\":18391:18432   */\n      tag_162\n      jump\t// in\n    tag_349:\n        /* \"#utility.yul\":18383:18389   */\n      dup5\n        /* \"#utility.yul\":18376:18380   */\n      dup5\n        /* \"#utility.yul\":18370:18381   */\n      sload\n        /* \"#utility.yul\":18342:18433   */\n      tag_159\n      jump\t// in\n    tag_348:\n        /* \"#utility.yul\":18336:18340   */\n      dup3\n        /* \"#utility.yul\":18329:18434   */\n      sstore\n        /* \"#utility.yul\":18247:18440   */\n      pop\n        /* \"#utility.yul\":18171:18440   */\n      pop\n      pop\n      pop\n      jump\t// out\n        /* \"#utility.yul\":18446:18519   */\n    tag_164:\n        /* \"#utility.yul\":18491:18494   */\n      0x00\n        /* \"#utility.yul\":18446:18519   */\n      swap1\n      jump\t// out\n        /* \"#utility.yul\":18525:18714   */\n    tag_165:\n        /* \"#utility.yul\":18602:18634   */\n      tag_352\n      tag_164\n      jump\t// in\n    tag_352:\n        /* \"#utility.yul\":18643:18708   */\n      tag_353\n        /* \"#utility.yul\":18701:18707   */\n      dup2\n        /* \"#utility.yul\":18693:18699   */\n      dup5\n        /* \"#utility.yul\":18687:18691   */\n      dup5\n        /* \"#utility.yul\":18643:18708   */\n      tag_163\n      jump\t// in\n    tag_353:\n        /* \"#utility.yul\":18578:18714   */\n      pop\n        /* \"#utility.yul\":18525:18714   */\n      pop\n      pop\n      jump\t// out\n        /* \"#utility.yul\":18720:18906   */\n    tag_166:\n        /* \"#utility.yul\":18780:18900   */\n    tag_355:\n        /* \"#utility.yul\":18797:18800   */\n      dup2\n        /* \"#utility.yul\":18790:18795   */\n      dup2\n        /* \"#utility.yul\":18787:18801   */\n      lt\n        /* \"#utility.yul\":18780:18900   */\n      iszero\n      tag_357\n      jumpi\n        /* \"#utility.yul\":18851:18890   */\n      tag_358\n        /* \"#utility.yul\":18888:18889   */\n      0x00\n        /* \"#utility.yul\":18881:18886   */\n      dup3\n        /* \"#utility.yul\":18851:18890   */\n      tag_165\n      jump\t// in\n    tag_358:\n        /* \"#utility.yul\":18824:18825   */\n      0x01\n        /* \"#utility.yul\":18817:18822   */\n      dup2\n        /* \"#utility.yul\":18813:18826   */\n      add\n        /* \"#utility.yul\":18804:18826   */\n      swap1\n      pop\n        /* \"#utility.yul\":18780:18900   */\n      jump(tag_355)\n    tag_357:\n        /* \"#utility.yul\":18720:18906   */\n      pop\n      pop\n      jump\t// out\n        /* \"#utility.yul\":18912:19455   */\n    tag_167:\n        /* \"#utility.yul\":19013:19015   */\n      0x1f\n        /* \"#utility.yul\":19008:19011   */\n      dup3\n        /* \"#utility.yul\":19005:19016   */\n      gt\n        /* \"#utility.yul\":19002:19448   */\n      iszero\n      tag_360\n      jumpi\n        /* \"#utility.yul\":19047:19085   */\n      tag_361\n        /* \"#utility.yul\":19079:19084   */\n      dup2\n        /* \"#utility.yul\":19047:19085   */\n      tag_156\n      jump\t// in\n    tag_361:\n        /* \"#utility.yul\":19131:19160   */\n      tag_362\n        /* \"#utility.yul\":19149:19159   */\n      dup5\n        /* \"#utility.yul\":19131:19160   */\n      tag_157\n      jump\t// in\n    tag_362:\n        /* \"#utility.yul\":19121:19129   */\n      dup2\n        /* \"#utility.yul\":19117:19161   */\n      add\n        /* \"#utility.yul\":19314:19316   */\n      0x20\n        /* \"#utility.yul\":19302:19312   */\n      dup6\n        /* \"#utility.yul\":19299:19317   */\n      lt\n        /* \"#utility.yul\":19296:19345   */\n      iszero\n      tag_363\n      jumpi\n        /* \"#utility.yul\":19335:19343   */\n      dup2\n        /* \"#utility.yul\":19320:19343   */\n      swap1\n      pop\n        /* \"#utility.yul\":19296:19345   */\n    tag_363:\n        /* \"#utility.yul\":19358:19438   */\n      tag_364\n        /* \"#utility.yul\":19414:19436   */\n      tag_365\n        /* \"#utility.yul\":19432:19435   */\n      dup6\n        /* \"#utility.yul\":19414:19436   */\n      tag_157\n      jump\t// in\n    tag_365:\n        /* \"#utility.yul\":19404:19412   */\n      dup4\n        /* \"#utility.yul\":19400:19437   */\n      add\n        /* \"#utility.yul\":19387:19398   */\n      dup3\n        /* \"#utility.yul\":19358:19438   */\n      tag_166\n      jump\t// in\n    tag_364:\n        /* \"#utility.yul\":19017:19448   */\n      pop\n      pop\n        /* \"#utility.yul\":19002:19448   */\n    tag_360:\n        /* \"#utility.yul\":18912:19455   */\n      pop\n      pop\n      pop\n      jump\t// out\n        /* \"#utility.yul\":19461:19578   */\n    tag_168:\n        /* \"#utility.yul\":19515:19523   */\n      0x00\n        /* \"#utility.yul\":19565:19570   */\n      dup3\n        /* \"#utility.yul\":19559:19563   */\n      dup3\n        /* \"#utility.yul\":19555:19571   */\n      shr\n        /* \"#utility.yul\":19534:19571   */\n      swap1\n      pop\n        /* \"#utility.yul\":19461:19578   */\n      swap3\n      swap2\n      pop\n      pop\n      jump\t// out\n        /* \"#utility.yul\":19584:19753   */\n    tag_169:\n        /* \"#utility.yul\":19628:19634   */\n      0x00\n        /* \"#utility.yul\":19661:19712   */\n      tag_368\n        /* \"#utility.yul\":19709:19710   */\n      0x00\n        /* \"#utility.yul\":19705:19711   */\n      not\n        /* \"#utility.yul\":19697:19702   */\n      dup5\n        /* \"#utility.yul\":19694:19695   */\n      0x08\n        /* \"#utility.yul\":19690:19703   */\n      mul\n        /* \"#utility.yul\":19661:19712   */\n      tag_168\n      jump\t// in\n    tag_368:\n        /* \"#utility.yul\":19657:19713   */\n      not\n        /* \"#utility.yul\":19742:19746   */\n      dup1\n        /* \"#utility.yul\":19736:19740   */\n      dup4\n        /* \"#utility.yul\":19732:19747   */\n      and\n        /* \"#utility.yul\":19722:19747   */\n      swap2\n      pop\n        /* \"#utility.yul\":19635:19753   */\n      pop\n        /* \"#utility.yul\":19584:19753   */\n      swap3\n      swap2\n      pop\n      pop\n      jump\t// out\n        /* \"#utility.yul\":19758:20053   */\n    tag_170:\n        /* \"#utility.yul\":19834:19838   */\n      0x00\n        /* \"#utility.yul\":19980:20009   */\n      tag_370\n        /* \"#utility.yul\":20005:20008   */\n      dup4\n        /* \"#utility.yul\":19999:20003   */\n      dup4\n        /* \"#utility.yul\":19980:20009   */\n      tag_169\n      jump\t// in\n    tag_370:\n        /* \"#utility.yul\":19972:20009   */\n      swap2\n      pop\n        /* \"#utility.yul\":20042:20045   */\n      dup3\n        /* \"#utility.yul\":20039:20040   */\n      0x02\n        /* \"#utility.yul\":20035:20046   */\n      mul\n        /* \"#utility.yul\":20029:20033   */\n      dup3\n        /* \"#utility.yul\":20026:20047   */\n      or\n        /* \"#utility.yul\":20018:20047   */\n      swap1\n      pop\n        /* \"#utility.yul\":19758:20053   */\n      swap3\n      swap2\n      pop\n      pop\n      jump\t// out\n        /* \"#utility.yul\":20058:21453   */\n    tag_94:\n        /* \"#utility.yul\":20175:20212   */\n      tag_372\n        /* \"#utility.yul\":20208:20211   */\n      dup3\n        /* \"#utility.yul\":20175:20212   */\n      tag_121\n      jump\t// in\n    tag_372:\n        /* \"#utility.yul\":20277:20295   */\n      0xffffffffffffffff\n        /* \"#utility.yul\":20269:20275   */\n      dup2\n        /* \"#utility.yul\":20266:20296   */\n      gt\n        /* \"#utility.yul\":20263:20319   */\n      iszero\n      tag_373\n      jumpi\n        /* \"#utility.yul\":20299:20317   */\n      tag_374\n      tag_135\n      jump\t// in\n    tag_374:\n        /* \"#utility.yul\":20263:20319   */\n    tag_373:\n        /* \"#utility.yul\":20343:20381   */\n      tag_375\n        /* \"#utility.yul\":20375:20379   */\n      dup3\n        /* \"#utility.yul\":20369:20380   */\n      sload\n        /* \"#utility.yul\":20343:20381   */\n      tag_63\n      jump\t// in\n    tag_375:\n        /* \"#utility.yul\":20428:20495   */\n      tag_376\n        /* \"#utility.yul\":20488:20494   */\n      dup3\n        /* \"#utility.yul\":20480:20486   */\n      dup3\n        /* \"#utility.yul\":20474:20478   */\n      dup6\n        /* \"#utility.yul\":20428:20495   */\n      tag_167\n      jump\t// in\n    tag_376:\n        /* \"#utility.yul\":20522:20523   */\n      0x00\n        /* \"#utility.yul\":20546:20550   */\n      0x20\n        /* \"#utility.yul\":20533:20550   */\n      swap1\n      pop\n        /* \"#utility.yul\":20578:20580   */\n      0x1f\n        /* \"#utility.yul\":20570:20576   */\n      dup4\n        /* \"#utility.yul\":20567:20581   */\n      gt\n        /* \"#utility.yul\":20595:20596   */\n      0x01\n        /* \"#utility.yul\":20590:21208   */\n      dup2\n      eq\n      tag_378\n      jumpi\n        /* \"#utility.yul\":21252:21253   */\n      0x00\n        /* \"#utility.yul\":21269:21275   */\n      dup5\n        /* \"#utility.yul\":21266:21343   */\n      iszero\n      tag_379\n      jumpi\n        /* \"#utility.yul\":21318:21327   */\n      dup3\n        /* \"#utility.yul\":21313:21316   */\n      dup8\n        /* \"#utility.yul\":21309:21328   */\n      add\n        /* \"#utility.yul\":21303:21329   */\n      mload\n        /* \"#utility.yul\":21294:21329   */\n      swap1\n      pop\n        /* \"#utility.yul\":21266:21343   */\n    tag_379:\n        /* \"#utility.yul\":21369:21436   */\n      tag_380\n        /* \"#utility.yul\":21429:21435   */\n      dup6\n        /* \"#utility.yul\":21422:21427   */\n      dup3\n        /* \"#utility.yul\":21369:21436   */\n      tag_170\n      jump\t// in\n    tag_380:\n        /* \"#utility.yul\":21363:21367   */\n      dup7\n        /* \"#utility.yul\":21356:21437   */\n      sstore\n        /* \"#utility.yul\":21225:21447   */\n      pop\n        /* \"#utility.yul\":20560:21447   */\n      jump(tag_377)\n        /* \"#utility.yul\":20590:21208   */\n    tag_378:\n        /* \"#utility.yul\":20642:20646   */\n      0x1f\n        /* \"#utility.yul\":20638:20647   */\n      not\n        /* \"#utility.yul\":20630:20636   */\n      dup5\n        /* \"#utility.yul\":20626:20648   */\n      and\n        /* \"#utility.yul\":20676:20713   */\n      tag_381\n        /* \"#utility.yul\":20708:20712   */\n      dup7\n        /* \"#utility.yul\":20676:20713   */\n      tag_156\n      jump\t// in\n    tag_381:\n        /* \"#utility.yul\":20735:20736   */\n      0x00\n        /* \"#utility.yul\":20749:20957   */\n    tag_382:\n        /* \"#utility.yul\":20763:20770   */\n      dup3\n        /* \"#utility.yul\":20760:20761   */\n      dup2\n        /* \"#utility.yul\":20757:20771   */\n      lt\n        /* \"#utility.yul\":20749:20957   */\n      iszero\n      tag_384\n      jumpi\n        /* \"#utility.yul\":20842:20851   */\n      dup5\n        /* \"#utility.yul\":20837:20840   */\n      dup10\n        /* \"#utility.yul\":20833:20852   */\n      add\n        /* \"#utility.yul\":20827:20853   */\n      mload\n        /* \"#utility.yul\":20819:20825   */\n      dup3\n        /* \"#utility.yul\":20812:20854   */\n      sstore\n        /* \"#utility.yul\":20893:20894   */\n      0x01\n        /* \"#utility.yul\":20885:20891   */\n      dup3\n        /* \"#utility.yul\":20881:20895   */\n      add\n        /* \"#utility.yul\":20871:20895   */\n      swap2\n      pop\n        /* \"#utility.yul\":20940:20942   */\n      0x20\n        /* \"#utility.yul\":20929:20938   */\n      dup6\n        /* \"#utility.yul\":20925:20943   */\n      add\n        /* \"#utility.yul\":20912:20943   */\n      swap5\n      pop\n        /* \"#utility.yul\":20786:20790   */\n      0x20\n        /* \"#utility.yul\":20783:20784   */\n      dup2\n        /* \"#utility.yul\":20779:20791   */\n      add\n        /* \"#utility.yul\":20774:20791   */\n      swap1\n      pop\n        /* \"#utility.yul\":20749:20957   */\n      jump(tag_382)\n    tag_384:\n        /* \"#utility.yul\":20985:20991   */\n      dup7\n        /* \"#utility.yul\":20976:20983   */\n      dup4\n        /* \"#utility.yul\":20973:20992   */\n      lt\n        /* \"#utility.yul\":20970:21149   */\n      iszero\n      tag_385\n      jumpi\n        /* \"#utility.yul\":21043:21052   */\n      dup5\n        /* \"#utility.yul\":21038:21041   */\n      dup10\n        /* \"#utility.yul\":21034:21053   */\n      add\n        /* \"#utility.yul\":21028:21054   */\n      mload\n        /* \"#utility.yul\":21086:21134   */\n      tag_386\n        /* \"#utility.yul\":21128:21132   */\n      0x1f\n        /* \"#utility.yul\":21120:21126   */\n      dup10\n        /* \"#utility.yul\":21116:21133   */\n      and\n        /* \"#utility.yul\":21105:21114   */\n      dup3\n        /* \"#utility.yul\":21086:21134   */\n      tag_169\n      jump\t// in\n    tag_386:\n        /* \"#utility.yul\":21078:21084   */\n      dup4\n        /* \"#utility.yul\":21071:21135   */\n      sstore\n        /* \"#utility.yul\":20993:21149   */\n      pop\n        /* \"#utility.yul\":20970:21149   */\n    tag_385:\n        /* \"#utility.yul\":21195:21196   */\n      0x01\n        /* \"#utility.yul\":21191:21192   */\n      0x02\n        /* \"#utility.yul\":21183:21189   */\n      dup9\n        /* \"#utility.yul\":21179:21193   */\n      mul\n        /* \"#utility.yul\":21175:21197   */\n      add\n        /* \"#utility.yul\":21169:21173   */\n      dup9\n        /* \"#utility.yul\":21162:21198   */\n      sstore\n        /* \"#utility.yul\":20597:21208   */\n      pop\n      pop\n      pop\n        /* \"#utility.yul\":20560:21447   */\n    tag_377:\n      pop\n        /* \"#utility.yul\":20150:21453   */\n      pop\n      pop\n      pop\n        /* \"#utility.yul\":20058:21453   */\n      pop\n      pop\n      jump\t// out\n        /* \"#utility.yul\":21459:22103   */\n    tag_96:\n        /* \"#utility.yul\":21656:21660   */\n      0x00\n        /* \"#utility.yul\":21694:21697   */\n      0x80\n        /* \"#utility.yul\":21683:21692   */\n      dup3\n        /* \"#utility.yul\":21679:21698   */\n      add\n        /* \"#utility.yul\":21671:21698   */\n      swap1\n      pop\n        /* \"#utility.yul\":21708:21779   */\n      tag_388\n        /* \"#utility.yul\":21776:21777   */\n      0x00\n        /* \"#utility.yul\":21765:21774   */\n      dup4\n        /* \"#utility.yul\":21761:21778   */\n      add\n        /* \"#utility.yul\":21752:21758   */\n      dup8\n        /* \"#utility.yul\":21708:21779   */\n      tag_150\n      jump\t// in\n    tag_388:\n        /* \"#utility.yul\":21789:21861   */\n      tag_389\n        /* \"#utility.yul\":21857:21859   */\n      0x20\n        /* \"#utility.yul\":21846:21855   */\n      dup4\n        /* \"#utility.yul\":21842:21860   */\n      add\n        /* \"#utility.yul\":21833:21839   */\n      dup7\n        /* \"#utility.yul\":21789:21861   */\n      tag_149\n      jump\t// in\n    tag_389:\n        /* \"#utility.yul\":21908:21917   */\n      dup2\n        /* \"#utility.yul\":21902:21906   */\n      dup2\n        /* \"#utility.yul\":21898:21918   */\n      sub\n        /* \"#utility.yul\":21893:21895   */\n      0x40\n        /* \"#utility.yul\":21882:21891   */\n      dup4\n        /* \"#utility.yul\":21878:21896   */\n      add\n        /* \"#utility.yul\":21871:21919   */\n      mstore\n        /* \"#utility.yul\":21936:22014   */\n      tag_390\n        /* \"#utility.yul\":22009:22013   */\n      dup2\n        /* \"#utility.yul\":22000:22006   */\n      dup6\n        /* \"#utility.yul\":21936:22014   */\n      tag_143\n      jump\t// in\n    tag_390:\n        /* \"#utility.yul\":21928:22014   */\n      swap1\n      pop\n        /* \"#utility.yul\":22024:22096   */\n      tag_391\n        /* \"#utility.yul\":22092:22094   */\n      0x60\n        /* \"#utility.yul\":22081:22090   */\n      dup4\n        /* \"#utility.yul\":22077:22095   */\n      add\n        /* \"#utility.yul\":22068:22074   */\n      dup5\n        /* \"#utility.yul\":22024:22096   */\n      tag_150\n      jump\t// in\n    tag_391:\n        /* \"#utility.yul\":21459:22103   */\n      swap6\n      swap5\n      pop\n      pop\n      pop\n      pop\n      pop\n      jump\t// out\n\n    auxdata: 0xa2646970667358221220bc1218b145eba20b1cdeec179c403f59d9b74e6f8117e5524aac4401193a982164736f6c63430008160033\n}\n",
				"bytecode": {
					"linkReferences": {},
					"object": "60806040526101185f806101000a81548161ffff021916908361ffff16021790555034801561002c575f80fd5b503360025f6101000a81548173ffffffffffffffffffffffffffffffffffffffff021916908373ffffffffffffffffffffffffffffffffffffffff1602179055506115a78061007a5f395ff3fe608060405234801561000f575f80fd5b5060043610610060575f3560e01c80633d9b569f14610064578063532561351461008057806358bfa4ab1461009e57806363378216146100ba5780637c9cd2bc146100d6578063c3ad5ecb146100f2575b5f80fd5b61007e60048036038101906100799190610af9565b610122565b005b610088610373565b6040516100959190610d0d565b60405180910390f35b6100b860048036038101906100b39190610d64565b61050c565b005b6100d460048036038101906100cf9190610af9565b6105b9565b005b6100f060048036038101906100eb9190610ebb565b61076a565b005b61010c60048036038101906101079190610f02565b61096d565b6040516101199190610f75565b60405180910390f35b8060015f8473ffffffffffffffffffffffffffffffffffffffff1673ffffffffffffffffffffffffffffffffffffffff1681526020019081526020015f20828154811061017257610171610f95565b5b905f5260205f2090600502015f0154146101c1576040517f08c379a00000000000000000000000000000000000000000000000000000000081526004016101b89061100c565b60405180910390fd5b5f60015f8473ffffffffffffffffffffffffffffffffffffffff1673ffffffffffffffffffffffffffffffffffffffff1681526020019081526020015f20828154811061021157610210610f95565b5b905f5260205f2090600502016004015411610261576040517f08c379a000000000000000000000000000000000000000000000000000000000815260040161025890611074565b60405180910390fd5b60015f8373ffffffffffffffffffffffffffffffffffffffff1673ffffffffffffffffffffffffffffffffffffffff1681526020019081526020015f2081815481106102b0576102af610f95565b5b905f5260205f2090600502016004015f8154809291906102cf906110bf565b91905055507f762c2616349603ac16eba0de8e6141b79129a07ab63bd99e0a80b3a47171694333838360015f8773ffffffffffffffffffffffffffffffffffffffff1673ffffffffffffffffffffffffffffffffffffffff1681526020019081526020015f20858154811061034757610346610f95565b5b905f5260205f209060050201600401546040516103679493929190611104565b60405180910390a15050565b606060015f3373ffffffffffffffffffffffffffffffffffffffff1673ffffffffffffffffffffffffffffffffffffffff1681526020019081526020015f20805480602002602001604051908101604052809291908181526020015f905b82821015610503578382905f5260205f2090600502016040518060a00160405290815f8201548152602001600182015f9054906101000a900473ffffffffffffffffffffffffffffffffffffffff1673ffffffffffffffffffffffffffffffffffffffff1673ffffffffffffffffffffffffffffffffffffffff16815260200160028201805461046090611174565b80601f016020809104026020016040519081016040528092919081815260200182805461048c90611174565b80156104d75780601f106104ae576101008083540402835291602001916104d7565b820191905f5260205f20905b8154815290600101906020018083116104ba57829003601f168201915b5050505050815260200160038201548152602001600482015481525050815260200190600101906103d1565b50505050905090565b60025f9054906101000a900473ffffffffffffffffffffffffffffffffffffffff1673ffffffffffffffffffffffffffffffffffffffff163373ffffffffffffffffffffffffffffffffffffffff161461059b576040517f08c379a0000000000000000000000000000000000000000000000000000000008152600401610592906111ee565b60405180910390fd5b805f806101000a81548161ffff021916908361ffff16021790555050565b8060015f8473ffffffffffffffffffffffffffffffffffffffff1673ffffffffffffffffffffffffffffffffffffffff1681526020019081526020015f20828154811061060957610608610f95565b5b905f5260205f2090600502015f015414610658576040517f08c379a000000000000000000000000000000000000000000000000000000000815260040161064f9061100c565b60405180910390fd5b60015f8373ffffffffffffffffffffffffffffffffffffffff1673ffffffffffffffffffffffffffffffffffffffff1681526020019081526020015f2081815481106106a7576106a6610f95565b5b905f5260205f2090600502016004015f8154809291906106c69061120c565b91905055507fe8a76fc0f16d11a00d1e93b689b63d76cf60af914dd3d915375dc41d01a0c3c833838360015f8773ffffffffffffffffffffffffffffffffffffffff1673ffffffffffffffffffffffffffffffffffffffff1681526020019081526020015f20858154811061073e5761073d610f95565b5b905f5260205f2090600502016004015460405161075e9493929190611104565b60405180910390a15050565b5f8054906101000a900461ffff1661ffff16815111156107bf576040517f08c379a00000000000000000000000000000000000000000000000000000000081526004016107b69061129d565b60405180910390fd5b5f6040518060a0016040528060015f3373ffffffffffffffffffffffffffffffffffffffff1673ffffffffffffffffffffffffffffffffffffffff1681526020019081526020015f208054905081526020013373ffffffffffffffffffffffffffffffffffffffff1681526020018381526020014281526020015f815250905060015f3373ffffffffffffffffffffffffffffffffffffffff1673ffffffffffffffffffffffffffffffffffffffff1681526020019081526020015f2081908060018154018082558091505060019003905f5260205f2090600502015f909190919091505f820151815f01556020820151816001015f6101000a81548173ffffffffffffffffffffffffffffffffffffffff021916908373ffffffffffffffffffffffffffffffffffffffff16021790555060408201518160020190816109069190611458565b50606082015181600301556080820151816004015550507f16fd3c13e9d46923e0a8bce11c7b473ec508a72e6c96cd2404b29ce972afc29e815f01518260200151836040015184606001516040516109619493929190611527565b60405180910390a15050565b606060015f3373ffffffffffffffffffffffffffffffffffffffff1673ffffffffffffffffffffffffffffffffffffffff1681526020019081526020015f2082815481106109be576109bd610f95565b5b905f5260205f20906005020160020180546109d890611174565b80601f0160208091040260200160405190810160405280929190818152602001828054610a0490611174565b8015610a4f5780601f10610a2657610100808354040283529160200191610a4f565b820191905f5260205f20905b815481529060010190602001808311610a3257829003601f168201915b50505050509050919050565b5f604051905090565b5f80fd5b5f80fd5b5f73ffffffffffffffffffffffffffffffffffffffff82169050919050565b5f610a9582610a6c565b9050919050565b610aa581610a8b565b8114610aaf575f80fd5b50565b5f81359050610ac081610a9c565b92915050565b5f819050919050565b610ad881610ac6565b8114610ae2575f80fd5b50565b5f81359050610af381610acf565b92915050565b5f8060408385031215610b0f57610b0e610a64565b5b5f610b1c85828601610ab2565b9250506020610b2d85828601610ae5565b9150509250929050565b5f81519050919050565b5f82825260208201905092915050565b5f819050602082019050919050565b610b6981610ac6565b82525050565b610b7881610a8b565b82525050565b5f81519050919050565b5f82825260208201905092915050565b5f5b83811015610bb5578082015181840152602081019050610b9a565b5f8484015250505050565b5f601f19601f8301169050919050565b5f610bda82610b7e565b610be48185610b88565b9350610bf4818560208601610b98565b610bfd81610bc0565b840191505092915050565b5f60a083015f830151610c1d5f860182610b60565b506020830151610c306020860182610b6f565b5060408301518482036040860152610c488282610bd0565b9150506060830151610c5d6060860182610b60565b506080830151610c706080860182610b60565b508091505092915050565b5f610c868383610c08565b905092915050565b5f602082019050919050565b5f610ca482610b37565b610cae8185610b41565b935083602082028501610cc085610b51565b805f5b85811015610cfb5784840389528151610cdc8582610c7b565b9450610ce783610c8e565b925060208a01995050600181019050610cc3565b50829750879550505050505092915050565b5f6020820190508181035f830152610d258184610c9a565b905092915050565b5f61ffff82169050919050565b610d4381610d2d565b8114610d4d575f80fd5b50565b5f81359050610d5e81610d3a565b92915050565b5f60208284031215610d7957610d78610a64565b5b5f610d8684828501610d50565b91505092915050565b5f80fd5b5f80fd5b7f4e487b71000000000000000000000000000000000000000000000000000000005f52604160045260245ffd5b610dcd82610bc0565b810181811067ffffffffffffffff82111715610dec57610deb610d97565b5b80604052505050565b5f610dfe610a5b565b9050610e0a8282610dc4565b919050565b5f67ffffffffffffffff821115610e2957610e28610d97565b5b610e3282610bc0565b9050602081019050919050565b828183375f83830152505050565b5f610e5f610e5a84610e0f565b610df5565b905082815260208101848484011115610e7b57610e7a610d93565b5b610e86848285610e3f565b509392505050565b5f82601f830112610ea257610ea1610d8f565b5b8135610eb2848260208601610e4d565b91505092915050565b5f60208284031215610ed057610ecf610a64565b5b5f82013567ffffffffffffffff811115610eed57610eec610a68565b5b610ef984828501610e8e565b91505092915050565b5f60208284031215610f1757610f16610a64565b5b5f610f2484828501610ae5565b91505092915050565b5f82825260208201905092915050565b5f610f4782610b7e565b610f518185610f2d565b9350610f61818560208601610b98565b610f6a81610bc0565b840191505092915050565b5f6020820190508181035f830152610f8d8184610f3d565b905092915050565b7f4e487b71000000000000000000000000000000000000000000000000000000005f52603260045260245ffd5b7f547765657420646f6573206e6f742065786973740000000000000000000000005f82015250565b5f610ff6601483610f2d565b915061100182610fc2565b602082019050919050565b5f6020820190508181035f83015261102381610fea565b9050919050565b7f547765657420646f65736e2774206861766520616e79206c696b6573000000005f82015250565b5f61105e601c83610f2d565b91506110698261102a565b602082019050919050565b5f6020820190508181035f83015261108b81611052565b9050919050565b7f4e487b71000000000000000000000000000000000000000000000000000000005f52601160045260245ffd5b5f6110c982610ac6565b91505f82036110db576110da611092565b5b600182039050919050565b6110ef81610a8b565b82525050565b6110fe81610ac6565b82525050565b5f6080820190506111175f8301876110e6565b61112460208301866110e6565b61113160408301856110f5565b61113e60608301846110f5565b95945050505050565b7f4e487b71000000000000000000000000000000000000000000000000000000005f52602260045260245ffd5b5f600282049050600182168061118b57607f821691505b60208210810361119e5761119d611147565b5b50919050565b7f596f7520617265206e6f7420746865206f776e657221000000000000000000005f82015250565b5f6111d8601683610f2d565b91506111e3826111a4565b602082019050919050565b5f6020820190508181035f830152611205816111cc565b9050919050565b5f61121682610ac6565b91507fffffffffffffffffffffffffffffffffffffffffffffffffffffffffffffffff820361124857611247611092565b5b600182019050919050565b7f547765657420697320746f6f206c6f6e672e00000000000000000000000000005f82015250565b5f611287601283610f2d565b915061129282611253565b602082019050919050565b5f6020820190508181035f8301526112b48161127b565b9050919050565b5f819050815f5260205f209050919050565b5f6020601f8301049050919050565b5f82821b905092915050565b5f600883026113177fffffffffffffffffffffffffffffffffffffffffffffffffffffffffffffffff826112dc565b61132186836112dc565b95508019841693508086168417925050509392505050565b5f819050919050565b5f61135c61135761135284610ac6565b611339565b610ac6565b9050919050565b5f819050919050565b61137583611342565b61138961138182611363565b8484546112e8565b825550505050565b5f90565b61139d611391565b6113a881848461136c565b505050565b5b818110156113cb576113c05f82611395565b6001810190506113ae565b5050565b601f821115611410576113e1816112bb565b6113ea846112cd565b810160208510156113f9578190505b61140d611405856112cd565b8301826113ad565b50505b505050565b5f82821c905092915050565b5f6114305f1984600802611415565b1980831691505092915050565b5f6114488383611421565b9150826002028217905092915050565b61146182610b7e565b67ffffffffffffffff81111561147a57611479610d97565b5b6114848254611174565b61148f8282856113cf565b5f60209050601f8311600181146114c0575f84156114ae578287015190505b6114b8858261143d565b86555061151f565b601f1984166114ce866112bb565b5f5b828110156114f5578489015182556001820191506020850194506020810190506114d0565b86831015611512578489015161150e601f891682611421565b8355505b6001600288020188555050505b505050505050565b5f60808201905061153a5f8301876110f5565b61154760208301866110e6565b81810360408301526115598185610f3d565b905061156860608301846110f5565b9594505050505056fea2646970667358221220bc1218b145eba20b1cdeec179c403f59d9b74e6f8117e5524aac4401193a982164736f6c63430008160033",
					"opcodes": "PUSH1 0x80 PUSH1 0x40 MSTORE PUSH2 0x118 PUSH0 DUP1 PUSH2 0x100 EXP DUP2 SLOAD DUP2 PUSH2 0xFFFF MUL NOT AND SWAP1 DUP4 PUSH2 0xFFFF AND MUL OR SWAP1 SSTORE POP CALLVALUE DUP1 ISZERO PUSH2 0x2C JUMPI PUSH0 DUP1 REVERT JUMPDEST POP CALLER PUSH1 0x2 PUSH0 PUSH2 0x100 EXP DUP2 SLOAD DUP2 PUSH20 0xFFFFFFFFFFFFFFFFFFFFFFFFFFFFFFFFFFFFFFFF MUL NOT AND SWAP1 DUP4 PUSH20 0xFFFFFFFFFFFFFFFFFFFFFFFFFFFFFFFFFFFFFFFF AND MUL OR SWAP1 SSTORE POP PUSH2 0x15A7 DUP1 PUSH2 0x7A PUSH0 CODECOPY PUSH0 RETURN INVALID PUSH1 0x80 PUSH1 0x40 MSTORE CALLVALUE DUP1 ISZERO PUSH2 0xF JUMPI PUSH0 DUP1 REVERT JUMPDEST POP PUSH1 0x4 CALLDATASIZE LT PUSH2 0x60 JUMPI PUSH0 CALLDATALOAD PUSH1 0xE0 SHR DUP1 PUSH4 0x3D9B569F EQ PUSH2 0x64 JUMPI DUP1 PUSH4 0x53256135 EQ PUSH2 0x80 JUMPI DUP1 PUSH4 0x58BFA4AB EQ PUSH2 0x9E JUMPI DUP1 PUSH4 0x63378216 EQ PUSH2 0xBA JUMPI DUP1 PUSH4 0x7C9CD2BC EQ PUSH2 0xD6 JUMPI DUP1 PUSH4 0xC3AD5ECB EQ PUSH2 0xF2 JUMPI JUMPDEST PUSH0 DUP1 REVERT JUMPDEST PUSH2 0x7E PUSH1 0x4 DUP1 CALLDATASIZE SUB DUP2 ADD SWAP1 PUSH2 0x79 SWAP2 SWAP1 PUSH2 0xAF9 JUMP JUMPDEST PUSH2 0x122 JUMP JUMPDEST STOP JUMPDEST PUSH2 0x88 PUSH2 0x373 JUMP JUMPDEST PUSH1 0x40 MLOAD PUSH2 0x95 SWAP2 SWAP1 PUSH2 0xD0D JUMP JUMPDEST PUSH1 0x40 MLOAD DUP1 SWAP2 SUB SWAP1 RETURN JUMPDEST PUSH2 0xB8 PUSH1 0x4 DUP1 CALLDATASIZE SUB DUP2 ADD SWAP1 PUSH2 0xB3 SWAP2 SWAP1 PUSH2 0xD64 JUMP JUMPDEST PUSH2 0x50C JUMP JUMPDEST STOP JUMPDEST PUSH2 0xD4 PUSH1 0x4 DUP1 CALLDATASIZE SUB DUP2 ADD SWAP1 PUSH2 0xCF SWAP2 SWAP1 PUSH2 0xAF9 JUMP JUMPDEST PUSH2 0x5B9 JUMP JUMPDEST STOP JUMPDEST PUSH2 0xF0 PUSH1 0x4 DUP1 CALLDATASIZE SUB DUP2 ADD SWAP1 PUSH2 0xEB SWAP2 SWAP1 PUSH2 0xEBB JUMP JUMPDEST PUSH2 0x76A JUMP JUMPDEST STOP JUMPDEST PUSH2 0x10C PUSH1 0x4 DUP1 CALLDATASIZE SUB DUP2 ADD SWAP1 PUSH2 0x107 SWAP2 SWAP1 PUSH2 0xF02 JUMP JUMPDEST PUSH2 0x96D JUMP JUMPDEST PUSH1 0x40 MLOAD PUSH2 0x119 SWAP2 SWAP1 PUSH2 0xF75 JUMP JUMPDEST PUSH1 0x40 MLOAD DUP1 SWAP2 SUB SWAP1 RETURN JUMPDEST DUP1 PUSH1 0x1 PUSH0 DUP5 PUSH20 0xFFFFFFFFFFFFFFFFFFFFFFFFFFFFFFFFFFFFFFFF AND PUSH20 0xFFFFFFFFFFFFFFFFFFFFFFFFFFFFFFFFFFFFFFFF AND DUP2 MSTORE PUSH1 0x20 ADD SWAP1 DUP2 MSTORE PUSH1 0x20 ADD PUSH0 KECCAK256 DUP3 DUP2 SLOAD DUP2 LT PUSH2 0x172 JUMPI PUSH2 0x171 PUSH2 0xF95 JUMP JUMPDEST JUMPDEST SWAP1 PUSH0 MSTORE PUSH1 0x20 PUSH0 KECCAK256 SWAP1 PUSH1 0x5 MUL ADD PUSH0 ADD SLOAD EQ PUSH2 0x1C1 JUMPI PUSH1 0x40 MLOAD PUSH32 0x8C379A000000000000000000000000000000000000000000000000000000000 DUP2 MSTORE PUSH1 0x4 ADD PUSH2 0x1B8 SWAP1 PUSH2 0x100C JUMP JUMPDEST PUSH1 0x40 MLOAD DUP1 SWAP2 SUB SWAP1 REVERT JUMPDEST PUSH0 PUSH1 0x1 PUSH0 DUP5 PUSH20 0xFFFFFFFFFFFFFFFFFFFFFFFFFFFFFFFFFFFFFFFF AND PUSH20 0xFFFFFFFFFFFFFFFFFFFFFFFFFFFFFFFFFFFFFFFF AND DUP2 MSTORE PUSH1 0x20 ADD SWAP1 DUP2 MSTORE PUSH1 0x20 ADD PUSH0 KECCAK256 DUP3 DUP2 SLOAD DUP2 LT PUSH2 0x211 JUMPI PUSH2 0x210 PUSH2 0xF95 JUMP JUMPDEST JUMPDEST SWAP1 PUSH0 MSTORE PUSH1 0x20 PUSH0 KECCAK256 SWAP1 PUSH1 0x5 MUL ADD PUSH1 0x4 ADD SLOAD GT PUSH2 0x261 JUMPI PUSH1 0x40 MLOAD PUSH32 0x8C379A000000000000000000000000000000000000000000000000000000000 DUP2 MSTORE PUSH1 0x4 ADD PUSH2 0x258 SWAP1 PUSH2 0x1074 JUMP JUMPDEST PUSH1 0x40 MLOAD DUP1 SWAP2 SUB SWAP1 REVERT JUMPDEST PUSH1 0x1 PUSH0 DUP4 PUSH20 0xFFFFFFFFFFFFFFFFFFFFFFFFFFFFFFFFFFFFFFFF AND PUSH20 0xFFFFFFFFFFFFFFFFFFFFFFFFFFFFFFFFFFFFFFFF AND DUP2 MSTORE PUSH1 0x20 ADD SWAP1 DUP2 MSTORE PUSH1 0x20 ADD PUSH0 KECCAK256 DUP2 DUP2 SLOAD DUP2 LT PUSH2 0x2B0 JUMPI PUSH2 0x2AF PUSH2 0xF95 JUMP JUMPDEST JUMPDEST SWAP1 PUSH0 MSTORE PUSH1 0x20 PUSH0 KECCAK256 SWAP1 PUSH1 0x5 MUL ADD PUSH1 0x4 ADD PUSH0 DUP2 SLOAD DUP1 SWAP3 SWAP2 SWAP1 PUSH2 0x2CF SWAP1 PUSH2 0x10BF JUMP JUMPDEST SWAP2 SWAP1 POP SSTORE POP PUSH32 0x762C2616349603AC16EBA0DE8E6141B79129A07AB63BD99E0A80B3A471716943 CALLER DUP4 DUP4 PUSH1 0x1 PUSH0 DUP8 PUSH20 0xFFFFFFFFFFFFFFFFFFFFFFFFFFFFFFFFFFFFFFFF AND PUSH20 0xFFFFFFFFFFFFFFFFFFFFFFFFFFFFFFFFFFFFFFFF AND DUP2 MSTORE PUSH1 0x20 ADD SWAP1 DUP2 MSTORE PUSH1 0x20 ADD PUSH0 KECCAK256 DUP6 DUP2 SLOAD DUP2 LT PUSH2 0x347 JUMPI PUSH2 0x346 PUSH2 0xF95 JUMP JUMPDEST JUMPDEST SWAP1 PUSH0 MSTORE PUSH1 0x20 PUSH0 KECCAK256 SWAP1 PUSH1 0x5 MUL ADD PUSH1 0x4 ADD SLOAD PUSH1 0x40 MLOAD PUSH2 0x367 SWAP5 SWAP4 SWAP3 SWAP2 SWAP1 PUSH2 0x1104 JUMP JUMPDEST PUSH1 0x40 MLOAD DUP1 SWAP2 SUB SWAP1 LOG1 POP POP JUMP JUMPDEST PUSH1 0x60 PUSH1 0x1 PUSH0 CALLER PUSH20 0xFFFFFFFFFFFFFFFFFFFFFFFFFFFFFFFFFFFFFFFF AND PUSH20 0xFFFFFFFFFFFFFFFFFFFFFFFFFFFFFFFFFFFFFFFF AND DUP2 MSTORE PUSH1 0x20 ADD SWAP1 DUP2 MSTORE PUSH1 0x20 ADD PUSH0 KECCAK256 DUP1 SLOAD DUP1 PUSH1 0x20 MUL PUSH1 0x20 ADD PUSH1 0x40 MLOAD SWAP1 DUP2 ADD PUSH1 0x40 MSTORE DUP1 SWAP3 SWAP2 SWAP1 DUP2 DUP2 MSTORE PUSH1 0x20 ADD PUSH0 SWAP1 JUMPDEST DUP3 DUP3 LT ISZERO PUSH2 0x503 JUMPI DUP4 DUP3 SWAP1 PUSH0 MSTORE PUSH1 0x20 PUSH0 KECCAK256 SWAP1 PUSH1 0x5 MUL ADD PUSH1 0x40 MLOAD DUP1 PUSH1 0xA0 ADD PUSH1 0x40 MSTORE SWAP1 DUP2 PUSH0 DUP3 ADD SLOAD DUP2 MSTORE PUSH1 0x20 ADD PUSH1 0x1 DUP3 ADD PUSH0 SWAP1 SLOAD SWAP1 PUSH2 0x100 EXP SWAP1 DIV PUSH20 0xFFFFFFFFFFFFFFFFFFFFFFFFFFFFFFFFFFFFFFFF AND PUSH20 0xFFFFFFFFFFFFFFFFFFFFFFFFFFFFFFFFFFFFFFFF AND PUSH20 0xFFFFFFFFFFFFFFFFFFFFFFFFFFFFFFFFFFFFFFFF AND DUP2 MSTORE PUSH1 0x20 ADD PUSH1 0x2 DUP3 ADD DUP1 SLOAD PUSH2 0x460 SWAP1 PUSH2 0x1174 JUMP JUMPDEST DUP1 PUSH1 0x1F ADD PUSH1 0x20 DUP1 SWAP2 DIV MUL PUSH1 0x20 ADD PUSH1 0x40 MLOAD SWAP1 DUP2 ADD PUSH1 0x40 MSTORE DUP1 SWAP3 SWAP2 SWAP1 DUP2 DUP2 MSTORE PUSH1 0x20 ADD DUP3 DUP1 SLOAD PUSH2 0x48C SWAP1 PUSH2 0x1174 JUMP JUMPDEST DUP1 ISZERO PUSH2 0x4D7 JUMPI DUP1 PUSH1 0x1F LT PUSH2 0x4AE JUMPI PUSH2 0x100 DUP1 DUP4 SLOAD DIV MUL DUP4 MSTORE SWAP2 PUSH1 0x20 ADD SWAP2 PUSH2 0x4D7 JUMP JUMPDEST DUP3 ADD SWAP2 SWAP1 PUSH0 MSTORE PUSH1 0x20 PUSH0 KECCAK256 SWAP1 JUMPDEST DUP2 SLOAD DUP2 MSTORE SWAP1 PUSH1 0x1 ADD SWAP1 PUSH1 0x20 ADD DUP1 DUP4 GT PUSH2 0x4BA JUMPI DUP3 SWAP1 SUB PUSH1 0x1F AND DUP3 ADD SWAP2 JUMPDEST POP POP POP POP POP DUP2 MSTORE PUSH1 0x20 ADD PUSH1 0x3 DUP3 ADD SLOAD DUP2 MSTORE PUSH1 0x20 ADD PUSH1 0x4 DUP3 ADD SLOAD DUP2 MSTORE POP POP DUP2 MSTORE PUSH1 0x20 ADD SWAP1 PUSH1 0x1 ADD SWAP1 PUSH2 0x3D1 JUMP JUMPDEST POP POP POP POP SWAP1 POP SWAP1 JUMP JUMPDEST PUSH1 0x2 PUSH0 SWAP1 SLOAD SWAP1 PUSH2 0x100 EXP SWAP1 DIV PUSH20 0xFFFFFFFFFFFFFFFFFFFFFFFFFFFFFFFFFFFFFFFF AND PUSH20 0xFFFFFFFFFFFFFFFFFFFFFFFFFFFFFFFFFFFFFFFF AND CALLER PUSH20 0xFFFFFFFFFFFFFFFFFFFFFFFFFFFFFFFFFFFFFFFF AND EQ PUSH2 0x59B JUMPI PUSH1 0x40 MLOAD PUSH32 0x8C379A000000000000000000000000000000000000000000000000000000000 DUP2 MSTORE PUSH1 0x4 ADD PUSH2 0x592 SWAP1 PUSH2 0x11EE JUMP JUMPDEST PUSH1 0x40 MLOAD DUP1 SWAP2 SUB SWAP1 REVERT JUMPDEST DUP1 PUSH0 DUP1 PUSH2 0x100 EXP DUP2 SLOAD DUP2 PUSH2 0xFFFF MUL NOT AND SWAP1 DUP4 PUSH2 0xFFFF AND MUL OR SWAP1 SSTORE POP POP JUMP JUMPDEST DUP1 PUSH1 0x1 PUSH0 DUP5 PUSH20 0xFFFFFFFFFFFFFFFFFFFFFFFFFFFFFFFFFFFFFFFF AND PUSH20 0xFFFFFFFFFFFFFFFFFFFFFFFFFFFFFFFFFFFFFFFF AND DUP2 MSTORE PUSH1 0x20 ADD SWAP1 DUP2 MSTORE PUSH1 0x20 ADD PUSH0 KECCAK256 DUP3 DUP2 SLOAD DUP2 LT PUSH2 0x609 JUMPI PUSH2 0x608 PUSH2 0xF95 JUMP JUMPDEST JUMPDEST SWAP1 PUSH0 MSTORE PUSH1 0x20 PUSH0 KECCAK256 SWAP1 PUSH1 0x5 MUL ADD PUSH0 ADD SLOAD EQ PUSH2 0x658 JUMPI PUSH1 0x40 MLOAD PUSH32 0x8C379A000000000000000000000000000000000000000000000000000000000 DUP2 MSTORE PUSH1 0x4 ADD PUSH2 0x64F SWAP1 PUSH2 0x100C JUMP JUMPDEST PUSH1 0x40 MLOAD DUP1 SWAP2 SUB SWAP1 REVERT JUMPDEST PUSH1 0x1 PUSH0 DUP4 PUSH20 0xFFFFFFFFFFFFFFFFFFFFFFFFFFFFFFFFFFFFFFFF AND PUSH20 0xFFFFFFFFFFFFFFFFFFFFFFFFFFFFFFFFFFFFFFFF AND DUP2 MSTORE PUSH1 0x20 ADD SWAP1 DUP2 MSTORE PUSH1 0x20 ADD PUSH0 KECCAK256 DUP2 DUP2 SLOAD DUP2 LT PUSH2 0x6A7 JUMPI PUSH2 0x6A6 PUSH2 0xF95 JUMP JUMPDEST JUMPDEST SWAP1 PUSH0 MSTORE PUSH1 0x20 PUSH0 KECCAK256 SWAP1 PUSH1 0x5 MUL ADD PUSH1 0x4 ADD PUSH0 DUP2 SLOAD DUP1 SWAP3 SWAP2 SWAP1 PUSH2 0x6C6 SWAP1 PUSH2 0x120C JUMP JUMPDEST SWAP2 SWAP1 POP SSTORE POP PUSH32 0xE8A76FC0F16D11A00D1E93B689B63D76CF60AF914DD3D915375DC41D01A0C3C8 CALLER DUP4 DUP4 PUSH1 0x1 PUSH0 DUP8 PUSH20 0xFFFFFFFFFFFFFFFFFFFFFFFFFFFFFFFFFFFFFFFF AND PUSH20 0xFFFFFFFFFFFFFFFFFFFFFFFFFFFFFFFFFFFFFFFF AND DUP2 MSTORE PUSH1 0x20 ADD SWAP1 DUP2 MSTORE PUSH1 0x20 ADD PUSH0 KECCAK256 DUP6 DUP2 SLOAD DUP2 LT PUSH2 0x73E JUMPI PUSH2 0x73D PUSH2 0xF95 JUMP JUMPDEST JUMPDEST SWAP1 PUSH0 MSTORE PUSH1 0x20 PUSH0 KECCAK256 SWAP1 PUSH1 0x5 MUL ADD PUSH1 0x4 ADD SLOAD PUSH1 0x40 MLOAD PUSH2 0x75E SWAP5 SWAP4 SWAP3 SWAP2 SWAP1 PUSH2 0x1104 JUMP JUMPDEST PUSH1 0x40 MLOAD DUP1 SWAP2 SUB SWAP1 LOG1 POP POP JUMP JUMPDEST PUSH0 DUP1 SLOAD SWAP1 PUSH2 0x100 EXP SWAP1 DIV PUSH2 0xFFFF AND PUSH2 0xFFFF AND DUP2 MLOAD GT ISZERO PUSH2 0x7BF JUMPI PUSH1 0x40 MLOAD PUSH32 0x8C379A000000000000000000000000000000000000000000000000000000000 DUP2 MSTORE PUSH1 0x4 ADD PUSH2 0x7B6 SWAP1 PUSH2 0x129D JUMP JUMPDEST PUSH1 0x40 MLOAD DUP1 SWAP2 SUB SWAP1 REVERT JUMPDEST PUSH0 PUSH1 0x40 MLOAD DUP1 PUSH1 0xA0 ADD PUSH1 0x40 MSTORE DUP1 PUSH1 0x1 PUSH0 CALLER PUSH20 0xFFFFFFFFFFFFFFFFFFFFFFFFFFFFFFFFFFFFFFFF AND PUSH20 0xFFFFFFFFFFFFFFFFFFFFFFFFFFFFFFFFFFFFFFFF AND DUP2 MSTORE PUSH1 0x20 ADD SWAP1 DUP2 MSTORE PUSH1 0x20 ADD PUSH0 KECCAK256 DUP1 SLOAD SWAP1 POP DUP2 MSTORE PUSH1 0x20 ADD CALLER PUSH20 0xFFFFFFFFFFFFFFFFFFFFFFFFFFFFFFFFFFFFFFFF AND DUP2 MSTORE PUSH1 0x20 ADD DUP4 DUP2 MSTORE PUSH1 0x20 ADD TIMESTAMP DUP2 MSTORE PUSH1 0x20 ADD PUSH0 DUP2 MSTORE POP SWAP1 POP PUSH1 0x1 PUSH0 CALLER PUSH20 0xFFFFFFFFFFFFFFFFFFFFFFFFFFFFFFFFFFFFFFFF AND PUSH20 0xFFFFFFFFFFFFFFFFFFFFFFFFFFFFFFFFFFFFFFFF AND DUP2 MSTORE PUSH1 0x20 ADD SWAP1 DUP2 MSTORE PUSH1 0x20 ADD PUSH0 KECCAK256 DUP2 SWAP1 DUP1 PUSH1 0x1 DUP2 SLOAD ADD DUP1 DUP3 SSTORE DUP1 SWAP2 POP POP PUSH1 0x1 SWAP1 SUB SWAP1 PUSH0 MSTORE PUSH1 0x20 PUSH0 KECCAK256 SWAP1 PUSH1 0x5 MUL ADD PUSH0 SWAP1 SWAP2 SWAP1 SWAP2 SWAP1 SWAP2 POP PUSH0 DUP3 ADD MLOAD DUP2 PUSH0 ADD SSTORE PUSH1 0x20 DUP3 ADD MLOAD DUP2 PUSH1 0x1 ADD PUSH0 PUSH2 0x100 EXP DUP2 SLOAD DUP2 PUSH20 0xFFFFFFFFFFFFFFFFFFFFFFFFFFFFFFFFFFFFFFFF MUL NOT AND SWAP1 DUP4 PUSH20 0xFFFFFFFFFFFFFFFFFFFFFFFFFFFFFFFFFFFFFFFF AND MUL OR SWAP1 SSTORE POP PUSH1 0x40 DUP3 ADD MLOAD DUP2 PUSH1 0x2 ADD SWAP1 DUP2 PUSH2 0x906 SWAP2 SWAP1 PUSH2 0x1458 JUMP JUMPDEST POP PUSH1 0x60 DUP3 ADD MLOAD DUP2 PUSH1 0x3 ADD SSTORE PUSH1 0x80 DUP3 ADD MLOAD DUP2 PUSH1 0x4 ADD SSTORE POP POP PUSH32 0x16FD3C13E9D46923E0A8BCE11C7B473EC508A72E6C96CD2404B29CE972AFC29E DUP2 PUSH0 ADD MLOAD DUP3 PUSH1 0x20 ADD MLOAD DUP4 PUSH1 0x40 ADD MLOAD DUP5 PUSH1 0x60 ADD MLOAD PUSH1 0x40 MLOAD PUSH2 0x961 SWAP5 SWAP4 SWAP3 SWAP2 SWAP1 PUSH2 0x1527 JUMP JUMPDEST PUSH1 0x40 MLOAD DUP1 SWAP2 SUB SWAP1 LOG1 POP POP JUMP JUMPDEST PUSH1 0x60 PUSH1 0x1 PUSH0 CALLER PUSH20 0xFFFFFFFFFFFFFFFFFFFFFFFFFFFFFFFFFFFFFFFF AND PUSH20 0xFFFFFFFFFFFFFFFFFFFFFFFFFFFFFFFFFFFFFFFF AND DUP2 MSTORE PUSH1 0x20 ADD SWAP1 DUP2 MSTORE PUSH1 0x20 ADD PUSH0 KECCAK256 DUP3 DUP2 SLOAD DUP2 LT PUSH2 0x9BE JUMPI PUSH2 0x9BD PUSH2 0xF95 JUMP JUMPDEST JUMPDEST SWAP1 PUSH0 MSTORE PUSH1 0x20 PUSH0 KECCAK256 SWAP1 PUSH1 0x5 MUL ADD PUSH1 0x2 ADD DUP1 SLOAD PUSH2 0x9D8 SWAP1 PUSH2 0x1174 JUMP JUMPDEST DUP1 PUSH1 0x1F ADD PUSH1 0x20 DUP1 SWAP2 DIV MUL PUSH1 0x20 ADD PUSH1 0x40 MLOAD SWAP1 DUP2 ADD PUSH1 0x40 MSTORE DUP1 SWAP3 SWAP2 SWAP1 DUP2 DUP2 MSTORE PUSH1 0x20 ADD DUP3 DUP1 SLOAD PUSH2 0xA04 SWAP1 PUSH2 0x1174 JUMP JUMPDEST DUP1 ISZERO PUSH2 0xA4F JUMPI DUP1 PUSH1 0x1F LT PUSH2 0xA26 JUMPI PUSH2 0x100 DUP1 DUP4 SLOAD DIV MUL DUP4 MSTORE SWAP2 PUSH1 0x20 ADD SWAP2 PUSH2 0xA4F JUMP JUMPDEST DUP3 ADD SWAP2 SWAP1 PUSH0 MSTORE PUSH1 0x20 PUSH0 KECCAK256 SWAP1 JUMPDEST DUP2 SLOAD DUP2 MSTORE SWAP1 PUSH1 0x1 ADD SWAP1 PUSH1 0x20 ADD DUP1 DUP4 GT PUSH2 0xA32 JUMPI DUP3 SWAP1 SUB PUSH1 0x1F AND DUP3 ADD SWAP2 JUMPDEST POP POP POP POP POP SWAP1 POP SWAP2 SWAP1 POP JUMP JUMPDEST PUSH0 PUSH1 0x40 MLOAD SWAP1 POP SWAP1 JUMP JUMPDEST PUSH0 DUP1 REVERT JUMPDEST PUSH0 DUP1 REVERT JUMPDEST PUSH0 PUSH20 0xFFFFFFFFFFFFFFFFFFFFFFFFFFFFFFFFFFFFFFFF DUP3 AND SWAP1 POP SWAP2 SWAP1 POP JUMP JUMPDEST PUSH0 PUSH2 0xA95 DUP3 PUSH2 0xA6C JUMP JUMPDEST SWAP1 POP SWAP2 SWAP1 POP JUMP JUMPDEST PUSH2 0xAA5 DUP2 PUSH2 0xA8B JUMP JUMPDEST DUP2 EQ PUSH2 0xAAF JUMPI PUSH0 DUP1 REVERT JUMPDEST POP JUMP JUMPDEST PUSH0 DUP2 CALLDATALOAD SWAP1 POP PUSH2 0xAC0 DUP2 PUSH2 0xA9C JUMP JUMPDEST SWAP3 SWAP2 POP POP JUMP JUMPDEST PUSH0 DUP2 SWAP1 POP SWAP2 SWAP1 POP JUMP JUMPDEST PUSH2 0xAD8 DUP2 PUSH2 0xAC6 JUMP JUMPDEST DUP2 EQ PUSH2 0xAE2 JUMPI PUSH0 DUP1 REVERT JUMPDEST POP JUMP JUMPDEST PUSH0 DUP2 CALLDATALOAD SWAP1 POP PUSH2 0xAF3 DUP2 PUSH2 0xACF JUMP JUMPDEST SWAP3 SWAP2 POP POP JUMP JUMPDEST PUSH0 DUP1 PUSH1 0x40 DUP4 DUP6 SUB SLT ISZERO PUSH2 0xB0F JUMPI PUSH2 0xB0E PUSH2 0xA64 JUMP JUMPDEST JUMPDEST PUSH0 PUSH2 0xB1C DUP6 DUP3 DUP7 ADD PUSH2 0xAB2 JUMP JUMPDEST SWAP3 POP POP PUSH1 0x20 PUSH2 0xB2D DUP6 DUP3 DUP7 ADD PUSH2 0xAE5 JUMP JUMPDEST SWAP2 POP POP SWAP3 POP SWAP3 SWAP1 POP JUMP JUMPDEST PUSH0 DUP2 MLOAD SWAP1 POP SWAP2 SWAP1 POP JUMP JUMPDEST PUSH0 DUP3 DUP3 MSTORE PUSH1 0x20 DUP3 ADD SWAP1 POP SWAP3 SWAP2 POP POP JUMP JUMPDEST PUSH0 DUP2 SWAP1 POP PUSH1 0x20 DUP3 ADD SWAP1 POP SWAP2 SWAP1 POP JUMP JUMPDEST PUSH2 0xB69 DUP2 PUSH2 0xAC6 JUMP JUMPDEST DUP3 MSTORE POP POP JUMP JUMPDEST PUSH2 0xB78 DUP2 PUSH2 0xA8B JUMP JUMPDEST DUP3 MSTORE POP POP JUMP JUMPDEST PUSH0 DUP2 MLOAD SWAP1 POP SWAP2 SWAP1 POP JUMP JUMPDEST PUSH0 DUP3 DUP3 MSTORE PUSH1 0x20 DUP3 ADD SWAP1 POP SWAP3 SWAP2 POP POP JUMP JUMPDEST PUSH0 JUMPDEST DUP4 DUP2 LT ISZERO PUSH2 0xBB5 JUMPI DUP1 DUP3 ADD MLOAD DUP2 DUP5 ADD MSTORE PUSH1 0x20 DUP2 ADD SWAP1 POP PUSH2 0xB9A JUMP JUMPDEST PUSH0 DUP5 DUP5 ADD MSTORE POP POP POP POP JUMP JUMPDEST PUSH0 PUSH1 0x1F NOT PUSH1 0x1F DUP4 ADD AND SWAP1 POP SWAP2 SWAP1 POP JUMP JUMPDEST PUSH0 PUSH2 0xBDA DUP3 PUSH2 0xB7E JUMP JUMPDEST PUSH2 0xBE4 DUP2 DUP6 PUSH2 0xB88 JUMP JUMPDEST SWAP4 POP PUSH2 0xBF4 DUP2 DUP6 PUSH1 0x20 DUP7 ADD PUSH2 0xB98 JUMP JUMPDEST PUSH2 0xBFD DUP2 PUSH2 0xBC0 JUMP JUMPDEST DUP5 ADD SWAP2 POP POP SWAP3 SWAP2 POP POP JUMP JUMPDEST PUSH0 PUSH1 0xA0 DUP4 ADD PUSH0 DUP4 ADD MLOAD PUSH2 0xC1D PUSH0 DUP7 ADD DUP3 PUSH2 0xB60 JUMP JUMPDEST POP PUSH1 0x20 DUP4 ADD MLOAD PUSH2 0xC30 PUSH1 0x20 DUP7 ADD DUP3 PUSH2 0xB6F JUMP JUMPDEST POP PUSH1 0x40 DUP4 ADD MLOAD DUP5 DUP3 SUB PUSH1 0x40 DUP7 ADD MSTORE PUSH2 0xC48 DUP3 DUP3 PUSH2 0xBD0 JUMP JUMPDEST SWAP2 POP POP PUSH1 0x60 DUP4 ADD MLOAD PUSH2 0xC5D PUSH1 0x60 DUP7 ADD DUP3 PUSH2 0xB60 JUMP JUMPDEST POP PUSH1 0x80 DUP4 ADD MLOAD PUSH2 0xC70 PUSH1 0x80 DUP7 ADD DUP3 PUSH2 0xB60 JUMP JUMPDEST POP DUP1 SWAP2 POP POP SWAP3 SWAP2 POP POP JUMP JUMPDEST PUSH0 PUSH2 0xC86 DUP4 DUP4 PUSH2 0xC08 JUMP JUMPDEST SWAP1 POP SWAP3 SWAP2 POP POP JUMP JUMPDEST PUSH0 PUSH1 0x20 DUP3 ADD SWAP1 POP SWAP2 SWAP1 POP JUMP JUMPDEST PUSH0 PUSH2 0xCA4 DUP3 PUSH2 0xB37 JUMP JUMPDEST PUSH2 0xCAE DUP2 DUP6 PUSH2 0xB41 JUMP JUMPDEST SWAP4 POP DUP4 PUSH1 0x20 DUP3 MUL DUP6 ADD PUSH2 0xCC0 DUP6 PUSH2 0xB51 JUMP JUMPDEST DUP1 PUSH0 JUMPDEST DUP6 DUP2 LT ISZERO PUSH2 0xCFB JUMPI DUP5 DUP5 SUB DUP10 MSTORE DUP2 MLOAD PUSH2 0xCDC DUP6 DUP3 PUSH2 0xC7B JUMP JUMPDEST SWAP5 POP PUSH2 0xCE7 DUP4 PUSH2 0xC8E JUMP JUMPDEST SWAP3 POP PUSH1 0x20 DUP11 ADD SWAP10 POP POP PUSH1 0x1 DUP2 ADD SWAP1 POP PUSH2 0xCC3 JUMP JUMPDEST POP DUP3 SWAP8 POP DUP8 SWAP6 POP POP POP POP POP POP SWAP3 SWAP2 POP POP JUMP JUMPDEST PUSH0 PUSH1 0x20 DUP3 ADD SWAP1 POP DUP2 DUP2 SUB PUSH0 DUP4 ADD MSTORE PUSH2 0xD25 DUP2 DUP5 PUSH2 0xC9A JUMP JUMPDEST SWAP1 POP SWAP3 SWAP2 POP POP JUMP JUMPDEST PUSH0 PUSH2 0xFFFF DUP3 AND SWAP1 POP SWAP2 SWAP1 POP JUMP JUMPDEST PUSH2 0xD43 DUP2 PUSH2 0xD2D JUMP JUMPDEST DUP2 EQ PUSH2 0xD4D JUMPI PUSH0 DUP1 REVERT JUMPDEST POP JUMP JUMPDEST PUSH0 DUP2 CALLDATALOAD SWAP1 POP PUSH2 0xD5E DUP2 PUSH2 0xD3A JUMP JUMPDEST SWAP3 SWAP2 POP POP JUMP JUMPDEST PUSH0 PUSH1 0x20 DUP3 DUP5 SUB SLT ISZERO PUSH2 0xD79 JUMPI PUSH2 0xD78 PUSH2 0xA64 JUMP JUMPDEST JUMPDEST PUSH0 PUSH2 0xD86 DUP5 DUP3 DUP6 ADD PUSH2 0xD50 JUMP JUMPDEST SWAP2 POP POP SWAP3 SWAP2 POP POP JUMP JUMPDEST PUSH0 DUP1 REVERT JUMPDEST PUSH0 DUP1 REVERT JUMPDEST PUSH32 0x4E487B7100000000000000000000000000000000000000000000000000000000 PUSH0 MSTORE PUSH1 0x41 PUSH1 0x4 MSTORE PUSH1 0x24 PUSH0 REVERT JUMPDEST PUSH2 0xDCD DUP3 PUSH2 0xBC0 JUMP JUMPDEST DUP2 ADD DUP2 DUP2 LT PUSH8 0xFFFFFFFFFFFFFFFF DUP3 GT OR ISZERO PUSH2 0xDEC JUMPI PUSH2 0xDEB PUSH2 0xD97 JUMP JUMPDEST JUMPDEST DUP1 PUSH1 0x40 MSTORE POP POP POP JUMP JUMPDEST PUSH0 PUSH2 0xDFE PUSH2 0xA5B JUMP JUMPDEST SWAP1 POP PUSH2 0xE0A DUP3 DUP3 PUSH2 0xDC4 JUMP JUMPDEST SWAP2 SWAP1 POP JUMP JUMPDEST PUSH0 PUSH8 0xFFFFFFFFFFFFFFFF DUP3 GT ISZERO PUSH2 0xE29 JUMPI PUSH2 0xE28 PUSH2 0xD97 JUMP JUMPDEST JUMPDEST PUSH2 0xE32 DUP3 PUSH2 0xBC0 JUMP JUMPDEST SWAP1 POP PUSH1 0x20 DUP2 ADD SWAP1 POP SWAP2 SWAP1 POP JUMP JUMPDEST DUP3 DUP2 DUP4 CALLDATACOPY PUSH0 DUP4 DUP4 ADD MSTORE POP POP POP JUMP JUMPDEST PUSH0 PUSH2 0xE5F PUSH2 0xE5A DUP5 PUSH2 0xE0F JUMP JUMPDEST PUSH2 0xDF5 JUMP JUMPDEST SWAP1 POP DUP3 DUP2 MSTORE PUSH1 0x20 DUP2 ADD DUP5 DUP5 DUP5 ADD GT ISZERO PUSH2 0xE7B JUMPI PUSH2 0xE7A PUSH2 0xD93 JUMP JUMPDEST JUMPDEST PUSH2 0xE86 DUP5 DUP3 DUP6 PUSH2 0xE3F JUMP JUMPDEST POP SWAP4 SWAP3 POP POP POP JUMP JUMPDEST PUSH0 DUP3 PUSH1 0x1F DUP4 ADD SLT PUSH2 0xEA2 JUMPI PUSH2 0xEA1 PUSH2 0xD8F JUMP JUMPDEST JUMPDEST DUP2 CALLDATALOAD PUSH2 0xEB2 DUP5 DUP3 PUSH1 0x20 DUP7 ADD PUSH2 0xE4D JUMP JUMPDEST SWAP2 POP POP SWAP3 SWAP2 POP POP JUMP JUMPDEST PUSH0 PUSH1 0x20 DUP3 DUP5 SUB SLT ISZERO PUSH2 0xED0 JUMPI PUSH2 0xECF PUSH2 0xA64 JUMP JUMPDEST JUMPDEST PUSH0 DUP3 ADD CALLDATALOAD PUSH8 0xFFFFFFFFFFFFFFFF DUP2 GT ISZERO PUSH2 0xEED JUMPI PUSH2 0xEEC PUSH2 0xA68 JUMP JUMPDEST JUMPDEST PUSH2 0xEF9 DUP5 DUP3 DUP6 ADD PUSH2 0xE8E JUMP JUMPDEST SWAP2 POP POP SWAP3 SWAP2 POP POP JUMP JUMPDEST PUSH0 PUSH1 0x20 DUP3 DUP5 SUB SLT ISZERO PUSH2 0xF17 JUMPI PUSH2 0xF16 PUSH2 0xA64 JUMP JUMPDEST JUMPDEST PUSH0 PUSH2 0xF24 DUP5 DUP3 DUP6 ADD PUSH2 0xAE5 JUMP JUMPDEST SWAP2 POP POP SWAP3 SWAP2 POP POP JUMP JUMPDEST PUSH0 DUP3 DUP3 MSTORE PUSH1 0x20 DUP3 ADD SWAP1 POP SWAP3 SWAP2 POP POP JUMP JUMPDEST PUSH0 PUSH2 0xF47 DUP3 PUSH2 0xB7E JUMP JUMPDEST PUSH2 0xF51 DUP2 DUP6 PUSH2 0xF2D JUMP JUMPDEST SWAP4 POP PUSH2 0xF61 DUP2 DUP6 PUSH1 0x20 DUP7 ADD PUSH2 0xB98 JUMP JUMPDEST PUSH2 0xF6A DUP2 PUSH2 0xBC0 JUMP JUMPDEST DUP5 ADD SWAP2 POP POP SWAP3 SWAP2 POP POP JUMP JUMPDEST PUSH0 PUSH1 0x20 DUP3 ADD SWAP1 POP DUP2 DUP2 SUB PUSH0 DUP4 ADD MSTORE PUSH2 0xF8D DUP2 DUP5 PUSH2 0xF3D JUMP JUMPDEST SWAP1 POP SWAP3 SWAP2 POP POP JUMP JUMPDEST PUSH32 0x4E487B7100000000000000000000000000000000000000000000000000000000 PUSH0 MSTORE PUSH1 0x32 PUSH1 0x4 MSTORE PUSH1 0x24 PUSH0 REVERT JUMPDEST PUSH32 0x547765657420646F6573206E6F74206578697374000000000000000000000000 PUSH0 DUP3 ADD MSTORE POP JUMP JUMPDEST PUSH0 PUSH2 0xFF6 PUSH1 0x14 DUP4 PUSH2 0xF2D JUMP JUMPDEST SWAP2 POP PUSH2 0x1001 DUP3 PUSH2 0xFC2 JUMP JUMPDEST PUSH1 0x20 DUP3 ADD SWAP1 POP SWAP2 SWAP1 POP JUMP JUMPDEST PUSH0 PUSH1 0x20 DUP3 ADD SWAP1 POP DUP2 DUP2 SUB PUSH0 DUP4 ADD MSTORE PUSH2 0x1023 DUP2 PUSH2 0xFEA JUMP JUMPDEST SWAP1 POP SWAP2 SWAP1 POP JUMP JUMPDEST PUSH32 0x547765657420646F65736E2774206861766520616E79206C696B657300000000 PUSH0 DUP3 ADD MSTORE POP JUMP JUMPDEST PUSH0 PUSH2 0x105E PUSH1 0x1C DUP4 PUSH2 0xF2D JUMP JUMPDEST SWAP2 POP PUSH2 0x1069 DUP3 PUSH2 0x102A JUMP JUMPDEST PUSH1 0x20 DUP3 ADD SWAP1 POP SWAP2 SWAP1 POP JUMP JUMPDEST PUSH0 PUSH1 0x20 DUP3 ADD SWAP1 POP DUP2 DUP2 SUB PUSH0 DUP4 ADD MSTORE PUSH2 0x108B DUP2 PUSH2 0x1052 JUMP JUMPDEST SWAP1 POP SWAP2 SWAP1 POP JUMP JUMPDEST PUSH32 0x4E487B7100000000000000000000000000000000000000000000000000000000 PUSH0 MSTORE PUSH1 0x11 PUSH1 0x4 MSTORE PUSH1 0x24 PUSH0 REVERT JUMPDEST PUSH0 PUSH2 0x10C9 DUP3 PUSH2 0xAC6 JUMP JUMPDEST SWAP2 POP PUSH0 DUP3 SUB PUSH2 0x10DB JUMPI PUSH2 0x10DA PUSH2 0x1092 JUMP JUMPDEST JUMPDEST PUSH1 0x1 DUP3 SUB SWAP1 POP SWAP2 SWAP1 POP JUMP JUMPDEST PUSH2 0x10EF DUP2 PUSH2 0xA8B JUMP JUMPDEST DUP3 MSTORE POP POP JUMP JUMPDEST PUSH2 0x10FE DUP2 PUSH2 0xAC6 JUMP JUMPDEST DUP3 MSTORE POP POP JUMP JUMPDEST PUSH0 PUSH1 0x80 DUP3 ADD SWAP1 POP PUSH2 0x1117 PUSH0 DUP4 ADD DUP8 PUSH2 0x10E6 JUMP JUMPDEST PUSH2 0x1124 PUSH1 0x20 DUP4 ADD DUP7 PUSH2 0x10E6 JUMP JUMPDEST PUSH2 0x1131 PUSH1 0x40 DUP4 ADD DUP6 PUSH2 0x10F5 JUMP JUMPDEST PUSH2 0x113E PUSH1 0x60 DUP4 ADD DUP5 PUSH2 0x10F5 JUMP JUMPDEST SWAP6 SWAP5 POP POP POP POP POP JUMP JUMPDEST PUSH32 0x4E487B7100000000000000000000000000000000000000000000000000000000 PUSH0 MSTORE PUSH1 0x22 PUSH1 0x4 MSTORE PUSH1 0x24 PUSH0 REVERT JUMPDEST PUSH0 PUSH1 0x2 DUP3 DIV SWAP1 POP PUSH1 0x1 DUP3 AND DUP1 PUSH2 0x118B JUMPI PUSH1 0x7F DUP3 AND SWAP2 POP JUMPDEST PUSH1 0x20 DUP3 LT DUP2 SUB PUSH2 0x119E JUMPI PUSH2 0x119D PUSH2 0x1147 JUMP JUMPDEST JUMPDEST POP SWAP2 SWAP1 POP JUMP JUMPDEST PUSH32 0x596F7520617265206E6F7420746865206F776E65722100000000000000000000 PUSH0 DUP3 ADD MSTORE POP JUMP JUMPDEST PUSH0 PUSH2 0x11D8 PUSH1 0x16 DUP4 PUSH2 0xF2D JUMP JUMPDEST SWAP2 POP PUSH2 0x11E3 DUP3 PUSH2 0x11A4 JUMP JUMPDEST PUSH1 0x20 DUP3 ADD SWAP1 POP SWAP2 SWAP1 POP JUMP JUMPDEST PUSH0 PUSH1 0x20 DUP3 ADD SWAP1 POP DUP2 DUP2 SUB PUSH0 DUP4 ADD MSTORE PUSH2 0x1205 DUP2 PUSH2 0x11CC JUMP JUMPDEST SWAP1 POP SWAP2 SWAP1 POP JUMP JUMPDEST PUSH0 PUSH2 0x1216 DUP3 PUSH2 0xAC6 JUMP JUMPDEST SWAP2 POP PUSH32 0xFFFFFFFFFFFFFFFFFFFFFFFFFFFFFFFFFFFFFFFFFFFFFFFFFFFFFFFFFFFFFFFF DUP3 SUB PUSH2 0x1248 JUMPI PUSH2 0x1247 PUSH2 0x1092 JUMP JUMPDEST JUMPDEST PUSH1 0x1 DUP3 ADD SWAP1 POP SWAP2 SWAP1 POP JUMP JUMPDEST PUSH32 0x547765657420697320746F6F206C6F6E672E0000000000000000000000000000 PUSH0 DUP3 ADD MSTORE POP JUMP JUMPDEST PUSH0 PUSH2 0x1287 PUSH1 0x12 DUP4 PUSH2 0xF2D JUMP JUMPDEST SWAP2 POP PUSH2 0x1292 DUP3 PUSH2 0x1253 JUMP JUMPDEST PUSH1 0x20 DUP3 ADD SWAP1 POP SWAP2 SWAP1 POP JUMP JUMPDEST PUSH0 PUSH1 0x20 DUP3 ADD SWAP1 POP DUP2 DUP2 SUB PUSH0 DUP4 ADD MSTORE PUSH2 0x12B4 DUP2 PUSH2 0x127B JUMP JUMPDEST SWAP1 POP SWAP2 SWAP1 POP JUMP JUMPDEST PUSH0 DUP2 SWAP1 POP DUP2 PUSH0 MSTORE PUSH1 0x20 PUSH0 KECCAK256 SWAP1 POP SWAP2 SWAP1 POP JUMP JUMPDEST PUSH0 PUSH1 0x20 PUSH1 0x1F DUP4 ADD DIV SWAP1 POP SWAP2 SWAP1 POP JUMP JUMPDEST PUSH0 DUP3 DUP3 SHL SWAP1 POP SWAP3 SWAP2 POP POP JUMP JUMPDEST PUSH0 PUSH1 0x8 DUP4 MUL PUSH2 0x1317 PUSH32 0xFFFFFFFFFFFFFFFFFFFFFFFFFFFFFFFFFFFFFFFFFFFFFFFFFFFFFFFFFFFFFFFF DUP3 PUSH2 0x12DC JUMP JUMPDEST PUSH2 0x1321 DUP7 DUP4 PUSH2 0x12DC JUMP JUMPDEST SWAP6 POP DUP1 NOT DUP5 AND SWAP4 POP DUP1 DUP7 AND DUP5 OR SWAP3 POP POP POP SWAP4 SWAP3 POP POP POP JUMP JUMPDEST PUSH0 DUP2 SWAP1 POP SWAP2 SWAP1 POP JUMP JUMPDEST PUSH0 PUSH2 0x135C PUSH2 0x1357 PUSH2 0x1352 DUP5 PUSH2 0xAC6 JUMP JUMPDEST PUSH2 0x1339 JUMP JUMPDEST PUSH2 0xAC6 JUMP JUMPDEST SWAP1 POP SWAP2 SWAP1 POP JUMP JUMPDEST PUSH0 DUP2 SWAP1 POP SWAP2 SWAP1 POP JUMP JUMPDEST PUSH2 0x1375 DUP4 PUSH2 0x1342 JUMP JUMPDEST PUSH2 0x1389 PUSH2 0x1381 DUP3 PUSH2 0x1363 JUMP JUMPDEST DUP5 DUP5 SLOAD PUSH2 0x12E8 JUMP JUMPDEST DUP3 SSTORE POP POP POP POP JUMP JUMPDEST PUSH0 SWAP1 JUMP JUMPDEST PUSH2 0x139D PUSH2 0x1391 JUMP JUMPDEST PUSH2 0x13A8 DUP2 DUP5 DUP5 PUSH2 0x136C JUMP JUMPDEST POP POP POP JUMP JUMPDEST JUMPDEST DUP2 DUP2 LT ISZERO PUSH2 0x13CB JUMPI PUSH2 0x13C0 PUSH0 DUP3 PUSH2 0x1395 JUMP JUMPDEST PUSH1 0x1 DUP2 ADD SWAP1 POP PUSH2 0x13AE JUMP JUMPDEST POP POP JUMP JUMPDEST PUSH1 0x1F DUP3 GT ISZERO PUSH2 0x1410 JUMPI PUSH2 0x13E1 DUP2 PUSH2 0x12BB JUMP JUMPDEST PUSH2 0x13EA DUP5 PUSH2 0x12CD JUMP JUMPDEST DUP2 ADD PUSH1 0x20 DUP6 LT ISZERO PUSH2 0x13F9 JUMPI DUP2 SWAP1 POP JUMPDEST PUSH2 0x140D PUSH2 0x1405 DUP6 PUSH2 0x12CD JUMP JUMPDEST DUP4 ADD DUP3 PUSH2 0x13AD JUMP JUMPDEST POP POP JUMPDEST POP POP POP JUMP JUMPDEST PUSH0 DUP3 DUP3 SHR SWAP1 POP SWAP3 SWAP2 POP POP JUMP JUMPDEST PUSH0 PUSH2 0x1430 PUSH0 NOT DUP5 PUSH1 0x8 MUL PUSH2 0x1415 JUMP JUMPDEST NOT DUP1 DUP4 AND SWAP2 POP POP SWAP3 SWAP2 POP POP JUMP JUMPDEST PUSH0 PUSH2 0x1448 DUP4 DUP4 PUSH2 0x1421 JUMP JUMPDEST SWAP2 POP DUP3 PUSH1 0x2 MUL DUP3 OR SWAP1 POP SWAP3 SWAP2 POP POP JUMP JUMPDEST PUSH2 0x1461 DUP3 PUSH2 0xB7E JUMP JUMPDEST PUSH8 0xFFFFFFFFFFFFFFFF DUP2 GT ISZERO PUSH2 0x147A JUMPI PUSH2 0x1479 PUSH2 0xD97 JUMP JUMPDEST JUMPDEST PUSH2 0x1484 DUP3 SLOAD PUSH2 0x1174 JUMP JUMPDEST PUSH2 0x148F DUP3 DUP3 DUP6 PUSH2 0x13CF JUMP JUMPDEST PUSH0 PUSH1 0x20 SWAP1 POP PUSH1 0x1F DUP4 GT PUSH1 0x1 DUP2 EQ PUSH2 0x14C0 JUMPI PUSH0 DUP5 ISZERO PUSH2 0x14AE JUMPI DUP3 DUP8 ADD MLOAD SWAP1 POP JUMPDEST PUSH2 0x14B8 DUP6 DUP3 PUSH2 0x143D JUMP JUMPDEST DUP7 SSTORE POP PUSH2 0x151F JUMP JUMPDEST PUSH1 0x1F NOT DUP5 AND PUSH2 0x14CE DUP7 PUSH2 0x12BB JUMP JUMPDEST PUSH0 JUMPDEST DUP3 DUP2 LT ISZERO PUSH2 0x14F5 JUMPI DUP5 DUP10 ADD MLOAD DUP3 SSTORE PUSH1 0x1 DUP3 ADD SWAP2 POP PUSH1 0x20 DUP6 ADD SWAP5 POP PUSH1 0x20 DUP2 ADD SWAP1 POP PUSH2 0x14D0 JUMP JUMPDEST DUP7 DUP4 LT ISZERO PUSH2 0x1512 JUMPI DUP5 DUP10 ADD MLOAD PUSH2 0x150E PUSH1 0x1F DUP10 AND DUP3 PUSH2 0x1421 JUMP JUMPDEST DUP4 SSTORE POP JUMPDEST PUSH1 0x1 PUSH1 0x2 DUP9 MUL ADD DUP9 SSTORE POP POP POP JUMPDEST POP POP POP POP POP POP JUMP JUMPDEST PUSH0 PUSH1 0x80 DUP3 ADD SWAP1 POP PUSH2 0x153A PUSH0 DUP4 ADD DUP8 PUSH2 0x10F5 JUMP JUMPDEST PUSH2 0x1547 PUSH1 0x20 DUP4 ADD DUP7 PUSH2 0x10E6 JUMP JUMPDEST DUP2 DUP2 SUB PUSH1 0x40 DUP4 ADD MSTORE PUSH2 0x1559 DUP2 DUP6 PUSH2 0xF3D JUMP JUMPDEST SWAP1 POP PUSH2 0x1568 PUSH1 0x60 DUP4 ADD DUP5 PUSH2 0x10F5 JUMP JUMPDEST SWAP6 SWAP5 POP POP POP POP POP JUMP INVALID LOG2 PUSH5 0x6970667358 0x22 SLT KECCAK256 0xBC SLT XOR 0xB1 GASLIMIT 0xEB LOG2 SIGNEXTEND SHR 0xDE 0xEC OR SWAP13 BLOCKHASH EXTCODEHASH MSIZE 0xD9 0xB7 0x4E PUSH16 0x8117E5524AAC4401193A982164736F6C PUSH4 0x43000816 STOP CALLER "
				},
				"gasEstimates": {
					"creation": {
						"codeDepositCost": "1108600",
						"executionCost": "49683",
						"totalCost": "1158283"
					},
					"external": {
						"changeTweetLength(uint16)": "26864",
						"createTweet(string)": "infinite",
						"getAllTweets()": "infinite",
						"getTweet(uint256)": "infinite",
						"likeTweet(address,uint256)": "infinite",
						"unlikeTweet(address,uint256)": "infinite"
					}
				},
				"methodIdentifiers": {
					"changeTweetLength(uint16)": "58bfa4ab",
					"createTweet(string)": "7c9cd2bc",
					"getAllTweets()": "53256135",
					"getTweet(uint256)": "c3ad5ecb",
					"likeTweet(address,uint256)": "63378216",
					"unlikeTweet(address,uint256)": "3d9b569f"
				}
			},
			"storageLayout": {
				"storage": [
					{
						"astId": 4,
						"contract": "contracts/Twitter.sol:Twitter",
						"label": "MAX_TWEET_LENGTH",
						"offset": 0,
						"slot": "0",
						"type": "t_uint16"
					},
					{
						"astId": 21,
						"contract": "contracts/Twitter.sol:Twitter",
						"label": "tweets",
						"offset": 0,
						"slot": "1",
						"type": "t_mapping(t_address,t_array(t_struct(Tweet)15_storage)dyn_storage)"
					},
					{
						"astId": 23,
						"contract": "contracts/Twitter.sol:Twitter",
						"label": "owner",
						"offset": 0,
						"slot": "2",
						"type": "t_address"
					}
				],
				"types": {
					"t_address": {
						"encoding": "inplace",
						"label": "address",
						"numberOfBytes": "20"
					},
					"t_array(t_struct(Tweet)15_storage)dyn_storage": {
						"base": "t_struct(Tweet)15_storage",
						"encoding": "dynamic_array",
						"label": "struct Twitter.Tweet[]",
						"numberOfBytes": "32"
					},
					"t_mapping(t_address,t_array(t_struct(Tweet)15_storage)dyn_storage)": {
						"encoding": "mapping",
						"key": "t_address",
						"label": "mapping(address => struct Twitter.Tweet[])",
						"numberOfBytes": "32",
						"value": "t_array(t_struct(Tweet)15_storage)dyn_storage"
					},
					"t_string_storage": {
						"encoding": "bytes",
						"label": "string",
						"numberOfBytes": "32"
					},
					"t_struct(Tweet)15_storage": {
						"encoding": "inplace",
						"label": "struct Twitter.Tweet",
						"members": [
							{
								"astId": 6,
								"contract": "contracts/Twitter.sol:Twitter",
								"label": "id",
								"offset": 0,
								"slot": "0",
								"type": "t_uint256"
							},
							{
								"astId": 8,
								"contract": "contracts/Twitter.sol:Twitter",
								"label": "author",
								"offset": 0,
								"slot": "1",
								"type": "t_address"
							},
							{
								"astId": 10,
								"contract": "contracts/Twitter.sol:Twitter",
								"label": "content",
								"offset": 0,
								"slot": "2",
								"type": "t_string_storage"
							},
							{
								"astId": 12,
								"contract": "contracts/Twitter.sol:Twitter",
								"label": "timestamp",
								"offset": 0,
								"slot": "3",
								"type": "t_uint256"
							},
							{
								"astId": 14,
								"contract": "contracts/Twitter.sol:Twitter",
								"label": "likes",
								"offset": 0,
								"slot": "4",
								"type": "t_uint256"
							}
						],
						"numberOfBytes": "160"
					},
					"t_uint16": {
						"encoding": "inplace",
						"label": "uint16",
						"numberOfBytes": "2"
					},
					"t_uint256": {
						"encoding": "inplace",
						"label": "uint256",
						"numberOfBytes": "32"
					}
				}
			},
			"userdoc": {
				"kind": "user",
				"methods": {},
				"version": 1
			}
		}
	}
}