{
	"contracts/Twitter.sol": {
		"Twitter": {
			"abi": [
				{
					"inputs": [
						{
							"internalType": "string",
							"name": "_tweet",
							"type": "string"
						}
					],
					"name": "createTweet",
					"outputs": [],
					"stateMutability": "nonpayable",
					"type": "function"
				},
				{
					"inputs": [
						{
							"internalType": "address",
							"name": "_owner",
							"type": "address"
						}
					],
					"name": "getAllTweets",
					"outputs": [
						{
							"internalType": "string[]",
							"name": "",
							"type": "string[]"
						}
					],
					"stateMutability": "view",
					"type": "function"
				},
				{
					"inputs": [
						{
							"internalType": "address",
							"name": "_owner",
							"type": "address"
						},
						{
							"internalType": "uint256",
							"name": "_i",
							"type": "uint256"
						}
					],
					"name": "getTweet",
					"outputs": [
						{
							"internalType": "string",
							"name": "",
							"type": "string"
						}
					],
					"stateMutability": "view",
					"type": "function"
				},
				{
					"inputs": [
						{
							"internalType": "address",
							"name": "",
							"type": "address"
						},
						{
							"internalType": "uint256",
							"name": "",
							"type": "uint256"
						}
					],
					"name": "tweets",
					"outputs": [
						{
							"internalType": "string",
							"name": "",
							"type": "string"
						}
					],
					"stateMutability": "view",
					"type": "function"
				}
			],
			"devdoc": {
				"kind": "dev",
				"methods": {},
				"version": 1
			},
			"evm": {
				"assembly": "    /* \"contracts/Twitter.sol\":59:476  contract Twitter {... */\n  mstore(0x40, 0x80)\n  callvalue\n  dup1\n  iszero\n  tag_1\n  jumpi\n  0x00\n  dup1\n  revert\ntag_1:\n  pop\n  dataSize(sub_0)\n  dup1\n  dataOffset(sub_0)\n  0x00\n  codecopy\n  0x00\n  return\nstop\n\nsub_0: assembly {\n        /* \"contracts/Twitter.sol\":59:476  contract Twitter {... */\n      mstore(0x40, 0x80)\n      callvalue\n      dup1\n      iszero\n      tag_1\n      jumpi\n      0x00\n      dup1\n      revert\n    tag_1:\n      pop\n      jumpi(tag_2, lt(calldatasize, 0x04))\n      shr(0xe0, calldataload(0x00))\n      dup1\n      0x05a1b4a9\n      eq\n      tag_3\n      jumpi\n      dup1\n      0x112f54e3\n      eq\n      tag_4\n      jumpi\n      dup1\n      0x12e7ee1c\n      eq\n      tag_5\n      jumpi\n      dup1\n      0x7c9cd2bc\n      eq\n      tag_6\n      jumpi\n    tag_2:\n      0x00\n      dup1\n      revert\n        /* \"contracts/Twitter.sol\":82:124  mapping(address => string[]) public tweets */\n    tag_3:\n      tag_7\n      0x04\n      dup1\n      calldatasize\n      sub\n      dup2\n      add\n      swap1\n      tag_8\n      swap2\n      swap1\n      tag_9\n      jump\t// in\n    tag_8:\n      tag_10\n      jump\t// in\n    tag_7:\n      mload(0x40)\n      tag_11\n      swap2\n      swap1\n      tag_12\n      jump\t// in\n    tag_11:\n      mload(0x40)\n      dup1\n      swap2\n      sub\n      swap1\n      return\n        /* \"contracts/Twitter.sol\":235:355  function getTweet(address _owner, uint _i) public view returns(string memory) {... */\n    tag_4:\n      tag_13\n      0x04\n      dup1\n      calldatasize\n      sub\n      dup2\n      add\n      swap1\n      tag_14\n      swap2\n      swap1\n      tag_9\n      jump\t// in\n    tag_14:\n      tag_15\n      jump\t// in\n    tag_13:\n      mload(0x40)\n      tag_16\n      swap2\n      swap1\n      tag_12\n      jump\t// in\n    tag_16:\n      mload(0x40)\n      dup1\n      swap2\n      sub\n      swap1\n      return\n        /* \"contracts/Twitter.sol\":361:474  function getAllTweets(address _owner) public view returns(string[] memory) {... */\n    tag_5:\n      tag_17\n      0x04\n      dup1\n      calldatasize\n      sub\n      dup2\n      add\n      swap1\n      tag_18\n      swap2\n      swap1\n      tag_19\n      jump\t// in\n    tag_18:\n      tag_20\n      jump\t// in\n    tag_17:\n      mload(0x40)\n      tag_21\n      swap2\n      swap1\n      tag_22\n      jump\t// in\n    tag_21:\n      mload(0x40)\n      dup1\n      swap2\n      sub\n      swap1\n      return\n        /* \"contracts/Twitter.sol\":131:229  function createTweet(string memory _tweet) public {... */\n    tag_6:\n      tag_23\n      0x04\n      dup1\n      calldatasize\n      sub\n      dup2\n      add\n      swap1\n      tag_24\n      swap2\n      swap1\n      tag_25\n      jump\t// in\n    tag_24:\n      tag_26\n      jump\t// in\n    tag_23:\n      stop\n        /* \"contracts/Twitter.sol\":82:124  mapping(address => string[]) public tweets */\n    tag_10:\n      mstore(0x20, 0x00)\n      dup2\n      0x00\n      mstore\n      keccak256(0x00, 0x40)\n      dup2\n      dup2\n      sload\n      dup2\n      lt\n      tag_27\n      jumpi\n      0x00\n      dup1\n      revert\n    tag_27:\n      swap1\n      0x00\n      mstore\n      keccak256(0x00, 0x20)\n      add\n      0x00\n      swap2\n      pop\n      swap2\n      pop\n      pop\n      dup1\n      sload\n      tag_29\n      swap1\n      tag_30\n      jump\t// in\n    tag_29:\n      dup1\n      0x1f\n      add\n      0x20\n      dup1\n      swap2\n      div\n      mul\n      0x20\n      add\n      mload(0x40)\n      swap1\n      dup2\n      add\n      0x40\n      mstore\n      dup1\n      swap3\n      swap2\n      swap1\n      dup2\n      dup2\n      mstore\n      0x20\n      add\n      dup3\n      dup1\n      sload\n      tag_31\n      swap1\n      tag_30\n      jump\t// in\n    tag_31:\n      dup1\n      iszero\n      tag_32\n      jumpi\n      dup1\n      0x1f\n      lt\n      tag_33\n      jumpi\n      0x0100\n      dup1\n      dup4\n      sload\n      div\n      mul\n      dup4\n      mstore\n      swap2\n      0x20\n      add\n      swap2\n      jump(tag_32)\n    tag_33:\n      dup3\n      add\n      swap2\n      swap1\n      0x00\n      mstore\n      keccak256(0x00, 0x20)\n      swap1\n    tag_34:\n      dup2\n      sload\n      dup2\n      mstore\n      swap1\n      0x01\n      add\n      swap1\n      0x20\n      add\n      dup1\n      dup4\n      gt\n      tag_34\n      jumpi\n      dup3\n      swap1\n      sub\n      0x1f\n      and\n      dup3\n      add\n      swap2\n    tag_32:\n      pop\n      pop\n      pop\n      pop\n      pop\n      dup2\n      jump\t// out\n        /* \"contracts/Twitter.sol\":235:355  function getTweet(address _owner, uint _i) public view returns(string memory) {... */\n    tag_15:\n        /* \"contracts/Twitter.sol\":298:311  string memory */\n      0x60\n        /* \"contracts/Twitter.sol\":330:336  tweets */\n      0x00\n        /* \"contracts/Twitter.sol\":330:344  tweets[_owner] */\n      dup1\n        /* \"contracts/Twitter.sol\":337:343  _owner */\n      dup5\n        /* \"contracts/Twitter.sol\":330:344  tweets[_owner] */\n      0xffffffffffffffffffffffffffffffffffffffff\n      and\n      0xffffffffffffffffffffffffffffffffffffffff\n      and\n      dup2\n      mstore\n      0x20\n      add\n      swap1\n      dup2\n      mstore\n      0x20\n      add\n      0x00\n      keccak256\n        /* \"contracts/Twitter.sol\":345:347  _i */\n      dup3\n        /* \"contracts/Twitter.sol\":330:348  tweets[_owner][_i] */\n      dup2\n      sload\n      dup2\n      lt\n      tag_36\n      jumpi\n      tag_37\n      tag_38\n      jump\t// in\n    tag_37:\n    tag_36:\n      swap1\n      0x00\n      mstore\n      keccak256(0x00, 0x20)\n      add\n        /* \"contracts/Twitter.sol\":323:348  return tweets[_owner][_i] */\n      dup1\n      sload\n      tag_40\n      swap1\n      tag_30\n      jump\t// in\n    tag_40:\n      dup1\n      0x1f\n      add\n      0x20\n      dup1\n      swap2\n      div\n      mul\n      0x20\n      add\n      mload(0x40)\n      swap1\n      dup2\n      add\n      0x40\n      mstore\n      dup1\n      swap3\n      swap2\n      swap1\n      dup2\n      dup2\n      mstore\n      0x20\n      add\n      dup3\n      dup1\n      sload\n      tag_41\n      swap1\n      tag_30\n      jump\t// in\n    tag_41:\n      dup1\n      iszero\n      tag_42\n      jumpi\n      dup1\n      0x1f\n      lt\n      tag_43\n      jumpi\n      0x0100\n      dup1\n      dup4\n      sload\n      div\n      mul\n      dup4\n      mstore\n      swap2\n      0x20\n      add\n      swap2\n      jump(tag_42)\n    tag_43:\n      dup3\n      add\n      swap2\n      swap1\n      0x00\n      mstore\n      keccak256(0x00, 0x20)\n      swap1\n    tag_44:\n      dup2\n      sload\n      dup2\n      mstore\n      swap1\n      0x01\n      add\n      swap1\n      0x20\n      add\n      dup1\n      dup4\n      gt\n      tag_44\n      jumpi\n      dup3\n      swap1\n      sub\n      0x1f\n      and\n      dup3\n      add\n      swap2\n    tag_42:\n      pop\n      pop\n      pop\n      pop\n      pop\n      swap1\n      pop\n        /* \"contracts/Twitter.sol\":235:355  function getTweet(address _owner, uint _i) public view returns(string memory) {... */\n      swap3\n      swap2\n      pop\n      pop\n      jump\t// out\n        /* \"contracts/Twitter.sol\":361:474  function getAllTweets(address _owner) public view returns(string[] memory) {... */\n    tag_20:\n        /* \"contracts/Twitter.sol\":419:434  string[] memory */\n      0x60\n        /* \"contracts/Twitter.sol\":453:459  tweets */\n      0x00\n        /* \"contracts/Twitter.sol\":453:467  tweets[_owner] */\n      dup1\n        /* \"contracts/Twitter.sol\":460:466  _owner */\n      dup4\n        /* \"contracts/Twitter.sol\":453:467  tweets[_owner] */\n      0xffffffffffffffffffffffffffffffffffffffff\n      and\n      0xffffffffffffffffffffffffffffffffffffffff\n      and\n      dup2\n      mstore\n      0x20\n      add\n      swap1\n      dup2\n      mstore\n      0x20\n      add\n      0x00\n      keccak256\n        /* \"contracts/Twitter.sol\":446:467  return tweets[_owner] */\n      dup1\n      sload\n      dup1\n      0x20\n      mul\n      0x20\n      add\n      mload(0x40)\n      swap1\n      dup2\n      add\n      0x40\n      mstore\n      dup1\n      swap3\n      swap2\n      swap1\n      dup2\n      dup2\n      mstore\n      0x20\n      add\n      0x00\n      swap1\n    tag_46:\n      dup3\n      dup3\n      lt\n      iszero\n      tag_47\n      jumpi\n      dup4\n      dup3\n      swap1\n      0x00\n      mstore\n      keccak256(0x00, 0x20)\n      add\n      dup1\n      sload\n      tag_49\n      swap1\n      tag_30\n      jump\t// in\n    tag_49:\n      dup1\n      0x1f\n      add\n      0x20\n      dup1\n      swap2\n      div\n      mul\n      0x20\n      add\n      mload(0x40)\n      swap1\n      dup2\n      add\n      0x40\n      mstore\n      dup1\n      swap3\n      swap2\n      swap1\n      dup2\n      dup2\n      mstore\n      0x20\n      add\n      dup3\n      dup1\n      sload\n      tag_50\n      swap1\n      tag_30\n      jump\t// in\n    tag_50:\n      dup1\n      iszero\n      tag_51\n      jumpi\n      dup1\n      0x1f\n      lt\n      tag_52\n      jumpi\n      0x0100\n      dup1\n      dup4\n      sload\n      div\n      mul\n      dup4\n      mstore\n      swap2\n      0x20\n      add\n      swap2\n      jump(tag_51)\n    tag_52:\n      dup3\n      add\n      swap2\n      swap1\n      0x00\n      mstore\n      keccak256(0x00, 0x20)\n      swap1\n    tag_53:\n      dup2\n      sload\n      dup2\n      mstore\n      swap1\n      0x01\n      add\n      swap1\n      0x20\n      add\n      dup1\n      dup4\n      gt\n      tag_53\n      jumpi\n      dup3\n      swap1\n      sub\n      0x1f\n      and\n      dup3\n      add\n      swap2\n    tag_51:\n      pop\n      pop\n      pop\n      pop\n      pop\n      dup2\n      mstore\n      0x20\n      add\n      swap1\n      0x01\n      add\n      swap1\n      jump(tag_46)\n    tag_47:\n      pop\n      pop\n      pop\n      pop\n      swap1\n      pop\n        /* \"contracts/Twitter.sol\":361:474  function getAllTweets(address _owner) public view returns(string[] memory) {... */\n      swap2\n      swap1\n      pop\n      jump\t// out\n        /* \"contracts/Twitter.sol\":131:229  function createTweet(string memory _tweet) public {... */\n    tag_26:\n        /* \"contracts/Twitter.sol\":191:197  tweets */\n      0x00\n        /* \"contracts/Twitter.sol\":191:209  tweets[msg.sender] */\n      dup1\n        /* \"contracts/Twitter.sol\":198:208  msg.sender */\n      caller\n        /* \"contracts/Twitter.sol\":191:209  tweets[msg.sender] */\n      0xffffffffffffffffffffffffffffffffffffffff\n      and\n      0xffffffffffffffffffffffffffffffffffffffff\n      and\n      dup2\n      mstore\n      0x20\n      add\n      swap1\n      dup2\n      mstore\n      0x20\n      add\n      0x00\n      keccak256\n        /* \"contracts/Twitter.sol\":215:221  _tweet */\n      dup2\n        /* \"contracts/Twitter.sol\":191:222  tweets[msg.sender].push(_tweet) */\n      swap1\n      dup1\n      0x01\n      dup2\n      sload\n      add\n      dup1\n      dup3\n      sstore\n      dup1\n      swap2\n      pop\n      pop\n      0x01\n      swap1\n      sub\n      swap1\n      0x00\n      mstore\n      keccak256(0x00, 0x20)\n      add\n      0x00\n      swap1\n      swap2\n      swap1\n      swap2\n      swap1\n      swap2\n      pop\n      swap1\n      dup2\n      tag_56\n      swap2\n      swap1\n      tag_57\n      jump\t// in\n    tag_56:\n      pop\n        /* \"contracts/Twitter.sol\":131:229  function createTweet(string memory _tweet) public {... */\n      pop\n      jump\t// out\n        /* \"#utility.yul\":7:82   */\n    tag_58:\n        /* \"#utility.yul\":40:46   */\n      0x00\n        /* \"#utility.yul\":73:75   */\n      0x40\n        /* \"#utility.yul\":67:76   */\n      mload\n        /* \"#utility.yul\":57:76   */\n      swap1\n      pop\n        /* \"#utility.yul\":7:82   */\n      swap1\n      jump\t// out\n        /* \"#utility.yul\":88:205   */\n    tag_59:\n        /* \"#utility.yul\":197:198   */\n      0x00\n        /* \"#utility.yul\":194:195   */\n      dup1\n        /* \"#utility.yul\":187:199   */\n      revert\n        /* \"#utility.yul\":211:328   */\n    tag_60:\n        /* \"#utility.yul\":320:321   */\n      0x00\n        /* \"#utility.yul\":317:318   */\n      dup1\n        /* \"#utility.yul\":310:322   */\n      revert\n        /* \"#utility.yul\":334:460   */\n    tag_61:\n        /* \"#utility.yul\":371:378   */\n      0x00\n        /* \"#utility.yul\":411:453   */\n      0xffffffffffffffffffffffffffffffffffffffff\n        /* \"#utility.yul\":404:409   */\n      dup3\n        /* \"#utility.yul\":400:454   */\n      and\n        /* \"#utility.yul\":389:454   */\n      swap1\n      pop\n        /* \"#utility.yul\":334:460   */\n      swap2\n      swap1\n      pop\n      jump\t// out\n        /* \"#utility.yul\":466:562   */\n    tag_62:\n        /* \"#utility.yul\":503:510   */\n      0x00\n        /* \"#utility.yul\":532:556   */\n      tag_112\n        /* \"#utility.yul\":550:555   */\n      dup3\n        /* \"#utility.yul\":532:556   */\n      tag_61\n      jump\t// in\n    tag_112:\n        /* \"#utility.yul\":521:556   */\n      swap1\n      pop\n        /* \"#utility.yul\":466:562   */\n      swap2\n      swap1\n      pop\n      jump\t// out\n        /* \"#utility.yul\":568:690   */\n    tag_63:\n        /* \"#utility.yul\":641:665   */\n      tag_114\n        /* \"#utility.yul\":659:664   */\n      dup2\n        /* \"#utility.yul\":641:665   */\n      tag_62\n      jump\t// in\n    tag_114:\n        /* \"#utility.yul\":634:639   */\n      dup2\n        /* \"#utility.yul\":631:666   */\n      eq\n        /* \"#utility.yul\":621:684   */\n      tag_115\n      jumpi\n        /* \"#utility.yul\":680:681   */\n      0x00\n        /* \"#utility.yul\":677:678   */\n      dup1\n        /* \"#utility.yul\":670:682   */\n      revert\n        /* \"#utility.yul\":621:684   */\n    tag_115:\n        /* \"#utility.yul\":568:690   */\n      pop\n      jump\t// out\n        /* \"#utility.yul\":696:835   */\n    tag_64:\n        /* \"#utility.yul\":742:747   */\n      0x00\n        /* \"#utility.yul\":780:786   */\n      dup2\n        /* \"#utility.yul\":767:787   */\n      calldataload\n        /* \"#utility.yul\":758:787   */\n      swap1\n      pop\n        /* \"#utility.yul\":796:829   */\n      tag_117\n        /* \"#utility.yul\":823:828   */\n      dup2\n        /* \"#utility.yul\":796:829   */\n      tag_63\n      jump\t// in\n    tag_117:\n        /* \"#utility.yul\":696:835   */\n      swap3\n      swap2\n      pop\n      pop\n      jump\t// out\n        /* \"#utility.yul\":841:918   */\n    tag_65:\n        /* \"#utility.yul\":878:885   */\n      0x00\n        /* \"#utility.yul\":907:912   */\n      dup2\n        /* \"#utility.yul\":896:912   */\n      swap1\n      pop\n        /* \"#utility.yul\":841:918   */\n      swap2\n      swap1\n      pop\n      jump\t// out\n        /* \"#utility.yul\":924:1046   */\n    tag_66:\n        /* \"#utility.yul\":997:1021   */\n      tag_120\n        /* \"#utility.yul\":1015:1020   */\n      dup2\n        /* \"#utility.yul\":997:1021   */\n      tag_65\n      jump\t// in\n    tag_120:\n        /* \"#utility.yul\":990:995   */\n      dup2\n        /* \"#utility.yul\":987:1022   */\n      eq\n        /* \"#utility.yul\":977:1040   */\n      tag_121\n      jumpi\n        /* \"#utility.yul\":1036:1037   */\n      0x00\n        /* \"#utility.yul\":1033:1034   */\n      dup1\n        /* \"#utility.yul\":1026:1038   */\n      revert\n        /* \"#utility.yul\":977:1040   */\n    tag_121:\n        /* \"#utility.yul\":924:1046   */\n      pop\n      jump\t// out\n        /* \"#utility.yul\":1052:1191   */\n    tag_67:\n        /* \"#utility.yul\":1098:1103   */\n      0x00\n        /* \"#utility.yul\":1136:1142   */\n      dup2\n        /* \"#utility.yul\":1123:1143   */\n      calldataload\n        /* \"#utility.yul\":1114:1143   */\n      swap1\n      pop\n        /* \"#utility.yul\":1152:1185   */\n      tag_123\n        /* \"#utility.yul\":1179:1184   */\n      dup2\n        /* \"#utility.yul\":1152:1185   */\n      tag_66\n      jump\t// in\n    tag_123:\n        /* \"#utility.yul\":1052:1191   */\n      swap3\n      swap2\n      pop\n      pop\n      jump\t// out\n        /* \"#utility.yul\":1197:1671   */\n    tag_9:\n        /* \"#utility.yul\":1265:1271   */\n      0x00\n        /* \"#utility.yul\":1273:1279   */\n      dup1\n        /* \"#utility.yul\":1322:1324   */\n      0x40\n        /* \"#utility.yul\":1310:1319   */\n      dup4\n        /* \"#utility.yul\":1301:1308   */\n      dup6\n        /* \"#utility.yul\":1297:1320   */\n      sub\n        /* \"#utility.yul\":1293:1325   */\n      slt\n        /* \"#utility.yul\":1290:1409   */\n      iszero\n      tag_125\n      jumpi\n        /* \"#utility.yul\":1328:1407   */\n      tag_126\n      tag_59\n      jump\t// in\n    tag_126:\n        /* \"#utility.yul\":1290:1409   */\n    tag_125:\n        /* \"#utility.yul\":1448:1449   */\n      0x00\n        /* \"#utility.yul\":1473:1526   */\n      tag_127\n        /* \"#utility.yul\":1518:1525   */\n      dup6\n        /* \"#utility.yul\":1509:1515   */\n      dup3\n        /* \"#utility.yul\":1498:1507   */\n      dup7\n        /* \"#utility.yul\":1494:1516   */\n      add\n        /* \"#utility.yul\":1473:1526   */\n      tag_64\n      jump\t// in\n    tag_127:\n        /* \"#utility.yul\":1463:1526   */\n      swap3\n      pop\n        /* \"#utility.yul\":1419:1536   */\n      pop\n        /* \"#utility.yul\":1575:1577   */\n      0x20\n        /* \"#utility.yul\":1601:1654   */\n      tag_128\n        /* \"#utility.yul\":1646:1653   */\n      dup6\n        /* \"#utility.yul\":1637:1643   */\n      dup3\n        /* \"#utility.yul\":1626:1635   */\n      dup7\n        /* \"#utility.yul\":1622:1644   */\n      add\n        /* \"#utility.yul\":1601:1654   */\n      tag_67\n      jump\t// in\n    tag_128:\n        /* \"#utility.yul\":1591:1654   */\n      swap2\n      pop\n        /* \"#utility.yul\":1546:1664   */\n      pop\n        /* \"#utility.yul\":1197:1671   */\n      swap3\n      pop\n      swap3\n      swap1\n      pop\n      jump\t// out\n        /* \"#utility.yul\":1677:1776   */\n    tag_68:\n        /* \"#utility.yul\":1729:1735   */\n      0x00\n        /* \"#utility.yul\":1763:1768   */\n      dup2\n        /* \"#utility.yul\":1757:1769   */\n      mload\n        /* \"#utility.yul\":1747:1769   */\n      swap1\n      pop\n        /* \"#utility.yul\":1677:1776   */\n      swap2\n      swap1\n      pop\n      jump\t// out\n        /* \"#utility.yul\":1782:1951   */\n    tag_69:\n        /* \"#utility.yul\":1866:1877   */\n      0x00\n        /* \"#utility.yul\":1900:1906   */\n      dup3\n        /* \"#utility.yul\":1895:1898   */\n      dup3\n        /* \"#utility.yul\":1888:1907   */\n      mstore\n        /* \"#utility.yul\":1940:1944   */\n      0x20\n        /* \"#utility.yul\":1935:1938   */\n      dup3\n        /* \"#utility.yul\":1931:1945   */\n      add\n        /* \"#utility.yul\":1916:1945   */\n      swap1\n      pop\n        /* \"#utility.yul\":1782:1951   */\n      swap3\n      swap2\n      pop\n      pop\n      jump\t// out\n        /* \"#utility.yul\":1957:2203   */\n    tag_70:\n        /* \"#utility.yul\":2038:2039   */\n      0x00\n        /* \"#utility.yul\":2048:2161   */\n    tag_132:\n        /* \"#utility.yul\":2062:2068   */\n      dup4\n        /* \"#utility.yul\":2059:2060   */\n      dup2\n        /* \"#utility.yul\":2056:2069   */\n      lt\n        /* \"#utility.yul\":2048:2161   */\n      iszero\n      tag_134\n      jumpi\n        /* \"#utility.yul\":2147:2148   */\n      dup1\n        /* \"#utility.yul\":2142:2145   */\n      dup3\n        /* \"#utility.yul\":2138:2149   */\n      add\n        /* \"#utility.yul\":2132:2150   */\n      mload\n        /* \"#utility.yul\":2128:2129   */\n      dup2\n        /* \"#utility.yul\":2123:2126   */\n      dup5\n        /* \"#utility.yul\":2119:2130   */\n      add\n        /* \"#utility.yul\":2112:2151   */\n      mstore\n        /* \"#utility.yul\":2084:2086   */\n      0x20\n        /* \"#utility.yul\":2081:2082   */\n      dup2\n        /* \"#utility.yul\":2077:2087   */\n      add\n        /* \"#utility.yul\":2072:2087   */\n      swap1\n      pop\n        /* \"#utility.yul\":2048:2161   */\n      jump(tag_132)\n    tag_134:\n        /* \"#utility.yul\":2195:2196   */\n      0x00\n        /* \"#utility.yul\":2186:2192   */\n      dup5\n        /* \"#utility.yul\":2181:2184   */\n      dup5\n        /* \"#utility.yul\":2177:2193   */\n      add\n        /* \"#utility.yul\":2170:2197   */\n      mstore\n        /* \"#utility.yul\":2019:2203   */\n      pop\n        /* \"#utility.yul\":1957:2203   */\n      pop\n      pop\n      pop\n      jump\t// out\n        /* \"#utility.yul\":2209:2311   */\n    tag_71:\n        /* \"#utility.yul\":2250:2256   */\n      0x00\n        /* \"#utility.yul\":2301:2303   */\n      0x1f\n        /* \"#utility.yul\":2297:2304   */\n      not\n        /* \"#utility.yul\":2292:2294   */\n      0x1f\n        /* \"#utility.yul\":2285:2290   */\n      dup4\n        /* \"#utility.yul\":2281:2295   */\n      add\n        /* \"#utility.yul\":2277:2305   */\n      and\n        /* \"#utility.yul\":2267:2305   */\n      swap1\n      pop\n        /* \"#utility.yul\":2209:2311   */\n      swap2\n      swap1\n      pop\n      jump\t// out\n        /* \"#utility.yul\":2317:2694   */\n    tag_72:\n        /* \"#utility.yul\":2405:2408   */\n      0x00\n        /* \"#utility.yul\":2433:2472   */\n      tag_137\n        /* \"#utility.yul\":2466:2471   */\n      dup3\n        /* \"#utility.yul\":2433:2472   */\n      tag_68\n      jump\t// in\n    tag_137:\n        /* \"#utility.yul\":2488:2559   */\n      tag_138\n        /* \"#utility.yul\":2552:2558   */\n      dup2\n        /* \"#utility.yul\":2547:2550   */\n      dup6\n        /* \"#utility.yul\":2488:2559   */\n      tag_69\n      jump\t// in\n    tag_138:\n        /* \"#utility.yul\":2481:2559   */\n      swap4\n      pop\n        /* \"#utility.yul\":2568:2633   */\n      tag_139\n        /* \"#utility.yul\":2626:2632   */\n      dup2\n        /* \"#utility.yul\":2621:2624   */\n      dup6\n        /* \"#utility.yul\":2614:2618   */\n      0x20\n        /* \"#utility.yul\":2607:2612   */\n      dup7\n        /* \"#utility.yul\":2603:2619   */\n      add\n        /* \"#utility.yul\":2568:2633   */\n      tag_70\n      jump\t// in\n    tag_139:\n        /* \"#utility.yul\":2658:2687   */\n      tag_140\n        /* \"#utility.yul\":2680:2686   */\n      dup2\n        /* \"#utility.yul\":2658:2687   */\n      tag_71\n      jump\t// in\n    tag_140:\n        /* \"#utility.yul\":2653:2656   */\n      dup5\n        /* \"#utility.yul\":2649:2688   */\n      add\n        /* \"#utility.yul\":2642:2688   */\n      swap2\n      pop\n        /* \"#utility.yul\":2409:2694   */\n      pop\n        /* \"#utility.yul\":2317:2694   */\n      swap3\n      swap2\n      pop\n      pop\n      jump\t// out\n        /* \"#utility.yul\":2700:3013   */\n    tag_12:\n        /* \"#utility.yul\":2813:2817   */\n      0x00\n        /* \"#utility.yul\":2851:2853   */\n      0x20\n        /* \"#utility.yul\":2840:2849   */\n      dup3\n        /* \"#utility.yul\":2836:2854   */\n      add\n        /* \"#utility.yul\":2828:2854   */\n      swap1\n      pop\n        /* \"#utility.yul\":2900:2909   */\n      dup2\n        /* \"#utility.yul\":2894:2898   */\n      dup2\n        /* \"#utility.yul\":2890:2910   */\n      sub\n        /* \"#utility.yul\":2886:2887   */\n      0x00\n        /* \"#utility.yul\":2875:2884   */\n      dup4\n        /* \"#utility.yul\":2871:2888   */\n      add\n        /* \"#utility.yul\":2864:2911   */\n      mstore\n        /* \"#utility.yul\":2928:3006   */\n      tag_142\n        /* \"#utility.yul\":3001:3005   */\n      dup2\n        /* \"#utility.yul\":2992:2998   */\n      dup5\n        /* \"#utility.yul\":2928:3006   */\n      tag_72\n      jump\t// in\n    tag_142:\n        /* \"#utility.yul\":2920:3006   */\n      swap1\n      pop\n        /* \"#utility.yul\":2700:3013   */\n      swap3\n      swap2\n      pop\n      pop\n      jump\t// out\n        /* \"#utility.yul\":3019:3348   */\n    tag_19:\n        /* \"#utility.yul\":3078:3084   */\n      0x00\n        /* \"#utility.yul\":3127:3129   */\n      0x20\n        /* \"#utility.yul\":3115:3124   */\n      dup3\n        /* \"#utility.yul\":3106:3113   */\n      dup5\n        /* \"#utility.yul\":3102:3125   */\n      sub\n        /* \"#utility.yul\":3098:3130   */\n      slt\n        /* \"#utility.yul\":3095:3214   */\n      iszero\n      tag_144\n      jumpi\n        /* \"#utility.yul\":3133:3212   */\n      tag_145\n      tag_59\n      jump\t// in\n    tag_145:\n        /* \"#utility.yul\":3095:3214   */\n    tag_144:\n        /* \"#utility.yul\":3253:3254   */\n      0x00\n        /* \"#utility.yul\":3278:3331   */\n      tag_146\n        /* \"#utility.yul\":3323:3330   */\n      dup5\n        /* \"#utility.yul\":3314:3320   */\n      dup3\n        /* \"#utility.yul\":3303:3312   */\n      dup6\n        /* \"#utility.yul\":3299:3321   */\n      add\n        /* \"#utility.yul\":3278:3331   */\n      tag_64\n      jump\t// in\n    tag_146:\n        /* \"#utility.yul\":3268:3331   */\n      swap2\n      pop\n        /* \"#utility.yul\":3224:3341   */\n      pop\n        /* \"#utility.yul\":3019:3348   */\n      swap3\n      swap2\n      pop\n      pop\n      jump\t// out\n        /* \"#utility.yul\":3354:3478   */\n    tag_73:\n        /* \"#utility.yul\":3431:3437   */\n      0x00\n        /* \"#utility.yul\":3465:3470   */\n      dup2\n        /* \"#utility.yul\":3459:3471   */\n      mload\n        /* \"#utility.yul\":3449:3471   */\n      swap1\n      pop\n        /* \"#utility.yul\":3354:3478   */\n      swap2\n      swap1\n      pop\n      jump\t// out\n        /* \"#utility.yul\":3484:3678   */\n    tag_74:\n        /* \"#utility.yul\":3593:3604   */\n      0x00\n        /* \"#utility.yul\":3627:3633   */\n      dup3\n        /* \"#utility.yul\":3622:3625   */\n      dup3\n        /* \"#utility.yul\":3615:3634   */\n      mstore\n        /* \"#utility.yul\":3667:3671   */\n      0x20\n        /* \"#utility.yul\":3662:3665   */\n      dup3\n        /* \"#utility.yul\":3658:3672   */\n      add\n        /* \"#utility.yul\":3643:3672   */\n      swap1\n      pop\n        /* \"#utility.yul\":3484:3678   */\n      swap3\n      swap2\n      pop\n      pop\n      jump\t// out\n        /* \"#utility.yul\":3684:3826   */\n    tag_75:\n        /* \"#utility.yul\":3761:3765   */\n      0x00\n        /* \"#utility.yul\":3784:3787   */\n      dup2\n        /* \"#utility.yul\":3776:3787   */\n      swap1\n      pop\n        /* \"#utility.yul\":3814:3818   */\n      0x20\n        /* \"#utility.yul\":3809:3812   */\n      dup3\n        /* \"#utility.yul\":3805:3819   */\n      add\n        /* \"#utility.yul\":3797:3819   */\n      swap1\n      pop\n        /* \"#utility.yul\":3684:3826   */\n      swap2\n      swap1\n      pop\n      jump\t// out\n        /* \"#utility.yul\":3832:3991   */\n    tag_76:\n        /* \"#utility.yul\":3906:3917   */\n      0x00\n        /* \"#utility.yul\":3940:3946   */\n      dup3\n        /* \"#utility.yul\":3935:3938   */\n      dup3\n        /* \"#utility.yul\":3928:3947   */\n      mstore\n        /* \"#utility.yul\":3980:3984   */\n      0x20\n        /* \"#utility.yul\":3975:3978   */\n      dup3\n        /* \"#utility.yul\":3971:3985   */\n      add\n        /* \"#utility.yul\":3956:3985   */\n      swap1\n      pop\n        /* \"#utility.yul\":3832:3991   */\n      swap3\n      swap2\n      pop\n      pop\n      jump\t// out\n        /* \"#utility.yul\":3997:4354   */\n    tag_77:\n        /* \"#utility.yul\":4075:4078   */\n      0x00\n        /* \"#utility.yul\":4103:4142   */\n      tag_152\n        /* \"#utility.yul\":4136:4141   */\n      dup3\n        /* \"#utility.yul\":4103:4142   */\n      tag_68\n      jump\t// in\n    tag_152:\n        /* \"#utility.yul\":4158:4219   */\n      tag_153\n        /* \"#utility.yul\":4212:4218   */\n      dup2\n        /* \"#utility.yul\":4207:4210   */\n      dup6\n        /* \"#utility.yul\":4158:4219   */\n      tag_76\n      jump\t// in\n    tag_153:\n        /* \"#utility.yul\":4151:4219   */\n      swap4\n      pop\n        /* \"#utility.yul\":4228:4293   */\n      tag_154\n        /* \"#utility.yul\":4286:4292   */\n      dup2\n        /* \"#utility.yul\":4281:4284   */\n      dup6\n        /* \"#utility.yul\":4274:4278   */\n      0x20\n        /* \"#utility.yul\":4267:4272   */\n      dup7\n        /* \"#utility.yul\":4263:4279   */\n      add\n        /* \"#utility.yul\":4228:4293   */\n      tag_70\n      jump\t// in\n    tag_154:\n        /* \"#utility.yul\":4318:4347   */\n      tag_155\n        /* \"#utility.yul\":4340:4346   */\n      dup2\n        /* \"#utility.yul\":4318:4347   */\n      tag_71\n      jump\t// in\n    tag_155:\n        /* \"#utility.yul\":4313:4316   */\n      dup5\n        /* \"#utility.yul\":4309:4348   */\n      add\n        /* \"#utility.yul\":4302:4348   */\n      swap2\n      pop\n        /* \"#utility.yul\":4079:4354   */\n      pop\n        /* \"#utility.yul\":3997:4354   */\n      swap3\n      swap2\n      pop\n      pop\n      jump\t// out\n        /* \"#utility.yul\":4360:4556   */\n    tag_78:\n        /* \"#utility.yul\":4449:4459   */\n      0x00\n        /* \"#utility.yul\":4484:4550   */\n      tag_157\n        /* \"#utility.yul\":4546:4549   */\n      dup4\n        /* \"#utility.yul\":4538:4544   */\n      dup4\n        /* \"#utility.yul\":4484:4550   */\n      tag_77\n      jump\t// in\n    tag_157:\n        /* \"#utility.yul\":4470:4550   */\n      swap1\n      pop\n        /* \"#utility.yul\":4360:4556   */\n      swap3\n      swap2\n      pop\n      pop\n      jump\t// out\n        /* \"#utility.yul\":4562:4685   */\n    tag_79:\n        /* \"#utility.yul\":4642:4646   */\n      0x00\n        /* \"#utility.yul\":4674:4678   */\n      0x20\n        /* \"#utility.yul\":4669:4672   */\n      dup3\n        /* \"#utility.yul\":4665:4679   */\n      add\n        /* \"#utility.yul\":4657:4679   */\n      swap1\n      pop\n        /* \"#utility.yul\":4562:4685   */\n      swap2\n      swap1\n      pop\n      jump\t// out\n        /* \"#utility.yul\":4719:5710   */\n    tag_80:\n        /* \"#utility.yul\":4858:4861   */\n      0x00\n        /* \"#utility.yul\":4887:4951   */\n      tag_160\n        /* \"#utility.yul\":4945:4950   */\n      dup3\n        /* \"#utility.yul\":4887:4951   */\n      tag_73\n      jump\t// in\n    tag_160:\n        /* \"#utility.yul\":4967:5063   */\n      tag_161\n        /* \"#utility.yul\":5056:5062   */\n      dup2\n        /* \"#utility.yul\":5051:5054   */\n      dup6\n        /* \"#utility.yul\":4967:5063   */\n      tag_74\n      jump\t// in\n    tag_161:\n        /* \"#utility.yul\":4960:5063   */\n      swap4\n      pop\n        /* \"#utility.yul\":5089:5092   */\n      dup4\n        /* \"#utility.yul\":5134:5138   */\n      0x20\n        /* \"#utility.yul\":5126:5132   */\n      dup3\n        /* \"#utility.yul\":5122:5139   */\n      mul\n        /* \"#utility.yul\":5117:5120   */\n      dup6\n        /* \"#utility.yul\":5113:5140   */\n      add\n        /* \"#utility.yul\":5164:5230   */\n      tag_162\n        /* \"#utility.yul\":5224:5229   */\n      dup6\n        /* \"#utility.yul\":5164:5230   */\n      tag_75\n      jump\t// in\n    tag_162:\n        /* \"#utility.yul\":5253:5260   */\n      dup1\n        /* \"#utility.yul\":5284:5285   */\n      0x00\n        /* \"#utility.yul\":5269:5665   */\n    tag_163:\n        /* \"#utility.yul\":5294:5300   */\n      dup6\n        /* \"#utility.yul\":5291:5292   */\n      dup2\n        /* \"#utility.yul\":5288:5301   */\n      lt\n        /* \"#utility.yul\":5269:5665   */\n      iszero\n      tag_165\n      jumpi\n        /* \"#utility.yul\":5365:5374   */\n      dup5\n        /* \"#utility.yul\":5359:5363   */\n      dup5\n        /* \"#utility.yul\":5355:5375   */\n      sub\n        /* \"#utility.yul\":5350:5353   */\n      dup10\n        /* \"#utility.yul\":5343:5376   */\n      mstore\n        /* \"#utility.yul\":5416:5422   */\n      dup2\n        /* \"#utility.yul\":5410:5423   */\n      mload\n        /* \"#utility.yul\":5444:5528   */\n      tag_166\n        /* \"#utility.yul\":5523:5527   */\n      dup6\n        /* \"#utility.yul\":5508:5521   */\n      dup3\n        /* \"#utility.yul\":5444:5528   */\n      tag_78\n      jump\t// in\n    tag_166:\n        /* \"#utility.yul\":5436:5528   */\n      swap5\n      pop\n        /* \"#utility.yul\":5551:5621   */\n      tag_167\n        /* \"#utility.yul\":5614:5620   */\n      dup4\n        /* \"#utility.yul\":5551:5621   */\n      tag_79\n      jump\t// in\n    tag_167:\n        /* \"#utility.yul\":5541:5621   */\n      swap3\n      pop\n        /* \"#utility.yul\":5650:5654   */\n      0x20\n        /* \"#utility.yul\":5645:5648   */\n      dup11\n        /* \"#utility.yul\":5641:5655   */\n      add\n        /* \"#utility.yul\":5634:5655   */\n      swap10\n      pop\n        /* \"#utility.yul\":5329:5665   */\n      pop\n        /* \"#utility.yul\":5316:5317   */\n      0x01\n        /* \"#utility.yul\":5313:5314   */\n      dup2\n        /* \"#utility.yul\":5309:5318   */\n      add\n        /* \"#utility.yul\":5304:5318   */\n      swap1\n      pop\n        /* \"#utility.yul\":5269:5665   */\n      jump(tag_163)\n    tag_165:\n        /* \"#utility.yul\":5273:5287   */\n      pop\n        /* \"#utility.yul\":5681:5685   */\n      dup3\n        /* \"#utility.yul\":5674:5685   */\n      swap8\n      pop\n        /* \"#utility.yul\":5701:5704   */\n      dup8\n        /* \"#utility.yul\":5694:5704   */\n      swap6\n      pop\n        /* \"#utility.yul\":4863:5710   */\n      pop\n      pop\n      pop\n      pop\n      pop\n        /* \"#utility.yul\":4719:5710   */\n      swap3\n      swap2\n      pop\n      pop\n      jump\t// out\n        /* \"#utility.yul\":5716:6129   */\n    tag_22:\n        /* \"#utility.yul\":5879:5883   */\n      0x00\n        /* \"#utility.yul\":5917:5919   */\n      0x20\n        /* \"#utility.yul\":5906:5915   */\n      dup3\n        /* \"#utility.yul\":5902:5920   */\n      add\n        /* \"#utility.yul\":5894:5920   */\n      swap1\n      pop\n        /* \"#utility.yul\":5966:5975   */\n      dup2\n        /* \"#utility.yul\":5960:5964   */\n      dup2\n        /* \"#utility.yul\":5956:5976   */\n      sub\n        /* \"#utility.yul\":5952:5953   */\n      0x00\n        /* \"#utility.yul\":5941:5950   */\n      dup4\n        /* \"#utility.yul\":5937:5954   */\n      add\n        /* \"#utility.yul\":5930:5977   */\n      mstore\n        /* \"#utility.yul\":5994:6122   */\n      tag_169\n        /* \"#utility.yul\":6117:6121   */\n      dup2\n        /* \"#utility.yul\":6108:6114   */\n      dup5\n        /* \"#utility.yul\":5994:6122   */\n      tag_80\n      jump\t// in\n    tag_169:\n        /* \"#utility.yul\":5986:6122   */\n      swap1\n      pop\n        /* \"#utility.yul\":5716:6129   */\n      swap3\n      swap2\n      pop\n      pop\n      jump\t// out\n        /* \"#utility.yul\":6135:6252   */\n    tag_81:\n        /* \"#utility.yul\":6244:6245   */\n      0x00\n        /* \"#utility.yul\":6241:6242   */\n      dup1\n        /* \"#utility.yul\":6234:6246   */\n      revert\n        /* \"#utility.yul\":6258:6375   */\n    tag_82:\n        /* \"#utility.yul\":6367:6368   */\n      0x00\n        /* \"#utility.yul\":6364:6365   */\n      dup1\n        /* \"#utility.yul\":6357:6369   */\n      revert\n        /* \"#utility.yul\":6381:6561   */\n    tag_83:\n        /* \"#utility.yul\":6429:6506   */\n      0x4e487b7100000000000000000000000000000000000000000000000000000000\n        /* \"#utility.yul\":6426:6427   */\n      0x00\n        /* \"#utility.yul\":6419:6507   */\n      mstore\n        /* \"#utility.yul\":6526:6530   */\n      0x41\n        /* \"#utility.yul\":6523:6524   */\n      0x04\n        /* \"#utility.yul\":6516:6531   */\n      mstore\n        /* \"#utility.yul\":6550:6554   */\n      0x24\n        /* \"#utility.yul\":6547:6548   */\n      0x00\n        /* \"#utility.yul\":6540:6555   */\n      revert\n        /* \"#utility.yul\":6567:6848   */\n    tag_84:\n        /* \"#utility.yul\":6650:6677   */\n      tag_174\n        /* \"#utility.yul\":6672:6676   */\n      dup3\n        /* \"#utility.yul\":6650:6677   */\n      tag_71\n      jump\t// in\n    tag_174:\n        /* \"#utility.yul\":6642:6648   */\n      dup2\n        /* \"#utility.yul\":6638:6678   */\n      add\n        /* \"#utility.yul\":6780:6786   */\n      dup2\n        /* \"#utility.yul\":6768:6778   */\n      dup2\n        /* \"#utility.yul\":6765:6787   */\n      lt\n        /* \"#utility.yul\":6744:6762   */\n      0xffffffffffffffff\n        /* \"#utility.yul\":6732:6742   */\n      dup3\n        /* \"#utility.yul\":6729:6763   */\n      gt\n        /* \"#utility.yul\":6726:6788   */\n      or\n        /* \"#utility.yul\":6723:6811   */\n      iszero\n      tag_175\n      jumpi\n        /* \"#utility.yul\":6791:6809   */\n      tag_176\n      tag_83\n      jump\t// in\n    tag_176:\n        /* \"#utility.yul\":6723:6811   */\n    tag_175:\n        /* \"#utility.yul\":6831:6841   */\n      dup1\n        /* \"#utility.yul\":6827:6829   */\n      0x40\n        /* \"#utility.yul\":6820:6842   */\n      mstore\n        /* \"#utility.yul\":6610:6848   */\n      pop\n        /* \"#utility.yul\":6567:6848   */\n      pop\n      pop\n      jump\t// out\n        /* \"#utility.yul\":6854:6983   */\n    tag_85:\n        /* \"#utility.yul\":6888:6894   */\n      0x00\n        /* \"#utility.yul\":6915:6935   */\n      tag_178\n      tag_58\n      jump\t// in\n    tag_178:\n        /* \"#utility.yul\":6905:6935   */\n      swap1\n      pop\n        /* \"#utility.yul\":6944:6977   */\n      tag_179\n        /* \"#utility.yul\":6972:6976   */\n      dup3\n        /* \"#utility.yul\":6964:6970   */\n      dup3\n        /* \"#utility.yul\":6944:6977   */\n      tag_84\n      jump\t// in\n    tag_179:\n        /* \"#utility.yul\":6854:6983   */\n      swap2\n      swap1\n      pop\n      jump\t// out\n        /* \"#utility.yul\":6989:7297   */\n    tag_86:\n        /* \"#utility.yul\":7051:7055   */\n      0x00\n        /* \"#utility.yul\":7141:7159   */\n      0xffffffffffffffff\n        /* \"#utility.yul\":7133:7139   */\n      dup3\n        /* \"#utility.yul\":7130:7160   */\n      gt\n        /* \"#utility.yul\":7127:7183   */\n      iszero\n      tag_181\n      jumpi\n        /* \"#utility.yul\":7163:7181   */\n      tag_182\n      tag_83\n      jump\t// in\n    tag_182:\n        /* \"#utility.yul\":7127:7183   */\n    tag_181:\n        /* \"#utility.yul\":7201:7230   */\n      tag_183\n        /* \"#utility.yul\":7223:7229   */\n      dup3\n        /* \"#utility.yul\":7201:7230   */\n      tag_71\n      jump\t// in\n    tag_183:\n        /* \"#utility.yul\":7193:7230   */\n      swap1\n      pop\n        /* \"#utility.yul\":7285:7289   */\n      0x20\n        /* \"#utility.yul\":7279:7283   */\n      dup2\n        /* \"#utility.yul\":7275:7290   */\n      add\n        /* \"#utility.yul\":7267:7290   */\n      swap1\n      pop\n        /* \"#utility.yul\":6989:7297   */\n      swap2\n      swap1\n      pop\n      jump\t// out\n        /* \"#utility.yul\":7303:7449   */\n    tag_87:\n        /* \"#utility.yul\":7400:7406   */\n      dup3\n        /* \"#utility.yul\":7395:7398   */\n      dup2\n        /* \"#utility.yul\":7390:7393   */\n      dup4\n        /* \"#utility.yul\":7377:7407   */\n      calldatacopy\n        /* \"#utility.yul\":7441:7442   */\n      0x00\n        /* \"#utility.yul\":7432:7438   */\n      dup4\n        /* \"#utility.yul\":7427:7430   */\n      dup4\n        /* \"#utility.yul\":7423:7439   */\n      add\n        /* \"#utility.yul\":7416:7443   */\n      mstore\n        /* \"#utility.yul\":7303:7449   */\n      pop\n      pop\n      pop\n      jump\t// out\n        /* \"#utility.yul\":7455:7880   */\n    tag_88:\n        /* \"#utility.yul\":7533:7538   */\n      0x00\n        /* \"#utility.yul\":7558:7624   */\n      tag_186\n        /* \"#utility.yul\":7574:7623   */\n      tag_187\n        /* \"#utility.yul\":7616:7622   */\n      dup5\n        /* \"#utility.yul\":7574:7623   */\n      tag_86\n      jump\t// in\n    tag_187:\n        /* \"#utility.yul\":7558:7624   */\n      tag_85\n      jump\t// in\n    tag_186:\n        /* \"#utility.yul\":7549:7624   */\n      swap1\n      pop\n        /* \"#utility.yul\":7647:7653   */\n      dup3\n        /* \"#utility.yul\":7640:7645   */\n      dup2\n        /* \"#utility.yul\":7633:7654   */\n      mstore\n        /* \"#utility.yul\":7685:7689   */\n      0x20\n        /* \"#utility.yul\":7678:7683   */\n      dup2\n        /* \"#utility.yul\":7674:7690   */\n      add\n        /* \"#utility.yul\":7723:7726   */\n      dup5\n        /* \"#utility.yul\":7714:7720   */\n      dup5\n        /* \"#utility.yul\":7709:7712   */\n      dup5\n        /* \"#utility.yul\":7705:7721   */\n      add\n        /* \"#utility.yul\":7702:7727   */\n      gt\n        /* \"#utility.yul\":7699:7811   */\n      iszero\n      tag_188\n      jumpi\n        /* \"#utility.yul\":7730:7809   */\n      tag_189\n      tag_82\n      jump\t// in\n    tag_189:\n        /* \"#utility.yul\":7699:7811   */\n    tag_188:\n        /* \"#utility.yul\":7820:7874   */\n      tag_190\n        /* \"#utility.yul\":7867:7873   */\n      dup5\n        /* \"#utility.yul\":7862:7865   */\n      dup3\n        /* \"#utility.yul\":7857:7860   */\n      dup6\n        /* \"#utility.yul\":7820:7874   */\n      tag_87\n      jump\t// in\n    tag_190:\n        /* \"#utility.yul\":7539:7880   */\n      pop\n        /* \"#utility.yul\":7455:7880   */\n      swap4\n      swap3\n      pop\n      pop\n      pop\n      jump\t// out\n        /* \"#utility.yul\":7900:8240   */\n    tag_89:\n        /* \"#utility.yul\":7956:7961   */\n      0x00\n        /* \"#utility.yul\":8005:8008   */\n      dup3\n        /* \"#utility.yul\":7998:8002   */\n      0x1f\n        /* \"#utility.yul\":7990:7996   */\n      dup4\n        /* \"#utility.yul\":7986:8003   */\n      add\n        /* \"#utility.yul\":7982:8009   */\n      slt\n        /* \"#utility.yul\":7972:8094   */\n      tag_192\n      jumpi\n        /* \"#utility.yul\":8013:8092   */\n      tag_193\n      tag_81\n      jump\t// in\n    tag_193:\n        /* \"#utility.yul\":7972:8094   */\n    tag_192:\n        /* \"#utility.yul\":8130:8136   */\n      dup2\n        /* \"#utility.yul\":8117:8137   */\n      calldataload\n        /* \"#utility.yul\":8155:8234   */\n      tag_194\n        /* \"#utility.yul\":8230:8233   */\n      dup5\n        /* \"#utility.yul\":8222:8228   */\n      dup3\n        /* \"#utility.yul\":8215:8219   */\n      0x20\n        /* \"#utility.yul\":8207:8213   */\n      dup7\n        /* \"#utility.yul\":8203:8220   */\n      add\n        /* \"#utility.yul\":8155:8234   */\n      tag_88\n      jump\t// in\n    tag_194:\n        /* \"#utility.yul\":8146:8234   */\n      swap2\n      pop\n        /* \"#utility.yul\":7962:8240   */\n      pop\n        /* \"#utility.yul\":7900:8240   */\n      swap3\n      swap2\n      pop\n      pop\n      jump\t// out\n        /* \"#utility.yul\":8246:8755   */\n    tag_25:\n        /* \"#utility.yul\":8315:8321   */\n      0x00\n        /* \"#utility.yul\":8364:8366   */\n      0x20\n        /* \"#utility.yul\":8352:8361   */\n      dup3\n        /* \"#utility.yul\":8343:8350   */\n      dup5\n        /* \"#utility.yul\":8339:8362   */\n      sub\n        /* \"#utility.yul\":8335:8367   */\n      slt\n        /* \"#utility.yul\":8332:8451   */\n      iszero\n      tag_196\n      jumpi\n        /* \"#utility.yul\":8370:8449   */\n      tag_197\n      tag_59\n      jump\t// in\n    tag_197:\n        /* \"#utility.yul\":8332:8451   */\n    tag_196:\n        /* \"#utility.yul\":8518:8519   */\n      0x00\n        /* \"#utility.yul\":8507:8516   */\n      dup3\n        /* \"#utility.yul\":8503:8520   */\n      add\n        /* \"#utility.yul\":8490:8521   */\n      calldataload\n        /* \"#utility.yul\":8548:8566   */\n      0xffffffffffffffff\n        /* \"#utility.yul\":8540:8546   */\n      dup2\n        /* \"#utility.yul\":8537:8567   */\n      gt\n        /* \"#utility.yul\":8534:8651   */\n      iszero\n      tag_198\n      jumpi\n        /* \"#utility.yul\":8570:8649   */\n      tag_199\n      tag_60\n      jump\t// in\n    tag_199:\n        /* \"#utility.yul\":8534:8651   */\n    tag_198:\n        /* \"#utility.yul\":8675:8738   */\n      tag_200\n        /* \"#utility.yul\":8730:8737   */\n      dup5\n        /* \"#utility.yul\":8721:8727   */\n      dup3\n        /* \"#utility.yul\":8710:8719   */\n      dup6\n        /* \"#utility.yul\":8706:8728   */\n      add\n        /* \"#utility.yul\":8675:8738   */\n      tag_89\n      jump\t// in\n    tag_200:\n        /* \"#utility.yul\":8665:8738   */\n      swap2\n      pop\n        /* \"#utility.yul\":8461:8748   */\n      pop\n        /* \"#utility.yul\":8246:8755   */\n      swap3\n      swap2\n      pop\n      pop\n      jump\t// out\n        /* \"#utility.yul\":8761:8941   */\n    tag_90:\n        /* \"#utility.yul\":8809:8886   */\n      0x4e487b7100000000000000000000000000000000000000000000000000000000\n        /* \"#utility.yul\":8806:8807   */\n      0x00\n        /* \"#utility.yul\":8799:8887   */\n      mstore\n        /* \"#utility.yul\":8906:8910   */\n      0x22\n        /* \"#utility.yul\":8903:8904   */\n      0x04\n        /* \"#utility.yul\":8896:8911   */\n      mstore\n        /* \"#utility.yul\":8930:8934   */\n      0x24\n        /* \"#utility.yul\":8927:8928   */\n      0x00\n        /* \"#utility.yul\":8920:8935   */\n      revert\n        /* \"#utility.yul\":8947:9267   */\n    tag_30:\n        /* \"#utility.yul\":8991:8997   */\n      0x00\n        /* \"#utility.yul\":9028:9029   */\n      0x02\n        /* \"#utility.yul\":9022:9026   */\n      dup3\n        /* \"#utility.yul\":9018:9030   */\n      div\n        /* \"#utility.yul\":9008:9030   */\n      swap1\n      pop\n        /* \"#utility.yul\":9075:9076   */\n      0x01\n        /* \"#utility.yul\":9069:9073   */\n      dup3\n        /* \"#utility.yul\":9065:9077   */\n      and\n        /* \"#utility.yul\":9096:9114   */\n      dup1\n        /* \"#utility.yul\":9086:9167   */\n      tag_203\n      jumpi\n        /* \"#utility.yul\":9152:9156   */\n      0x7f\n        /* \"#utility.yul\":9144:9150   */\n      dup3\n        /* \"#utility.yul\":9140:9157   */\n      and\n        /* \"#utility.yul\":9130:9157   */\n      swap2\n      pop\n        /* \"#utility.yul\":9086:9167   */\n    tag_203:\n        /* \"#utility.yul\":9214:9216   */\n      0x20\n        /* \"#utility.yul\":9206:9212   */\n      dup3\n        /* \"#utility.yul\":9203:9217   */\n      lt\n        /* \"#utility.yul\":9183:9201   */\n      dup2\n        /* \"#utility.yul\":9180:9218   */\n      sub\n        /* \"#utility.yul\":9177:9261   */\n      tag_204\n      jumpi\n        /* \"#utility.yul\":9233:9251   */\n      tag_205\n      tag_90\n      jump\t// in\n    tag_205:\n        /* \"#utility.yul\":9177:9261   */\n    tag_204:\n        /* \"#utility.yul\":8998:9267   */\n      pop\n        /* \"#utility.yul\":8947:9267   */\n      swap2\n      swap1\n      pop\n      jump\t// out\n        /* \"#utility.yul\":9273:9453   */\n    tag_38:\n        /* \"#utility.yul\":9321:9398   */\n      0x4e487b7100000000000000000000000000000000000000000000000000000000\n        /* \"#utility.yul\":9318:9319   */\n      0x00\n        /* \"#utility.yul\":9311:9399   */\n      mstore\n        /* \"#utility.yul\":9418:9422   */\n      0x32\n        /* \"#utility.yul\":9415:9416   */\n      0x04\n        /* \"#utility.yul\":9408:9423   */\n      mstore\n        /* \"#utility.yul\":9442:9446   */\n      0x24\n        /* \"#utility.yul\":9439:9440   */\n      0x00\n        /* \"#utility.yul\":9432:9447   */\n      revert\n        /* \"#utility.yul\":9459:9600   */\n    tag_91:\n        /* \"#utility.yul\":9508:9512   */\n      0x00\n        /* \"#utility.yul\":9531:9534   */\n      dup2\n        /* \"#utility.yul\":9523:9534   */\n      swap1\n      pop\n        /* \"#utility.yul\":9554:9557   */\n      dup2\n        /* \"#utility.yul\":9551:9552   */\n      0x00\n        /* \"#utility.yul\":9544:9558   */\n      mstore\n        /* \"#utility.yul\":9588:9592   */\n      0x20\n        /* \"#utility.yul\":9585:9586   */\n      0x00\n        /* \"#utility.yul\":9575:9593   */\n      keccak256\n        /* \"#utility.yul\":9567:9593   */\n      swap1\n      pop\n        /* \"#utility.yul\":9459:9600   */\n      swap2\n      swap1\n      pop\n      jump\t// out\n        /* \"#utility.yul\":9606:9699   */\n    tag_92:\n        /* \"#utility.yul\":9643:9649   */\n      0x00\n        /* \"#utility.yul\":9690:9692   */\n      0x20\n        /* \"#utility.yul\":9685:9687   */\n      0x1f\n        /* \"#utility.yul\":9678:9683   */\n      dup4\n        /* \"#utility.yul\":9674:9688   */\n      add\n        /* \"#utility.yul\":9670:9693   */\n      div\n        /* \"#utility.yul\":9660:9693   */\n      swap1\n      pop\n        /* \"#utility.yul\":9606:9699   */\n      swap2\n      swap1\n      pop\n      jump\t// out\n        /* \"#utility.yul\":9705:9812   */\n    tag_93:\n        /* \"#utility.yul\":9749:9757   */\n      0x00\n        /* \"#utility.yul\":9799:9804   */\n      dup3\n        /* \"#utility.yul\":9793:9797   */\n      dup3\n        /* \"#utility.yul\":9789:9805   */\n      shl\n        /* \"#utility.yul\":9768:9805   */\n      swap1\n      pop\n        /* \"#utility.yul\":9705:9812   */\n      swap3\n      swap2\n      pop\n      pop\n      jump\t// out\n        /* \"#utility.yul\":9818:10211   */\n    tag_94:\n        /* \"#utility.yul\":9887:9893   */\n      0x00\n        /* \"#utility.yul\":9937:9938   */\n      0x08\n        /* \"#utility.yul\":9925:9935   */\n      dup4\n        /* \"#utility.yul\":9921:9939   */\n      mul\n        /* \"#utility.yul\":9960:10057   */\n      tag_211\n        /* \"#utility.yul\":9990:10056   */\n      0xffffffffffffffffffffffffffffffffffffffffffffffffffffffffffffffff\n        /* \"#utility.yul\":9979:9988   */\n      dup3\n        /* \"#utility.yul\":9960:10057   */\n      tag_93\n      jump\t// in\n    tag_211:\n        /* \"#utility.yul\":10078:10117   */\n      tag_212\n        /* \"#utility.yul\":10108:10116   */\n      dup7\n        /* \"#utility.yul\":10097:10106   */\n      dup4\n        /* \"#utility.yul\":10078:10117   */\n      tag_93\n      jump\t// in\n    tag_212:\n        /* \"#utility.yul\":10066:10117   */\n      swap6\n      pop\n        /* \"#utility.yul\":10150:10154   */\n      dup1\n        /* \"#utility.yul\":10146:10155   */\n      not\n        /* \"#utility.yul\":10139:10144   */\n      dup5\n        /* \"#utility.yul\":10135:10156   */\n      and\n        /* \"#utility.yul\":10126:10156   */\n      swap4\n      pop\n        /* \"#utility.yul\":10199:10203   */\n      dup1\n        /* \"#utility.yul\":10189:10197   */\n      dup7\n        /* \"#utility.yul\":10185:10204   */\n      and\n        /* \"#utility.yul\":10178:10183   */\n      dup5\n        /* \"#utility.yul\":10175:10205   */\n      or\n        /* \"#utility.yul\":10165:10205   */\n      swap3\n      pop\n        /* \"#utility.yul\":9894:10211   */\n      pop\n      pop\n        /* \"#utility.yul\":9818:10211   */\n      swap4\n      swap3\n      pop\n      pop\n      pop\n      jump\t// out\n        /* \"#utility.yul\":10217:10277   */\n    tag_95:\n        /* \"#utility.yul\":10245:10248   */\n      0x00\n        /* \"#utility.yul\":10266:10271   */\n      dup2\n        /* \"#utility.yul\":10259:10271   */\n      swap1\n      pop\n        /* \"#utility.yul\":10217:10277   */\n      swap2\n      swap1\n      pop\n      jump\t// out\n        /* \"#utility.yul\":10283:10425   */\n    tag_96:\n        /* \"#utility.yul\":10333:10342   */\n      0x00\n        /* \"#utility.yul\":10366:10419   */\n      tag_215\n        /* \"#utility.yul\":10384:10418   */\n      tag_216\n        /* \"#utility.yul\":10393:10417   */\n      tag_217\n        /* \"#utility.yul\":10411:10416   */\n      dup5\n        /* \"#utility.yul\":10393:10417   */\n      tag_65\n      jump\t// in\n    tag_217:\n        /* \"#utility.yul\":10384:10418   */\n      tag_95\n      jump\t// in\n    tag_216:\n        /* \"#utility.yul\":10366:10419   */\n      tag_65\n      jump\t// in\n    tag_215:\n        /* \"#utility.yul\":10353:10419   */\n      swap1\n      pop\n        /* \"#utility.yul\":10283:10425   */\n      swap2\n      swap1\n      pop\n      jump\t// out\n        /* \"#utility.yul\":10431:10506   */\n    tag_97:\n        /* \"#utility.yul\":10474:10477   */\n      0x00\n        /* \"#utility.yul\":10495:10500   */\n      dup2\n        /* \"#utility.yul\":10488:10500   */\n      swap1\n      pop\n        /* \"#utility.yul\":10431:10506   */\n      swap2\n      swap1\n      pop\n      jump\t// out\n        /* \"#utility.yul\":10512:10781   */\n    tag_98:\n        /* \"#utility.yul\":10622:10661   */\n      tag_220\n        /* \"#utility.yul\":10653:10660   */\n      dup4\n        /* \"#utility.yul\":10622:10661   */\n      tag_96\n      jump\t// in\n    tag_220:\n        /* \"#utility.yul\":10683:10774   */\n      tag_221\n        /* \"#utility.yul\":10732:10773   */\n      tag_222\n        /* \"#utility.yul\":10756:10772   */\n      dup3\n        /* \"#utility.yul\":10732:10773   */\n      tag_97\n      jump\t// in\n    tag_222:\n        /* \"#utility.yul\":10724:10730   */\n      dup5\n        /* \"#utility.yul\":10717:10721   */\n      dup5\n        /* \"#utility.yul\":10711:10722   */\n      sload\n        /* \"#utility.yul\":10683:10774   */\n      tag_94\n      jump\t// in\n    tag_221:\n        /* \"#utility.yul\":10677:10681   */\n      dup3\n        /* \"#utility.yul\":10670:10775   */\n      sstore\n        /* \"#utility.yul\":10588:10781   */\n      pop\n        /* \"#utility.yul\":10512:10781   */\n      pop\n      pop\n      pop\n      jump\t// out\n        /* \"#utility.yul\":10787:10860   */\n    tag_99:\n        /* \"#utility.yul\":10832:10835   */\n      0x00\n        /* \"#utility.yul\":10787:10860   */\n      swap1\n      jump\t// out\n        /* \"#utility.yul\":10866:11055   */\n    tag_100:\n        /* \"#utility.yul\":10943:10975   */\n      tag_225\n      tag_99\n      jump\t// in\n    tag_225:\n        /* \"#utility.yul\":10984:11049   */\n      tag_226\n        /* \"#utility.yul\":11042:11048   */\n      dup2\n        /* \"#utility.yul\":11034:11040   */\n      dup5\n        /* \"#utility.yul\":11028:11032   */\n      dup5\n        /* \"#utility.yul\":10984:11049   */\n      tag_98\n      jump\t// in\n    tag_226:\n        /* \"#utility.yul\":10919:11055   */\n      pop\n        /* \"#utility.yul\":10866:11055   */\n      pop\n      pop\n      jump\t// out\n        /* \"#utility.yul\":11061:11247   */\n    tag_101:\n        /* \"#utility.yul\":11121:11241   */\n    tag_228:\n        /* \"#utility.yul\":11138:11141   */\n      dup2\n        /* \"#utility.yul\":11131:11136   */\n      dup2\n        /* \"#utility.yul\":11128:11142   */\n      lt\n        /* \"#utility.yul\":11121:11241   */\n      iszero\n      tag_230\n      jumpi\n        /* \"#utility.yul\":11192:11231   */\n      tag_231\n        /* \"#utility.yul\":11229:11230   */\n      0x00\n        /* \"#utility.yul\":11222:11227   */\n      dup3\n        /* \"#utility.yul\":11192:11231   */\n      tag_100\n      jump\t// in\n    tag_231:\n        /* \"#utility.yul\":11165:11166   */\n      0x01\n        /* \"#utility.yul\":11158:11163   */\n      dup2\n        /* \"#utility.yul\":11154:11167   */\n      add\n        /* \"#utility.yul\":11145:11167   */\n      swap1\n      pop\n        /* \"#utility.yul\":11121:11241   */\n      jump(tag_228)\n    tag_230:\n        /* \"#utility.yul\":11061:11247   */\n      pop\n      pop\n      jump\t// out\n        /* \"#utility.yul\":11253:11796   */\n    tag_102:\n        /* \"#utility.yul\":11354:11356   */\n      0x1f\n        /* \"#utility.yul\":11349:11352   */\n      dup3\n        /* \"#utility.yul\":11346:11357   */\n      gt\n        /* \"#utility.yul\":11343:11789   */\n      iszero\n      tag_233\n      jumpi\n        /* \"#utility.yul\":11388:11426   */\n      tag_234\n        /* \"#utility.yul\":11420:11425   */\n      dup2\n        /* \"#utility.yul\":11388:11426   */\n      tag_91\n      jump\t// in\n    tag_234:\n        /* \"#utility.yul\":11472:11501   */\n      tag_235\n        /* \"#utility.yul\":11490:11500   */\n      dup5\n        /* \"#utility.yul\":11472:11501   */\n      tag_92\n      jump\t// in\n    tag_235:\n        /* \"#utility.yul\":11462:11470   */\n      dup2\n        /* \"#utility.yul\":11458:11502   */\n      add\n        /* \"#utility.yul\":11655:11657   */\n      0x20\n        /* \"#utility.yul\":11643:11653   */\n      dup6\n        /* \"#utility.yul\":11640:11658   */\n      lt\n        /* \"#utility.yul\":11637:11686   */\n      iszero\n      tag_236\n      jumpi\n        /* \"#utility.yul\":11676:11684   */\n      dup2\n        /* \"#utility.yul\":11661:11684   */\n      swap1\n      pop\n        /* \"#utility.yul\":11637:11686   */\n    tag_236:\n        /* \"#utility.yul\":11699:11779   */\n      tag_237\n        /* \"#utility.yul\":11755:11777   */\n      tag_238\n        /* \"#utility.yul\":11773:11776   */\n      dup6\n        /* \"#utility.yul\":11755:11777   */\n      tag_92\n      jump\t// in\n    tag_238:\n        /* \"#utility.yul\":11745:11753   */\n      dup4\n        /* \"#utility.yul\":11741:11778   */\n      add\n        /* \"#utility.yul\":11728:11739   */\n      dup3\n        /* \"#utility.yul\":11699:11779   */\n      tag_101\n      jump\t// in\n    tag_237:\n        /* \"#utility.yul\":11358:11789   */\n      pop\n      pop\n        /* \"#utility.yul\":11343:11789   */\n    tag_233:\n        /* \"#utility.yul\":11253:11796   */\n      pop\n      pop\n      pop\n      jump\t// out\n        /* \"#utility.yul\":11802:11919   */\n    tag_103:\n        /* \"#utility.yul\":11856:11864   */\n      0x00\n        /* \"#utility.yul\":11906:11911   */\n      dup3\n        /* \"#utility.yul\":11900:11904   */\n      dup3\n        /* \"#utility.yul\":11896:11912   */\n      shr\n        /* \"#utility.yul\":11875:11912   */\n      swap1\n      pop\n        /* \"#utility.yul\":11802:11919   */\n      swap3\n      swap2\n      pop\n      pop\n      jump\t// out\n        /* \"#utility.yul\":11925:12094   */\n    tag_104:\n        /* \"#utility.yul\":11969:11975   */\n      0x00\n        /* \"#utility.yul\":12002:12053   */\n      tag_241\n        /* \"#utility.yul\":12050:12051   */\n      0x00\n        /* \"#utility.yul\":12046:12052   */\n      not\n        /* \"#utility.yul\":12038:12043   */\n      dup5\n        /* \"#utility.yul\":12035:12036   */\n      0x08\n        /* \"#utility.yul\":12031:12044   */\n      mul\n        /* \"#utility.yul\":12002:12053   */\n      tag_103\n      jump\t// in\n    tag_241:\n        /* \"#utility.yul\":11998:12054   */\n      not\n        /* \"#utility.yul\":12083:12087   */\n      dup1\n        /* \"#utility.yul\":12077:12081   */\n      dup4\n        /* \"#utility.yul\":12073:12088   */\n      and\n        /* \"#utility.yul\":12063:12088   */\n      swap2\n      pop\n        /* \"#utility.yul\":11976:12094   */\n      pop\n        /* \"#utility.yul\":11925:12094   */\n      swap3\n      swap2\n      pop\n      pop\n      jump\t// out\n        /* \"#utility.yul\":12099:12394   */\n    tag_105:\n        /* \"#utility.yul\":12175:12179   */\n      0x00\n        /* \"#utility.yul\":12321:12350   */\n      tag_243\n        /* \"#utility.yul\":12346:12349   */\n      dup4\n        /* \"#utility.yul\":12340:12344   */\n      dup4\n        /* \"#utility.yul\":12321:12350   */\n      tag_104\n      jump\t// in\n    tag_243:\n        /* \"#utility.yul\":12313:12350   */\n      swap2\n      pop\n        /* \"#utility.yul\":12383:12386   */\n      dup3\n        /* \"#utility.yul\":12380:12381   */\n      0x02\n        /* \"#utility.yul\":12376:12387   */\n      mul\n        /* \"#utility.yul\":12370:12374   */\n      dup3\n        /* \"#utility.yul\":12367:12388   */\n      or\n        /* \"#utility.yul\":12359:12388   */\n      swap1\n      pop\n        /* \"#utility.yul\":12099:12394   */\n      swap3\n      swap2\n      pop\n      pop\n      jump\t// out\n        /* \"#utility.yul\":12399:13794   */\n    tag_57:\n        /* \"#utility.yul\":12516:12553   */\n      tag_245\n        /* \"#utility.yul\":12549:12552   */\n      dup3\n        /* \"#utility.yul\":12516:12553   */\n      tag_68\n      jump\t// in\n    tag_245:\n        /* \"#utility.yul\":12618:12636   */\n      0xffffffffffffffff\n        /* \"#utility.yul\":12610:12616   */\n      dup2\n        /* \"#utility.yul\":12607:12637   */\n      gt\n        /* \"#utility.yul\":12604:12660   */\n      iszero\n      tag_246\n      jumpi\n        /* \"#utility.yul\":12640:12658   */\n      tag_247\n      tag_83\n      jump\t// in\n    tag_247:\n        /* \"#utility.yul\":12604:12660   */\n    tag_246:\n        /* \"#utility.yul\":12684:12722   */\n      tag_248\n        /* \"#utility.yul\":12716:12720   */\n      dup3\n        /* \"#utility.yul\":12710:12721   */\n      sload\n        /* \"#utility.yul\":12684:12722   */\n      tag_30\n      jump\t// in\n    tag_248:\n        /* \"#utility.yul\":12769:12836   */\n      tag_249\n        /* \"#utility.yul\":12829:12835   */\n      dup3\n        /* \"#utility.yul\":12821:12827   */\n      dup3\n        /* \"#utility.yul\":12815:12819   */\n      dup6\n        /* \"#utility.yul\":12769:12836   */\n      tag_102\n      jump\t// in\n    tag_249:\n        /* \"#utility.yul\":12863:12864   */\n      0x00\n        /* \"#utility.yul\":12887:12891   */\n      0x20\n        /* \"#utility.yul\":12874:12891   */\n      swap1\n      pop\n        /* \"#utility.yul\":12919:12921   */\n      0x1f\n        /* \"#utility.yul\":12911:12917   */\n      dup4\n        /* \"#utility.yul\":12908:12922   */\n      gt\n        /* \"#utility.yul\":12936:12937   */\n      0x01\n        /* \"#utility.yul\":12931:13549   */\n      dup2\n      eq\n      tag_251\n      jumpi\n        /* \"#utility.yul\":13593:13594   */\n      0x00\n        /* \"#utility.yul\":13610:13616   */\n      dup5\n        /* \"#utility.yul\":13607:13684   */\n      iszero\n      tag_252\n      jumpi\n        /* \"#utility.yul\":13659:13668   */\n      dup3\n        /* \"#utility.yul\":13654:13657   */\n      dup8\n        /* \"#utility.yul\":13650:13669   */\n      add\n        /* \"#utility.yul\":13644:13670   */\n      mload\n        /* \"#utility.yul\":13635:13670   */\n      swap1\n      pop\n        /* \"#utility.yul\":13607:13684   */\n    tag_252:\n        /* \"#utility.yul\":13710:13777   */\n      tag_253\n        /* \"#utility.yul\":13770:13776   */\n      dup6\n        /* \"#utility.yul\":13763:13768   */\n      dup3\n        /* \"#utility.yul\":13710:13777   */\n      tag_105\n      jump\t// in\n    tag_253:\n        /* \"#utility.yul\":13704:13708   */\n      dup7\n        /* \"#utility.yul\":13697:13778   */\n      sstore\n        /* \"#utility.yul\":13566:13788   */\n      pop\n        /* \"#utility.yul\":12901:13788   */\n      jump(tag_250)\n        /* \"#utility.yul\":12931:13549   */\n    tag_251:\n        /* \"#utility.yul\":12983:12987   */\n      0x1f\n        /* \"#utility.yul\":12979:12988   */\n      not\n        /* \"#utility.yul\":12971:12977   */\n      dup5\n        /* \"#utility.yul\":12967:12989   */\n      and\n        /* \"#utility.yul\":13017:13054   */\n      tag_254\n        /* \"#utility.yul\":13049:13053   */\n      dup7\n        /* \"#utility.yul\":13017:13054   */\n      tag_91\n      jump\t// in\n    tag_254:\n        /* \"#utility.yul\":13076:13077   */\n      0x00\n        /* \"#utility.yul\":13090:13298   */\n    tag_255:\n        /* \"#utility.yul\":13104:13111   */\n      dup3\n        /* \"#utility.yul\":13101:13102   */\n      dup2\n        /* \"#utility.yul\":13098:13112   */\n      lt\n        /* \"#utility.yul\":13090:13298   */\n      iszero\n      tag_257\n      jumpi\n        /* \"#utility.yul\":13183:13192   */\n      dup5\n        /* \"#utility.yul\":13178:13181   */\n      dup10\n        /* \"#utility.yul\":13174:13193   */\n      add\n        /* \"#utility.yul\":13168:13194   */\n      mload\n        /* \"#utility.yul\":13160:13166   */\n      dup3\n        /* \"#utility.yul\":13153:13195   */\n      sstore\n        /* \"#utility.yul\":13234:13235   */\n      0x01\n        /* \"#utility.yul\":13226:13232   */\n      dup3\n        /* \"#utility.yul\":13222:13236   */\n      add\n        /* \"#utility.yul\":13212:13236   */\n      swap2\n      pop\n        /* \"#utility.yul\":13281:13283   */\n      0x20\n        /* \"#utility.yul\":13270:13279   */\n      dup6\n        /* \"#utility.yul\":13266:13284   */\n      add\n        /* \"#utility.yul\":13253:13284   */\n      swap5\n      pop\n        /* \"#utility.yul\":13127:13131   */\n      0x20\n        /* \"#utility.yul\":13124:13125   */\n      dup2\n        /* \"#utility.yul\":13120:13132   */\n      add\n        /* \"#utility.yul\":13115:13132   */\n      swap1\n      pop\n        /* \"#utility.yul\":13090:13298   */\n      jump(tag_255)\n    tag_257:\n        /* \"#utility.yul\":13326:13332   */\n      dup7\n        /* \"#utility.yul\":13317:13324   */\n      dup4\n        /* \"#utility.yul\":13314:13333   */\n      lt\n        /* \"#utility.yul\":13311:13490   */\n      iszero\n      tag_258\n      jumpi\n        /* \"#utility.yul\":13384:13393   */\n      dup5\n        /* \"#utility.yul\":13379:13382   */\n      dup10\n        /* \"#utility.yul\":13375:13394   */\n      add\n        /* \"#utility.yul\":13369:13395   */\n      mload\n        /* \"#utility.yul\":13427:13475   */\n      tag_259\n        /* \"#utility.yul\":13469:13473   */\n      0x1f\n        /* \"#utility.yul\":13461:13467   */\n      dup10\n        /* \"#utility.yul\":13457:13474   */\n      and\n        /* \"#utility.yul\":13446:13455   */\n      dup3\n        /* \"#utility.yul\":13427:13475   */\n      tag_104\n      jump\t// in\n    tag_259:\n        /* \"#utility.yul\":13419:13425   */\n      dup4\n        /* \"#utility.yul\":13412:13476   */\n      sstore\n        /* \"#utility.yul\":13334:13490   */\n      pop\n        /* \"#utility.yul\":13311:13490   */\n    tag_258:\n        /* \"#utility.yul\":13536:13537   */\n      0x01\n        /* \"#utility.yul\":13532:13533   */\n      0x02\n        /* \"#utility.yul\":13524:13530   */\n      dup9\n        /* \"#utility.yul\":13520:13534   */\n      mul\n        /* \"#utility.yul\":13516:13538   */\n      add\n        /* \"#utility.yul\":13510:13514   */\n      dup9\n        /* \"#utility.yul\":13503:13539   */\n      sstore\n        /* \"#utility.yul\":12938:13549   */\n      pop\n      pop\n      pop\n        /* \"#utility.yul\":12901:13788   */\n    tag_250:\n      pop\n        /* \"#utility.yul\":12491:13794   */\n      pop\n      pop\n      pop\n        /* \"#utility.yul\":12399:13794   */\n      pop\n      pop\n      jump\t// out\n\n    auxdata: 0xa2646970667358221220e8ab7bdddc52a5c19d1b454f137565c2d7f2a764f5daaf45f825f361ab50f89164736f6c63430008160033\n}\n",
				"bytecode": {
					"linkReferences": {},
					"object": "608060405234801561000f575f80fd5b50610b838061001d5f395ff3fe608060405234801561000f575f80fd5b506004361061004a575f3560e01c806305a1b4a91461004e578063112f54e31461007e57806312e7ee1c146100ae5780637c9cd2bc146100de575b5f80fd5b610068600480360381019061006391906104ae565b6100fa565b6040516100759190610576565b60405180910390f35b610098600480360381019061009391906104ae565b6101aa565b6040516100a59190610576565b60405180910390f35b6100c860048036038101906100c39190610596565b610291565b6040516100d591906106c4565b60405180910390f35b6100f860048036038101906100f39190610810565b6103a1565b005b5f602052815f5260405f208181548110610112575f80fd5b905f5260205f20015f9150915050805461012b90610884565b80601f016020809104026020016040519081016040528092919081815260200182805461015790610884565b80156101a25780601f10610179576101008083540402835291602001916101a2565b820191905f5260205f20905b81548152906001019060200180831161018557829003601f168201915b505050505081565b60605f808473ffffffffffffffffffffffffffffffffffffffff1673ffffffffffffffffffffffffffffffffffffffff1681526020019081526020015f2082815481106101fa576101f96108b4565b5b905f5260205f2001805461020d90610884565b80601f016020809104026020016040519081016040528092919081815260200182805461023990610884565b80156102845780601f1061025b57610100808354040283529160200191610284565b820191905f5260205f20905b81548152906001019060200180831161026757829003601f168201915b5050505050905092915050565b60605f808373ffffffffffffffffffffffffffffffffffffffff1673ffffffffffffffffffffffffffffffffffffffff1681526020019081526020015f20805480602002602001604051908101604052809291908181526020015f905b82821015610396578382905f5260205f2001805461030b90610884565b80601f016020809104026020016040519081016040528092919081815260200182805461033790610884565b80156103825780601f1061035957610100808354040283529160200191610382565b820191905f5260205f20905b81548152906001019060200180831161036557829003601f168201915b5050505050815260200190600101906102ee565b505050509050919050565b5f803373ffffffffffffffffffffffffffffffffffffffff1673ffffffffffffffffffffffffffffffffffffffff1681526020019081526020015f2081908060018154018082558091505060019003905f5260205f20015f90919091909150908161040c9190610a7e565b5050565b5f604051905090565b5f80fd5b5f80fd5b5f73ffffffffffffffffffffffffffffffffffffffff82169050919050565b5f61044a82610421565b9050919050565b61045a81610440565b8114610464575f80fd5b50565b5f8135905061047581610451565b92915050565b5f819050919050565b61048d8161047b565b8114610497575f80fd5b50565b5f813590506104a881610484565b92915050565b5f80604083850312156104c4576104c3610419565b5b5f6104d185828601610467565b92505060206104e28582860161049a565b9150509250929050565b5f81519050919050565b5f82825260208201905092915050565b5f5b83811015610523578082015181840152602081019050610508565b5f8484015250505050565b5f601f19601f8301169050919050565b5f610548826104ec565b61055281856104f6565b9350610562818560208601610506565b61056b8161052e565b840191505092915050565b5f6020820190508181035f83015261058e818461053e565b905092915050565b5f602082840312156105ab576105aa610419565b5b5f6105b884828501610467565b91505092915050565b5f81519050919050565b5f82825260208201905092915050565b5f819050602082019050919050565b5f82825260208201905092915050565b5f610604826104ec565b61060e81856105ea565b935061061e818560208601610506565b6106278161052e565b840191505092915050565b5f61063d83836105fa565b905092915050565b5f602082019050919050565b5f61065b826105c1565b61066581856105cb565b935083602082028501610677856105db565b805f5b858110156106b257848403895281516106938582610632565b945061069e83610645565b925060208a0199505060018101905061067a565b50829750879550505050505092915050565b5f6020820190508181035f8301526106dc8184610651565b905092915050565b5f80fd5b5f80fd5b7f4e487b71000000000000000000000000000000000000000000000000000000005f52604160045260245ffd5b6107228261052e565b810181811067ffffffffffffffff82111715610741576107406106ec565b5b80604052505050565b5f610753610410565b905061075f8282610719565b919050565b5f67ffffffffffffffff82111561077e5761077d6106ec565b5b6107878261052e565b9050602081019050919050565b828183375f83830152505050565b5f6107b46107af84610764565b61074a565b9050828152602081018484840111156107d0576107cf6106e8565b5b6107db848285610794565b509392505050565b5f82601f8301126107f7576107f66106e4565b5b81356108078482602086016107a2565b91505092915050565b5f6020828403121561082557610824610419565b5b5f82013567ffffffffffffffff8111156108425761084161041d565b5b61084e848285016107e3565b91505092915050565b7f4e487b71000000000000000000000000000000000000000000000000000000005f52602260045260245ffd5b5f600282049050600182168061089b57607f821691505b6020821081036108ae576108ad610857565b5b50919050565b7f4e487b71000000000000000000000000000000000000000000000000000000005f52603260045260245ffd5b5f819050815f5260205f209050919050565b5f6020601f8301049050919050565b5f82821b905092915050565b5f6008830261093d7fffffffffffffffffffffffffffffffffffffffffffffffffffffffffffffffff82610902565b6109478683610902565b95508019841693508086168417925050509392505050565b5f819050919050565b5f61098261097d6109788461047b565b61095f565b61047b565b9050919050565b5f819050919050565b61099b83610968565b6109af6109a782610989565b84845461090e565b825550505050565b5f90565b6109c36109b7565b6109ce818484610992565b505050565b5b818110156109f1576109e65f826109bb565b6001810190506109d4565b5050565b601f821115610a3657610a07816108e1565b610a10846108f3565b81016020851015610a1f578190505b610a33610a2b856108f3565b8301826109d3565b50505b505050565b5f82821c905092915050565b5f610a565f1984600802610a3b565b1980831691505092915050565b5f610a6e8383610a47565b9150826002028217905092915050565b610a87826104ec565b67ffffffffffffffff811115610aa057610a9f6106ec565b5b610aaa8254610884565b610ab58282856109f5565b5f60209050601f831160018114610ae6575f8415610ad4578287015190505b610ade8582610a63565b865550610b45565b601f198416610af4866108e1565b5f5b82811015610b1b57848901518255600182019150602085019450602081019050610af6565b86831015610b385784890151610b34601f891682610a47565b8355505b6001600288020188555050505b50505050505056fea2646970667358221220e8ab7bdddc52a5c19d1b454f137565c2d7f2a764f5daaf45f825f361ab50f89164736f6c63430008160033",
					"opcodes": "PUSH1 0x80 PUSH1 0x40 MSTORE CALLVALUE DUP1 ISZERO PUSH2 0xF JUMPI PUSH0 DUP1 REVERT JUMPDEST POP PUSH2 0xB83 DUP1 PUSH2 0x1D PUSH0 CODECOPY PUSH0 RETURN INVALID PUSH1 0x80 PUSH1 0x40 MSTORE CALLVALUE DUP1 ISZERO PUSH2 0xF JUMPI PUSH0 DUP1 REVERT JUMPDEST POP PUSH1 0x4 CALLDATASIZE LT PUSH2 0x4A JUMPI PUSH0 CALLDATALOAD PUSH1 0xE0 SHR DUP1 PUSH4 0x5A1B4A9 EQ PUSH2 0x4E JUMPI DUP1 PUSH4 0x112F54E3 EQ PUSH2 0x7E JUMPI DUP1 PUSH4 0x12E7EE1C EQ PUSH2 0xAE JUMPI DUP1 PUSH4 0x7C9CD2BC EQ PUSH2 0xDE JUMPI JUMPDEST PUSH0 DUP1 REVERT JUMPDEST PUSH2 0x68 PUSH1 0x4 DUP1 CALLDATASIZE SUB DUP2 ADD SWAP1 PUSH2 0x63 SWAP2 SWAP1 PUSH2 0x4AE JUMP JUMPDEST PUSH2 0xFA JUMP JUMPDEST PUSH1 0x40 MLOAD PUSH2 0x75 SWAP2 SWAP1 PUSH2 0x576 JUMP JUMPDEST PUSH1 0x40 MLOAD DUP1 SWAP2 SUB SWAP1 RETURN JUMPDEST PUSH2 0x98 PUSH1 0x4 DUP1 CALLDATASIZE SUB DUP2 ADD SWAP1 PUSH2 0x93 SWAP2 SWAP1 PUSH2 0x4AE JUMP JUMPDEST PUSH2 0x1AA JUMP JUMPDEST PUSH1 0x40 MLOAD PUSH2 0xA5 SWAP2 SWAP1 PUSH2 0x576 JUMP JUMPDEST PUSH1 0x40 MLOAD DUP1 SWAP2 SUB SWAP1 RETURN JUMPDEST PUSH2 0xC8 PUSH1 0x4 DUP1 CALLDATASIZE SUB DUP2 ADD SWAP1 PUSH2 0xC3 SWAP2 SWAP1 PUSH2 0x596 JUMP JUMPDEST PUSH2 0x291 JUMP JUMPDEST PUSH1 0x40 MLOAD PUSH2 0xD5 SWAP2 SWAP1 PUSH2 0x6C4 JUMP JUMPDEST PUSH1 0x40 MLOAD DUP1 SWAP2 SUB SWAP1 RETURN JUMPDEST PUSH2 0xF8 PUSH1 0x4 DUP1 CALLDATASIZE SUB DUP2 ADD SWAP1 PUSH2 0xF3 SWAP2 SWAP1 PUSH2 0x810 JUMP JUMPDEST PUSH2 0x3A1 JUMP JUMPDEST STOP JUMPDEST PUSH0 PUSH1 0x20 MSTORE DUP2 PUSH0 MSTORE PUSH1 0x40 PUSH0 KECCAK256 DUP2 DUP2 SLOAD DUP2 LT PUSH2 0x112 JUMPI PUSH0 DUP1 REVERT JUMPDEST SWAP1 PUSH0 MSTORE PUSH1 0x20 PUSH0 KECCAK256 ADD PUSH0 SWAP2 POP SWAP2 POP POP DUP1 SLOAD PUSH2 0x12B SWAP1 PUSH2 0x884 JUMP JUMPDEST DUP1 PUSH1 0x1F ADD PUSH1 0x20 DUP1 SWAP2 DIV MUL PUSH1 0x20 ADD PUSH1 0x40 MLOAD SWAP1 DUP2 ADD PUSH1 0x40 MSTORE DUP1 SWAP3 SWAP2 SWAP1 DUP2 DUP2 MSTORE PUSH1 0x20 ADD DUP3 DUP1 SLOAD PUSH2 0x157 SWAP1 PUSH2 0x884 JUMP JUMPDEST DUP1 ISZERO PUSH2 0x1A2 JUMPI DUP1 PUSH1 0x1F LT PUSH2 0x179 JUMPI PUSH2 0x100 DUP1 DUP4 SLOAD DIV MUL DUP4 MSTORE SWAP2 PUSH1 0x20 ADD SWAP2 PUSH2 0x1A2 JUMP JUMPDEST DUP3 ADD SWAP2 SWAP1 PUSH0 MSTORE PUSH1 0x20 PUSH0 KECCAK256 SWAP1 JUMPDEST DUP2 SLOAD DUP2 MSTORE SWAP1 PUSH1 0x1 ADD SWAP1 PUSH1 0x20 ADD DUP1 DUP4 GT PUSH2 0x185 JUMPI DUP3 SWAP1 SUB PUSH1 0x1F AND DUP3 ADD SWAP2 JUMPDEST POP POP POP POP POP DUP2 JUMP JUMPDEST PUSH1 0x60 PUSH0 DUP1 DUP5 PUSH20 0xFFFFFFFFFFFFFFFFFFFFFFFFFFFFFFFFFFFFFFFF AND PUSH20 0xFFFFFFFFFFFFFFFFFFFFFFFFFFFFFFFFFFFFFFFF AND DUP2 MSTORE PUSH1 0x20 ADD SWAP1 DUP2 MSTORE PUSH1 0x20 ADD PUSH0 KECCAK256 DUP3 DUP2 SLOAD DUP2 LT PUSH2 0x1FA JUMPI PUSH2 0x1F9 PUSH2 0x8B4 JUMP JUMPDEST JUMPDEST SWAP1 PUSH0 MSTORE PUSH1 0x20 PUSH0 KECCAK256 ADD DUP1 SLOAD PUSH2 0x20D SWAP1 PUSH2 0x884 JUMP JUMPDEST DUP1 PUSH1 0x1F ADD PUSH1 0x20 DUP1 SWAP2 DIV MUL PUSH1 0x20 ADD PUSH1 0x40 MLOAD SWAP1 DUP2 ADD PUSH1 0x40 MSTORE DUP1 SWAP3 SWAP2 SWAP1 DUP2 DUP2 MSTORE PUSH1 0x20 ADD DUP3 DUP1 SLOAD PUSH2 0x239 SWAP1 PUSH2 0x884 JUMP JUMPDEST DUP1 ISZERO PUSH2 0x284 JUMPI DUP1 PUSH1 0x1F LT PUSH2 0x25B JUMPI PUSH2 0x100 DUP1 DUP4 SLOAD DIV MUL DUP4 MSTORE SWAP2 PUSH1 0x20 ADD SWAP2 PUSH2 0x284 JUMP JUMPDEST DUP3 ADD SWAP2 SWAP1 PUSH0 MSTORE PUSH1 0x20 PUSH0 KECCAK256 SWAP1 JUMPDEST DUP2 SLOAD DUP2 MSTORE SWAP1 PUSH1 0x1 ADD SWAP1 PUSH1 0x20 ADD DUP1 DUP4 GT PUSH2 0x267 JUMPI DUP3 SWAP1 SUB PUSH1 0x1F AND DUP3 ADD SWAP2 JUMPDEST POP POP POP POP POP SWAP1 POP SWAP3 SWAP2 POP POP JUMP JUMPDEST PUSH1 0x60 PUSH0 DUP1 DUP4 PUSH20 0xFFFFFFFFFFFFFFFFFFFFFFFFFFFFFFFFFFFFFFFF AND PUSH20 0xFFFFFFFFFFFFFFFFFFFFFFFFFFFFFFFFFFFFFFFF AND DUP2 MSTORE PUSH1 0x20 ADD SWAP1 DUP2 MSTORE PUSH1 0x20 ADD PUSH0 KECCAK256 DUP1 SLOAD DUP1 PUSH1 0x20 MUL PUSH1 0x20 ADD PUSH1 0x40 MLOAD SWAP1 DUP2 ADD PUSH1 0x40 MSTORE DUP1 SWAP3 SWAP2 SWAP1 DUP2 DUP2 MSTORE PUSH1 0x20 ADD PUSH0 SWAP1 JUMPDEST DUP3 DUP3 LT ISZERO PUSH2 0x396 JUMPI DUP4 DUP3 SWAP1 PUSH0 MSTORE PUSH1 0x20 PUSH0 KECCAK256 ADD DUP1 SLOAD PUSH2 0x30B SWAP1 PUSH2 0x884 JUMP JUMPDEST DUP1 PUSH1 0x1F ADD PUSH1 0x20 DUP1 SWAP2 DIV MUL PUSH1 0x20 ADD PUSH1 0x40 MLOAD SWAP1 DUP2 ADD PUSH1 0x40 MSTORE DUP1 SWAP3 SWAP2 SWAP1 DUP2 DUP2 MSTORE PUSH1 0x20 ADD DUP3 DUP1 SLOAD PUSH2 0x337 SWAP1 PUSH2 0x884 JUMP JUMPDEST DUP1 ISZERO PUSH2 0x382 JUMPI DUP1 PUSH1 0x1F LT PUSH2 0x359 JUMPI PUSH2 0x100 DUP1 DUP4 SLOAD DIV MUL DUP4 MSTORE SWAP2 PUSH1 0x20 ADD SWAP2 PUSH2 0x382 JUMP JUMPDEST DUP3 ADD SWAP2 SWAP1 PUSH0 MSTORE PUSH1 0x20 PUSH0 KECCAK256 SWAP1 JUMPDEST DUP2 SLOAD DUP2 MSTORE SWAP1 PUSH1 0x1 ADD SWAP1 PUSH1 0x20 ADD DUP1 DUP4 GT PUSH2 0x365 JUMPI DUP3 SWAP1 SUB PUSH1 0x1F AND DUP3 ADD SWAP2 JUMPDEST POP POP POP POP POP DUP2 MSTORE PUSH1 0x20 ADD SWAP1 PUSH1 0x1 ADD SWAP1 PUSH2 0x2EE JUMP JUMPDEST POP POP POP POP SWAP1 POP SWAP2 SWAP1 POP JUMP JUMPDEST PUSH0 DUP1 CALLER PUSH20 0xFFFFFFFFFFFFFFFFFFFFFFFFFFFFFFFFFFFFFFFF AND PUSH20 0xFFFFFFFFFFFFFFFFFFFFFFFFFFFFFFFFFFFFFFFF AND DUP2 MSTORE PUSH1 0x20 ADD SWAP1 DUP2 MSTORE PUSH1 0x20 ADD PUSH0 KECCAK256 DUP2 SWAP1 DUP1 PUSH1 0x1 DUP2 SLOAD ADD DUP1 DUP3 SSTORE DUP1 SWAP2 POP POP PUSH1 0x1 SWAP1 SUB SWAP1 PUSH0 MSTORE PUSH1 0x20 PUSH0 KECCAK256 ADD PUSH0 SWAP1 SWAP2 SWAP1 SWAP2 SWAP1 SWAP2 POP SWAP1 DUP2 PUSH2 0x40C SWAP2 SWAP1 PUSH2 0xA7E JUMP JUMPDEST POP POP JUMP JUMPDEST PUSH0 PUSH1 0x40 MLOAD SWAP1 POP SWAP1 JUMP JUMPDEST PUSH0 DUP1 REVERT JUMPDEST PUSH0 DUP1 REVERT JUMPDEST PUSH0 PUSH20 0xFFFFFFFFFFFFFFFFFFFFFFFFFFFFFFFFFFFFFFFF DUP3 AND SWAP1 POP SWAP2 SWAP1 POP JUMP JUMPDEST PUSH0 PUSH2 0x44A DUP3 PUSH2 0x421 JUMP JUMPDEST SWAP1 POP SWAP2 SWAP1 POP JUMP JUMPDEST PUSH2 0x45A DUP2 PUSH2 0x440 JUMP JUMPDEST DUP2 EQ PUSH2 0x464 JUMPI PUSH0 DUP1 REVERT JUMPDEST POP JUMP JUMPDEST PUSH0 DUP2 CALLDATALOAD SWAP1 POP PUSH2 0x475 DUP2 PUSH2 0x451 JUMP JUMPDEST SWAP3 SWAP2 POP POP JUMP JUMPDEST PUSH0 DUP2 SWAP1 POP SWAP2 SWAP1 POP JUMP JUMPDEST PUSH2 0x48D DUP2 PUSH2 0x47B JUMP JUMPDEST DUP2 EQ PUSH2 0x497 JUMPI PUSH0 DUP1 REVERT JUMPDEST POP JUMP JUMPDEST PUSH0 DUP2 CALLDATALOAD SWAP1 POP PUSH2 0x4A8 DUP2 PUSH2 0x484 JUMP JUMPDEST SWAP3 SWAP2 POP POP JUMP JUMPDEST PUSH0 DUP1 PUSH1 0x40 DUP4 DUP6 SUB SLT ISZERO PUSH2 0x4C4 JUMPI PUSH2 0x4C3 PUSH2 0x419 JUMP JUMPDEST JUMPDEST PUSH0 PUSH2 0x4D1 DUP6 DUP3 DUP7 ADD PUSH2 0x467 JUMP JUMPDEST SWAP3 POP POP PUSH1 0x20 PUSH2 0x4E2 DUP6 DUP3 DUP7 ADD PUSH2 0x49A JUMP JUMPDEST SWAP2 POP POP SWAP3 POP SWAP3 SWAP1 POP JUMP JUMPDEST PUSH0 DUP2 MLOAD SWAP1 POP SWAP2 SWAP1 POP JUMP JUMPDEST PUSH0 DUP3 DUP3 MSTORE PUSH1 0x20 DUP3 ADD SWAP1 POP SWAP3 SWAP2 POP POP JUMP JUMPDEST PUSH0 JUMPDEST DUP4 DUP2 LT ISZERO PUSH2 0x523 JUMPI DUP1 DUP3 ADD MLOAD DUP2 DUP5 ADD MSTORE PUSH1 0x20 DUP2 ADD SWAP1 POP PUSH2 0x508 JUMP JUMPDEST PUSH0 DUP5 DUP5 ADD MSTORE POP POP POP POP JUMP JUMPDEST PUSH0 PUSH1 0x1F NOT PUSH1 0x1F DUP4 ADD AND SWAP1 POP SWAP2 SWAP1 POP JUMP JUMPDEST PUSH0 PUSH2 0x548 DUP3 PUSH2 0x4EC JUMP JUMPDEST PUSH2 0x552 DUP2 DUP6 PUSH2 0x4F6 JUMP JUMPDEST SWAP4 POP PUSH2 0x562 DUP2 DUP6 PUSH1 0x20 DUP7 ADD PUSH2 0x506 JUMP JUMPDEST PUSH2 0x56B DUP2 PUSH2 0x52E JUMP JUMPDEST DUP5 ADD SWAP2 POP POP SWAP3 SWAP2 POP POP JUMP JUMPDEST PUSH0 PUSH1 0x20 DUP3 ADD SWAP1 POP DUP2 DUP2 SUB PUSH0 DUP4 ADD MSTORE PUSH2 0x58E DUP2 DUP5 PUSH2 0x53E JUMP JUMPDEST SWAP1 POP SWAP3 SWAP2 POP POP JUMP JUMPDEST PUSH0 PUSH1 0x20 DUP3 DUP5 SUB SLT ISZERO PUSH2 0x5AB JUMPI PUSH2 0x5AA PUSH2 0x419 JUMP JUMPDEST JUMPDEST PUSH0 PUSH2 0x5B8 DUP5 DUP3 DUP6 ADD PUSH2 0x467 JUMP JUMPDEST SWAP2 POP POP SWAP3 SWAP2 POP POP JUMP JUMPDEST PUSH0 DUP2 MLOAD SWAP1 POP SWAP2 SWAP1 POP JUMP JUMPDEST PUSH0 DUP3 DUP3 MSTORE PUSH1 0x20 DUP3 ADD SWAP1 POP SWAP3 SWAP2 POP POP JUMP JUMPDEST PUSH0 DUP2 SWAP1 POP PUSH1 0x20 DUP3 ADD SWAP1 POP SWAP2 SWAP1 POP JUMP JUMPDEST PUSH0 DUP3 DUP3 MSTORE PUSH1 0x20 DUP3 ADD SWAP1 POP SWAP3 SWAP2 POP POP JUMP JUMPDEST PUSH0 PUSH2 0x604 DUP3 PUSH2 0x4EC JUMP JUMPDEST PUSH2 0x60E DUP2 DUP6 PUSH2 0x5EA JUMP JUMPDEST SWAP4 POP PUSH2 0x61E DUP2 DUP6 PUSH1 0x20 DUP7 ADD PUSH2 0x506 JUMP JUMPDEST PUSH2 0x627 DUP2 PUSH2 0x52E JUMP JUMPDEST DUP5 ADD SWAP2 POP POP SWAP3 SWAP2 POP POP JUMP JUMPDEST PUSH0 PUSH2 0x63D DUP4 DUP4 PUSH2 0x5FA JUMP JUMPDEST SWAP1 POP SWAP3 SWAP2 POP POP JUMP JUMPDEST PUSH0 PUSH1 0x20 DUP3 ADD SWAP1 POP SWAP2 SWAP1 POP JUMP JUMPDEST PUSH0 PUSH2 0x65B DUP3 PUSH2 0x5C1 JUMP JUMPDEST PUSH2 0x665 DUP2 DUP6 PUSH2 0x5CB JUMP JUMPDEST SWAP4 POP DUP4 PUSH1 0x20 DUP3 MUL DUP6 ADD PUSH2 0x677 DUP6 PUSH2 0x5DB JUMP JUMPDEST DUP1 PUSH0 JUMPDEST DUP6 DUP2 LT ISZERO PUSH2 0x6B2 JUMPI DUP5 DUP5 SUB DUP10 MSTORE DUP2 MLOAD PUSH2 0x693 DUP6 DUP3 PUSH2 0x632 JUMP JUMPDEST SWAP5 POP PUSH2 0x69E DUP4 PUSH2 0x645 JUMP JUMPDEST SWAP3 POP PUSH1 0x20 DUP11 ADD SWAP10 POP POP PUSH1 0x1 DUP2 ADD SWAP1 POP PUSH2 0x67A JUMP JUMPDEST POP DUP3 SWAP8 POP DUP8 SWAP6 POP POP POP POP POP POP SWAP3 SWAP2 POP POP JUMP JUMPDEST PUSH0 PUSH1 0x20 DUP3 ADD SWAP1 POP DUP2 DUP2 SUB PUSH0 DUP4 ADD MSTORE PUSH2 0x6DC DUP2 DUP5 PUSH2 0x651 JUMP JUMPDEST SWAP1 POP SWAP3 SWAP2 POP POP JUMP JUMPDEST PUSH0 DUP1 REVERT JUMPDEST PUSH0 DUP1 REVERT JUMPDEST PUSH32 0x4E487B7100000000000000000000000000000000000000000000000000000000 PUSH0 MSTORE PUSH1 0x41 PUSH1 0x4 MSTORE PUSH1 0x24 PUSH0 REVERT JUMPDEST PUSH2 0x722 DUP3 PUSH2 0x52E JUMP JUMPDEST DUP2 ADD DUP2 DUP2 LT PUSH8 0xFFFFFFFFFFFFFFFF DUP3 GT OR ISZERO PUSH2 0x741 JUMPI PUSH2 0x740 PUSH2 0x6EC JUMP JUMPDEST JUMPDEST DUP1 PUSH1 0x40 MSTORE POP POP POP JUMP JUMPDEST PUSH0 PUSH2 0x753 PUSH2 0x410 JUMP JUMPDEST SWAP1 POP PUSH2 0x75F DUP3 DUP3 PUSH2 0x719 JUMP JUMPDEST SWAP2 SWAP1 POP JUMP JUMPDEST PUSH0 PUSH8 0xFFFFFFFFFFFFFFFF DUP3 GT ISZERO PUSH2 0x77E JUMPI PUSH2 0x77D PUSH2 0x6EC JUMP JUMPDEST JUMPDEST PUSH2 0x787 DUP3 PUSH2 0x52E JUMP JUMPDEST SWAP1 POP PUSH1 0x20 DUP2 ADD SWAP1 POP SWAP2 SWAP1 POP JUMP JUMPDEST DUP3 DUP2 DUP4 CALLDATACOPY PUSH0 DUP4 DUP4 ADD MSTORE POP POP POP JUMP JUMPDEST PUSH0 PUSH2 0x7B4 PUSH2 0x7AF DUP5 PUSH2 0x764 JUMP JUMPDEST PUSH2 0x74A JUMP JUMPDEST SWAP1 POP DUP3 DUP2 MSTORE PUSH1 0x20 DUP2 ADD DUP5 DUP5 DUP5 ADD GT ISZERO PUSH2 0x7D0 JUMPI PUSH2 0x7CF PUSH2 0x6E8 JUMP JUMPDEST JUMPDEST PUSH2 0x7DB DUP5 DUP3 DUP6 PUSH2 0x794 JUMP JUMPDEST POP SWAP4 SWAP3 POP POP POP JUMP JUMPDEST PUSH0 DUP3 PUSH1 0x1F DUP4 ADD SLT PUSH2 0x7F7 JUMPI PUSH2 0x7F6 PUSH2 0x6E4 JUMP JUMPDEST JUMPDEST DUP2 CALLDATALOAD PUSH2 0x807 DUP5 DUP3 PUSH1 0x20 DUP7 ADD PUSH2 0x7A2 JUMP JUMPDEST SWAP2 POP POP SWAP3 SWAP2 POP POP JUMP JUMPDEST PUSH0 PUSH1 0x20 DUP3 DUP5 SUB SLT ISZERO PUSH2 0x825 JUMPI PUSH2 0x824 PUSH2 0x419 JUMP JUMPDEST JUMPDEST PUSH0 DUP3 ADD CALLDATALOAD PUSH8 0xFFFFFFFFFFFFFFFF DUP2 GT ISZERO PUSH2 0x842 JUMPI PUSH2 0x841 PUSH2 0x41D JUMP JUMPDEST JUMPDEST PUSH2 0x84E DUP5 DUP3 DUP6 ADD PUSH2 0x7E3 JUMP JUMPDEST SWAP2 POP POP SWAP3 SWAP2 POP POP JUMP JUMPDEST PUSH32 0x4E487B7100000000000000000000000000000000000000000000000000000000 PUSH0 MSTORE PUSH1 0x22 PUSH1 0x4 MSTORE PUSH1 0x24 PUSH0 REVERT JUMPDEST PUSH0 PUSH1 0x2 DUP3 DIV SWAP1 POP PUSH1 0x1 DUP3 AND DUP1 PUSH2 0x89B JUMPI PUSH1 0x7F DUP3 AND SWAP2 POP JUMPDEST PUSH1 0x20 DUP3 LT DUP2 SUB PUSH2 0x8AE JUMPI PUSH2 0x8AD PUSH2 0x857 JUMP JUMPDEST JUMPDEST POP SWAP2 SWAP1 POP JUMP JUMPDEST PUSH32 0x4E487B7100000000000000000000000000000000000000000000000000000000 PUSH0 MSTORE PUSH1 0x32 PUSH1 0x4 MSTORE PUSH1 0x24 PUSH0 REVERT JUMPDEST PUSH0 DUP2 SWAP1 POP DUP2 PUSH0 MSTORE PUSH1 0x20 PUSH0 KECCAK256 SWAP1 POP SWAP2 SWAP1 POP JUMP JUMPDEST PUSH0 PUSH1 0x20 PUSH1 0x1F DUP4 ADD DIV SWAP1 POP SWAP2 SWAP1 POP JUMP JUMPDEST PUSH0 DUP3 DUP3 SHL SWAP1 POP SWAP3 SWAP2 POP POP JUMP JUMPDEST PUSH0 PUSH1 0x8 DUP4 MUL PUSH2 0x93D PUSH32 0xFFFFFFFFFFFFFFFFFFFFFFFFFFFFFFFFFFFFFFFFFFFFFFFFFFFFFFFFFFFFFFFF DUP3 PUSH2 0x902 JUMP JUMPDEST PUSH2 0x947 DUP7 DUP4 PUSH2 0x902 JUMP JUMPDEST SWAP6 POP DUP1 NOT DUP5 AND SWAP4 POP DUP1 DUP7 AND DUP5 OR SWAP3 POP POP POP SWAP4 SWAP3 POP POP POP JUMP JUMPDEST PUSH0 DUP2 SWAP1 POP SWAP2 SWAP1 POP JUMP JUMPDEST PUSH0 PUSH2 0x982 PUSH2 0x97D PUSH2 0x978 DUP5 PUSH2 0x47B JUMP JUMPDEST PUSH2 0x95F JUMP JUMPDEST PUSH2 0x47B JUMP JUMPDEST SWAP1 POP SWAP2 SWAP1 POP JUMP JUMPDEST PUSH0 DUP2 SWAP1 POP SWAP2 SWAP1 POP JUMP JUMPDEST PUSH2 0x99B DUP4 PUSH2 0x968 JUMP JUMPDEST PUSH2 0x9AF PUSH2 0x9A7 DUP3 PUSH2 0x989 JUMP JUMPDEST DUP5 DUP5 SLOAD PUSH2 0x90E JUMP JUMPDEST DUP3 SSTORE POP POP POP POP JUMP JUMPDEST PUSH0 SWAP1 JUMP JUMPDEST PUSH2 0x9C3 PUSH2 0x9B7 JUMP JUMPDEST PUSH2 0x9CE DUP2 DUP5 DUP5 PUSH2 0x992 JUMP JUMPDEST POP POP POP JUMP JUMPDEST JUMPDEST DUP2 DUP2 LT ISZERO PUSH2 0x9F1 JUMPI PUSH2 0x9E6 PUSH0 DUP3 PUSH2 0x9BB JUMP JUMPDEST PUSH1 0x1 DUP2 ADD SWAP1 POP PUSH2 0x9D4 JUMP JUMPDEST POP POP JUMP JUMPDEST PUSH1 0x1F DUP3 GT ISZERO PUSH2 0xA36 JUMPI PUSH2 0xA07 DUP2 PUSH2 0x8E1 JUMP JUMPDEST PUSH2 0xA10 DUP5 PUSH2 0x8F3 JUMP JUMPDEST DUP2 ADD PUSH1 0x20 DUP6 LT ISZERO PUSH2 0xA1F JUMPI DUP2 SWAP1 POP JUMPDEST PUSH2 0xA33 PUSH2 0xA2B DUP6 PUSH2 0x8F3 JUMP JUMPDEST DUP4 ADD DUP3 PUSH2 0x9D3 JUMP JUMPDEST POP POP JUMPDEST POP POP POP JUMP JUMPDEST PUSH0 DUP3 DUP3 SHR SWAP1 POP SWAP3 SWAP2 POP POP JUMP JUMPDEST PUSH0 PUSH2 0xA56 PUSH0 NOT DUP5 PUSH1 0x8 MUL PUSH2 0xA3B JUMP JUMPDEST NOT DUP1 DUP4 AND SWAP2 POP POP SWAP3 SWAP2 POP POP JUMP JUMPDEST PUSH0 PUSH2 0xA6E DUP4 DUP4 PUSH2 0xA47 JUMP JUMPDEST SWAP2 POP DUP3 PUSH1 0x2 MUL DUP3 OR SWAP1 POP SWAP3 SWAP2 POP POP JUMP JUMPDEST PUSH2 0xA87 DUP3 PUSH2 0x4EC JUMP JUMPDEST PUSH8 0xFFFFFFFFFFFFFFFF DUP2 GT ISZERO PUSH2 0xAA0 JUMPI PUSH2 0xA9F PUSH2 0x6EC JUMP JUMPDEST JUMPDEST PUSH2 0xAAA DUP3 SLOAD PUSH2 0x884 JUMP JUMPDEST PUSH2 0xAB5 DUP3 DUP3 DUP6 PUSH2 0x9F5 JUMP JUMPDEST PUSH0 PUSH1 0x20 SWAP1 POP PUSH1 0x1F DUP4 GT PUSH1 0x1 DUP2 EQ PUSH2 0xAE6 JUMPI PUSH0 DUP5 ISZERO PUSH2 0xAD4 JUMPI DUP3 DUP8 ADD MLOAD SWAP1 POP JUMPDEST PUSH2 0xADE DUP6 DUP3 PUSH2 0xA63 JUMP JUMPDEST DUP7 SSTORE POP PUSH2 0xB45 JUMP JUMPDEST PUSH1 0x1F NOT DUP5 AND PUSH2 0xAF4 DUP7 PUSH2 0x8E1 JUMP JUMPDEST PUSH0 JUMPDEST DUP3 DUP2 LT ISZERO PUSH2 0xB1B JUMPI DUP5 DUP10 ADD MLOAD DUP3 SSTORE PUSH1 0x1 DUP3 ADD SWAP2 POP PUSH1 0x20 DUP6 ADD SWAP5 POP PUSH1 0x20 DUP2 ADD SWAP1 POP PUSH2 0xAF6 JUMP JUMPDEST DUP7 DUP4 LT ISZERO PUSH2 0xB38 JUMPI DUP5 DUP10 ADD MLOAD PUSH2 0xB34 PUSH1 0x1F DUP10 AND DUP3 PUSH2 0xA47 JUMP JUMPDEST DUP4 SSTORE POP JUMPDEST PUSH1 0x1 PUSH1 0x2 DUP9 MUL ADD DUP9 SSTORE POP POP POP JUMPDEST POP POP POP POP POP POP JUMP INVALID LOG2 PUSH5 0x6970667358 0x22 SLT KECCAK256 0xE8 0xAB PUSH28 0xDDDC52A5C19D1B454F137565C2D7F2A764F5DAAF45F825F361AB50F8 SWAP2 PUSH5 0x736F6C6343 STOP ADDMOD AND STOP CALLER "
				},
				"gasEstimates": {
					"creation": {
						"codeDepositCost": "589400",
						"executionCost": "623",
						"totalCost": "590023"
					},
					"external": {
						"createTweet(string)": "infinite",
						"getAllTweets(address)": "infinite",
						"getTweet(address,uint256)": "infinite",
						"tweets(address,uint256)": "infinite"
					}
				},
				"methodIdentifiers": {
					"createTweet(string)": "7c9cd2bc",
					"getAllTweets(address)": "12e7ee1c",
					"getTweet(address,uint256)": "112f54e3",
					"tweets(address,uint256)": "05a1b4a9"
				}
			},
			"storageLayout": {
				"storage": [
					{
						"astId": 6,
						"contract": "contracts/Twitter.sol:Twitter",
						"label": "tweets",
						"offset": 0,
						"slot": "0",
						"type": "t_mapping(t_address,t_array(t_string_storage)dyn_storage)"
					}
				],
				"types": {
					"t_address": {
						"encoding": "inplace",
						"label": "address",
						"numberOfBytes": "20"
					},
					"t_array(t_string_storage)dyn_storage": {
						"base": "t_string_storage",
						"encoding": "dynamic_array",
						"label": "string[]",
						"numberOfBytes": "32"
					},
					"t_mapping(t_address,t_array(t_string_storage)dyn_storage)": {
						"encoding": "mapping",
						"key": "t_address",
						"label": "mapping(address => string[])",
						"numberOfBytes": "32",
						"value": "t_array(t_string_storage)dyn_storage"
					},
					"t_string_storage": {
						"encoding": "bytes",
						"label": "string",
						"numberOfBytes": "32"
					}
				}
			},
			"userdoc": {
				"kind": "user",
				"methods": {},
				"version": 1
			}
		}
	}
}